:100000000C94AF1B0C94E01B0C94E01B0C94E01BB5
:100010000C94E01B0C94E01B0C94E01B0C94E01B74
:100020000C94E01B0C94E01B0C94E01B0C94E01B64
:100030000C94E01B0C945F930C94E01B0C94E01B5D
:100040000C94E01B0C94389D0C94E01B0C94E01B6A
:100050000C94E01B0C94E01B0C9486980C948095F7
:100060000C94E01B0C94168F0C940C8F0C94E01BDA
:100070000C94E01B0C94E01B0C94E01B0C94E01B14
:100080000C9440710C94E01B0C94E01B0C94E01B4E
:100090000C94E01B0C94E01B0C94E01B0C94E01BF4
:1000A0000C94E01B0C94E01B0C9412710C94E01B5C
:1000B0000C94E01B0C94E01B0C94E01B0C94E4707B
:1000C0000C94E01B0C94E01B0C94E01B0C94E01BC4
:1000D0000C94E01B0C94E01B0C94E01B0C94E01BB4
:1000E0000C94E01B084AD73B3BCE016E84BCBFFD9D
:1000F000C12F3D6C74319ABD56833DDA3D00C77FF8
:1001000011BED9E4BB4C3E916BAAAABE0000008090
:100110003F05A84CCDB2D44EB93836A9020C50B91F
:10012000918688083CA6AAAA2ABE000000803F004B
:100130000D9467054E414E494E495459494E46CD9E
:10014000CCCC3D0AD7233C17B7D13877CC2B32958E
:1001500095E6241FB14F0A000020410000C842006C
:10016000401C4620BCBE4CCA1B0E5AAEC59D740036
:10017000407A10F35A00A0724E18090010A5D4E876
:100180000000E87648170000E40B54020000CA9A09
:100190003B000000E1F5050000809698000000405B
:1001A000420F000000A086010000001027000000A0
:1001B00000E803000000006400000000000A0000E6
:1001C0000000000100000000002C76D888DC674F9A
:1001D0000823DFC1DFAE59E1B1B796E5E3E453C6CA
:1001E0003AE651997696E8E6C28426EB898C9B62C2
:1001F000ED407C6FFCEFBC9C9F40F2BAA56FA5F46C
:1002000090055A2AF75C936B6CF9676DC11BFCE093
:10021000E40D47FEF520E6B500D0ED902E030094E6
:100220003577050080841E080000204E0A0000007B
:10023000C80C333333330F986E12831141EF8D2185
:1002400014893BE65516CFFEE6DB18D1844B381BEC
:10025000F77C1D901DA4BBE424203284725E2281B1
:1002600000C9F124ECA1E53D27554E4C4F414420F7
:1002700046494C414D454E54004C4F41442046495F
:100280004C414D454E540046494C414D454E54203D
:100290004348414E4745004572726F72207772693C
:1002A00074696E6720746F20454550524F4D210A86
:1002B00000363726033C3D380E2E303E121A1C18ED
:1002C00008440AFF4308090001627573793A2070F7
:1002D000617573656420666F7220696E7075740A4B
:1002E00000627573793A2070617573656420666F7A
:1002F0007220757365720A00627573793A207072A4
:100300006F63657373696E670A004D363030005352
:10031000544F505045442E20005072696E746572DF
:100320002073746F707065642064756520746F202D
:100330006572726F72732E2046697820746865202A
:100340006572726F7220616E6420757365204D391D
:10035000393920746F20726573746172742E20288D
:1003600054656D7065726174757265206973207271
:10037000657365742E2053657420697420616674FA
:1003800065722072657374617274696E67290A0000
:100390004E6F20436865636B73756D207769746871
:1003A000206C696E65206E756D6265722C204C61E3
:1003B0007374204C696E653A2000636865636B73E3
:1003C000756D206D69736D617463682C204C617369
:1003D00074204C696E653A20004C696E65204E753C
:1003E0006D626572206973206E6F74204C61737446
:1003F000204C696E65204E756D6265722B312C2024
:100400004C617374204C696E653A20004D31313077
:10041000002121204B494C4C206361757365642099
:100420006279204B494C4C20627574746F6E2F704A
:10043000696E0A002121204B494C4C206361757381
:10044000656420627920746F6F206D756368206920
:100450006E6163746976652074696D65202D206313
:10046000757272656E7420636F6D6D616E643A2093
:1004700000506C656173652052657365740050525D
:10048000494E5445522048414C5445440025533A66
:10049000202553004B494C4C45442E200050726996
:1004A0006E7465722068616C7465642E206B696C73
:1004B0006C28292063616C6C6564210A0053544FD9
:1004C000505045442E20005072696E74657220733E
:1004D000746F707065642064756520746F20657238
:1004E000726F72732E204669782074686520657279
:1004F000726F7220616E6420757365204D393939D1
:1005000020746F20726573746172742E2028546594
:100510006D706572617475726520697320726573A0
:1005200065742E2053657420697420616674657249
:100530002072657374617274696E67290A0065635D
:10054000686F3A004572726F723A0042696C696E68
:10055000656172204C6576656C696E6720477269CB
:10056000643A0A0053756264697669646564207749
:10057000697468204341544D554C4C20524F4D20D6
:100580004C6576656C696E6720477269643A0A004B
:1005900021212053544F502063616C6C65642062AC
:1005A000656361757365206F6620424C546F756397
:1005B00068206572726F72202D207265737461728B
:1005C000742077697468204D3939390A0021212057
:1005D00053544F502063616C6C65642062656361A5
:1005E000757365206F6620424C546F756368206593
:1005F00072726F72202D207265737461727420772D
:10060000697468204D3939390A00486F74656E6421
:1006100020746F6F20636F6C640A004F46460A00B7
:1006200046616465204865696768742000426564B6
:10063000204C6576656C696E6720004661696C6563
:100640006420746F20656E61626C65204265642071
:100650004C6576656C696E670A00496E76616C69F7
:1006600064206D6573682E0A0050726F62696E6750
:1006700020506F696E740025532025692F2569006D
:100680002E0A002F0050726F62696E67206D6573CD
:100690006820706F696E74200020284452595255AA
:1006A0004E2900473239204175746F20426564201D
:1006B0004C6576656C696E67003F20284C2C522C87
:1006C000462C4229206F7574206F6620626F756E0C
:1006D00064732E0A003F2856296572626F73652085
:1006E0006C6576656C20696D706C61757369626CA0
:1006F000652028302D34292E0A00426164205A20BA
:1007000076616C75650A004E6F2062696C696E6572
:10071000617220677269640A004D3630303A2054A5
:100720006F6F20436F6C6400486F74656E64207453
:100730006F6F20636F6C640A00496E73657274207A
:1007400066696C616D656E7420616E64207072659F
:10075000737320627574746F6E0A005072657373E0
:1007600020627574746F6E20746F206865617420E8
:100770006E6F7A7A6C650A0020496E76616C6964E6
:1007800020657874727564657220004361703A0068
:1007900047322F47332062616420706172616D655A
:1007A000746572730A00526573656E643A200025A1
:1007B00069730025696D2025697300256968202506
:1007C000696D2025697300256964202569682025E5
:1007D000696D2025697300256979202569642025C4
:1007E00069682025696D202569730020573A004209
:1007F000656420436F6F6C696E672E2E2E00426514
:10080000642048656174696E672E2E2E002364652E
:1008100066696E652044454641554C545F004B6403
:1008200020004B6920004B70200050494420417546
:10083000746F74756E652066696E6973686564218E
:100840002050757420746865206C617374204B703F
:100850002C204B6920616E64204B6420636F6E73A3
:1008600074616E74732066726F6D2062656C6F7751
:1008700020696E746F20436F6E666967757261746C
:10088000696F6E2E680A00504944204175746F7478
:10089000756E65206661696C6564212074696D659B
:1008A0006F75740A00504944204175746F74756EF9
:1008B00065206661696C6564212054656D706572A0
:1008C000617475726520746F6F20686967680A00CB
:1008D000204B643A2000204B693A2000204B703AAC
:1008E00020000A20436C61737369632050494420DF
:1008F0000A002054753A2000204B753A2000206DE4
:1009000061783A2000206D696E3A200020643A2018
:100910000020626961733A20005049442041757497
:100920006F74756E652073746172740A0050494467
:10093000204175746F74756E65206661696C6564BD
:10094000212054656D706572617475726520746FD5
:100950006F20686967680A00504944204175746FC8
:1009600074756E65206661696C65642120426164FE
:10097000206578747275646572206E756D6265723B
:100980000A004572723A207574663820666F6E747C
:10099000206E6F7420696E697469616C697A656430
:1009A0002E004572723A207574663820666F6E7438
:1009B000206E6F7420696E697469616C697A656410
:1009C0002E004572723A207574663820666F6E7418
:1009D000206E6F7420696E697469616C697A6564F0
:1009E0002E004C6F6164206D6D00556E6C6F6164FC
:1009F000206D6D0046696C2E204469612E004520F3
:100A0000696E206D6DC2B3002008204661637400DA
:100A10002008204D6178002008204D696E004F6647
:100A200066004F6E004175746F74656D70005654AA
:100A3000726176204D696E00566D696E00566D616B
:100A400078204500566D6178205A00566D617820F7
:100A50005900566D6178205800416D61782045003D
:100A6000416D6178205A00416D6178205900416DD7
:100A70006178205800412D54726176656C00412DDB
:100A80005265747261637400416363656C004A75FA
:100A90006E6374696F6E204465760050726F626594
:100AA000205A204F66667365740050726F6265202D
:100AB00059204F66667365740050726F62652058E6
:100AC000204F6666736574004573746570732F6D8F
:100AD0006D005A73746570732F6D6D005973746572
:100AE00070732F6D6D005873746570732F6D6D008A
:100AF000416476616E6365642053657474696E67E2
:100B000073003F0043616E63656C00496E69740059
:100B10004D34323800496E697469616C697A6520B8
:100B2000454550524F4D0046696C616D656E7400CD
:100B300054656D706572617475726500537465708B
:100B4000732F6D6D0050726F6265204F666673651E
:100B50007473004A65726B00416363656C65726112
:100B600074696F6E0056656C6F63697479005365C4
:100B70007420486F6D65204F66667365747300431B
:100B80006F6E66696775726174696F6E003F004EC3
:100B900065787420436F726E657200446F6E6500F5
:100BA0004E65787400486F6D696E672058595A0019
:100BB00053746F72652053657474696E6773004C6B
:100BC0006F61642053657474696E6773004C657659
:100BD000656C20436F726E6572730050726F626550
:100BE000205A204F6666736574004661646520482C
:100BF0006569676874004F6666004F6E0042656401
:100C0000204C6576656C696E67004732380A47325A
:100C10003900473239004C6576656C2042656400C6
:100C20004175746F20486F6D65004D6F74696F6E0C
:100C300000436D643A2053746F7700436D643A202B
:100C40004465706C6F7900436D643A2053572D4DA5
:100C50006F646500436D643A2053656C662D54657E
:100C6000737400436D643A20526573657400426585
:100C700064004E6F7A7A6C650046616E2053706531
:100C8000656400436F6E66696775726174696F6E43
:100C9000004C6F61642053657474696E6773005211
:100CA0006573746F72652044656661756C7473005A
:100CB00053746F72652053657474696E6773005066
:100CC0007265686561742041425320436F6E66000F
:100CD0005072656865617420504C4120436F6E66A8
:100CE000004F6666004F6E0052756E6F757420532C
:100CF000656E736F7200424C546F7563680050727A
:100D00006F6265205A204F66667365740041647691
:100D1000616E6365642053657474696E6773004D1A
:100D200061696E004D37303220542564004D3630F5
:100D30003020423020542564004D373032203B258E
:100D400064004D3730312054256400220A00656E5E
:100D50007175657565696E672022004D3730320008
:100D60004D373031004D363030204230004D616912
:100D70006E004F6666004F6E0052756E6F75742080
:100D800053656E736F72005075726765206D6F7278
:100D90006500436F6E74696E756500524553554D1D
:100DA00045204F5054494F4E533A005052494E54EB
:100DB000205041555345440020204E6F7A7A6C658F
:100DC0003A20005061726B696E672E2E2E00000073
:100DD0005761697420666F720066696C616D656E3B
:100DE00074206368616E676500746F20737461724C
:100DF00074005761697420666F720066696C616D7A
:100E0000656E7420756E6C6F616400004E6F7A7A47
:100E10006C652068656174696E6700506C6561730C
:100E20006520776169742E2E2E00005072657373F1
:100E300020627574746F6E00746F20686561742031
:100E40006E6F7A7A6C650000496E73657274206605
:100E5000696C616D656E7400616E6420707265739B
:100E60007320627574746F6E00746F20636F6E749C
:100E7000696E7565005761697420666F72006669F6
:100E80006C616D656E74206C6F61640000507265FA
:100E9000737320427574746F6E00746F2072657383
:100EA000756D65207072696E7400005761697420F9
:100EB000666F72207072696E7400746F2072657351
:100EC000756D652E2E2E00005761697420666F7255
:100ED0000066696C616D656E74207075726765007F
:100EE000004368616E67652046696C616D656E746C
:100EF00000436F6E66696775726174696F6E005446
:100F0000656D7065726174757265004D6F74696F9F
:100F10006E0054756E6500496E666F20536372658E
:100F2000656E004D6F74696F6E004D383400446912
:100F30007361626C652053746570706572730042F2
:100F40006564204C6576656C696E670047323800D1
:100F50004175746F20486F6D65004D61696E00507A
:100F600072656865617420504C4120426564005090
:100F700072656865617420504C4120456E64005074
:100F80007265686561742041425320456E6400506B
:100F90007265686561742041425320426564005463
:100FA000656D706572617475726500436F6F6C6416
:100FB0006F776E005072656865617420414253001E
:100FC0005072656865617420504C410046616E2026
:100FD000537065656400426564004E6F7A7A6C6593
:100FE000004D61696E004261627973746570205AC8
:100FF00000466C6F770046616E2053706565640033
:10100000426564004E6F7A7A6C6500537065656462
:10101000004D61696E00202020202020200020202B
:101020002020001FE0201020102010102010202071
:1010300010201030300840048003001FE03FF03FD4
:10104000F03FF01FE01FE03FF03FF03FF00FC00720
:101050008003003FFFF038007030FC3020FC10208F
:1010600078102030102C00D02E31D02F7BD02F7B49
:10107000D02E31D02C00D020301020781020FC1041
:1010800030FC303800703FFFF03FFFF03800703127
:1010900086302387102787902F87D02F03D02030CA
:1010A000102078102078102030102F03D02F87D0F8
:1010B0002787902387103186303800703FFFF01F5C
:1010C000FFF81FFFF8041040020820020820041057
:1010D000400820801041001041000820800410408A
:1010E0000000001FFFF81FFFF800006643000052D9
:1010F0004300007A43000050C1000050C1000000CE
:1011000000000C0D00FE07022603BC017FFE08FE56
:1011100008FE05080806000040F0C8888898781086
:10112000050808060000C0F88888888888F8050542
:10113000050600012030F8302005080806000020D0
:1011400070F820202020E00509090600FF2070A883
:10115000A8B888887020050606060001E08CEA8C95
:101160008A0A0509090600FFF8A88888888888A8DF
:10117000F8050A0A0600FE205050505088A8A8889A
:101180007003030306000340A040FFFFFFFFFFFFC3
:10119000FFFFFFFFFFFFFFFFFFFFFFFFFFFFFFFF5F
:1011A0000000000605FF010707060200808080801E
:1011B000800080030303060105A0A0A00506060623
:1011C000000050F85050F8500509090600FF207043
:1011D000A8A07028A87020050707060000C8C8103E
:1011E0002040989805070706000040A0A040A8905E
:1011F000680103030602058080800309090601FFD8
:101200002040408080804040200309090601FF8083
:10121000404020202040408005070706000020A80D
:10122000702070A8200505050600012020F8202068
:101230000203030601FFC04080050101060003F818
:10124000020202060100C0C00507070600000810E0
:101250001020404080050707060000708898A8C845
:10126000887003070706010040C040404040E00589
:101270000707060000708808102040F805070706D9
:101280000000F808103008887005070706000010F5
:10129000305090F81010050707060000F880F0089D
:1012A000088870050707060000304080F0888870C5
:1012B000050707060000F808101020202005070782
:1012C000060000708888708888700507070600008F
:1012D00070888878081060020505060100C0C0000B
:1012E000C0C00206060601FFC0C000C04080030562
:1012F000050601012040804020050303060002F896
:1013000000F803050506010180402040800507071D
:101310000600007088102020002005070706000046
:101320007088B8A8B8807005070706000070888824
:10133000F8888888050707060000F0484870484884
:10134000F005070706000070888080808870050718
:1013500007060000F04848484848F005070706001F
:1013600000F88080F08080F8050707060000F8800C
:1013700080F08080800507070600007088808098D4
:101380008870050707060000888888F88888880321
:101390000707060100E04040404040E0050707061F
:1013A0000000381010101090600507070600008834
:1013B00090A0C0A09088050707060000808080806C
:1013C0008080F805070706000088D8A888888888E4
:1013D0000507070600008888C8A8988888050707B9
:1013E0000600007088888888887005070706000056
:1013F000F08888F0808080050707060000708888E4
:1014000088A89068050707060000F08888F0A0907B
:101410008805070706000070888070088870050737
:1014200007060000F82020202020200507070600DE
:1014300000888888888888700507070600008888E3
:10144000888850502005070706000088888888A8EB
:10145000A850050707060000888850205088880596
:10146000070706000088885020202020050707066F
:101470000000F80810204080F80309090601FFE089
:1014800080808080808080E0050707060000804023
:1014900040201010080309090601FFE02020202049
:1014A000202020E0050303060005205088050101E7
:1014B0000600FEF80303030601058040200505052C
:1014C000060000700878887805070706000080800D
:1014D000F0888888F0050505060000708080887017
:1014E000050707060000080878888888780505053C
:1014F0000600007088F0807005070706000030487D
:1015000040E04040400507070600FE708888887864
:1015100008700507070600008080F0888888880327
:1015200007070601004000C0404040E004090906EA
:1015300001FE100030101010109060050707060023
:101540000080808890E09088030707060100C04073
:1015500040404040E0050505060000D0A8A8A8A826
:10156000050505060000B0C8888888050505060041
:101570000070888888700507070600FEF088888854
:10158000F080800507070600FE78888888780808BC
:10159000050505060000B0C8808080050505060029
:1015A0000078807008F00507070600002020F8206A
:1015B000202018050505060000888888986805051C
:1015C000050600008888885020050505060000886B
:1015D00088A8A850050505060000885020508805F9
:1015E00007070600FE88888850204080050505060C
:1015F0000000F8102040F80309090601FF204040D0
:101600004080404040200109090602FF8080808020
:1016100080808080800309090601FF8040404020CF
:101620004040408005030306000248A890FF290AB5
:10163000002062797465733B2063726320005365F8
:101640007474696E67732053746F72656420280028
:10165000454550524F4D206461746173697A65202D
:101660006572726F722E0A00290A00206279746511
:10167000733B2063726320002073746F7265642073
:1016800073657474696E67732072657472696576C8
:101690006564202800202863616C63756C61746543
:1016A0006429210A0020213D2000454550524F4D1C
:1016B00020435243206D69736D61746368202D204F
:1016C0002873746F7265642920002053697A653A23
:1016D0002000496E6465783A2000204D61726C6983
:1016E0006E3D563736290A00454550524F4D2076FB
:1016F000657273696F6E206D69736D6174636820C4
:1017000028454550524F4D3D00454550524F4D20C4
:10171000496E697469616C697A65640A004861722E
:1017200064636F6465642044656661756C742053FE
:10173000657474696E6773204C6F616465640A0038
:1017400000009643000096430000A0400000C841FE
:101750000000A0420000A042000048440000B04247
:101760002C0100002C01000064000000900100002A
:101770003B20003A0A0020204D3630332000202044
:101780004D34313220530046696C616D656E7420B2
:1017900072756E6F75742073656E736F723A002088
:1017A00055004C0046696C616D656E74206C6F610C
:1017B000642F756E6C6F6164206C656E67746873FE
:1017C0003A0020204D3835312058005A2D50726F84
:1017D0006265204F666673657400204400204900EE
:1017E00020204D333031205000504944207365741F
:1017F00074696E67733A002046002042002048005A
:1018000020204D3134352053004D6174657269617B
:101810006C2068656174757020706172616D6574AB
:101820006572733A00204A00202047323920572041
:10183000490020204D3432302053004175746F2010
:10184000426564204C6576656C696E673A002020BD
:101850004D323036205800486F6D65206F666673D4
:1018600065743A00204A0020530020204D32303564
:10187000204200416476616E6365643A20423C6DAB
:10188000696E5F7365676D656E745F74696D655FC2
:1018900075733E20533C6D696E5F66656564726169
:1018A00074653E20543C6D696E5F74726176656C40
:1018B0005F66656564726174653E204A3C6A756E58
:1018C000635F6465763E0020520020204D32303444
:1018D000205000416363656C65726174696F6E20AE
:1018E00028756E6974732F7332293A20503C7072D8
:1018F000696E745F616363656C3E20523C7265740F
:10190000726163745F616363656C3E20543C747202
:101910006176656C5F616363656C3E0020204D32CB
:1019200030312058004D6178696D756D20416363D9
:10193000656C65726174696F6E2028756E69747369
:101940002F7332293A0020204D3230332058004D79
:101950006178696D756D2066656564726174657323
:101960002028756E6974732F73293A00537465705B
:10197000732070657220756E69743A0020204D32B4
:1019800030302044300A0020204D323030204400D6
:101990002044697361626C65640A0046696C616D1C
:1019A000656E742073657474696E67733A002020E5
:1019B0004D3134392043203B20556E6974732069C2
:1019C0006E2043656C736975730A0020286D6D295C
:1019D000002020473231202020203B20556E6974A2
:1019E0007320696E206D6D006F70656E00545249F2
:1019F000474745524544003A200066696C616D6571
:101A00006E74007A5F6D696E00795F6D696E007843
:101A10005F6D696E005265706F7274696E672065E4
:101A20006E6473746F70207374617475730A002030
:101A3000746F6F206C6F6E67206578747275736950
:101A40006F6E2070726576656E7465640A0020633F
:101A50006F6C6420657874727573696F6E20707234
:101A60006576656E7465640A00486F6D696E6720FF
:101A70004661696C6564000000484200004842000D
:101A80000080405761726E696E673A20486F6D69D9
:101A90006E672042756D702044697669736F72209D
:101AA0003C20310A000202040000A0400000A040D7
:101AB000000000400000734300005F4300007A43D1
:101AC0000000000100000001000080005555550095
:101AD0000000400033333300AAAA2A0049922400B0
:101AE00000002000C7711C0099991900D14517000A
:101AF000555515003BB11300244912001111110076
:101B0000000010000F0F0F00E3380E0043790D00A6
:101B1000CCCC0C00C3300C00E8A20B0064210B00FD
:101B2000AAAA0A00703D0A009DD80900427B09005C
:101B300092240900DCD308008888080010420800BD
:101B400000000800F0C107008787070075500700F4
:101B5000711C07003EEB0600A1BC06006990060060
:101B600066660600703E06006118060017F4050060
:101B700074D105005BB00500B290050062720500EB
:101B80005555050078390500B81E05000505050006
:101B90004EEC040087D40400A1BD040090A704000B
:101BA00049920400C17D0400EE690400C756040098
:101BB000444404005C320400082104004110040085
:101BC000000004003FF00300F8E0030026D2030009
:101BD000C3C30300CCB503003AA803000A9B03006B
:101BE000388E0300C08103009F750300D069030095
:101BF000505E03001D53030034480300913D030071
:101C00003333030016290300381F03009715030020
:101C1000300C0300030303000BFA020049F1020039
:101C2000BAE802005CE002002DD802002DD00200CC
:101C300059C80200B0C0020031B90200DAB1020096
:101C4000AAAA0200A0A30200BC9C0200FA9502000E
:101C50005C8F0200DF88020082820200457C020065
:101C60002776020027700200436A02007C640200AB
:101C7000D05E02003F590200C8530200FFFDFCFA8B
:101C8000F8F6F4F2F0EEECEAE9E7E5E3E1E0DEDCB9
:101C9000DAD9D7D5D4D2D0CFCDCBCAC8C7C5C3C265
:101CA000C0BFBDBCBAB9B7B6B4B3B2B0AFADACAAE1
:101CB000A9A8A6A5A4A2A1A09E9D9C9A9998979533
:101CC000949392908F8E8D8B8A8988878684838265
:101CD00081807F7E7D7B7A79787776757473727177
:101CE000706F6E6D6C6B6A6968676665646362616C
:101CF000605F5E5D5C5B5A59585857565554535255
:101D00005150504F4E4D4C4B4A4A49484746464524
:101D10004443424241403F3E3E3D3C3B3B3A3938E2
:101D20003837363535343332323130302F2E2E2D90
:101D30002C2B2B2A29292827272625252423232233
:101D4000212120201F1E1E1D1C1C1B1B1A191918C7
:101D500018171616151514131312121111100F0F50
:101D60000E0E0D0D0C0C0B0A0A09090808070706D0
:101D700006050504040303020201000024F4D43024
:101D800050C38E20C2A24017828B7011127A910D1F
:101D9000816CD90AA861E108C758660761514306FA
:101DA0001E4B5D05C145A7041A411104093D980366
:101DB000713931034036DB0265339102D43054026D
:101DC000802E1D02632CEE01752AC501B028A001EA
:101DD000102781018F2564012B244B01E02234015F
:101DE000AC211F018D200D01801FFC00841EED0021
:101DF000971DDF00B81CD200E61BC600201BBC00EC
:101E0000641AB200B219A8000A19A0006A18990051
:101E1000D117910040178B00B516840031167E0053
:101E2000B31579003A157300C7146F0058146A008F
:101E3000EE1366008813630025135E00C7125B0073
:101E40006C12570015125400C111510070114F004F
:101E500021114B00D61049008D1047004610440058
:101E600002104200C00F4000800F3E00420F3C00B5
:101E7000060F3B00CB0E3800930E37005C0E35008A
:101E8000270E3400F30D3200C10D3100900D3000EB
:101E9000600D2E00320D2D00050D2C00D90C2B00ED
:101EA000AE0C2900850C29005C0C2700350C27009E
:101EB0000E0C2600E80B2400C40B2400A00B23000A
:101EC0007D0B23005A0B2100390B2100180B200039
:101ED000F80A1F00D90A1E00BB0A1E009D0A1D0039
:101EE000800A1D00630A1C00470A1B002C0A1B0005
:101EF000110A1A00F7091A00DD091900C4091900AE
:101F0000AB091900920917007B0918006309170033
:101F10004C09160036091600200916000A0915009A
:101F2000F5081500E0081400CC081400B8081400E7
:101F3000A4081400900813007D0812006B08130019
:101F40005808120046081200340811002308110036
:101F50001208110001081100F0071000E00710003E
:101F6000D0071000C0071000B0070F00A107100035
:101F700091070E0083070F0074070F0065070E001E
:101F800057070E0049070E003B070D002E070E00F5
:101F900020070D0013070D0006070D00F9060C00C1
:101FA000ED060D00E0060C00D4060C00C8060C007F
:101FB000BC060C00B0060C00A4060B0099060C0031
:101FC0008D060B0082060B0077060B006C060B00DB
:101FD00061060A0057060B004C060A0042060A007A
:101FE00038060A002E060A0024060A001A060A000D
:101FF0001006090007060A00FD050900F40509009E
:10200000EB050900E2050900D9050900D005090022
:10201000C7050900BE050900B5050800AD050800A3
:10202000A50509009C050800940508008C0508001A
:10203000840508007C050800740508006C0507008D
:10204000650508005D050700560508004E050700F8
:10205000470507004005080038050700310507005F
:102060002A050700230507001C05060016050700C2
:102070000F0507000805060002050700FB0406001F
:10208000F5040700EE040600E8040600E204070079
:10209000DB040600D5040600CF040600C9040600D0
:1020A000C3040600BD040600B7040600B104050021
:1020B000AC040600A6040600A00405009B0406006C
:1020C00095040500900406008A04050085040500B7
:1020D000800406007A0405007504050070040500FC
:1020E0006B04050066040500610405005C0405003E
:1020F00057040500520405004D040500480405007E
:10210000430405003E0404003A04050035040500BC
:10211000300404002C0405002704040023040500F7
:102120001E0404001A04040016040500110404002F
:102130000D04040009040500040404000004040064
:10214000FC030400F8030400F4030400F00304009B
:10215000EC030400E8030400E4030400E0030400CB
:10216000DC030400D8030400D4030400D0030400FB
:10217000CC030400C8030300C503030024F404D9FE
:10218000201BC40C5C0E9804C4095F026507710132
:10219000F405F900FB04B30048048700C10369009B
:1021A0005803550003034500BE023A008402310083
:1021B00053022A002902250004022000E4011C0029
:1021C000C8011900AF011700980114008401130021
:1021D000710110006101100051010E0043010D005A
:1021E00036010B002B010B0020010B00150109002B
:1021F0000C01090003010800FB000800F3000800BF
:10220000EB000700E4000600DE000600D800060030
:10221000D2000600CC000500C7000500C200050082
:10222000BD000400B9000400B5000400B1000400C2
:10223000AD000400A9000400A5000300A2000300F3
:102240009F0004009B00030098000300950002001B
:1022500093000300900003008D0002008B00030038
:102260008800020086000200840003008100020052
:102270007F0002007D0002007B0002007900020066
:102280007700010076000200740002007200010075
:10229000710002006F0002006D0001006C0002007E
:1022A0006A00010069000200670001006600010089
:1022B000650001006400020062000100610001008D
:1022C000600001005F0002005D0001005C00010091
:1022D0005B0001005A000100590001005800010094
:1022E0005700010056000100550001005400010094
:1022F0005300000053000100520001005100010092
:10230000500001004F0001004E0000004E0001008F
:102310004D0001004C0001004B0000004B0001008B
:102320004A00010049000100480000004800010087
:102330004700010046000000460001004500000083
:10234000450001004400010043000000430001007B
:102350004200000042000100410000004100010075
:10236000400001003F0000003F0001003E0000006F
:102370003E0001003D0000003D0001003C00000067
:102380003C0000003C0001003B0000003B0001005D
:102390003A0000003A000100390000003900010055
:1023A000380000003800000038000100370000004D
:1023B0003700010036000000360000003600010042
:1023C0003500000035000000350001003400000039
:1023D000340000003400010033000000330000002E
:1023E0003300010032000000320000003200010022
:1023F0003100000031000000310001003000000019
:1024000030000000300001002F0000002F0000000D
:102410002F0000002F0001002E0000002E00000001
:102420002E0001002D0000002D0000002D000000F6
:102430002D0001002C0000002C0000002C000000EA
:102440002C0001002B0000002B0000002B000000DE
:102450002B0001002A0000002A0000002A000000D2
:102460002A000100290000002900000029000000C6
:1024700029000000290001002800000028000000B9
:1024800028000000280000002800010027000000AC
:10249000270000002700000027000000270001009F
:1024A0002600000026000000260000002600000094
:1024B0002600010025000000250000002500000086
:1024C0002500000025000000250001002400000078
:1024D000240000002400000024000000240001006B
:1024E0002300000023000000230000002300000060
:1024F0002300000023000000230001002200000050
:102500002200000022000000220000002200000043
:102510002200010021000000210000002100000035
:102520002100000021000000210000002100010026
:10253000200000002000000020000000200000001B
:10254000200000002000000020000000200001000A
:102550001F0000001F0000001F0000001F000000FF
:102560001F0000001F0000001F0001001E000000EF
:102570001E0000001E0000001E0000003930000098
:102580003325000087190000B00F0000DB080000B1
:10259000BD040000740200003F01000020436F757D
:1025A0006E7420583A0042656400453100626564EB
:1025B000002C2073797374656D2073746F7070656F
:1025C0006421204865617465725F49443A2000487F
:1025D000656174696E67204661696C656400486571
:1025E0006174696E67206661696C6564004572722A
:1025F0003A204D415854454D50004D415854454D99
:102600005020747269676765726564004572723A3A
:10261000204D494E54454D50004D494E54454D5066
:102620002074726967676572656400202800202F36
:10263000002042403A0020403A0020573A00000073
:102640002100240027002A002D0030003300010162
:102650000000040107010A010000220025002800F3
:102660002B002E003100340002010000050108019A
:102670000B01000020002300260029002C002F0061
:1026800032000001000003010601090105050505EE
:10269000070508080808020202020A0A08080404DA
:1026A0000404010101010101010103030303030308
:1026B0000303040707070C0C0C0C0C0C0C0C020297
:1026C000020206060606060606060B0B0B0B0B0B94
:1026D0000B0B010210202008081020401020408021
:1026E00002010201080402010102040810204080D6
:1026F0008040201008040201800402018040201064
:1027000008040201080402010102040810204080AC
:10271000010204081020408000000A0B02090C0D81
:102720000E08070304010000000000000000000084
:102730000000000000000000000000000000000099
:102740000000000012111000000000000000000056
:102750000000000000000000000000000000020077
:102760000000000000000000000000000000000069
:102770000000000000000000000000000000000059
:102780000000000000000000000000000000000049
:102790000000000000000000000000000000000039
:1027A0000000000000000000000000000000000029
:1027B0000000000000000000000000000000000019
:1027C0000001C00E0000000000000000000000003A
:1027D000003FC1FE000000000000000000000000FB
:1027E00007FFDFFE00000000000000000000000006
:1027F0007FFFFFFE00000000000000000000000F4F
:10280000FFFFFFFE00000000000000000000000FBE
:10281000FFFFFFFE00000000000000000000000FAE
:10282000FFFFFFFE00000000000000000000000F9E
:10283000FFFFFFFE00000000000000000000000F8E
:10284000FFFFF88E00000000000000000000000FF5
:10285000FFFFC00E00000000000000000000000F9D
:10286000C3FF800E0200400C018086022000000F92
:10287000C3FF030E0180700700C0C3FE3FE0000FDE
:10288000E3FF0F8E03C0700700C183063030000FD6
:10289000E3FF1FFE03C0700700C303043030000FC6
:1028A000E3FE1FFE03C0700D80C603003030000F32
:1028B000E3FE1FFE03C0F00980CC03003030000FA0
:1028C000E3FE1F3E0360980880D803003030000FFD
:1028D000E3FE1F0E03619818C0FC03F838E0000FF8
:1028E000E3FE1F0E02219818C0FC03003FC0000F3A
:1028F000E3FE1F8E0631183FE0C6030030C0000F14
:10290000E3FE1F8E0633183060C6030030C0000F90
:10291000E3FF0F0E0613186030C303003060000F92
:10292000E3FF020E061E186030C383003070000FF4
:10293000E3FF800E060C18E030C183043030000F36
:10294000E3FFC00E060C0CC018C1C3FE3038000FE8
:10295000E3FFFFFE040008C0188083FE1010000F84
:10296000E3FFFFFE00000000000000000000000F79
:10297000C3FFFFFE00000000000000000000000F89
:10298000C7FFFFFE00000000000000000000000F75
:10299000CFFFFFFE00000000000000000000000F5D
:1029A000FFFFFFFE00000000000000000000000F1D
:1029B000FFFFFFFE00000000000000000000000F0D
:1029C000FFFFFFFC00000000000000000000000FFF
:1029D000FFFFFFC000000000000000000000000F2B
:1029E000FF3FF800003E0F80F001F01C03C0000F15
:1029F000E03F0000003E0F80F007FC1C0FF0000ECF
:102A000000300000003E0F81F80F1E1C1E38000031
:102A100000000000003B1B81981C081C1C1C0000CF
:102A200000000000003B1B81981C001C38000000C7
:102A300000000000003B1B839C1C001C38000000B1
:102A400000000000003913831C1C3F1C38000000EC
:102A5000000000000039B3830E1C3F1C380000004A
:102A6000000000000039B3870E1C071C380000006E
:102A7000000000000039F387FE1C071C3C1C00000E
:102A8000000000000038E38FFF0E061C1C1C000035
:102A9000000000000038E38E070FFE1C0FF8000056
:102AA000000000000038E38E0707F81C07F0000064
:102AB0000000000000000000000000000000000016
:102AC0000000000000000000000000000000000006
:102AD00000000000000000000000000000000000F6
:102AE00000000000000000000000000000000000E6
:102AF00000000000000000000000000000000000D6
:102B000000000000000000000000000000000000C5
:102B100000000000000000000000000000000000B5
:102B200000000000000000000000000000000000A5
:102B30000000000000000000000000000000000095
:102B40000000000000000000000000000000000085
:102B5000000000000000000000000000000000680D
:102B60007474703A2F2F6D61726C696E66772E6F78
:102B7000726700322E302E352E3420284D61676961
:102B8000632076302E332E32290001FFFFFFFFFF36
:102B9000FFFFFFFFFFFFFFFF0FFFFFFFFFFFFFFF35
:102BA000FFFFFFFFFFFF1E0000000000000000000D
:102BB0000007FFFF380000000000000000000003D5
:102BC000FFFF700000000000000000000001FFFF98
:102BD000600000000000000000000000FFFF600037
:102BE000000000000000000000007FFFC0000000A7
:102BF00000000000007800003FFFC00FC0FC000094
:102C00000000007818001FFFC03FE1FF0000000037
:102C100000783C000FFFC07FF3FF800000000078C9
:102C20003C0007FFC0FFFFFFC000000000783C0031
:102C300003FFC1F87F87E00000000078000001FF7B
:102C4000C1F03F03E00000000078000000FFC1E099
:102C50001E01E01F0003E0783C03F07FC1E01E018D
:102C6000E07FC00FF8783C07FC3FC1E01E01E1FFA8
:102C7000E01FFC783C0FFE1FC1E01E01E3FFF03FA8
:102C8000FE783C1FFE0FC1E01E01E3F3F83F3E78E3
:102C90003C3F3F07C1E01E01E7E0FC7C1F783C3E63
:102CA0001F07C1E01E01E7C07C7C0F783C3C0F038E
:102CB000C1E01E01E7807C780F783C3C0F03C1E047
:102CC0001E01E7803C7800783C3C0F03C1E01E0108
:102CD000E7803C7800783C3C0F03C1E01E01E780B0
:102CE0003C7800783C3C0F03C1E01E01E7C03C7813
:102CF00000783C3C0F03C1E01E01E3E03C78007C1F
:102D00003C3C0F03C1E01E01E3FF3FF8007FBC3CE9
:102D10000F03C1E01E01E1FF3FF8003FBFFC0F03BE
:102D2000C1E01E01E0FF3FF8001FBFFC0F03C1E040
:102D30001E01E07F3FF8000FBFFC0F0360000000A2
:102D4000000000000000000000076000000000001C
:102D500000000000000000067000000000000000FD
:102D600000000000000E380000000000000000001D
:102D70000000001C1E000000000000000000000019
:102D800000780FFFFFFFFFFFFFFFFFFFFFFFFFF0D8
:102D900001FFFFFFFFFFFFFFFFFFFFFFFF8020207E
:102DA000506C616E6E6572427566666572427974CA
:102DB00065733A20002046726565204D656D6F721F
:102DC000793A2000436F6D70696C65643A204A75EA
:102DD0006C20313720323032300A00204C6173745D
:102DE00020557064617465643A20323032302D3081
:102DF000372D3135207C20417574686F723A20433D
:102E000068726973746F70686572204E6F72746F48
:102E10006E0A00322E302E352E3420284D6167691F
:102E2000632076302E332E32290A004D61726C6990
:102E30006E0020536F66747761726520526573650A
:102E4000740A00205761746368646F672052657369
:102E500065740A002042726F776E206F757420527D
:102E6000657365740A002045787465726E616C2024
:102E700052657365740A00506F77657255700A0069
:102E800073746172740A00456E6473746F707300BA
:102E900025532025632025632025632025630020FA
:102EA0005A3A0020593A0020583A00656E6473740B
:102EB0006F7073206869743A2000434F4D4D554E32
:102EC00049434154494F4E0044525952554E0045D2
:102ED00052524F525300494E464F004543484F000F
:102EE0005072696E74205061757365640070012CB6
:102EF0000190012701B0012201C0011D01F001185C
:102F0000011002130130020E016002090190020457
:102F100001C002FF000003FA004003F5008003F047
:102F200000D003EB002004E6007004E100E004DCC4
:102F3000004005D700C005D2004006CD00D006C82D
:102F4000008007C3003008BE00F008B900C009B413
:102F500000B00AAF00B00BAA00D00CA500000EA074
:102F600000500F9B00C01096005012910000148C6E
:102F700000C0158700B0178200B0197D00D01B7803
:102F800000001E730040206E0090226900F024644F
:102F90000040275F0090295A00E02B5500102E506A
:102FA0000020304B0010324600E033410090353CA9
:102FB000001037370070383200A0392D00B03A28A1
:102FC00000A03B2300603C1E00103D1900903D1402
:102FD00000103E0F00703E0A00C03E0500003F009A
:102FE00000403FFBFF803FF6FFC03FF1FF4D6F7693
:102FF000652025736D6D00004D6F766520302E3194
:103000006D6D004D6F766520316D6D004D6F76658D
:103010002031306D6D004D6F766520417869730009
:10302000486F74656E6420746F6F20636F6C64000A
:103030004578747275646572004D6F7665205A002C
:103040004D6F76652059004D6F76652058004368B6
:10305000616E67652046696C616D656E7400556EC2
:103060006C6F61642046696C616D656E74004C6FB5
:1030700061642046696C616D656E740050726568AC
:103080006561742041425300507265686561742027
:10309000504C4100507265686561742043757374CB
:1030A0006F6D004261636B006F6B00496E76616CFF
:1030B00069642065787472756465720A00290A0073
:1030C00020746F20003F5A206F7574206F66207245
:1030D000616E6765202800290A0020746F20003F78
:1030E00059206F7574206F662072616E67652028A5
:1030F0002D00290A0020746F20003F58206F75743E
:10310000206F662072616E676520282D0050726FF7
:103110006265204F666673657420580045455052BD
:103120004F4D204F4B0A004F666673657473204104
:1031300070706C696564004572723A20546F6F203C
:103140006661722100546F6F206661722066726F33
:103150006D207265666572656E636520706F696E5D
:10316000740A00FFFFFF000050C1000050C10000C2
:1031700000004D65736820706F696E742063616E26
:103180006E6F74206265207265736F6C7665640A79
:10319000004D34323120696E636F72726563742042
:1031A000706172616D657465722075736167650A1F
:1031B0000046696C616D656E742072756E6F757412
:1031C000200064697300656E0043290A0061626C27
:1031D000656420286D696E2074656D702000436FF2
:1031E0006C64206578747275646573206172652003
:1031F0000020643A0020693A0020703A00496E7657
:10320000616C69642065787472756465720A003A4D
:10321000200020536572766F2000206F7574206F38
:10322000662072616E67650A00536572766F2000D2
:1032300020466C6F773A200046523A004F464600CF
:103240004F4E0020580020204D61783A2000200089
:1032500020204D696E3A2000536F667420656E64BD
:1032600073746F70733A20003F4A206F7574206F3B
:10327000662072616E67652028302E303120746FB1
:1032800020302E33290A002054002052004163636D
:10329000656C65726174696F6E3A2050004D31340F
:1032A0003520533C696E6465783E206F7574206FDD
:1032B000662072616E67652028302D31290A002F43
:1032C0002F20004348414D4245525F54454D5045E3
:1032D000524154555245004D4F54494F4E5F4D4F4A
:1032E00044455300544845524D414C5F50524F5451
:1032F000454354494F4E004155544F5245504F524B
:10330000545F53445F5354415455530050524F4DF2
:1033100050545F535550504F525400454D455247FD
:10332000454E43595F504152534552004341534526
:103330005F4C494748545F4252494748544E4553B1
:103340005300544F47474C455F4C4947485453003E
:10335000534F4654574152455F504F5745520042D4
:1033600055494C445F50455243454E54004C4556D8
:10337000454C494E475F44415441005A5F50524FBB
:103380004245004155544F4C4556454C005052491A
:103390004E545F4A4F420050524F475245535300DC
:1033A0004155544F5245504F52545F54454D500073
:1033B000564F4C554D455452494300454550524F88
:1033C0004D0042494E4152595F46494C455F545267
:1033D000414E534645520053455249414C5F584F68
:1033E0004E5F584F4646004649524D574152455F41
:1033F0004E414D453A4D61726C696E20322E302E31
:10340000352E3420284D616769632076302E332EA7
:10341000322920284769744875622920534F555234
:1034200043455F434F44455F55524C3A687474704E
:10343000733A2F2F6769746875622E636F6D2F4D15
:1034400061726C696E4669726D776172652F4D614C
:10345000726C696E2050524F544F434F4C5F56452B
:103460005253494F4E3A312E30204D414348494E38
:10347000455F545950453A4A474D616B6572204D3E
:10348000616769632045585452554445525F434F24
:10349000554E543A3120555549443A636564653276
:1034A0006132662D343161322D343734382D396232
:1034B00031322D6335356336326633363766660A08
:1034C000004A474D616B6572204D61676963204F0B
:1034D00046462E004D3131332053004D31313220DC
:1034E00053687574646F776E006F666600DB2ED666
:1034F0002ECF2EC82EBA2E44454255473A006F6B48
:1035000000436F6F6C696E672E2E2E0048656174E4
:10351000696E672E2E2E0045202553000A537461D4
:1035200074733A2046696C616D656E7420757365BD
:10353000643A20002C204C6F6E67657374206A6FAC
:10354000623A2000546F74616C2074696D653A2092
:103550000053746174733A20002C204661696C65D5
:10356000643A20002C2046696E69736865643A20CD
:10357000005072696E74733A200053746174733A28
:10358000200050726F7465637465642050696E0A20
:1035900000496E76616C69642050696E204D6F64DD
:1035A000650A005072696E742074696D653A200076
:1035B0004E6F204D6F76652E00436C69636B2074EF
:1035C0006F20526573756D652E2E2E004D657368E4
:1035D00020706F696E742063616E6E6F7420626517
:1035E000207265736F6C7665640A00205A3A200079
:1035F00020593A200042656420583A20005A205051
:10360000726F62652050617374204265640A005ACB
:103610002050726F626520506173742042656400AF
:10362000486F6D652058592066697273740A0048A6
:103630006F6D6520585920466972737400536C652C
:1036400065702E2E2E0050726F62696E6720466183
:10365000696C65640A0050726F62696E672046612A
:10366000696C656400205A3A200020593A200042D3
:10367000656420583A2000486F6D652025732573D6
:10368000257320466972737400496E7365727420E5
:1036900066696C616D656E7420616E642070726520
:1036A000737320627574746F6E0A004A474D616BC4
:1036B0006572204D616769632052656164792E00EF
:1036C0005072696E74696E672E2E2E00220A0055A4
:1036D0006E6B6E6F776E20636F6D6D616E643A20F6
:1036E0002200204500205A00205900204D39322068
:1036F000580020746F6F206C6F6E6720657874724D
:103700007573696F6E2070726576656E7465640A94
:103710000020636F6C6420657874727573696F6ED6
:103720002070726576656E7465640A0020453A0003
:10373000205A3A0020593A00583A00544845524D10
:10374000414C2052554E4157415900546865726DA5
:10375000616C2052756E61776179000098001124C8
:103760001FBECFEFD1E2DEBFCDBF00E00CBF13E044
:10377000A0E0B2E0EEEEF8E202E00BBF02C007907C
:103780000D92AA38B107D9F725E1AAE8B3E001C044
:103790001D92AF3FB207E1F71BE1CFEADBE100E0AA
:1037A00006C021970109802FFE010F942314CE3A01
:1037B000D10780E00807A9F70F9414010D94751440
:1037C0000C940000CF92DF92EF92FF92FC01C08038
:1037D000D180E280F38020E030E0A901C701B6018A
:1037E0000F949B0A87FF69C0C701B601905820E07B
:1037F00030E040E251E40F94000B20E030E040EA7A
:1038000050E40F94231120E030E040E251E40F94A3
:10381000FF110F946712FB01E03187E2F80708F40B
:1038200053C0CF0160E177E20F94FC1380E3860F71
:103830008093260CE83E83E0F80708F447C0CF01E8
:1038400068EE73E00F94FC13CB016AE070E00F9414
:10385000FC13805D8093270C80E2E436F10558F07C
:10386000CF0164E670E00F94FC13CB016AE070E0D6
:103870000F94FC13805D8093280C80E2EA30F10500
:1038800058F02AE030E0CF01B9010F94FC13CB01CE
:10389000B9010F94FC13805D8093290CCF016AE07D
:1038A00070E00F94FC13805D80932A0C86E29CE00C
:1038B000FF90EF90DF90CF90089520E030E040E25D
:1038C00051E4C701B60197CF80E2B2CF80E2C2CF08
:1038D0008F929F92AF92BF92CF92DF92EF92FF9220
:1038E000FC01C080D180E280F38020E030E048EC31
:1038F00052E4C701B6010F94000B4B015C0120E0BC
:1039000030E0A901C701B6010F949B0A20E030E026
:1039100040EA50E487FF04C020E030E040EA50EC89
:10392000C501B4010F94231120E030E040E251E4DE
:103930000F94FF110F9467129B018BE237FF05C0B4
:1039400022273327261B370B8DE28093250CC901D4
:1039500068EE73E00F941014CB01EAE0F0E0BF01D1
:103960000F941014805D8093260CC90164E670E00A
:103970000F941014CB01BF010F941014805D80933D
:10398000270CC901BF010F941014282FCB01BF01D0
:103990000F941014805D8093280C8EE28093290C84
:1039A000205D20932A0C85E29CE0FF90EF90DF9051
:1039B000CF90BF90AF909F908F9008959C0197FFFC
:1039C00026C0EE27FF27E81BF90B2D398FEF3807AC
:1039D0000CF05DC08DE28093270CCF0164E670E0AF
:1039E0000F941014CB012AE030E0B9010F941014A9
:1039F000805D8093280CCF01B9010F941014CB0186
:103A0000B9010F941014805D8093290C2AC0283EC0
:103A100083E03807B4F1C90168EE73E00F94101425
:103A2000CB01EAE0F0E0BF010F941014805D8093B9
:103A3000270CC90164E670E00F941014CB01BF019C
:103A40000F941014805D8093280CC901BF010F945E
:103A50001014CB01BF010F941014805D8093290CCA
:103A6000F901CF016AE070E00F941014805D80933B
:103A70002A0C87E29CE008958DE237FDC5CF80E2F5
:103A8000C3CFF90180E2243631050CF0A4CF80E2E7
:103A90008093270C8093280CEA30F1056CF38DE2BB
:103AA00037FF80E28093280CCF016AE070E00F942A
:103AB0001014605D6093290CD4CF24E6829FC0016E
:103AC000112481589F4F6FEF70E00F941014262F30
:103AD00081E3643609F080E28093270C90E22A307B
:103AE00040F03AE0822F632F0F94F0130F94F013FD
:103AF000905D9093280C822F6AE00F94F013905DF4
:103B00009093290C85E280932A0C87E29CE008952B
:103B10006091370270913802072E000C880B990BC8
:103B20000F94A10A2AE037ED43E25CE30F94000B07
:103B30002091CD0C3091CE0C4091CF0C5091D00CF7
:103B40000F94000B60936402709365028093660289
:103B500090936702089580912D0C811104C080918B
:103B60003C098093AD0D089580912D0C811104C006
:103B700080913C098093AD0D08951092360985E03F
:103B8000809319040895CF93DF9300D01F92CDB78F
:103B9000DEB784EF91E0A0E0B0E089839A83AB8345
:103BA000BC83BE016F5F7F4F80EA0E9452700F900E
:103BB0000F900F900F90DF91CF910895CF93DF93E7
:103BC00000D01F92CDB7DEB784EF91E0A0E0B0E067
:103BD00089839A83AB83BC83BE016F5F7F4F8CE385
:103BE0000E9452700F900F900F900F90DF91CF9125
:103BF0000895CF93DF9300D01F92CDB7DEB784EF47
:103C000091E0A0E0B0E089839A83AB83BC83BE01DE
:103C10006F5F7F4F88E70E9452700F900F900F9058
:103C20000F90DF91CF910895CF93DF9300D01F9233
:103C3000CDB7DEB78EEE92E0A0E0B0E089839A8344
:103C4000AB83BC83BE016F5F7F4F8AE00E945270DE
:103C50000F900F900F900F90DF91CF910895CF9319
:103C6000DF9300D01F92CDB7DEB78EEE92E0A0E0DA
:103C7000B0E089839A83AB83BC83BE016F5F7F4FC3
:103C80008AE50E9452700F900F900F900F90DF9175
:103C9000CF9108950C947D330F931F93522F209151
:103CA0009814309199142817390721F19093991499
:103CB000809398148B0130E020E00093130C109354
:103CC000140C2093150C3093160C4093060C509353
:103CD000040C8259974421F410928A0D10923209F3
:103CE00082E080935A0281E08093230C1092650950
:103CF00010920F0C1F910F91089520E040E070E0AA
:103D000060E087E094E4C8DF81E080938A0D109240
:103D1000CC0C1092CB0C089521E020938A0D609377
:103D200038097093390980933A0990933B0920E050
:103D300040E070E060E08091020C9091030CACCF09
:103D40006DEC7CEC8CEC9CE3E7CF6DEC7CEC8CECCC
:103D50009DE3E2CF60E070E080E89FE3DDCF60E0CC
:103D600070E080E291E4D8CFCF93DF93EC01CB01F8
:103D7000BA010F94A10A2AE037ED43E25DE30F9404
:103D8000FF1120E030E0A9010F9423110F946C1271
:103D9000688379838A839B83DF91CF910895CF9342
:103DA000DF93EC01CB01BA010F94A10A20E030E0CF
:103DB00040E251E40F94FF1120E030E0A9010F949C
:103DC0002311688379838A839B83DF91CF91089540
:103DD000CF93DF93EC01CB01BA010F94A10A20E04D
:103DE00030E040E251E40F94FF1120E030E0A901FF
:103DF0000F942311688379838A839B83DF91CF910A
:103E00000895CF93DF93EC01CB01BA010F94A10A7F
:103E10002AE037ED43E25DE30F94FF1120E030E04C
:103E2000A9010F942311688379838A839B83DF918F
:103E3000CF910895CF93DF93EC01CB01BA010F949A
:103E4000A10A20E030E0A9010F942311688379834F
:103E50008A839B83DF91CF910895CF93DF93EC0109
:103E6000CB01BA010F94A10A20E030E0A9010F9420
:103E70002311688379838A839B83DF91CF9108958F
:103E8000CF93DF93EC01CB01BA010F94A10A20E09C
:103E900030E04AE754E40F94FF1120E030E0A9013C
:103EA0000F942311688379838A839B83DF91CF9159
:103EB0000895CF93DF93EC01CB01BA010F94A10ACF
:103EC00020E030E048EC52E40F94FF1120E030E0B5
:103ED000A9010F942311688379838A839B83DF91DF
:103EE000CF910895CF93DF93EC01CB01BA010F94EA
:103EF000A10A20E030E0A9010F9423110F9467126A
:103F000079836883DF91CF9108950F94A10A29ECFA
:103F100038EC48EC5EE30F94FF1120E030E040E025
:103F20005FE30F9423110F946C12862FC6CDCF93AD
:103F3000DF93EC01CB01BA010F94A10A29EC38EC14
:103F400048EC5EE30F94FF1120E030E040E05FE3D7
:103F50000F9423110F946C126883DF91CF91089511
:103F6000CF93DF9300D01F92CDB7DEB70F946C12C2
:103F70000F949F0A69837A838B839C83CE01019679
:103F800021DC0F900F900F900F90DF91CF9108954B
:103F90000F94A10A2AE037ED43E25DE30F94FF118D
:103FA00020E030E0A9010F942311DACF8F929F9285
:103FB000AF92BF92CF92DF92EF92FF92CF936B01BD
:103FC0007C0120E030E0A9010F949B0A87FD99C095
:103FD00067E177EB81E598E3A70196010F94231140
:103FE0006B017C0120E030E048EC52E40F94000BC0
:103FF0004B015C0120E030E0A901C701B6010F943C
:104000009B0A20E030E040EA50E487FF04C020E053
:1040100030E040EA50ECC501B4010F94231120E0D8
:1040200030E040E251E40F94FF110F9467126B01EE
:104030007C018BE2F7FE09C0F094E094D094C09428
:10404000C11CD11CE11CF11C8DE28093240CC70122
:10405000B60120E137E240E050E00F94E7108AE03B
:10406000882E912CA12CB12CCA01B901A501940173
:104070000F94E710605D6093250CC701B60128EE30
:1040800033E040E050E00F94E710CA01B901A50108
:1040900094010F94E710605D6093260CC701B60190
:1040A00024E630E040E050E00F94E710CA01B90187
:1040B000A50194010F94E710605D6093270CC70180
:1040C000B601A50194010F94E710C62FCA01B901EA
:1040D000A50194010F94E710605D6093280C8EE2B7
:1040E0008093290CC05DC0932A0C84E29CE0CF91A0
:1040F000FF90EF90DF90CF90BF90AF909F908F9008
:10410000089567E177EB81E598EB66CF0F94A10AFC
:1041100020E030E040E251E40F94FF1120E030E075
:10412000A9010F94231142CF8F929F92AF92BF9219
:10413000CF92DF92EF92FF92CF936B017C0120E050
:1041400030E0A9010F949B0A87FDA4C067E177EBDB
:1041500081E598E3A70196010F9423116B017C017F
:1041600020E030E0A9010F949B0A87FF98C0C701A7
:10417000B601905820E030E048EC52E40F94000B78
:1041800020E030E040EA50E40F94231120E030E0DA
:1041900040E251E40F94FF110F9467126B017C0110
:1041A00080E28093240C60E280E1C81687E2D806A2
:1041B000E104F1048CF0C701B60120E137E240E0F0
:1041C00050E00F94E710CA01B9012AE030E040E066
:1041D00050E00F94E710605D6093250C60E288EE7C
:1041E000C81683E0D806E104F1048CF0C701B601DB
:1041F00028EE33E040E050E00F94E710CA01B90127
:104200002AE030E040E050E00F94E710605D6093FA
:10421000260C60E284E6C816D104E104F1048CF0B7
:10422000C701B60124E630E040E050E00F94E7100B
:10423000CA01B9012AE030E040E050E00F94E710F5
:10424000605D6093270C8AE0882E912CA12CB12C04
:10425000C701B601A50194010F94E710C62FCA014A
:10426000B901A50194010F94E710605D6093280CDB
:104270008EE28093290CC05DC0932A0C84E29CE0FE
:10428000CF91FF90EF90DF90CF90BF90AF909F9035
:104290008F90089567E177EB81E598EB5BCF20E0A5
:1042A00030E048EC52E4C701B60168CF0F94A10A90
:1042B00020E030E040E251E40F94FF1120E030E0D4
:1042C000A9010F94231130CFCF92DF92EF92FF928A
:1042D000CF93DF9300D01F92CDB7DEB76B017C0187
:1042E00020E030E0A9010F949B0A87FD1AC067E126
:1042F00077EB81E598E3A70196010F942311698379
:104300007A838B839C83CE0101965CDA0F900F90A9
:104310000F900F90DF91CF91FF90EF90DF90CF90B3
:10432000089567E177EB81E598EBE5CF0F94A10A5B
:1043300020E030E0A9010F942311C6CF0F94A10A09
:104340002AE037ED43E25DE30F94FF1120E030E017
:10435000A9010F942311B8CF8F929F92AF92BF9271
:10436000CF92DF92EF92FF92CF936B017C0120E01E
:1043700030E0A9010F949B0A87FF9DC067E177EBAE
:1043800081E598EBA70196010F9423116B017C0145
:1043900020E030E04AE754E40F94000B4B015C014D
:1043A00020E030E040E251ECC701B6010F949B0AD7
:1043B000181654F420E030E048EC52E4C701B6018E
:1043C0000F94491387FD8BC020E030E0A901C7019D
:1043D000B6010F949B0A87FF73C060E070E080EA2B
:1043E00090ECA50194010F94231120E030E040E20D
:1043F00051E40F94FF110F9467126B017C01F7FCDD
:1044000064C020E137E240E050E00F94E710CA01B9
:10441000B9012AE030E040E050E00F94E710605D21
:104420006093250CC701B60128EE33E040E050E070
:104430000F94E7109AE0892E912CA12CB12CCA017F
:10444000B901A50194010F94E710605D6093260CFB
:10445000C701B60124E630E040E050E00F94E710D9
:10446000CA01B901A50194010F94E710605D609342
:10447000270C8EE28093280CC701B601A501940198
:104480000F94E710C62FCA01B901A50194010F943A
:10449000E710605D6093290CC05DC0932A0C85E233
:1044A0009CE0CF91FF90EF90DF90CF90BF90AF90C6
:1044B0009F908F90089567E177EB81E598E362CF55
:1044C00060E070E080EA90E48CCFF094E094D094C7
:1044D000C094C11CD11CE11CF11C6DE2A1CF20E0F5
:1044E00030E0A901C701B6010F949B0A87FF6AC09B
:1044F00060E070E080EA90ECA50194010F94231134
:1045000020E030E040E251E40F94FF110F94671275
:104510004B015C0120E030E0A901C701B6010F9416
:10452000491387FD0BC020E030E040E251E4C701B1
:10453000B6010F949B0A60E287FD13C0B7FC47C029
:10454000C501B40128EE33E040E050E00F94E710DD
:10455000CA01B9012AE030E040E050E00F94E710D2
:10456000605D6093260CC501B40124E630E040E0B4
:1045700050E00F94E7108AE0C82ED12CE12CF12CEA
:10458000CA01B901A70196010F94E710605D60931D
:10459000270C8EE28093280CC501B401A701960177
:1045A0000F94E710C62FCA01B901A70196010F9415
:1045B000E710605D6093290CC05DC0932A0C86E211
:1045C0009CE06FCF60E070E080EA90E495CFB0941B
:1045D000A09490948094811C911CA11CB11C6DE24C
:1045E000C0CF0F94A10A20E030E048EC52E40F94D1
:1045F000FF1120E030E0A9010F942311ADCEFC01A2
:1046000084910895FC018081089511989091020190
:1046100087FD9095917090930001119A0000119878
:104620009091020186FD9095917090930001119AEE
:10463000000011989091020185FD909591709093E2
:104640000001119A000011989091020184FD90954B
:10465000917090930001119A0000119890910201BD
:1046600083FD9095917090930001119A000011982C
:104670009091020182FD9095917090930001119AA2
:10468000000011989091020181FD90959170909396
:104690000001119A000011988091020181708093AD
:1046A0000001119A00000895089590E080E00895B7
:1046B00090913509E92FF0E0E852FB4E80839F5F2F
:1046C000943040F49093350980913A0B8F5F80933A
:1046D0003A0B089510923509F7CF282F9091750D58
:1046E000833021F495FD0FC094FD0FC0892F90E019
:1046F000B0E0A0E004C0B695A795979587952A9558
:10470000D2F78170089581E0089580E008958F9236
:104710009F92AF92BF92CF92DF92EF92FF920F9350
:104720001F93CF93DF93D82FC62F882329F114E04E
:1047300085E0D73019F1662309F46BC014E0E5E099
:10474000673009F468C02D2F2150330BC90146E0B2
:10475000489F9001499F300D1124C150DD0BC20FBD
:10476000D31FCC0FDD1FCC0FDD1FC85CD34F68817A
:1047700079818A819B812CC011E080E09FEF9C0FA2
:10478000963098F5C150DD0B06E0FE01089FE00D64
:10479000F11D1124EE0FFF1FEE0FFF1FE85CF34F1A
:1047A00060817181828193819B01AC010F942311FF
:1047B000019FC00DD11D1124CC0FDD1FCC0FDD1FBB
:1047C000C85CD34F288139814A815B810F942211C3
:1047D000DF91CF911F910F91FF90EF90DF90CF90DD
:1047E000BF90AF909F908F9008956C2F8F5F8FDF59
:1047F0006B017C016C2F81E0810F89DF4B015C0133
:10480000A7019601C701B6010F942311A5019401D8
:10481000DDCF11E0E0E08FEF8D0F8630F0F42D2F2B
:104820002150330BC90126E0289FE001299FD00DBC
:104830001124EC0FFD2FF11DEE0FFF1FEE0FFF1FD8
:10484000E85CF34F60817181828193819B01AC01AF
:104850000F942311C10FD11DAFCF61E06E0F8D2FCB
:1048600056DF6B017C0161E0610F8D2FC6CF90E1B7
:10487000899FF0011124E60FF11DEE0FFF1FEE0FCF
:10488000FF1FEE5CFB4F60817181828193810895EF
:1048900096E0899FF0011124E60FF11DEE0FFF1F36
:1048A000EE0FFF1FE85CF34F60817181828193817D
:1048B00008952F923F924F925F926F927F928F92C4
:1048C0009F92AF92BF92CF92DF92EF92FF920F939F
:1048D0001F93CF93DF93CDB7DEB72E970FB6F89423
:1048E000DEBF0FBECDBFE82ED62E042F122F282FED
:1048F00030E03C872B87462F50E05A87498766E097
:10490000F62EF29EC001F39E900D11249E878D8796
:10491000FA01E80FF91FEE0FFF1FEE0FFF1FE85C13
:10492000F34F60817181828193819B01AC010F946F
:10493000D113882309F434C1E00E612F6D0DFE9C64
:10494000F0011124A985BA85AE0FBF1FAA0FBB1FA6
:10495000AA0FBB1FA85CB34FAC901196BC901197E7
:104960001296CC9012971396DC90E00EFE9CA0015C
:104970001124A985BA85A40FB51FAA0FBB1FAA0FC2
:10498000BB1FA85CB34FEC901196FC901197129648
:104990000C91129713969C90862F90E0AD85BE8562
:1049A000A80FB91FAA0FBB1FAA0FBB1FA85CB34F4C
:1049B0008C9011967C90119712966C90129713968A
:1049C0005C90610F70E0AD85BE85A60FB71FAA0F82
:1049D000BB1FAA0FBB1FA85CB34F4C9011963C9015
:1049E000119712961C91129713962C90E80FF91FAD
:1049F000EE0FFF1FEE0FFF1FE85CF34FB081B9838E
:104A000021812A8332813B8383818C83FA01E60FE3
:104A1000F71FEE0FFF1FEE0FFF1FE85CF34F9081B3
:104A20009D83A181AE83B281BF83238128879701B3
:104A3000402F592DB701802F992D0F94D113882322
:104A400021F0E12CF12C00E0912C9501A601B5019B
:104A5000C6010F94D113882319F05701C02ED92C09
:104A6000242D332D412F522D642D732D812F922D06
:104A70000F94D113882321F0412C312C10E0212CEC
:104A8000282D372D462D552D682D772D862D952DCA
:104A90000F94D113882321F0842C732C612E522C77
:104AA0002D813E814F8158856D817E818F819885D2
:104AB0000F94D113882321F01D821E821F82188635
:104AC00029813A814B815C8169817A818B819C81CA
:104AD0000F94D113882341F03D8139834E814A835D
:104AE0005F815B8388858C8386E0EB85FC858E9F68
:104AF000D0018F9FB00D112429853A85A20FB31FD5
:104B0000AA0FBB1FAA0FBB1FA85CB34FBA87A98708
:104B10009501A601B501C6010F9423119701402FFD
:104B2000592D0F9422116B017C01282D372D462D14
:104B3000552D682D772D862D952D0F942311242D1D
:104B4000332D412F522D0F9422119B01AC01C7012F
:104B5000B6010F9423116B017C0129813A814B81AD
:104B60005C8169817A818B819C810F9423112D81D5
:104B70003E814F8158850F9422119B01AC01C701E2
:104B8000B6010F94231120E030E040E450E40F948C
:104B9000FF11A985BA856D937D938D939C9313978F
:104BA0002E960FB6F894DEBF0FBECDBFDF91CF912A
:104BB0001F910F91FF90EF90DF90CF90BF90AF903B
:104BC0009F908F907F906F905F904F903F902F902D
:104BD000089580918D0D811105C081E090918E0D19
:104BE000913009F080E0089580916A1490916B14DF
:104BF000891B8F7009F4EDCF81E008950C94FC9E21
:104C00000C94FC9E0C94FC9E0C94FC9E0C94AE9E0A
:104C10000C94AE9E0C94AE9E0C94AE9ECF92DF92FE
:104C2000EF92FF920F931F930E943F9500914109CD
:104C30001091420920914309309144096B017C0194
:104C4000C01AD10AE20AF30A9701860137FD11C0A2
:104C5000209140092095209340096A547C4F8F4F42
:104C60009F4F609341097093420980934309909349
:104C7000440981E090914009911101C080E01F91A9
:104C80000F91FF90EF90DF90CF900895CF92DF9239
:104C9000EF92FF92CF93C82F0E943F956B017C014A
:104CA00024EA30E74DE75FE36091380970913909F4
:104CB00080913A0990913B090F949B0A87FD18C097
:104CC0008AEF90E0A0E0B0E08C0D9D1DAE1DBF1DF1
:104CD0008093590990935A09A0935B09B0935C099A
:104CE000C0930E02CF91FF90EF90DF90CF90089588
:104CF00080E090E0DC01E8CF2F923F924F925F92EC
:104D00006F927F928F929F92AF92BF92CF92DF92DB
:104D1000EF92FF920F931F93CF93DF9300D000D0B9
:104D2000CDB7DEB70E943F95009180141091811499
:104D3000209182143091831401151105210531054C
:104D400009F00CC320918614222309F44AC0E09193
:104D5000841421502093861421E02E0F2093841474
:104D600030918714231302C01092841424E0E29F30
:104D7000F0011124E857FB4E00811181228133811B
:104D800000937C1410937D1420937E1430937F1431
:104D9000600F711F811D911D6093801470938114A9
:104DA000809382149093831480917E1490917F1449
:104DB000892BB9F08FB78E83F89420907C143090B3
:104DC0007D142101712C612C00917E1410917F14AF
:104DD000809123028532F1F08F3F09F496C09E81C5
:104DE0009FBF26960FB6F894DEBF0FBECDBFDF91F2
:104DF000CF911F910F91FF90EF90DF90CF90BF90D8
:104E0000AF909F908F907F906F905F904F903F906A
:104E10002F900895EEE5F7E294919D8397FDDFCF03
:104E200061E085E20E94FD938D81882321F09D81C0
:104E3000923009F0BDC14801B12CA12C60E072E1B3
:104E40008AE790E0A50198010F94E71029833A833F
:104E50004B835C8369017A0121E0C21AD108E10821
:104E6000F1088FEFC816D104E104F10409F00CF445
:104E70006FC160E472E48FE090E0A50198010F94A7
:104E8000E71069017A0191E0C91AD108E108F10837
:104E90002D81223009F010C18FEFC816D104E10432
:104EA000F10409F00CF4C0C260E970ED83E090E019
:104EB000A50198010F94E71069017A0191E0C91AE0
:104EC000D108E108F10883E02FEFC216D104E10414
:104ED000F10409F00CF4A1C268E478EE81E090E0FE
:104EE000A50198010F94E71069017A0181E0C81AC1
:104EF000D108E108F1089FEFC916D104E104F104DB
:104F000011F00CF0FDC084E088C285E2809323029A
:104F1000EEE5F7E224912D83822F2F3F09F45FCF36
:104F2000223009F469C060F4222381F1213009F4B0
:104F300045C087FD54CF61E085E20E94FD9377CFA5
:104F40009D81943009F49AC008F478C0953089F7AF
:104F5000109220011092210180912101886080939C
:104F6000210180912101816080932101E1EBF6E232
:104F7000E491F0E0EE0FFF1FE85AF94D859194910E
:104F8000E7EFF6E2E491E09372094ACF14BC15BC56
:104F900084B5826084BD85B5816085BDE1EBF6E2B4
:104FA000E491F0E0EE0FFF1FE85AF94D85919491DE
:104FB000E7EFF6E2E491E093760932CF10928000B9
:104FC000109281008091810088608093810080919F
:104FD0008100816080938100E1EBF6E2E491F0E0F2
:104FE000EE0FFF1FE85AF94D85919491E7EFF6E235
:104FF000E491E093750914CF1092B0001092B100C3
:105000008091B00082608093B0008091B100816097
:105010008093B100E1EBF6E2E491F0E0EE0FFF1FC8
:10502000E85AF94D859194919093B0098093AF0916
:10503000E7EFF6E2E491E093B109F2CE109290002E
:1050400010929100809191008860809391008091EE
:105050009100816080939100E1EBF6E2E491F0E051
:10506000EE0FFF1FE85AF94D85919491E7EFF6E2B4
:10507000E491E093740923E02D83D2CE1092A00036
:105080001092A1008091A10088608093A10080917E
:10509000A10081608093A100E1EBF6E2E491F0E0F1
:1050A000EE0FFF1FE85AF94D85919491E7EFF6E274
:1050B000E491E0937309B4CE8FEFC816D104E104F4
:1050C000F10409F00CF472C068E478EE81E090E03D
:1050D000A50198010F94E71069017A0191E0C91ABE
:1050E000D108E108F1082D81222309F462C12FEFD4
:1050F000C216D104E104F10411F00CF063C103CF36
:1051000064E274EF80E090E0A50194010F94E71051
:1051100069017A0181E0C81AD108E108F10885E047
:105120009FEFC916D104E104F10409F008F475C138
:1051300062E17AE780E090E0A50194010F94E71026
:1051400069017A0181E0C81AD108E108F1084CC16F
:1051500081E02D81211161C195B5987F892B85BD95
:105160002FEF3FEFA90145284628472809F048C0FE
:105170009D81923009F4E2C00CF0C9C0992309F472
:10518000CEC0913009F02BCED0928900C092880019
:1051900020938309309384094093850950938609AD
:1051A00080916F00826080936F0019CE82E0D1CF32
:1051B000B12CA12C60E072E18AE790E0A501980192
:1051C0000F94E71069017A0181E0C81AD108E1085B
:1051D000F108C114D10491E0E906F104F4F491E07E
:1051E0002D81213059F580918100887F892B809312
:1051F00081002FEF3FEFA90145284628472821F2DB
:105200009801220F331FD1010F94131128EE33E0C0
:1052100040E050E00F94C510ABCF68E478EE81E039
:1052200090E0A50198010F94E71069017A0181E0EF
:10523000C81AD108E108F10893E0D2CF8D818330FC
:10524000F9F480919100887F892B809391002FEF52
:105250003FEFA90145284628472891F6D0929900AA
:10526000C092980020937F09309380094093810970
:105270005093820980917100826080937100AFCD5C
:105280002D81243001F58091A100887F892B8093A6
:10529000A1002FEF3FEFA90145284628472809F034
:1052A000AFCFD092A900C092A80020937B09309381
:1052B0007C0940937D0950937E0980917200826041
:1052C000809372008CCD8D81853009F049CF80911B
:1052D0002101887F892B809321012FEF3FEFA901C6
:1052E00045284628472809F08BCFD0922901C09243
:1052F00028012093770930937809409379095093D6
:105300007A098091730082608093730068CD8D81EB
:10531000843039F20CF4A2CF853039F360CDC7BCAC
:1053200020938709309388094093890950938A090B
:1053300080916E00826080936E0051CDC092B30068
:105340002093B2093093B3094093B4095093B5093F
:105350008091700082608093700041CD601B710B62
:10536000820B930B97FD3DCD4098109280141092C4
:105370008114109282141092831433CDC980DA8084
:10538000EB80FC809AE0F594E794D794C7949A95C3
:10539000D1F721E0C21AD108E108F10885E0DCCE9E
:1053A0008FEFC816D104E104F10409F038F784E066
:1053B000D3CE83E09FEFC916D104E104F10409F0D4
:1053C0000CF4CACE62E17AE780E090E0A501940196
:1053D0000F94E71069017A0181E0C81AD108E10849
:1053E000F1089D819923E1F286E02FEFC216D104E6
:1053F000E104F10491F088F0C980DA80EB80FC8050
:105400008AE0F594E794D794C7948A95D1F791E010
:10541000C91AD108E108F10887E09091B100987F9E
:10542000892B8093B1009CCE82E0F7CF0C942FCAD9
:105430000C942FCA6BE075E483E00C9464FE65EB7A
:1054400076E482E00C9464FE69EB76E481E00C94EF
:1054500064FE6DEB76E480E00C9464FECF92DF9204
:10546000EF92FF92CF93DF9300D01F92CDB7DEB7BC
:105470006B017C0120E030E0A9010F949B0A87FDBD
:105480001BC067E177EB81E598E3A70196010F94D4
:10549000231169837A838B839C83CE0101960E94BA
:1054A000ECE10F900F900F900F90DF91CF91FF9054
:1054B000EF90DF90CF90089567E177EB81E598EB6F
:1054C000E4CF0F94A10A20E030E04AE754E40F94BF
:1054D000FF1120E030E0A9010F942311BFCF84E039
:1054E0000C94B1E683E00C94B1E682E00C94B1E652
:1054F000EF92FF920F931F938DE8E82E8BE0F82E2A
:105500000FE81BE029E73BE64AEA5AE26BE97BE059
:1055100080EA9BE00E9448E51F910F91FF90EF9079
:105520000895EF92FF920F931F9382E0E82E8BE095
:10553000F82E05E11BE02AE43EE140E951E364E096
:105540007BE08BE09BE00E9448E51F910F91FF906C
:10555000EF90089580E090E0A0E8B0E480937202BC
:1055600090937302A0937402B093750288EA92E05C
:105570000E94B4B4809133098130C9F1D4F48823F6
:1055800009F180EB92E00E94B4B410927202109282
:105590007302109274021092750288EA92E00E94DF
:1055A000B4B4809133098F5F84309CF580933309C4
:1055B0000895823049F1833021F780E090E0A0EF38
:1055C000B1E419C080E090E0A0EFB1E480936A02FA
:1055D00090936B02A0936C02B0936D0280936E0265
:1055E00090936F02A0937002B0937102CACF80E0D3
:1055F00090E0A8E4B3E480936A0290936B02A093D6
:105600006C02B0936D02BDCF80E090E0A4E3B3E400
:10561000E5CF10923309089580915A02882331F022
:1056200041E065EA7BE082E00E9470E18091870DB5
:105630008770873071F41092330920E040E070E009
:1056400060E088E79AE20E944C1E81E080930F0C94
:1056500081CF0895AF92BF92CF92DF92EF92FF92E7
:105660000F931F93CF93DF936B01E9014A3009F445
:10567000C1C0453109F073C0DB011296ED91FC9178
:10568000F280C681D78180910201809582708093DB
:10569000000188E28A950000E9F7BF2CB29420EF60
:1056A000B22230E1A32EAF0C48E2E42E88EF0E9434
:1056B00005238E2D8A950000E9F7BFE1BF1508F498
:1056C00085C08F2D807780680E9405238B2D0E94D6
:1056D00005238E2D8A950000E9F780E80E940523B6
:1056E00080E00E9405238E2D8A950000E9F78AEF5D
:1056F0000E9405238E2D8A950000E9F78E01005F38
:105700001F4F8881807F0E94052389918295807F29
:105710000E940523C017D107A1F78E2D8A9500009E
:10572000E9F7F394E0E1BE0EFA10C0CF80910201D8
:10573000827080930001D6011296CD91DC91CE014A
:105740000E94DF958111F7C1DF91CF911F910F91D9
:10575000FF90EF90DF90CF90BF90AF900895FB0146
:1057600002811381423309F4A1C108F4A5C1463472
:1057700009F492C1473409F495C14B3329F5898165
:105780002B81D80112966C91129713964C9121306F
:1057900009F4E8C1233009F0B2C138EF380F582FAF
:1057A00091E0431708F490E041E0531708F040E01F
:1057B00031E0561708F430E0592F542B352309F007
:1057C000C6C1942309F0C3C181E0BECF80EE8F0D26
:1057D0008068807F0E9405238F2D8295807F0E94A4
:1057E00005238E2D8A950000E9F780E80E940523A5
:1057F00080E877CF809101018260809301018091E0
:105800000201827080930001809101018160809388
:10581000010180910201817080930001099A119A1F
:1058200080910201809582708093000188E28A95C0
:105830000000E9F788E790E0CEE9DFE0FE0131976C
:10584000F1F70197D9F788EF0E94052318E2812F1D
:105850008A950000E9F780E20E94052380E00E941B
:105860000523812F8A950000E9F780E00E94052337
:1058700080E80E940523812F8A950000E9F780E0E7
:105880000E94052380E10E940523812F8A95000054
:10589000E9F7CE010197F1F7CE010197F1F7CE01BB
:1058A0000197F1F7CE010197F1F7CE010197F1F7DA
:1058B000CE010197F1F7CE010197F1F7CE010197E3
:1058C000F1F7CE010197F1F7CE010197F1F7CE0183
:1058D0000197F1F7CE010197F1F7CE010197F1F7AA
:1058E000CE010197F1F72197F1F780E20E9405239D
:1058F00080E40E940523812F8A950000E9F780E269
:105900000E94052380E60E9405231A950000E9F70E
:1059100010E0D0E0C8E28D2F807780680E940523D8
:10592000812F0E9405238C2F8A950000E9F780E8DB
:105930000E94052380E00E9405238C2F8A95000099
:10594000E9F78AEF0E9405238C2F8A950000E9F77A
:1059500090E2119880910201817080930001119A68
:105960000000119880910201817080930001119ACA
:105970000000119880910201817080930001119ABA
:105980000000119880910201817080930001119AAA
:105990000000119880910201817080930001119A9A
:1059A0000000119880910201817080930001119A8A
:1059B0000000119880910201817080930001119A7A
:1059C0000000119880910201817080930001119A6A
:1059D0000000119880910201817080930001119A5A
:1059E0000000119880910201817080930001119A4A
:1059F0000000119880910201817080930001119A3A
:105A00000000119880910201817080930001119A29
:105A10000000119880910201817080930001119A19
:105A20000000119880910201817080930001119A09
:105A30000000119880910201817080930001119AF9
:105A40000000119880910201817080930001119AE9
:105A500000008C2F8A950000E9F7915009F079CF6A
:105A600088EF0E9405238C2F8A950000E9F7DF5FFD
:105A7000105FD03209F04FCF80E00E94052380EC08
:105A80000E940523CA950000E9F780910201827007
:105A90008093000181E058CED80115968C918883BF
:105AA00081E052CEF80181818883FACFB901C80123
:105AB0000E94CA9581E048CE443171F0473109F027
:105AC00083CE1882F80182818983858181508A83FF
:105AD00083818B8381E038CED80115964C91159740
