:100000000C945C220C948D220C948D220C948D22E5
:100010000C948D220C948D220C948D220C948D22A4
:100020000C948D220C948D220C948D220C948D2294
:100030000C948D220D94C50A0C948D220C948D2263
:100040000C948D220C9499E30C948D220C948D22A7
:100050000C948D220C948D220C949ADA0D947710C6
:100060000C948D220C9483AA0C948D220C948D22D6
:100070000C948D220C948D220C948D220C948D2244
:100080000C94D4EE0C948D220C948D220C948D2221
:100090000C948D220C948D220C948D220C948D2224
:1000A0000C948D220C948D220C94A6EE0C948D222F
:1000B0000C948D220C948D220C948D220C9478EE4D
:1000C0000C948D220C948D220C948D220C948D22F4
:1000D0000C948D220C948D220C948D220C948D22E4
:1000E0000C948D22084AD73B3BCE016E84BCBFFDE9
:1000F000C12F3D6C74319ABD56833DDA3D00C77FF8
:1001000011BED9E4BB4C3E916BAAAABE0000008090
:100110003F05A84CCDB2D44EB93836A9020C50B91F
:10012000918688083CA6AAAA2ABE000000803F004B
:100130000D94C40C0D94E20C0D94730C0D944E06AA
:100140000D9441060D94D80C0D9444060D94830231
:100150000D948E080D94CE0C0D944A1E0D948D0CAA
:100160000D94C82B0D94CB180D947B0C0D94A2000C
:100170000D94B00C0D94962D0D943E060D94830CA9
:100180000D94EB020D9434150D943A000D948B1CD4
:100190000D94480C0D94690C0D9435060D944B0686
:1001A0000D9493160D940A010D94500C0D943B067A
:1001B0000D949E1A0D9449060D94970C0D945F0CA6
:1001C0000D94A10C0D94421D0D9472010D94DA0151
:1001D0000D9438060D94550C0D94BA0C0D942B0605
:1001E0000D9409180D9442024E414E494E495459FE
:1001F000494E46CDCCCC3D0AD7233C17B7D13877F2
:10020000CC2B329595E6241FB14F0A000020410007
:1002100000C84200401C4620BCBE4CCA1B0E5AAE51
:10022000C59D7400407A10F35A00A0724E18090060
:1002300010A5D4E80000E87648170000E40B54024B
:100240000000CA9A3B000000E1F505000080969886
:1002500000000040420F000000A0860100000010D6
:100260002700000000E80300000000640000000018
:10027000000A00000000000100000000002C76D8F9
:1002800088DC674F0823DFC1DFAE59E1B1B796E5DF
:10029000E3E453C63AE651997696E8E6C28426EB43
:1002A000898C9B62ED407C6FFCEFBC9C9F40F2BA56
:1002B000A56FA5F490055A2AF75C936B6CF9676DEE
:1002C000C11BFCE0E40D47FEF520E6B500D0ED9043
:1002D0002E0300943577050080841E080000204E10
:1002E0000A000000C80C333333330F986E128311A9
:1002F00041EF8D2114893BE65516CFFEE6DB18D180
:10030000844B381BF77C1D901DA4BBE42420328451
:10031000725E228100C9F124ECA1E53D27434F4DD7
:100320004D554E49434154494F4E00445259525540
:100330004E004552524F525300494E464F004543DE
:10034000484F002569730025696D202569730025D4
:1003500069682025696D2025697300256964202559
:1003600069682025696D2025697300256979202534
:100370006964202569682025696D202569730065F9
:100380006E7175657565696E6720220020496E760D
:10039000616C696420657874727564657220000010
:1003A0000050C1000050C100000000000066430082
:1003B00000524300007A4342696C696E65617220A5
:1003C0004C6576656C696E6720477269643A0A000D
:1003D000486F6D696E67206661696C6564002028EE
:1003E00044525952554E2900473239204175746F95
:1003F00020426564204C6576656C696E67003F201D
:10040000284C2C522C462C4229206F7574206F6684
:1004100020626F756E64732E0A003F28562965723C
:10042000626F7365206C6576656C20697320696DF9
:10043000706C61757369626C652028302D34292ECB
:100440000A00426164205A2076616C75650A004E8C
:100450006F2062696C696E65617220677269640AF7
:1004600000486F74656E6420746F6F20636F6C64F6
:100470000A0050726F7465637465642050696E0A77
:10048000005374616E6461726420446576696174BE
:10049000696F6E3A20002052616E67653A20002035
:1004A0004D61783A2000204D696E3A20004D65611B
:1004B0006E3A200046696E6973686564210A0020FF
:1004C00072616E67653A2000206D61783A200020E5
:1004D0006D696E3A2000207369676D613A200020D3
:1004E0006D65616E3A20003A207A3A2000206F66EE
:1004F0002000205A00205900205800476F696E677D
:1005000020746F3A00436C6F636B776973650A0000
:10051000436F756E7465722D002044697265637453
:10052000696F6E3A2000202020616E676C653A206A
:10053000005374617274696E6720726164697573C7
:100540003A2000506F736974696F6E696E6720742A
:1005500068652070726F62652E2E2E0A003F4E7500
:100560006D626572206F66206C65677320696E200E
:100570006D6F76656D656E74206E6F7420706C6142
:10058000757369626C652028302D3135292E0A007B
:100590003F2028582C5929206F7574206F662062DF
:1005A0006F756E64732E0A003F53616D706C652029
:1005B00073697A65206E6F7420706C6175736962FF
:1005C0006C652028342D3530292E0A004D34382012
:1005D0005A2D50726F626520526570656174616258
:1005E000696C69747920546573740A003F28562930
:1005F0006572626F7365206C6576656C2069732027
:10060000696D706C61757369626C652028302D347A
:10061000292E0A0046696C616D656E7420757365DC
:10062000643A200053746174733A20002C204C6F9C
:100630006E67657374206A6F623A2000546F74614C
:100640006C2074696D653A200053746174733A20AC
:10065000002C204661696C65643A20002C204669B4
:100660006E69736865643A20005072696E74733AFB
:10067000200053746174733A200020573A004520DB
:10068000436F6F6C696E672E2E2E004520486561A2
:1006900074696E672E2E2E0020573A004265642042
:1006A000636F6F6C696E672E2E2E00426564206842
:1006B000656174696E672E2E2E00205A3A0020590B
:1006C0003A0020436F756E7420583A0020453A0076
:1006D000205A3A0020593A00583A003A00436170D3
:1006E0003A005741524E494E4721204C6F77205ACD
:1006F000204A65726B206D6179206C65616420749D
:100700006F20756E77616E746564207061757365B6
:10071000732E0A00205A00205900580020204D61F5
:10072000783A2000205A00205900580020204D69B6
:100730006E3A20004F6E20004F666600536F66745D
:1007400020656E6473746F70733A2000496E766131
:100750006C69642065787472756465720A0020643F
:100760003A0020693A0020703A0023646566696E99
:10077000652044454641554C545F4B64200023643A
:100780006566696E652044454641554C545F4B692A
:10079000200023646566696E652044454641554CDA
:1007A000545F4B702000504944204175746F74753C
:1007B0006E652066696E6973686564212050757482
:1007C00020746865206C617374204B702C204B6919
:1007D00020616E64204B6420636F6E7374616E746D
:1007E000732066726F6D2062656C6F7720696E741E
:1007F0006F20436F6E66696775726174696F6E2EE4
:10080000680A00504944204175746F74756E652004
:100810006661696C6564212074696D656F75740A21
:1008200000453120544845524D414C2052554E41CF
:1008300057415900546865726D616C2052756E6144
:100840007761790045312048656174696E6720667B
:1008500061696C65640048656174696E67206661F2
:10086000696C656400504944204175746F74756EFD
:1008700065206661696C6564212054656D706572E0
:10088000617475726520746F6F20686967680A000B
:10089000204B643A2000204B693A2000204B703AEC
:1008A00020000A20436C617373696320504944201F
:1008B0000A002054753A2000204B753A2000206D24
:1008C00061783A2000206D696E3A200020643A2059
:1008D0000020626961733A200050494420417574D8
:1008E0006F74756E652073746172740A00504944A8
:1008F000204175746F74756E65206661696C6564FE
:100900002120426164206578747275646572206E7E
:10091000756D6265720A004F66660A00466164651D
:10092000204865696768742000426564204C6576DC
:10093000656C696E6720004661696C656420746F40
:1009400020656E61626C6520426564204C65766549
:100950006C696E670A004D65736820706F696E740C
:100960002063616E6E6F74206265207265736F6CB8
:100970007665640A004D34323120696E636F72729D
:1009800065637420706172616D6574657220757342
:100990006167650A004F66667365747320617070E5
:1009A0006C696564004572723A20546F6F2066610D
:1009B000722100546F6F206661722066726F6D2025
:1009C0007265666572656E636520706F696E740A24
:1009D00000496E736572742066696C616D656E7432
:1009E00020616E6420707265737320627574746F19
:1009F0006E0A00507265737320627574746F6E2096
:100A0000746F2068656174206E6F7A7A6C650A0075
:100A1000496E736572742066696C616D656E7420D1
:100A2000616E6420707265737320627574746F6E8A
:100A300020286F72204D313038290A0047322F4765
:100A4000332062616420706172616D6574657273D8
:100A50000A00536C6565702E2E2E00486F6D652060
:100A600058592066697273740A00486F6D65205882
:100A70005920666972737400205A3A200020593A4E
:100A8000200042656420583A20004D65736820704C
:100A90006F696E742063616E6E6F74206265207280
:100AA00065736F6C7665640A00436C69636B2074D0
:100AB0006F20726573756D652E2E2E004E6F206D42
:100AC0006F76652E00456E642066696C65206C69E2
:100AD00073740A00426567696E2066696C65206CF4
:100AE0006973740A004D31323500286E6F206669D3
:100AF0006C65290043757272656E742066696C6559
:100B00003A20005344207072696E74696E672062E7
:100B100079746520004E6F74205344207072696EA2
:100B200074696E670A005072696E742074696D652D
:100B30003A20006F6666003E03390332032B031D23
:100B40000344454255473A004B494C4C45442E20FE
:100B5000004D3131332053006F6B004A474D616BBC
:100B60006572204D61676963204F66662E002C20F8
:100B7000002C2000544845524D414C5F50524F5478
:100B8000454354494F4E004155544F5245504F52E2
:100B9000545F53445F53544154555300454D45529F
:100BA00047454E43595F50415253455200434153CC
:100BB000455F4C494748545F4252494748544E4567
:100BC000535300544F47474C455F4C494748545393
:100BD00000534F4654574152455F504F57455200BE
:100BE0004255494C445F50455243454E54004C4594
:100BF00056454C494E475F44415441005A5F50525C
:100C00004F4245004155544F4C4556454C005052BB
:100C1000494E545F4A4F420050524F47524553533A
:100C2000004155544F5245504F52545F54454D501A
:100C300000564F4C554D455452494300454550527E
:100C40004F4D0053455249414C5F584F4E5F584FEE
:100C50004646004649524D574152455F4E414D452B
:100C60003A4D61726C696E2076302E3320284769C8
:100C7000746875622920534F555243455F434F4472
:100C8000455F55524C3A68747470733A2F2F6769F8
:100C9000746875622E636F6D2F4D61726C696E465C
:100CA00069726D776172652F4D61726C696E20504B
:100CB000524F544F434F4C5F56455253494F4E3A53
:100CC000312E30204D414348494E455F54595045DF
:100CD0003A4A474D616B6572204D616769632045F3
:100CE000585452554445525F434F554E543A312063
:100CF000555549443A63656465326132662D343135
:100D000061322D343734382D396231322D63353527
:100D10006336326633363766660A002F2F20004D61
:100D200031343520533C696E6465783E206F7574AC
:100D3000206F662072616E67652028302D31290A88
:100D400000205400205200416363656C6572617439
:100D5000696F6E3A20500020466C6F773A20000091
:100D60000136372603FFFFFF353C3D380EFFFFFFFE
:100D7000312E303E12FFFFFFFF28FF0C0809FFFF56
:100D8000FF1A1C18FFFF2A08440AFF433A200020DC
:100D9000536572766F2000206F7574206F66207225
:100DA000616E67650A00536572766F200043290AF9
:100DB0000061626C656420286D696E2074656D70D9
:100DC0002000436F6C6420657874727564657320CD
:100DD00061726520004E6F2063617365206C6967E6
:100DE00068740A00454550524F4D204F4B0A003F52
:100DF0005A206F7574206F662072616E67652028B7
:100E00002D323020746F203230290A003A200050F1
:100E1000726F6265205A204F666673657400416385
:100E2000746976652045787472756465723A20003D
:100E3000496E76616C696420657874727564657258
:100E40000A00526573656E643A20006F6B0020746F
:100E50006F6F206C6F6E6720657874727573696F41
:100E60006E2070726576656E7465640A0020636F2B
:100E70006C6420657874727573696F6E207072652A
:100E800076656E7465640A00627573793A207061E4
:100E90007573656420666F7220696E7075740A00E0
:100EA000627573793A2070617573656420666F723C
:100EB00020757365720A00627573793A2070726FDB
:100EC00063657373696E670A004B494C4C45442E49
:100ED00020004B494C4C2063617573656420627936
:100EE000204B494C4C20627574746F6E2F70696E84
:100EF0000A004B494C4C45442E20004B494C4C2099
:100F000063617573656420627920746F6F206D75FD
:100F1000636820696E6163746976652074696D65C4
:100F2000202D2063757272656E7420636F6D6D6124
:100F30006E643A20004D36303000506C6561736548
:100F4000207265736574005052494E5445522048D2
:100F5000414C544544005072696E7465722068615A
:100F60006C7465642E206B696C6C28292063616C3D
:100F70006C6564210A004D33310053442072656171
:100F800064206572726F720A00446F6E6520707221
:100F9000696E74696E672066696C650A004B494C1E
:100FA0004C45442E200053544F505045442E2000B1
:100FB0005072696E7465722073746F70706564200E
:100FC00064756520746F206572726F72732E20468F
:100FD000697820746865206572726F7220616E6432
:100FE00020757365204D39393920746F207265730F
:100FF000746172742E202854656D70657261747509
:1010000072652069732072657365742E2053657450
:1010100020697420616674657220726573746172F0
:1010200074696E67290A004E6F20436865636B73AD
:10103000756D2077697468206C696E65206E756DBA
:101040006265722C204C617374204C696E653A2085
:10105000004E6F20436865636B73756D207769740C
:1010600068206C696E65206E756D6265722C204C0F
:10107000617374204C696E653A2000636865636B28
:1010800073756D206D69736D617463682C204C619C
:101090007374204C696E653A20004C696E65204E71
:1010A000756D626572206973206E6F74204C617378
:1010B00074204C696E65204E756D6265722B312C03
:1010C000204C617374204C696E653A20004D3131BB
:1010D0003000000050C1000050C1000000000000BE
:1010E0004842000048420000804000000000576174
:1010F000726E696E673A20486F6D696E672042753F
:101100006D702044697669736F72203C20310A004B
:101110000202040000A0400000A0400000004000C7
:1011200000734300005F4300007A43FFFFFF4D362A
:1011300030303A20546F6F20636F6C6400486F74D6
:10114000656E6420746F6F20636F6C640A007C3C72
:101150003E5E2B3D3F2F5B5D3B2C2A225C0045729F
:10116000726F722077726974696E6720746F2045A0
:101170004550524F4D210A00454550524F4D206475
:1011800061746173697A65206572726F722E0A00EC
:10119000290A002062797465733B20637263200022
:1011A00053657474696E67732053746F726564203D
:1011B0002800290A002062797465733B20637263FA
:1011C00020002073746F7265642073657474696E97
:1011D00067732072657472696576656420280020E3
:1011E0002863616C63756C6174656429210A002051
:1011F000213D2000454550524F4D20435243206D24
:1012000069736D61746368202D202873746F726533
:10121000642920002053697A653A2000496E64658C
:10122000783A2000204D61726C696E3D5635352943
:101230000A0028454550524F4D3D00454550524FFC
:101240004D2076657273696F6E206D69736D617480
:101250006368200048617264636F6465642044655C
:101260006661756C742053657474696E6773204C85
:101270006F616465640A002C0100002C01000064A9
:10128000000000900100000000964300009643001B
:1012900000A0400000C8410000A0420000A04200A1
:1012A0000048440000B0423A0A0020286D6D290031
:1012B00020204D36303320002055004C0046696C0C
:1012C000616D656E74206C6F61642F756E6C6F61FB
:1012D00064206C656E677468733A0A0020204D388C
:1012E0003531205A005A2D50726F6265204F666664
:1012F0007365740020440020490020204D333031B4
:101300002050005049442073657474696E67733AC5
:101310000A0020460020420020480020204D3134A1
:10132000352053004D6174657269616C2068656198
:1013300074757020706172616D65746572733A0ABC
:1013400000205A00204A00202047323920572049E7
:1013500000205A0020204D34323020530041757453
:101360006F20426564204C6576656C696E673A0A49
:1013700000205A0020590020204D323036205800DD
:10138000486F6D65206F66667365743A0A00204584
:1013900000205A00205900205800205400205300FB
:1013A00020204D32303520510020453C6D61785F62
:1013B000655F6A65726B3E0020583C6D61785F78AE
:1013C0005F6A65726B3E20593C6D61785F795F6A38
:1013D00065726B3E205A3C6D61785F7A5F6A657218
:1013E0006B3E00416476616E6365643A20513C6DEA
:1013F000696E5F7365676D656E745F74696D655F57
:1014000075733E20533C6D696E5F666565647261FD
:1014100074653E20543C6D696E5F74726176656CD4
:101420005F66656564726174653E002054002052F9
:101430000020204D323034205000416363656C65DC
:10144000726174696F6E2028756E6974732F7332C0
:10145000293A20503C7072696E745F616363656CF9
:101460003E20523C726574726163745F61636365B0
:101470006C3E20543C74726176656C5F6163636599
:101480006C3E0A00204500205A0020590020204DC3
:101490003230312058004D6178696D756D2041639F
:1014A00063656C65726174696F6E2028756E69740E
:1014B000732F7332293A0A00204500205A00205920
:1014C0000020204D3230332058004D6178696D7511
:1014D0006D206665656472617465732028756E6938
:1014E00074732F73293A0A00204500205A002059AE
:1014F0000020204D393220580053746570732070DD
:10150000657220756E69743A0A0020204D323030C1
:101510002044300A0020204D323030204400204446
:10152000697361626C65640A0046696C616D656E21
:10153000742073657474696E67733A0020204D31AE
:1015400034392043203B20556E69747320696E2026
:1015500043656C736975730A00202047323120207F
:1015600020203B00545249474745524544006F7084
:10157000656E003A200066696C616D656E74007A74
:101580005F6D696E00795F6D696E00785F6D696E81
:10159000005265706F7274696E6720656E64737453
:1015A0006F70207374617475730A0000000001008D
:1015B0000000010000800055555500000040003338
:1015C000333300AAAA2A004992240000002000C751
:1015D000711C0099991900D1451700555515003B0C
:1015E000B113002449120011111100000010000F66
:1015F0000F0F00E3380E0043790D00CCCC0C00C374
:10160000300C00E8A20B0064210B00AAAA0A0070AB
:101610003D0A009DD80900427B090092240900DCA4
:10162000D30800888808001042080000000800F075
:10163000C107008787070075500700711C07003E2F
:10164000EB0600A1BC060069900600666606007005
:101650003E06006118060017F4050074D105005B12
:10166000B00500B29005006272050055550500787E
:10167000390500B81E0500050505004EEC0400877D
:10168000D40400A1BD040090A7040049920400C145
:101690007D0400EE690400C7560400444404005C65
:1016A0003204000821040041100400000004003F3F
:1016B000F00300F8E0030026D20300C3C30300CC0C
:1016C000B503003AA803000A9B0300388E0300C04C
:1016D0008103009F750300D0690300505E03001D65
:1016E00053030034480300913D03003333030016D5
:1016F000290300381F030097150300300C03000373
:101700000303000BFA020049F10200BAE802005C90
:10171000E002002DD802002DD0020059C80200B00E
:10172000C0020031B90200DAB10200AAAA0200A088
:10173000A30200BC9C0200FA9502005C8F0200DF4D
:1017400088020082820200457C0200277602002780
:10175000700200436A02007C640200D05E02003F17
:10176000590200C853020020746F6F206C6F6E67BF
:1017700020657874727573696F6E20707265766516
:101780006E7465640A0020636F6C642065787472FF
:101790007573696F6E2070726576656E7465640A24
:1017A00000FFFDFCFAF8F6F4F2F0EEECEAE9E7E50A
:1017B000E3E1E0DEDCDAD9D7D5D4D2D0CFCDCBCAC5
:1017C000C8C7C5C3C2C0BFBDBCBAB9B7B6B4B3B24F
:1017D000B0AFADACAAA9A8A6A5A4A2A1A09E9D9CAD
:1017E0009A99989795949392908F8E8D8B8A8988E9
:1017F000878684838281807F7E7D7B7A7978777605
:101800007574737271706F6E6D6C6B6A6968676600
:101810006564636261605F5E5D5C5B5A59585857EE
:1018200056555453525150504F4E4D4C4B4A4A49C5
:1018300048474646454443424241403F3E3E3D3C88
:101840003B3B3A393838373635353433323231303C
:10185000302F2E2E2D2C2B2B2A29292827272625E1
:101860002524232322212120201F1E1E1D1C1C1B7A
:101870001B1A191918181716161515141313121206
:101880001111100F0F0E0E0D0D0C0C0B0A0A090989
:101890000808070706060505040403030202010001
:1018A0000024F4D43050C38E20C2A24017828B7023
:1018B00011127A910D816CD90AA861E108C75866A6
:1018C00007615143061E4B5D05C145A7041A41112E
:1018D00004093D9803713931034036DB02653391C9
:1018E00002D4305402802E1D02632CEE01752AC5ED
:1018F00001B028A001102781018F2564012B244B02
:1019000001E0223401AC211F018D200D01801FFC5C
:1019100000841EED00971DDF00B81CD200E61BC638
:1019200000201BBC00641AB200B219A8000A19A05A
:10193000006A189900D117910040178B00B51684E2
:101940000031167E00B31579003A157300C7146F85
:101950000058146A00EE1366008813630025135EB6
:1019600000C7125B006C12570015125400C11151D0
:101970000070114F0021114B00D61049008D104707
:10198000004610440002104200C00F4000800F3E8D
:1019900000420F3C00060F3B00CB0E3800930E3781
:1019A000005C0E3500270E3400F30D3200C10D31FE
:1019B00000900D3000600D2E00320D2D00050D2C15
:1019C00000D90C2B00AE0C2900850C29005C0C27DB
:1019D00000350C27000E0C2600E80B2400C40B2455
:1019E00000A00B23007D0B23005A0B2100390B2193
:1019F00000180B2000F80A1F00D90A1E00BB0A1E9F
:101A0000009D0A1D00800A1D00630A1C00470A1B76
:101A1000002C0A1B00110A1A00F7091A00DD091927
:101A200000C4091900AB091900920917007B0918B5
:101A300000630917004C0916003609160020091624
:101A4000000A091500F5081500E0081400CC081478
:101A500000B8081400A4081400900813007D0812B0
:101A6000006B0813005808120046081200340811D1
:101A700000230811001208110001081100F00710DE
:101A800000E0071000D0071000C0071000B0070FDB
:101A900000A107100091070E0083070F0074070FC5
:101AA0000065070E0057070E0049070E003B070DA3
:101AB000002E070E0020070D0013070D0006070D6E
:101AC00000F9060C00ED060D00E0060C00D4060C33
:101AD00000C8060C00BC060C00B0060C00A4060BE7
:101AE0000099060C008D060B0082060B0077060B92
:101AF000006C060B0061060A0057060B004C060A34
:101B00000042060A0038060A002E060A0024060AC9
:101B1000001A060A001006090007060A00FD05095A
:101B200000F4050900EB050900E2050900D90509E3
:101B300000D0050900C7050900BE050900B5050864
:101B400000AD050800A50509009C050800940508DE
:101B5000008C050800840508007C05080074050851
:101B6000006C050700650508005D050700560508BF
:101B7000004E050700470507004005080038050727
:101B800000310507002A050700230507001C05068C
:101B900000160507000F05070008050600020507E7
:101BA00000FB040600F5040700EE040600E8040646
:101BB00000E2040700DB040600D5040600CF04069B
:101BC00000C9040600C3040600BD040600B70406ED
:101BD00000B1040500AC040600A6040600A004053C
:101BE000009B04060095040500900406008A040585
:101BF0000085040500800406007A040500750405CC
:101C000000700405006B040500660405006104050E
:101C1000005C04050057040500520405004D04054E
:101C20000048040500430405003E0404003A04058E
:101C30000035040500300404002C040500270404CA
:101C400000230405001E0404001A04040016040501
:101C500000110404000D0404000904050004040438
:101C60000000040400FC030400F8030400F403046F
:101C700000F0030400EC030400E8030400E40304A0
:101C800000E0030400DC030400D8030400D40304D0
:101C900000D0030400CC030400C8030300C5030301
:101CA0000024F404D9201BC40C5C0E9804C4095F02
:101CB0000265077101F405F900FB04B300480487CD
:101CC00000C10369005803550003034500BE023AF2
:101CD000008402310053022A002902250004022058
:101CE00000E4011C00C8011900AF0117009801149D
:101CF0000084011300710110006101100051010EF8
:101D00000043010D0036010B002B010B0020010BDD
:101D100000150109000C01090003010800FB00087F
:101D200000F3000800EB000700E4000600DE0006F8
:101D300000D8000600D2000600CC000500C7000550
:101D400000C2000500BD000400B9000400B5000495
:101D500000B1000400AD000400A9000400A50003C8
:101D600000A20003009F0004009B000300980003F2
:101D7000009500020093000300900003008D000214
:101D8000008B00030088000200860002008400032C
:101D900000810002007F0002007D0002007B000243
:101DA0000079000200770001007600020074000252
:101DB0000072000100710002006F0002006D00015E
:101DC000006C0002006A0001006900020067000167
:101DD000006600010065000100640002006200016D
:101DE0000061000100600001005F0002005D000171
:101DF000005C0001005B0001005A00010059000175
:101E00000058000100570001005600010055000174
:101E10000054000100530000005300010052000173
:101E20000051000100500001004F0001004E000071
:101E3000004E0001004D0001004C0001004B00006D
:101E4000004B0001004A0001004900010048000069
:101E50000048000100470001004600000046000164
:101E6000004500000045000100440001004300005F
:101E70000043000100420000004200010041000058
:101E80000041000100400001003F0000003F000150
:101E9000003E0000003E0001003D0000003D00014A
:101EA000003C0000003C0000003C0001003B000042
:101EB000003B0001003A0000003A00010039000038
:101EC000003900010038000000380000003800012F
:101ED0000037000000370001003600000036000027
:101EE000003600010035000000350000003500011B
:101EF0000034000000340000003400010033000012
:101F00000033000000330001003200000032000006
:101F100000320001003100000031000000310001FA
:101F2000003000000030000000300001002F0000F1
:101F3000002F0000002F0000002F0001002E0000E5
:101F4000002E0000002E0001002D0000002D0000DA
:101F5000002D0000002D0001002C0000002C0000CE
:101F6000002C0000002C0001002B0000002B0000C2
:101F7000002B0000002B0001002A0000002A0000B6
:101F8000002A0000002A00010029000000290000AA
:101F9000002900000029000000290001002800009D
:101FA0000028000000280000002800000028000190
:101FB0000027000000270000002700000027000085
:101FC0000027000100260000002600000026000077
:101FD000002600000026000100250000002500006A
:101FE000002500000025000000250000002500015C
:101FF0000024000000240000002400000024000051
:102000000024000100230000002300000023000042
:102010000023000000230000002300000023000133
:102020000022000000220000002200000022000028
:102030000022000000220001002100000021000019
:10204000002100000021000000210000002100000C
:1020500000210001002000000020000000200000FE
:1020600000200000002000000020000000200000F0
:1020700000200001001F0000001F0000001F0000E2
:10208000001F0000001F0000001F0000001F0001D3
:10209000001E0000001E0000001E0000001E0000C8
:1020A00000393000003325000087190000B00F0010
:1020B00000DB080000BD040000740200003F0100C6
:1020C000006265640A002C2073797374656D207357
:1020D000746F7070656421204865617465725F4932
:1020E000443A20004265642068656174696E672027
:1020F0006661696C65640048656174696E67206635
:1021000061696C65640045312048656174696E677A
:10211000206661696C65640048656174696E67205A
:102120006661696C65640070012C0190012701B043
:10213000012201C0011D01F001180110021301303C
:10214000020E016002090190020401C002FF0000BA
:1021500003FA004003F5008003F000D003EB0020F9
:1021600004E6007004E100E004DC004005D700C094
:1021700005D2004006CD00D006C8008007C300305D
:1021800008BE00F008B900C009B400B00AAF00B042
:102190000BAA00D00CA500000EA000500F9B00C0A1
:1021A0001096005012910000148C00C0158700B0EA
:1021B000178200B0197D00D01B7800001E7300400C
:1021C000206E0090226900F024640040275F009098
:1021D000295A00E02B5500102E500020304B0010E3
:1021E000324600E033410090353C00103737007034
:1021F000383200A0392D00B03A2800A03B230060FF
:102200003C1E00103D1900903D1400103E0F007060
:102210003E0A00C03E0500003F0000403FFBFF803B
:102220003FF6FFC03FF1FF4531204572723A204D25
:10223000415854454D50004572723A204D41585412
:10224000454D5020424544004D415854454D502085
:102250007472696767657265640045312045727202
:102260003A204D494E54454D50004572723A204D2A
:10227000494E54454D5020424544004D494E544529
:102280004D5020747269676765726564004D38341B
:1022900020582059205A204500202800202F0020B7
:1022A00042403A0020403A0025753A253032750008
:1022B000253032753A253032750025756420253079
:1022C00032753A2530327500202020202020005A17
:1022D00000590020202020005800092000000000A4
:1022E0000000000000000000003FFFF000000000C0
:1022F0000000000000000000380070000000000036
:102300000000000000000030FC3000000000000071
:1023100000000000000020FC100000000000000091
:102320000000000000207810000000000000000005
:10233000000000002030100000000000000000003D
:102340000000002C00D03FC0000000000000002072
:1023500082002E31D07FE00000000000000010411C
:10236000002F7BD07FE00000000000000010410043
:102370002F7BD07FE0000000000000002082002EB4
:1023800031D03FC0000000000000004104002C00DC
:10239000D03FC00000000000000082080020301084
:1023A0007FE0000000000000008208002078107F1D
:1023B000E00000000000000041040020FC107FE06D
:1023C0000000000000000020820030FC301F800070
:1023D0000000000000000000003800700F00000046
:1023E0000000000000FFFFC03FFFF00600000000FB
:1023F00000000000FFFFC00000000000000000001F
:102400000000000000003FFFF0000000000000009E
:102410000000000000380070000000000000000014
:1024200000000000318630000000000000000000C5
:1024300000000023871000000000000000000000E2
:10244000000027879000000000000000000000004E
:10245000002F87D0000000000000000000000000F6
:102460002F03D03FC00000000000000020820020A9
:1024700030107FE0000000000000001041002078D4
:10248000107FE000000000000000104100207810E4
:102490007FE0000000000000002082002030103F9C
:1024A000C0000000000000004104002F03D03FC026
:1024B000000000000000008208002F87D07FE000AD
:1024C0000000000000008208002787907FE00000E5
:1024D00000000000004104002387107FE00000009E
:1024E000000000002082003186301F8000000000C4
:1024F0000000000000003800700F00000000000025
:102500000000FFFFC03FFFF00600000000000000D9
:1025100000FFFFC00000004A474D616B6572204D0F
:10252000616769632052656164792E005072696E3B
:1025300074696E672E2E2E005072696E7420706161
:1025400075736564004D3130362050256920532560
:1025500069004D31303920532569004D3139302023
:10256000532569004D3432302053300A4732382029
:102570005230205820590053746F70207072696E69
:102580007400526573756D65207072696E740050C9
:102590006F7765722D4C6F7373205265636F76652C
:1025A00072790053746F7720424C546F75636800E2
:1025B0004D32383020503020533930004465706C33
:1025C0006F7920424C546F756368004D323830206B
:1025D00050302053313000424C546F7563682053A3
:1025E000656C662D54657374004D32383020503060
:1025F000205331323000526573657420424C546F61
:10260000756368004D3238302050302053313630F9
:10261000004D61696E004D313235004D323400504D
:1026200072696E742061626F72746564004E6F200F
:1026300053442063617264005072696E7420667244
:102640006F6D2053440053746F70207072696E7404
:1026500000526573756D65207072696E7400416219
:102660006F7574205072696E746572005061757375
:1026700065207072696E7400436F6E74726F6C00C7
:10268000507265706172650054756E6500496E66C2
:102690006F2073637265656E004261627973746561
:1026A00070205A004368616E67652066696C616DD1
:1026B000656E74004261627973746570205A0046D9
:1026C0006C6F7700466C6F770046616E20737065A3
:1026D00065640046616E20737065656400426564E0
:1026E00000426564004E6F7A7A6C65004E6F7A7AAC
:1026F0006C650046616465204865696768740046DA
:102700006164652048656967687400537065656435
:10271000005370656564004D61696E0050726568B4
:1027200065617420504C4120456E640050726568AC
:1027300065617420504C41204265640050726568A8
:1027400065617420504C4100507265706172650083
:10275000507265686561742041425320456E640083
:10276000507265686561742041425320426564007F
:102770005072656865617420414253005072657003
:10278000617265004261636B004E65787420506F22
:10279000696E740053746F72652073657474696E2A
:1027A0006773004C6F61642073657474696E67733E
:1027B000004C6576656C20636F726E6572730050B5
:1027C000726F6265205A204F66667365740050729E
:1027D0006F6265205A204F666673657400466164B7
:1027E00065204865696768740046616465204865CE
:1027F00069676874004F6666004F6E20004265642A
:10280000204C6576656C696E67004C6576656C205A
:10281000626564004732380A47323900473239006E
:102820004175746F20686F6D6500473238005072D3
:102830006570617265004D343238004D3238302099
:102840005030205331363000424C546F756368204D
:1028500053656C662D54657374004D3238302050CA
:102860003020533132300050726568656174204108
:102870004253005072656865617420504C410043BA
:102880006F6F6C646F776E00526573657420424C95
:10289000546F756368004368616E67652066696C94
:1028A000616D656E740044697361626C6520737458
:1028B000657070657273004D38340053657420681C
:1028C0006F6D65206F666673657473004265642082
:1028D0004C6576656C696E67004175746F20686F32
:1028E0006D6500473238004D6F76652061786973F9
:1028F000004D61696E004D6F76652058004D6F7612
:10290000652059004D6F7665205A004578747275C0
:10291000646572004D6F766520302E316D6D004D0F
:102920006F766520316D6D004D6F76652031306DAD
:102930006D004D6F7665206178697300457874721B
:1029400075646572004D6F7665205A004D6F76652F
:102950002059004D6F766520580045787472756473
:102960006572004D6F7665205A004D6F766520596F
:10297000004D6F7665205800507265706172650079
:10298000496E697469616C697A6520454550524F9A
:102990004D00436F6E74726F6C00526573746F728A
:1029A00065206661696C73616665004C6F616420C7
:1029B00073657474696E677300496E697469616CDC
:1029C000697A6520454550524F4D0053746F7265CA
:1029D0002073657474696E677300424C546F75633D
:1029E000680046696C616D656E74004D6F74696F47
:1029F0006E0054656D7065726174757265004D612D
:102A0000696E0050726568656174204142532063AD
:102A10006F6E66005072656865617420504C41208D
:102A2000636F6E66005049442D44005049442D4464
:102A3000005049442D49005049442D490050494413
:102A40002D50005049442D500020082046616374E9
:102A50000020082046616374002008204D61780042
:102A60002008204D6178002008204D696E00200864
:102A7000204D696E004F6666004F6E2000417574F0
:102A80006F74656D700046616E20737065656400DB
:102A900046616E207370656564004265640042653E
:102AA00064004E6F7A7A6C65004E6F7A7A6C6500BE
:102AB000436F6E74726F6C0053746F726520736530
:102AC0007474696E67730042656400426564004E09
:102AD0006F7A7A6C65004E6F7A7A6C650046616E2B
:102AE0002073706565640046616E2073706565646F
:102AF0000054656D7065726174757265005654722C
:102B00006176206D696E005654726176206D696E33
:102B100000566D696E00566D696E00566D617820C5
:102B20004500566D6178204500566D6178205A0049
:102B3000566D6178205A00566D6178205900566DA7
:102B40006178205900566D6178205800566D617883
:102B50002058004D6F74696F6E00416D617820459B
:102B600000416D6178204500416D6178205A004137
:102B70006D6178205A00416D6178205900416D6186
:102B800078205900416D6178205800416D617820AE
:102B90005800412D74726176656C00412D7472612C
:102BA00076656C00412D7265747261637400412D0D
:102BB0007265747261637400416363656C004163A4
:102BC00063656C004D6F74696F6E0056652D6A65A4
:102BD000726B0056652D6A65726B00567A2D6A65B8
:102BE000726B00567A2D6A65726B0056792D6A6594
:102BF000726B0056792D6A65726B0056782D6A6586
:102C0000726B0056782D6A65726B004D6F74696F38
:102C10006E004573746570732F6D6D004573746538
:102C200070732F6D6D005A73746570732F6D6D0026
:102C30005A73746570732F6D6D005973746570737A
:102C40002F6D6D005973746570732F6D6D0058731F
:102C5000746570732F6D6D005873746570732F6D8C
:102C60006D004D6F74696F6E0053746570732F6DD6
:102C70006D004A65726B00416363656C65726174D7
:102C8000696F6E0056656C6F636974790050726F7E
:102C90006265205A204F66667365740050726F62D9
:102CA00065205A204F666673657400436F6E7472B8
:102CB0006F6C004C6F6164206D6D004C6F6164201F
:102CC0006D6D00556E6C6F6164206D6D00556E6C9E
:102CD0006F6164206D6D0046696C2E204469612E21
:102CE0000046696C2E204469612E004F6666004FD5
:102CF0006E20004520696E206D6D3300436F6E7449
:102D0000726F6C0043616E6E6F7420656E746572D5
:102D1000207375626469723A2000022E2E004D61A4
:102D2000696E0000457874727564656420746F7410
:102D3000616C3A2000256C642E25696D00004C6F93
:102D40006E67657374206A6F622074696D653A20DE
:102D50000000546F74616C207072696E7420746925
:102D60006D653A2000436F6D706C657465643A2040
:102D7000005072696E7420436F756E743A20004D76
:102D800061782054656D703A20313235004D696E9E
:102D90002054656D703A203500544265643A4550C0
:102DA000434F53203130304B004D61782054656DD6
:102DB000703A20323630004D696E2054656D703A9D
:102DC00020350054303A204550434F5320313030A5
:102DD0004B005053553A2047656E65726963005049
:102DE000726F746F636F6C3A20312E3000426175E0
:102DF000643A203131353230300052414D50532049
:102E0000312E340042696C696E656172204C6576C2
:102E1000656C696E67004578747275646572733AA3
:102E200020310068747470733A2F2F676974687565
:102E3000622E636F6D2F636E6F72746F6E2D776588
:102E4000626465762F6A675F6D616B65725F6D6145
:102E50006769635F7630335F626C746F75636800B7
:102E60004A474D616B6572204D616769630032307E
:102E700032302D30372D31330076302E33004D6116
:102E8000726C696E005072696E7465722053746161
:102E9000747300546865726D6973746F7273004265
:102EA0006F61726420496E666F005072696E74655E
:102EB0007220496E666F004D61696E004D37303289
:102EC00020542564004D3630302042302054256493
:102ED000004D373032203B2564004D3730312054CF
:102EE000256400556E6C6F61642066696C616D6568
:102EF0006E7400556E6C6F61642066696C616D65FF
:102F00006E74004D373032004D373031004C6F61F8
:102F1000642066696C616D656E74004D36303020DA
:102F20004230004368616E67652066696C616D655B
:102F30006E740050726570617265005052494E5453
:102F40002050415553454400554E4C4F4144204676
:102F5000494C414D454E54004C4F41442046494C4C
:102F6000414D454E54005075726765206D6F726516
:102F700000436F6E74696E756500524553554D453B
:102F8000204F5054494F4E533A0020204E6F7A7ACA
:102F90006C653A20006368616E6765006F66207437
:102FA00068652066696C616D656E7400576169744F
:102FB00020666F722073746172740020204E6F7AE5
:102FC0007A6C653A2000200066696C616D656E74EC
:102FD00020756E6C6F6164005761697420666F7252
:102FE0000020204E6F7A7A6C653A20002000506CE9
:102FF0006561736520776169742E2E2E00486561C6
:1030000074696E67206E6F7A7A6C650020204E6F4F
:103010007A7A6C653A2000200068656174206E6FD2
:103020007A7A6C652E0050726573732062757474C1
:103030006F6E20746F0020204E6F7A7A6C653A2094
:1030400000746F20636F6E74696E75652E2E2E008E
:10305000616E6420707265737320627574746F6E34
:1030600000496E736572742066696C616D656E747B
:103070000020204E6F7A7A6C653A20002000666945
:103080006C616D656E74206C6F616400576169746A
:1030900020666F720020204E6F7A7A6C653A2000AD
:1030A000200066696C616D656E742070757267656D
:1030B000005761697420666F7200746F20726573C7
:1030C000756D65005761697420666F722070726952
:1030D0006E7400436172642072656D6F7665640082
:1030E0004361726420696E736572746564000000E8
:1030F0002100240027002A002D00300033000101A8
:103100000000040107010A01000022002500280038
:103110002B002E00310034000201000005010801DF
:103120000B01000020002300260029002C002F00A6
:103130003200000100000301060109010505050533
:10314000070508080808020202020A0A080804041F
:10315000040401010101010101010303030303034D
:103160000303040707070C0C0C0C0C0C0C0C0202DC
:10317000020206060606060606060B0B0B0B0B0BD9
:103180000B0B010210202008081020401020408066
:10319000020102010804020101020408102040801B
:1031A00080402010080402018004020180402010A9
:1031B00008040201080402010102040810204080F2
:1031C000010204081020408000000A0B02090C0DC7
:1031D0000E080703040100000000000000000000CA
:1031E00000000000000000000000000000000000DF
:1031F000000000001211100000000000000000009C
:1032000000000000000000000000000000000200BC
:1032100000000000000000000000000000000000AE
:10322000000000000000000000000000000000009E
:10323000000000000000000000000000000000008E
:10324000000000000000000000000000000000007E
:10325000000000000000000000000000000000006E
:10326000000000000000000000000000000000005E
:103270000001C00E0000000000000000000000007F
:10328000003FC1FE00000000000000000000000040
:1032900007FFDFFE0000000000000000000000004B
:1032A0007FFFFFFE00000000000000000000000F94
:1032B000FFFFFFFE00000000000000000000000F04
:1032C000FFFFFFFE00000000000000000000000FF4
:1032D000FFFFFFFE00000000000000000000000FE4
:1032E000FFFFFFFE00000000000000000000000FD4
:1032F000FFFFF88E00000000000000000000000F3B
:10330000FFFFC00E00000000000000000000000FE2
:10331000C3FF800E0200400C018086022000000FD7
:10332000C3FF030E0180700700C0C3FE3FE0000F23
:10333000E3FF0F8E03C0700700C183063030000F1B
:10334000E3FF1FFE03C0700700C303043030000F0B
:10335000E3FE1FFE03C0700D80C603003030000F77
:10336000E3FE1FFE03C0F00980CC03003030000FE5
:10337000E3FE1F3E0360980880D803003030000F42
:10338000E3FE1F0E03619818C0FC03F838E0000F3D
:10339000E3FE1F0E02219818C0FC03003FC0000F7F
:1033A000E3FE1F8E0631183FE0C6030030C0000F59
:1033B000E3FE1F8E0633183060C6030030C0000FD6
:1033C000E3FF0F0E0613186030C303003060000FD8
:1033D000E3FF020E061E186030C383003070000F3A
:1033E000E3FF800E060C18E030C183043030000F7C
:1033F000E3FFC00E060C0CC018C1C3FE3038000F2E
:10340000E3FFFFFE040008C0188083FE1010000FC9
:10341000E3FFFFFE00000000000000000000000FBE
:10342000C3FFFFFE00000000000000000000000FCE
:10343000C7FFFFFE00000000000000000000000FBA
:10344000CFFFFFFE00000000000000000000000FA2
:10345000FFFFFFFE00000000000000000000000F62
:10346000FFFFFFFE00000000000000000000000F52
:10347000FFFFFFFC00000000000000000000000F44
:10348000FFFFFFC000000000000000000000000F70
:10349000FF3FF800003E0F80F001F01C03C0000F5A
:1034A000E03F0000003E0F80F007FC1C0FF0000E14
:1034B00000300000003E0F81F80F1E1C1E38000077
:1034C00000000000003B1B81981C081C1C1C000015
:1034D00000000000003B1B81981C001C380000000D
:1034E00000000000003B1B839C1C001C38000000F7
:1034F00000000000003913831C1C3F1C3800000032
:10350000000000000039B3830E1C3F1C380000008F
:10351000000000000039B3870E1C071C38000000B3
:10352000000000000039F387FE1C071C3C1C000053
:10353000000000000038E38FFF0E061C1C1C00007A
:10354000000000000038E38E070FFE1C0FF800009B
:10355000000000000038E38E0707F81C07F00000A9
:10356000000000000000000000000000000000005B
:10357000000000000000000000000000000000004B
:10358000000000000000000000000000000000003B
:10359000000000000000000000000000000000002B
:1037A0000000000000000000C00000000000000752
:1037B000F07FF8000FFF0001E00000000000000FA4
:1037C000783C3E00078F8001E00000600000001C94
:1037D0003C1C0F000383C000C00000E00000001C80
:1037E0003C1C0F000381C000000000E0000000004E
:1037F0003C1C07800381CEF9E1FF81E01F0EF00041
:10380000FC1C07800383DFFFE3FFC3FE7FDFF803B9
:10381000F01C03800383C7B8E0F1C0E071C7B800B3
:10382000781C0380038F8700E0E1C0E0F1E700002F
:103830003C1C038003FF0700E0E1C0E0FFE700005D
:103840001E1C078003800700E0E1C0E0E0070038AD
:103850001E1C078003800700E0E1C0E0E007003C99
:103860001E1C078003800700E0E1C0E0F007003C79
:103870003C1C0F0003800700E0E1C0E0F0E7001F00
:103880007C3C7E0007C00F81F1F3E0F67FCF800F14
:10389000F07FFC000FE01FC3FBFFF0FE3F9FC00066
:1038A00000000000000000000000007C000000009C
:1038B0000000000000000000000000000000000008
:1038C00000000000000000000000000000000000F8
:1038D00000000000000000000000000000000000E8
:1038E00000000000000000000000000000000000D8
:1038F00000000000000000000000000000000000C8
:1039000000000000000000000000000000000000B7
:1039100000000000000000000000000000000000A7
:103920000000000000000000000000000000000097
:103930000000000000000000000000000000000087
:103940000000000000000000000000000000000077
:103950000000000000000000000000000000000067
:103960000000000000000000000000000000000057
:103970000000000000000000000000000000000047
:103980000000000000000000000000000000000037
:103990000000000000000000000000000000000027
:1039A0000000000000000000000000000000000017
:1039B0000000000000000000000000000000000007
:1039C00000000000000000000000000000000000F7
:1039D00000000000000000000000000000000000E7
:1039E00000000000000000000000000000000000D7
:1039F00000000000000000000000000000000000C7
:103A0000000000000000000000000000000000496D
:103A10004E56414C49442044415441004D323420DB
:103A200053256C642054256C64004D32332025737B
:103A3000004730205A25730047323820583020592B
:103A400030004730205A257300473932205A2573F9
:103A5000204525730070776F666620686F6D650A74
:103A6000000D0A72656164206A6F6252637646696E
:103A70006C654E616D65204F4B0D0A0A0020205089
:103A80006C616E6E657242756666657242797465C8
:103A9000733A20002046726565204D656D6F72791E
:103AA0003A2000436F6D70696C65643A204A756C0A
:103AB00020313420323032300A00207C20417574AD
:103AC000686F723A20284368726973746F70686512
:103AD00072204E6F72746F6E2C2076302E33290A4E
:103AE00000323032302D30372D313300204C6173AD
:103AF0007420557064617465643A200076302E330A
:103B00000A004D61726C696E0020536F66747761B4
:103B100072652052657365740A002057617463688A
:103B2000646F672052657365740A002042726F7774
:103B30006E206F75742052657365740A0020457895
:103B40007465726E616C2052657365740A00506F03
:103B500077657255700A0073746172740A0061753A
:103B6000746F25692E67006572726F7220777269B3
:103B700074696E6720746F2066696C650A000D0AAF
:103B80000A000D0A204463757272656E745F706F6F
:103B9000736974696F6E20000D0A20536375727229
:103BA000656E745F706F736974696F6E2000456E27
:103BB0006473746F70732025632025632025632050
:103BC000256300205A3A0020593A0020583A0065EF
:103BD0006E6473746F7073206869743A2000446F68
:103BE0006E6520736176696E672066696C652E0A62
:103BF000004D3239004368616E67652066696C610B
:103C00006D656E7400556E6C6F61642066696C61E1
:103C10006D656E74004C6F61642066696C616D65E2
:103C20006E740050726568656174204142530050A3
:103C300072656865617420504C41004368616E672D
:103C4000652066696C616D656E74004D3234004D9F
:103C5000323320257300556E6B6E6F776E20636F65
:103C60006D6D616E643A202200496E736572742036
:103C700066696C616D656E7420616E64207072653A
:103C8000737320627574746F6E20286F72204D31CB
:103C90003038290A0050726F62696E672066616968
:103CA0006C65640A0050726F62696E6720666169B4
:103CB0006C656400205A3A200020593A2000426581
:103CC0006420583A200053544F505045442E200051
:103CD0005072696E7465722073746F7070656420C1
:103CE00064756520746F206572726F72732E204642
:103CF000697820746865206572726F7220616E64E5
:103D000020757365204D39393920746F20726573C1
:103D1000746172742E202854656D706572617475BB
:103D200072652069732072657365742E2053657403
:103D300020697420616674657220726573746172A3
:103D400074696E67290A0053544F502063616C6C8C
:103D500065642062656361757365206F6620424CFF
:103D6000546F756368206572726F72202D207265C2
:103D700073746172742077697468204D3939390A17
:103D800000486F6D65202573257325732066697261
:103D90007374002066697273740A005A00590058DF
:103DA00000486F6D65200053442063617264206F8A
:103DB0006B0A006F70656E526F6F74206661696C7C
:103DC00065640A00766F6C756D652E696E69742086
:103DD0006661696C65640A00534420696E697420E9
:103DE0006661696C0A0057726974696E6720746F46
:103DF0002066696C653A20006F70656E20666169A7
:103E00006C65642C2046696C653A20006F70656EA5
:103E1000206661696C65642C2046696C653A2000F7
:103E200046696C652073656C65637465640A00207F
:103E300053697A653A200046696C65206F70656E3B
:103E400065643A20002066696C653A2000646F69F9
:103E50006E67006672657368004E6F772000454E8E
:103E60004420535542524F5554494E450A00222092
:103E7000706F73002220706172656E743A22005375
:103E80005542524F5554494E452043414C4C2074A5
:103E900061726765743A22004B494C4C45442E20B0
:103EA00000747279696E6720746F2063616C6C2096
:103EB0007375622D67636F64652066696C65732036
:103EC0007769746820746F6F206D616E79206C65FE
:103ED00076656C732E204D4158206C6576656C209C
:103EE00069733A0043616E6E6F74206F70656E2067
:103EF00073756264697220006563686F3A00577277
:103F00006974696E6720746F2066696C653A200079
:103F10006F70656E206661696C65642C2046696C03
:103F2000653A200044656C6574696F6E206661694E
:103F30006C65642C2046696C653A200046696C65A6
:103F40002064656C657465643A006F70656E206608
:103F500061696C65642C2046696C653A2000457285
:103F6000726F723A00453120544845524D414C2001
:103F700052554E41574159004245442054484552FC
:103F80004D414C2052554E4157415900546865727D
:103F90006D616C2052756E617761790000060900D1
:103FA000FE0701920321207FFF07FF07FF000000AB
:103FB00006000001070706020080808080800080E4
:103FC000030202060105A0A00507070600005050E5
:103FD000F850F850500507070600002078A0702818
:103FE000F020050707060000C0C8102040981805FB
:103FF00007070600006090A040A89068020303062F
:104000000104C04080030707060100204080808033
:104010004020030707060100804020202040800543
:10402000050506000120A870A82005050506000169
:104030002020F820200203030602FFC04080050173
:1040400001060003F8020202060200C0C0050505D1
:104050000600010810204080050707060000708850
:10406000888888887003070706010040C0404040E8
:1040700040E0050707060000708808708080F8059A
:104080000707060000F81020100808F005070706CB
:10409000000010305090F81010050707060000F8D7
:1040A00080F008088870050707060000708080F01F
:1040B000888870050707060000F8081020202020D7
:1040C0000507070600007088887088887005070754
:1040D000060000708888780808700205050602004E
:1040E000C0C000C0C00206060602FFC0C000C0403B
:1040F00080040707060000102040804020100503C0
:1041000003060002F800F8040707060100804020BB
:104110001020408005070706000070880810200066
:104120002005070706000070880868A8A870050722
:1041300007060000708888F8888888050707060049
:1041400000F08888F08888F005070706000070886E
:104150008080808870050707060000F088888888BE
:1041600088F0050707060000F88080F08080F805D9
:104170000707060000F88080F080808005070706AA
:104180000000708880B888887005070706000088DE
:104190008888F88888880107070602008080808068
:1041A000808080050707060000381010101090600E
:1041B0000507070600008890A0C0A09088050707A3
:1041C000060000808080808080F8050707060000D8
:1041D00088D8A8888888880507070600008888C8C6
:1041E000A89888880507070600007088888888884E
:1041F00070050707060000F08888F08080800507BA
:104200000706000070888888A890680507070600E0
:1042100000F08888F0A090880507070600007880E5
:1042200080700808F0050707060000F8202020200D
:104230002020050707060000888888888888700580
:104240000707060000888888888850200507070629
:1042500000008888888888A850050707060000881D
:1042600088502050888805070706000088888850F5
:10427000202020050707060000F80810204080F8DD
:10428000030707060100E08080808080E0050505C7
:104290000600018040201008030707060100E02007
:1042A00020202020E005030306000420508805019B
:1042B00001060000F802020206020580400505051D
:1042C00006000070087888780507070600008080DF
:1042D000B0C88888F00505050600007080808870E9
:1042E000050707060000080868988888780505050E
:1042F0000600007088F88070050707060000304847
:10430000E0404040400506060600FF7088887808B7
:10431000700507070600008080B0C88888880107FC
:104320000706020080008080808080030808060164
:10433000FF200020202020A0400407070600008066
:104340008090A0C0A090030707060100C040404035
:104350004040E0050505060000D0A8A8A8A805056E
:1043600005060000B0C888888805050506000070AD
:10437000888888700506060600FFF08888F080802F
:104380000506060600FF78888878080805050506F2
:104390000000B0C8808080050505060000708070B0
:1043A00008F00407070600004040E04040403005A8
:1043B0000505060000888888986805050506000040
:1043C00088888850200505050600008888A8A85020
:1043D00005050506000088502050880506060600E1
:1043E000FF888888780870050505060000F8102009
:1043F00040F80307070601002040408040402001AC
:1044000007070602008080808080808003070706FF
:104410000100804040204040800502020600026802
:104420009000000006000000060900FE00000000E9
:104430000001090008FE000005080806000040F021
:10444000C88888987810050808060000C0F8888891
:10445000888888F80505050600012030F830200519
:1044600008080600002070F820202020E005090937
:104470000600FF2070A8A8B88888702005090906E2
:1044800000FFE080C0B0A8283028280509090600F0
:10449000FFF8A88888888888A8F8050A0A0600FE18
:1044A000205050505088A8A88870030303060003CA
:1044B00040A04000BA00B00011241FBECFEFD1E2EF
:1044C000DEBFCDBF00E00CBF13E0A0E0B2E0EAE049
:1044D000FBE802E00BBF02C007900D92AC36B107BB
:1044E000D9F72DE1ACE6B3E001C01D92A33BB207C2
:1044F000E1F712E2CBE5D2E200E006C02197010924
:10450000802FFE010F94E644CA35D10780E00807EA
:10451000A9F70F94A22E0D9474450C940000CF932C
:10452000DF9390916F00292F227091FF05C0909129
:104530006F009D7F90936F0094E0899FA0011124EC
:10454000FA01EA5AFB4E60817181828193812223B4
:1045500029F020916F00226020936F00EA01CD5373
:10456000D44F0F94323B288139814A815B810F946B
:10457000913BDF91CF910895CF92DF92EF92FF921E
:104580008091520C882309F457C0C0904E0CD090F3
:104590004F0CE090500CF090510C20E030E0A9015D
:1045A000C701B6010F942C3B882309F445C020E0D5
:1045B00030E040E05FE3C701B6010F94913B9B01FF
:1045C000AC010F94913B2BED3FE049E450E40F9494
:1045D000913B9B01AC0160E070E080E89FE30F94A9
:1045E000C1426B017C01C092D90BD092DA0BE092F0
:1045F000DB0BF092DC0B6091230270912402072EFA
:10460000000C880B990B0F94323B2AE037ED43E204
:104610005CE30F94913BA70196010F94913B60934B
:104620001F02709320028093210290932202FF9038
:10463000EF90DF90CF900895C12CD12C80E8E82E28
:104640008FE3F82ED0CF8F929F92AF92BF92CF92EE
:10465000DF92EF92FF92CF93DF93EC018090BA0B41
:104660009090BB0BA090BC0BB090BD0B20E030E055
:10467000A901C501B4010F942C3B882309F452C051
:10468000C880D980EA80FB80A7019601C501B401EA
:104690000F942C3B18160CF04AC02091A4053091C1
:1046A000A5054091A6055091A705C701B6010F9435
:1046B0002C3B882321F1C092A405D092A505E0925D
:1046C000A605F092A7052091A0053091A105409183
:1046D000A2055091A305C701B6010F94913B9B0120
:1046E000AC0160E070E080E89FE30F94E4416093E8
:1046F0000F02709310028093110290931202609146
:104700000F02709110028091110290911202DF91BC
:10471000CF91FF90EF90DF90CF90BF90AF909F90A0
:104720008F90089560E070E080E89FE3F0CF60E054
:1047300070E0CB01ECCFCF92DF92EF92FF92CF935C
:10474000DF93EC01C090E10BD090E20BE090E30B23
:10475000F090E40BA7019601688179818A819B81A1
:104760000F942C3B87FF04C0C882D982EA82FB8267
:10477000C090E50BD090E60BE090E70BF090E80BD3
:10478000A70196016C817D818E819F810F942C3BC6
:1047900087FF04C0CC82DD82EE82FF82C0902702B8
:1047A000D0902802E0902902F0902A02A7019601F9
:1047B000688179818A819B810F940C44181624F4B6
:1047C000C882D982EA82FB82C0902B02D0902C0250
:1047D000E0902D02F0902E02A70196016C817D8160
:1047E0008E819F810F940C44181624F4CC82DD82B4
:1047F000EE82FF82C090E90BD090EA0BE090EB0BC9
:10480000F090EC0BA7019601688579858A859B85D8
:104810000F942C3B87FF04C0C886D986EA86FB86A6
:10482000C0902F02D0903002E0903102F09032021E
:10483000A7019601688579858A859B850F940C442C
:10484000181624F4C886D986EA86FB86DF91CF91B4
:10485000FF90EF90DF90CF9008955F9A809134148D
:104860008E7F809334148A9A809134148D7F809344
:1048700034148091080180958170809306018091A5
:1048800034148B7F80933414129A0895CF93DF935E
:1048900080E045DEC6E7D4E0688379838A839B8322
:1048A00081E03DDE6C837D838E839F8382E037DEF3
:1048B000688779878A879B87DF91CF910895CF9208
:1048C000DF92EF92FF926091DD0B7091DE0B072E6D
:1048D000000C880B990B0F94323B6B017C012DEB84
:1048E00037E346E855EB0F940C4487FD0BC02DEBE6
:1048F00037E346E855E3C701B6010F942C3B181681
:104900000CF043C0A701960160E070E080E89FE3EF
:104910000F94C14260936E0470936F04809370048F
:10492000909371046091DF0B7091E00B072E000CE7
:10493000880B990B0F94323B6B017C012DEB37E315
:1049400046E855EB0F940C4487FD0AC02DEB37E386
:1049500046E855E3C701B6010F942C3B1816CCF47A
:10496000A701960160E070E080E89FE30F94C142E8
:10497000609372047093730480937404909375042D
:10498000FF90EF90DF90CF90089560E070E0CB0152
:10499000C1CF60E070E0CB01EBCF809196039091A6
:1049A0009703A0919803B09199038093600290932C
:1049B0006102A0936202B09363028091940390918C
:1049C00095039093260280932502089580916002BA
:1049D00090916102A0916202B0916302809396036C
:1049E00090939703A0939803B09399038091250225
:1049F00090912602909395038093940384E690E02F
:104A0000909326028093250208950F931F93CF93CE
:104A1000DF9394E0899FE00111248E010B5C1B4E13
:104A2000FE01E25CFD4EDE01AB5DBA4F2D913D9182
:104A30004D915C9160817181828193810F94E541F8
:104A4000F8016083718382839383FE01E156FC4FFA
:104A500085919591A591B491FE01EF51F44F80831A
:104A60009183A283B383FE01E555FC4F8591959117
:104A7000A591B491C95DDD4F88839983AA83BB83D7
:104A8000DF91CF911F910F91089590914E12E92FD0
:104A9000F0E0E65BFD4E80839F5F943040F490939E
:104AA0004E128091D3138F5F8093D3130895109289
:104AB0004E12F7CF089590E080E0089580E1E5E49C
:104AC000F4E1ABE0B4E101900D928A95E1F708952D
:104AD00080E1EBE0F4E1A5E4B4E101900D928A9568
:104AE000E1F7089580914804909149042FEF3FEF3A
:104AF000981751F0E92FF0E0E853FC4F208130E0A7
:104B00009F5F9F7790934904C90108954F925F92E8
:104B10006F927F928F929F92AF92BF92CF92DF92CD
:104B2000EF92FF920F931F93CF93DF93EC0160916D
:104B3000310570913205072E000C880B990B0F94EC
:104B4000323B9B01AC01688179818A819B810F9402
:104B5000E4416B017C016091330570913405072EAF
:104B6000000C880B990B0F94323B9B01AC016C81BC
:104B70007D818E819F810F94E4414B015C01A701EF
:104B8000960160910602709107028091080290914F
:104B900009020F942C3B882309F45AC0C0920602E4
:104BA000D0920702E0920802F092090220916E046E
:104BB00030916F044091700450917104C701B601A7
:104BC0000F94913B2B013C010F945A436B017C01E4
:104BD00020E030E0A9010F942C3B87FD7AC020E053
:104BE00030E040E850E4C701B6010F940C441816B9
:104BF00034F4C12CD12CC0E8EC2EC0E4FC2EA7016B
:104C00009601C301B2010F94E4412B013C0120E065
:104C100030E0A9010F942C3B87FD5FC040926A04ED
:104C200050926B0460926C0470926D04C701B601DF
:104C30000F94294360936904062E000C770B6F5F75
:104C40007F4F6430710514F064E070E06093680495
:104C5000D091010210916904A501940160910202B2
:104C60007091030280910402909105020F942C3BF5
:104C700081113CC0D11394C020914A0430914B045F
:104C800040914C0450914D0460916A0470916B0402
:104C900080916C0490916D040F94913B20914E048F
:104CA00030914F0440915004509151040F94E541CC
:104CB000DF91CF911F910F91FF90EF90DF90CF90F8
:104CC000BF90AF909F908F907F906F905F904F902C
:104CD0000895C12CD12C760192CF10926A041092C3
:104CE0006B0410926C0410926D04A0CF80920202AB
:104CF00090920302A0920402B092050220917204E5
:104D0000309173044091740450917504C501B4014D
:104D10000F94913B4B015C010F945A436B017C0152
:104D200020E030E0A9010F942C3B87FDF9C020E082
:104D300030E040E850E4C701B6010F940C44181667
:104D400034F4C12CD12CB0E8EB2EB0E4FB2EA7013B
:104D50009601C501B4010F94E4414B015C0120E0D0
:104D600030E0A9010F942C3B87FDDEC080926404E3
:104D700090926504A0926604B0926704C701B601E0
:104D80000F94294360936304062E000C770B6F5F2A
:104D90007F4F6430710514F064E070E0609362044A
:104DA000C0916304D11305C0809100028C1709F4EF
:104DB0006CC010930102C09300020C2E000CDD0B9E
:104DC00025E01203C0011124FC01EC0FFD1FEE0FC2
:104DD000FF1FEE0FFF1FE55CFA4F208131814281FA
:104DE000538120935E0430935F044093600450939A
:104DF000610400916204002E000C110BFC01E00F15
:104E0000F11FEE0FFF1FEE0FFF1FE55CFA4F6081F1
:104E10007181828193810F94E44160935A0470936D
:104E20005B0480935C0490935D042091680435E0FA
:104E30002303F0011124CE0FDF1FCC0FDD1FCC0F99
:104E4000DD1FC55CDA4F288139814A815B8120935F
:104E50005604309357044093580450935904E00F7C
:104E6000F11FEE0FFF1FEE0FFF1FE55CFA4F608191
:104E70007181828193810F94E44160935204709315
:104E8000530480935404909355048090640490904C
:104E90006504A0906604B090670420915A04309194
:104EA0005B0440915C0450915D04C501B4010F9412
:104EB000913B20915E0430915F04409160045091D9
:104EC00061040F94E5416B017C01C0924E04D092C5
:104ED0004F04E0925004F09251042091520430911A
:104EE00053044091540450915504C501B4010F94EA
:104EF000913B2091560430915704409158045091B1
:104F000059040F94E541A70196010F94E441609381
:104F10004A0470934B0480934C0490934D04ACCEA0
:104F2000C12CD12C760113CF109264041092650429
:104F3000109266041092670421CFCF92DF92EF9215
:104F4000FF92CF93DF9320914F12222319F1EC01AE
:104F5000089679DB6B017C0120E030E0A9010F9419
:104F60002C3B20E030E0A901882351F0CE01CEDDBA
:104F70009B01AC01C701B6010F94913B9B01AC01B1
:104F8000688579858A859B850F94E4416887798750
:104F90008A879B87DF91CF91FF90EF90DF90CF9032
:104FA00008952F923F924F925F926F927F928F92CD
:104FB0009F92AF92BF92CF92DF92EF92FF920F93A8
:104FC0001F93CF93DF93CDB7DEB76C970FB6F894EE
:104FD000DEBF0FBECDBF8C015B015A834983FC014C
:104FE000E95BFF4F2081318142815381298B3A8BCC
:104FF0004B8B5C8BCA01B9010F94303B6B017C0178
:10500000D5012D913D914D915C910F94913B0F9461
:10501000AB420F942E434B015C01E981FA81208160
:10502000318142815381C701B6010F94913B0F94A6
:10503000AB420F942E4389869A86AB86BC8629851F
:105040003A854B855C85283731054105510540F48B
:1050500028E730E040E050E029873A874B875C87BB
:105060006D837E838F8398874D815E816F81788584
:10507000483751056105710540F468E770E080E04C
:1050800090E06D837E838F839887F801ED5AFF4F00
:105090004080518062807380C301B2010F94323B23
:1050A00069837A838B839C8369857A858B859C85CC
:1050B0000F94303B6D8B7E8B8F8B988F20E030E090
:1050C000A90169817A818B819C810F942C3B882373
:1050D00009F4E1C1A7019601C701B6010F94913B04
:1050E0004B015C012D893E894F89588DCA01B90158
:1050F0000F94913B9B01AC01C501B4010F94E441B5
:105100004B015C0129813A814B815C81CA01B90163
:105110000F94E5419B01AC01C501B4010F94C1425C
:105120000F94AB420F942E436D877E878F87988BA9
:1051300066277727CB0164197509860997090F94AB
:10514000323B4B015C016D817E818F8198850F948C
:10515000303B2B013C0120E030E0A901C501B40146
:105160000F942C3B882309F49AC1A3019201C30137
:10517000B2010F94913B698F7A8F8B8F9C8FA7011F
:105180009601C701B6010F94913B9B01AC01698D5B
:105190007A8D8B8D9C8D0F94E4416B017C01A50170
:1051A0009401C501B4010F94E5419B01AC01C70115
:1051B000B6010F94C1420F945A43D80195968D9031
:1051C0009D90AD90BC909897750164012D853E85AA
:1051D0004F855889C21AD30AE40AF50A0F942E4360
:1051E000C61AD70AE80AF90AF7FE8EC02D893E8949
:1051F0004F89588DCA01B9010F94913B6B017C0115
:1052000029813A814B815C81CA01B9010F94E54142
:10521000698B7A8B8B8B9C8B20E030E0A9016981B4
:105220007A818B819C810F942C3B882309F43BC1AC
:10523000C501B4010F94303B29893A894B895C89B7
:105240000F94913BA70196010F94E4416D877E87EF
:105250008F87988BA3019201C301B2010F94913BF8
:105260009B01AC016D857E858F8598890F94E54102
:105270002B013C0120E030E040E850E469817A8174
:105280008B819C810F94913B9B01AC01C301B201C6
:105290000F94C1420F94AB422B013C0120E030E05F
:1052A000A9010F940C4418161CF0412C512C32010A
:1052B000C301B2010F942E436D877E878F87988B31
:1052C00086169706A806B90620F48D869E86AF86B8
:1052D000B88A6D857E858F8598890F94303B2989A2
:1052E0003A894B895C890F94913BA70196010F94F1
:1052F000E5410F9452440F942E43698B7A8B8B8B2C
:105300009C8BC12CD12C760169897A898B899C89E7
:1053100029853A854B855C85621B730B840B950B45
:105320000F94303B29813A814B815C810F94C142BB
:1053300020E034E244EF59E40F94913B0F942E4364
:105340004B015C0169897A898B899C892D813E8119
:105350004F815885621B730B840B950B0F94303B68
:1053600029813A814B815C810F94C14220E034E273
:1053700044EF59E40F94913B0F942E432B013C01D1
:105380003FE683169104A104B10408F090C0F40133
:10539000EE0FFF1FEE0FFF1FE555FA4E8591959119
:1053A000A591B4918983292E3A2EBD8B4FE64416E0
:1053B00051046104710408F083C0F201EE0FFF1F75
:1053C000EE0FFF1FE555FA4E459155916591749189
:1053D0009A01CB014D855E856F857889D8019A96B3
:1053E0004D935D936D937C939D974C0D5D1D6E1D4C
:1053F0007F1DF80146A757A760AB71ABE55BFF4F78
:1054000049855A856B857C8540835183628373838C
:10541000D6968D929D92AD92BC92D997F80142AEEC
:1054200053AE64AE75AEFE964981408321823282CE
:105430005D89538334962083318382839383698982
:105440007A898B899C89D2966D937D938D939C9359
:10545000D5973D962D813E814F815885208331839C
:10546000428353836C960FB6F894DEBF0FBECDBF58
:10547000DF91CF911F910F91FF90EF90DF90CF9030
:10548000BF90AF909F908F907F906F905F904F9064
:105490003F902F90089560E070E0CB0141CE60E036
:1054A00070E0CB0188CE60E070E0CB01F3CEC501A7
:1054B000B4010E941BF16983272E382E9D8B76CF75
:1054C000C301B2010E941BF19B0184CF8F929F9276
:1054D000AF92BF92CF92DF92EF92FF920F93CF9352
:1054E000DF931F92CDB7DEB76C017B01490180913C
:1054F00035055B01A40EB51E8823A1F0F60180815D
:105500009181480F591F518340830F90DF91CF91B4
:105510000F91FF90EF90DF90CF90BF90AF909F9052
:105520008F900895F601808191810F944141898384
:1055300090913605992311F0002311F0F701808333
:10554000BE016F5F7F4FC4010F94FC05F60180819F
:105550009181019691838083FFEFEF1AFF0AEA148D
:10556000FB0401F7D2CF8091790390917A030097E1
:1055700031F04AE050E070E060E00D943F3860E0C8
:1055800070E0CB010895EFDF97FD0AC0ECDF6F3FBD
:1055900071058105910509F02CF4E5DF862F08954A
:1055A00080E008958FEF08958091790390917A03B8
:1055B000892B39F0E8DF91E0811101C090E0892F5B
:1055C000089591E0FCCFCF932091D313243088F439
:1055D000C62FBC0190914E1220E6929FC00111246B
:1055E0008E5A9D4E0F9445458C2F4FDA81E0CF9116
:1055F000089580E0FCCF2F923F924F925F926F927E
:105600007F928F929F92AF92BF92CF92DF92EF9252
:10561000FF920F931F93CF93DF9300D000D0CDB7AD
:10562000DEB79A8389830F941A0DA981BA811696E1
:10563000CD90DD90ED90FC901997C114D104E10458
:10564000F10409F010C31C962C911C97222309F435
:105650004DC01A96EC911A9721501C962C931C97CA
:1056600021E02E0F1A962C931A971D963C911D97A8
:10567000231302C01A961C92F0E03196EE0FFF1F22
:10568000EE0FFF1F29813A81E20FF31FC284D384FA
:10569000E484F584D9011296CD92DD92ED92FC92CC
:1056A00015976C0D7D1D811D911DF9016683778312
:1056B0008087918784819581892BC1F0FFB7FD8315
:1056C000F894A981BA8112962D903C9013972101EC
:1056D000712C612C14960D911C9180914A02853297
:1056E000F1F08F3F09F497C0FD81FFBF26960FB6FA
:1056F000F894DEBF0FBECDBFDF91CF911F910F9108
:10570000FF90EF90DF90CF90BF90AF909F908F90E1
:105710007F906F905F904F903F902F900895EEE0B4
:10572000F2E3B491BE83B7FDDFCF61E085E20F9471
:10573000630B9E81992321F0AE81A23009F0BEC196
:105740004801B12CA12C60E072E18AE790E0A5014C
:1057500098010F94A94129833A834B835C836901A3
:105760007A01B1E0CB1AD108E108F108EFEFCE16CB
:10577000D104E104F10409F00CF470C160E472E4B6
:105780008FE090E0A50198010F94A94169017A0189
:10579000F1E0CF1AD108E108F1082E81223009F09A
:1057A00011C182E03FEFC316D104E104F10409F016
:1057B0000CF4B8C260E970ED83E090E0A5019801B7
:1057C0000F94A94169017A0181E0C81AD108E10862
:1057D000F10883E09FEFC916D104E104F10409F058
:1057E0000CF4A0C268E478EE81E090E0A501980195
:1057F0000F94A94169017A0181E0C81AD108E10832
:10580000F1089FEFC916D104E104F10411F00CF086
:10581000FDC084E087C285E280934A02EEE0F2E3B5
:1058200024912E83822F2F3F09F45ECF223009F47A
:1058300069C060F4222381F1213009F445C087FD5D
:1058400053CF61E085E20F94630B76CF3E81343015
:1058500009F49AC008F478C0353089F71092200115
:105860001092210180912101886080932101809113
:105870002101816080932101E1E6F1E3E491F0E010
:10588000EE0FFF1FE85FFE4C85919491E7EAF1E38C
:10589000E491E0937B0349CF14BC15BC84B58260CE
:1058A00084BD85B5816085BDE1E6F1E3E491F0E07A
:1058B000EE0FFF1FE85FFE4C85919491E7EAF1E35C
:1058C000E491E0937F0331CF109280001092810029
:1058D0008091810088608093810080918100816047
:1058E00080938100E1E6F1E3E491F0E0EE0FFF1F29
:1058F000E85FFE4C85919491E7EAF1E3E491E0934F
:105900007E0313CF1092B0001092B1008091B000CE
:1059100082608093B0008091B10081608093B1007B
:10592000E1E6F1E3E491F0E0EE0FFF1FE85FFE4CEB
:105930008591949190933D0D80933C0DE7EAF1E3BE
:10594000E491E0933E0DF1CE109290001092910000
:105950008091910088608093910080919100816096
:1059600080939100E1E6F1E3E491F0E0EE0FFF1F98
:10597000E85FFE4C85919491E7EAF1E3E491E093CE
:105980007D0383E08E83D1CE1092A0001092A100FF
:105990008091A10088608093A1008091A100816026
:1059A0008093A100E1E6F1E3E491F0E0EE0FFF1F48
:1059B000E85FFE4C85919491E7EAF1E3E491E0938E
:1059C0007C03B3CEAFEFCA16D104E104F10409F0B1
:1059D0000CF472C068E478EE81E090E0A5019801D3
:1059E0000F94A94169017A01B1E0CB1AD108E1080D
:1059F000F108EE81EE2309F461C1EFEFCE16D10478
:105A0000E104F10411F00CF062C103CF64E274EF21
:105A100080E090E0A50194010F94A94169017A0109
:105A2000F1E0CF1AD108E108F10885E02FEFC216A6
:105A3000D104E104F10409F008F474C162E17AE7E9
:105A400080E090E0A50194010F94A94169017A01D9
:105A5000A1E0CA1AD108E108F1084BC181E0AE818A
:105A6000A11160C195B5987F892B85BD2FEF3FEFC0
:105A7000A90145284628472809F059C0BE81B230FF
:105A800009F4E1C00CF0C8C0BB2309F4CDC0B130AB
:105A900009F02ACED0928900C092880020938C030E
:105AA00030938D0340938E0350938F0380916F004A
:105AB000826080936F0018CE82E0D1CFB12CA12CF0
:105AC00060E072E18AE790E0A50198010F94A94196
:105AD00069017A01B1E0CB1AD108E108F10891E03F
:105AE000C114D104E1E0EE06F10484F068E478EE3C
:105AF00081E090E0A50198010F94A94169017A0124
:105B0000F1E0CF1AD108E108F10893E02E812130AD
:105B1000D9F480918100887F892B809381002FEFB9
:105B20003FEFA90145284628472809F4B3CF98013B
:105B3000220F331FD1010F94D54128EE33E040E00E
:105B400050E00F9487419ACF3E813330F9F4809131
:105B50009100887F892B809391002FEF3FEFA9015F
:105B600045284628472819F7D0929900C0929800F6
:105B7000209388033093890340938A0350938B03C7
:105B800080917100826080937100AECD8E818430EF
:105B9000F9F48091A100887F892B8093A1002FEFD9
:105BA0003FEFA90145284628472809F6D092A900C9
:105BB000C092A8002093840330938503409386030A
:105BC00050938703809172008260809372008CCD25
:105BD000AE81A53009F04ACF80912101887F892BC1
:105BE000809321012FEF3FEFA90145284628472840
:105BF00009F09DCFD0922901C09228012093800303
:105C00003093810340938203509383038091730008
:105C100082608093730068CDEE81E43039F20CF439
:105C2000A3CFE53039F360CDC7BC20939003309308
:105C30009103409392035093930380916E0082608E
:105C400080936E0051CDC092B30020933F0D3093EE
:105C5000400D4093410D5093420D80917000826041
:105C60008093700041CD6C197D098E099F0997FDC5
:105C70003DCD4098A981BA8116961D921D921D9224
:105C80001C92199733CD84E0EFEFCE16D104E104D6
:105C9000F10409F008F4E6CEC980DA80EB80FC80DC
:105CA0009AE0F594E794D794C7949A95D1F7B1E028
:105CB000CB1AD108E108F10885E0D4CE83E0BFEF2C
:105CC000CB16D104E104F10409F00CF4CBCE62E16F
:105CD0007AE780E090E0A50194010F94A941690161
