:100000000C9400210C9431210C9431210C94312159
:100010000C9431210C9431210C9431210C94312118
:100020000C9431210C9431210C9431210C94312108
:100030000C9431210D94CF1A0C9431210C94312160
:100040000C9431210C94C6B50C9431210C943121BF
:100050000C9431210C9431210C946EB00D94F41D4C
:100060000C9431210C9419A00C940FA00C94312104
:100070000C9431210C9431210C9431210C943121B8
:100080000C9479640C9431210C9431210C9431211D
:100090000C9431210C9431210C9431210C94312198
:1000A0000C9431210C9431210C944B640C9431212B
:1000B0000C9431210C9431210C9431210C941D6449
:1000C0000C9431210C9431210C9431210C94312168
:1000D0000C9431210C9431210C9431210C94312158
:1000E0000C943121084AD73B3BCE016E84BCBFFD46
:1000F000C12F3D6C74319ABD56833DDA3D00C77FF8
:1001000011BED9E4BB4C3E916BAAAABE0000008090
:100110003F05A84CCDB2D44EB93836A9020C50B91F
:10012000918688083CA6AAAA2ABE000000803F004B
:100130000C9493220C94F3A70C94AA290C9406DF38
:100140000D94EF1B0C94C22A0C94DA3F0C94AFFB75
:100150000C94E3390D94E21B0C94FDEA0C94D0331B
:100160000C94354B0C9433210C9412A50C94CD3384
:100170000C945D290C943B2B0D94681C0C94C522A7
:100180000C949CFA0C941B3F0C943B3D0C94113F37
:100190000D943B1C0C943F3D0C94D1590C94044A93
:1001A0000D945E1C0C94352B0C944D5C0C94F8A7AC
:1001B0000C945B3D0C940FA80C94ACA20C94135EB1
:1001C0000C94433D0C94332B0C9425260C94FEFA8E
:1001D0000D94F91B0D94541C0C94CFA20C94033471
:1001E0000D940D1C0C94533D0C94F7FA0C94DC33D5
:1001F0000C9403A80D94721C0C94A1530C9412FB44
:100200000C94573D0C94C2330C94E9A70C94B0297C
:100210000C943D2B0C944F3D0C9480220C949039FF
:100220000D94031C0C949BFA0C94C23F0C949E609A
:100230000C94E4A40C94C6250C945C2B0C94EC3F19
:100240000C94FBFA0C94D43F0C9404220C9404FB01
:100250000C94D6330C94AC7B0C94A72A0D94EA1B17
:100260000C941CFB0C945CE90C94E63F0C94AF2AB4
:100270000D94311C0C94B62B0C94E2A40C949A4C63
:100280000C94392B0C9446560C94B0210C9484EDAC
:100290000C94412B0C949E2B0C944E560C947A216A
:1002A0000C94372B0C944B3D0C9435210C9400A7E7
:1002B0000C94AE420D94151C0C9494440C949333FE
:1002C0000C94D9330C942EFB0C942AFB0D94271C10
:1002D0000C94F23F0C945B270C9497D90C94AC22AD
:1002E0000C944A270C9409A80C94023A0C94E62129
:1002F0000D947C1C0C949B330C94AB420C94A12366
:100300000C94805D0C94213A0C943F2B0C943B226E
:100310000C9474D80D941D1C0C94AD2B0C94BC3F04
:100320000C94C83F0C9401220C949EFA0C94DF3379
:100330000D944A1C0C94EEA70C94B0A10C94163F9B
:100340000C94E03F0C9457E20C94242B0D94672CF2
:100350000C94AB2A0C9424260C946C5C0C9408FB33
:100360000C9424FB0C94D2470C941ADF0C940722B3
:100370000C9414330C9454220C94F3FA0C94854886
:100380000C940EFB0C94D8A20C94473D0C94CE3FD9
:100390000C94E6330C94F3640C94E9FA0C94A129C0
:1003A0000C94AD290C94F4350C94E9330C9420FB97
:1003B0000C9417A60D94852C0C9402A50C94D822AD
:1003C0000C94422E0C94B1420C9495210C94D3338E
:1003D0000C94F0B00C94FDA70C9458400C9498EC3D
:1003E0000C94E4330C9416FB0C9422220C946D2292
:1003F0000C9446A40C9472240C9429FB0C94333373
:100400000C944E290C94EFFA0C94CB214E414E499A
:100410004E495459494E46CDCCCC3D0AD7233C17C2
:10042000B7D13877CC2B329595E6241FB14F0A000F
:100430000020410000C84200401C4620BCBE4CCAFF
:100440001B0E5AAEC59D7400407A10F35A00A0727C
:100450004E18090010A5D4E80000E87648170000FF
:10046000E40B54020000CA9A3B000000E1F50500CD
:100470000080969800000040420F000000A0860116
:10048000000000102700000000E8030000000064E6
:1004900000000000000A0000000000010000000051
:1004A000002C76D888DC674F0823DFC1DFAE59E126
:1004B000B1B796E5E3E453C63AE651997696E8E695
:1004C000C28426EB898C9B62ED407C6FFCEFBC9C68
:1004D0009F40F2BAA56FA5F490055A2AF75C936B7A
:1004E0006CF9676DC11BFCE0E40D47FEF520E6B535
:1004F00000D0ED902E0300943577050080841E080F
:100500000000204E0A000000C80C333333330F982C
:100510006E12831141EF8D2114893BE65516CFFEF3
:10052000E6DB18D1844B381BF77C1D901DA4BBE47F
:1005300024203284725E228100C9F124ECA1E53DC1
:1005400027434F4D4D554E49434154494F4E00446A
:10055000525952554E004552524F525300494E4641
:100560004F004543484F00554E4C4F4144204649AB
:100570004C414D454E54004C4F41442046494C415E
:100580004D454E540046494C414D454E542043483C
:10059000414E4745004572726F72207772697469E7
:1005A0006E6720746F20454550524F4D210A00362A
:1005B0003726033C3D380E2E303E121A1C180844D4
:1005C0000AFF4308090001627573793A207061756A
:1005D00073656420666F7220696E7075740A0062BC
:1005E0007573793A2070617573656420666F722047
:1005F000757365720A00627573793A2070726F6361
:10060000657373696E670A004D3630300053544F7E
:10061000505045442E20005072696E7465722073EC
:10062000746F707065642064756520746F206572E6
:10063000726F72732E204669782074686520657227
:10064000726F7220616E6420757365204D3939397F
:1006500020746F20726573746172742E2028546543
:100660006D7065726174757265206973207265734F
:1006700065742E20536574206974206166746572F8
:100680002072657374617274696E67290A004E6F17
:1006900020436865636B73756D2077697468206C9F
:1006A000696E65206E756D6265722C204C61737485
:1006B000204C696E653A20004E6F20436865636B7D
:1006C00073756D2077697468206C696E65206E752E
:1006D0006D6265722C204C617374204C696E653AB2
:1006E0002000636865636B73756D206D69736D6160
:1006F0007463682C204C617374204C696E653A20D9
:10070000004C696E65204E756D62657220697320BC
:100710006E6F74204C617374204C696E65204E7549
:100720006D6265722B312C204C617374204C696EA4
:10073000653A20004D3131300053442072656164C8
:10074000206572726F720A002121204B494C4C20A7
:10075000636175736564206279204B494C4C20625B
:100760007574746F6E2F70696E0A002121204B49D9
:100770004C4C2063617573656420627920746F6FDF
:10078000206D75636820696E616374697665207495
:10079000696D65202D2063757272656E7420636FBC
:1007A0006D6D616E643A2000506C65617365205216
:1007B00065736574005052494E5445522048414C6F
:1007C0005445440025533A202553004B494C4C4591
:1007D000442E20005072696E7465722068616C74DA
:1007E00065642E206B696C6C28292063616C6C65D4
:1007F00064210A0053544F505045442E200050723B
:10080000696E7465722073746F70706564206475AE
:100810006520746F206572726F72732E204669783E
:1008200020746865206572726F7220616E64207535
:100830007365204D39393920746F20726573746186
:1008400072742E202854656D7065726174757265BE
:100850002069732072657365742E20536574206956
:100860007420616674657220726573746172746954
:100870006E67290A006563686F3A004572726F728D
:100880003A0042696C696E656172204C6576656CF0
:10089000696E6720477269643A0A00537562646939
:1008A00076696465642077697468204341544D55C6
:1008B0004C4C20524F4D204C6576656C696E67201C
:1008C000477269643A0A0021212053544F50206333
:1008D000616C6C65642062656361757365206F6629
:1008E00020424C546F756368206572726F72202DC0
:1008F00020726573746172742077697468204D3951
:1009000039390A0021212053544F502063616C6C07
:1009100065642062656361757365206F6620424C73
:10092000546F756368206572726F72202D20726536
:1009300073746172742077697468204D3939390A8B
:1009400000486F74656E6420746F6F20636F6C6411
:100950000A004F46460A004661646520486569679B
:1009600068742000426564204C6576656C696E672A
:1009700020004661696C656420746F20656E616259
:100980006C6520426564204C6576656C696E670A0B
:1009900000496E76616C6964206D6573682E0A008B
:1009A00050726F62696E6720506F696E74002553D4
:1009B0002025692F2569002E0A002F0050726F62D2
:1009C000696E67206D65736820706F696E742000B2
:1009D000202844525952554E29004732392041753A
:1009E000746F20426564204C6576656C696E6700A3
:1009F0003F20284C2C522C462C4229206F75742005
:100A00006F6620626F756E64732E0A003F28562948
:100A10006572626F7365206C6576656C20696D70B8
:100A20006C61757369626C652028302D34292E0A3B
:100A300000426164205A2076616C75650A004E6F31
:100A40002062696C696E65617220677269640A0070
:100A50004F4646004F4E0020580020204D61783A06
:100A60002000200020204D696E3A2000536F6674EC
:100A700020656E6473746F70733A20004D363030A9
:100A80003A20546F6F20436F6C6400486F74656E3A
:100A90006420746F6F20636F6C640A00496E736525
:100AA00072742066696C616D656E7420616E64207D
:100AB000707265737320627574746F6E0A00507281
:100AC00065737320627574746F6E20746F2068652F
:100AD0006174206E6F7A7A6C650A004D323420534F
:100AE000256C642054256C64004739322E3920452A
:100AF000257300473120462564004739322E3920BE
:100B00005A2573004731205A302046323030004792
:100B1000312058257320592573204633303030005A
:100B20004D34323020532569205A2573004D313021
:100B3000362050256920532569004D313039205326
:100B40002569004D31393020532569004D32303050
:100B500020442573004739322E392045305A300A57
:100B600047315A320A47323852305859004D3432E0
:100B700030205330205A300020496E76616C696411
:100B80002065787472756465722000536C656570B9
:100B90002E2E2E005A2050726F62652050617374A1
:100BA000204265640A005A2050726F6265205061CD
:100BB00073742042656400486F6D65205859206643
:100BC000697273740A00486F6D6520585920466930
:100BD00072737400205A3A200020593A200042656E
:100BE0006420583A20004D65736820706F696E74F8
:100BF0002063616E6E6F74206265207265736F6C26
:100C00007665640A00436C69636B20746F205265DB
:100C100073756D652E2E2E004E6F204D6F76652EEE
:100C200000456E642066696C65206C6973740A0007
:100C3000426567696E2066696C65206C6973740A29
:100C400000286E6F2066696C6529004375727265B5
:100C50006E742066696C653A200053442070726996
:100C60006E74696E67206279746520004E6F74201F
:100C70005344207072696E74696E670A005072691D
:100C80006E742074696D653A2000496E76616C69F6
:100C9000642050696E204D6F64650A000A537461C8
:100CA00074733A2046696C616D656E742075736566
:100CB000643A20002C204C6F6E67657374206A6F55
:100CC000623A2000546F74616C2074696D653A203B
:100CD0000053746174733A20002C204661696C657E
:100CE000643A20002C2046696E69736865643A2076
:100CF000005072696E74733A200053746174733AD1
:100D00002000436F6F6C696E672E2E2E0048656160
:100D100074696E672E2E2E0045202553006F6B00E0
:100D20006F66660062055D0556054F054105444541
:100D30004255473A004D3131322053687574646F23
:100D4000776E004D3131332053004A474D616B655A
:100D500072204D61676963204F46462E004348412B
:100D60004D4245525F54454D5045524154555245B0
:100D7000004D4F54494F4E5F4D4F4445530054482A
:100D800045524D414C5F50524F54454354494F4E8C
:100D9000004155544F5245504F52545F53445F5396
:100DA00054415455530050524F4D50545F53555079
:100DB000504F525400454D455247454E43595F50A0
:100DC000415253455200434153455F4C49474854B3
:100DD0005F4252494748544E45535300544F47478A
:100DE0004C455F4C494748545300534F4654574174
:100DF00052455F504F574552004255494C445F5051
:100E0000455243454E54004C4556454C494E475F6C
:100E100044415441005A5F50524F4245004155549D
:100E20004F4C4556454C005052494E545F4A4F4234
:100E30000050524F4752455353004155544F52456D
:100E4000504F52545F54454D5000564F4C554D45F0
:100E50005452494300454550524F4D0042494E417E
:100E600052595F46494C455F5452414E5346455294
:100E70000053455249414C5F584F4E5F584F4646CC
:100E8000004649524D574152455F4E414D453A4DFE
:100E900061726C696E20322E302E352E3420284D32
:100EA000616769632076302E332E33292028476905
:100EB000744875622920534F555243455F434F4450
:100EC000455F55524C3A68747470733A2F2F6769B6
:100ED000746875622E636F6D2F4D61726C696E461A
:100EE00069726D776172652F4D61726C696E205009
:100EF000524F544F434F4C5F56455253494F4E3A11
:100F0000312E30204D414348494E455F545950459C
:100F10003A4A474D616B6572204D616769632045B0
:100F2000585452554445525F434F554E543A312020
:100F3000555549443A63656465326132662D3431F2
:100F400061322D343734382D396231322D633535E5
:100F50006336326633363766660A002F2F20004D1F
:100F600031343520533C696E6465783E206F75746A
:100F7000206F662072616E67652028302D31290A46
:100F800000205200416363656C65726174696F6E25
:100F90003A2050003F4A206F7574206F66207261BE
:100FA0006E67652028302E303120746F20302E334C
:100FB000290A0046523A0020466C6F773A200050CA
:100FC000726F7465637465642050696E0A003A201C
:100FD0000020536572766F2000206F7574206F6655
:100FE0002072616E67650A00536572766F2000207B
:100FF000643A0020693A0020703A00496E76616CCC
:1010000069642065787472756465720A0064697336
:1010100000656E0043290A0061626C656420286DDA
:10102000696E2074656D702000436F6C6420657874
:1010300074727564657320617265200046696C6125
:101040006D656E742072756E6F757420004D6573DA
:101050006820706F696E742063616E6E6F742062B9
:1010600065207265736F6C7665640A004D343231A9
:1010700020696E636F727265637420706172616D56
:10108000657465722075736167650A004F666673E3
:10109000657473204170706C696564004572723AC2
:1010A00020546F6F206661722100546F6F2066615B
:1010B000722066726F6D207265666572656E63651B
:1010C00020706F696E740A00454550524F4D204F95
:1010D0004B0A00506F7765722D6C6F7373207265C9
:1010E000636F766572792000446F6E652070726957
:1010F0006E74696E672066696C650A004D3737004B
:101100004D333100496E76616C6964206578747284
:10111000756465720A004361703A0047322F4733A5
:101120002062616420706172616D65746572730A1A
:1011300000290A0020746F20003F5A206F75742028
:101140006F662072616E6765202800290A0020748E
:101150006F20003F59206F7574206F662072616E9A
:10116000676520282D00290A0020746F20003F5851
:10117000206F7574206F662072616E676520282D60
:101180000050726F6265204F666673657420580068
:10119000220A00656E7175657565696E67202200AB
:1011A0006F6B00526573656E643A200025697300A9
:1011B00025696D20256973002569682025696D20E2
:1011C00025697300256964202569682025696D20DB
:1011D00025697300256979202569642025696820BF
:1011E00025696D202569730020573A004265642007
:1011F000436F6F6C696E672E2E2E00426564204827
:10120000656174696E672E2E2E0023646566696EB3
:10121000652044454641554C545F004B6420004BCB
:101220006920004B702000504944204175746F7450
:10123000756E652066696E697368656421205075F6
:101240007420746865206C617374204B702C204B83
:101250006920616E64204B6420636F6E7374616EED
:1012600074732066726F6D2062656C6F7720696E93
:10127000746F20436F6E66696775726174696F6E13
:101280002E680A00504944204175746F74756E656C
:10129000206661696C6564212074696D656F757481
:1012A0000A00504944204175746F74756E6520665C
:1012B00061696C6564212054656D70657261747537
:1012C000726520746F6F20686967680A00204B643C
:1012D0003A2000204B693A2000204B703A20000A47
:1012E00020436C617373696320504944200A0020D5
:1012F00054753A2000204B753A2000206D61783AF1
:101300002000206D696E3A200020643A200020629F
:101310006961733A2000504944204175746F7475B7
:101320006E652073746172740A00504944204175DF
:10133000746F74756E65206661696C6564212054F4
:10134000656D706572617475726520746F6F206869
:101350006967680A00504944204175746F74756E5E
:1013600065206661696C656421204261642065784E
:10137000747275646572206E756D6265720A0045DF
:1013800072723A207574663820666F6E74206E6FC4
:101390007420696E697469616C697A65642E0045B0
:1013A00072723A207574663820666F6E74206E6FA4
:1013B0007420696E697469616C697A65642E004590
:1013C00072723A207574663820666F6E74206E6F84
:1013D0007420696E697469616C697A65642E004C69
:1013E0006F6164206D6D00556E6C6F6164206D6D72
:1013F0000046696C2E204469612E004520696E20EC
:101400006D6DC2B30020082046616374002008207F
:101410004D6178002008204D696E004F6666004FD0
:101420006E004175746F74656D700056547261760C
:10143000204D696E00566D696E00566D61782045CD
:1014400000566D6178205A00566D6178205900561B
:101450006D6178205800416D6178204500416D61D3
:1014600078205A00416D6178205900416D617820E3
:101470005800412D54726176656C00412D5265749F
:101480007261637400416363656C004A756E6374D6
:10149000696F6E204465760050726F6265205A2035
:1014A0004F66667365740050726F62652059204FF5
:1014B00066667365740050726F62652058204F66CF
:1014C00066736574004573746570732F6D6D005A93
:1014D00073746570732F6D6D005973746570732F1D
:1014E0006D6D005873746570732F6D6D0041647677
:1014F000616E6365642053657474696E6773003F41
:101500000043616E63656C00496E6974004D34324E
:101510003800496E697469616C697A652045455087
:10152000524F4D0046696C616D656E740054656D77
:1015300070657261747572650053746570732F6D98
:101540006D0050726F6265204F666673657473003C
:101550004A65726B00416363656C65726174696FA3
:101560006E0056656C6F636974790053657420482A
:101570006F6D65204F66667365747300436F6E66AA
:10158000696775726174696F6E003F004E657874AB
:1015900020436F726E657200446F6E65004E657811
:1015A0007400486F6D696E672058595A0053746F04
:1015B00072652053657474696E6773004C6F616463
:1015C0002053657474696E6773004C6576656C2092
:1015D000436F726E6572730050726F6265205A209D
:1015E0004F66667365740046616465204865696787
:1015F0006874004F6666004F6E00426564204C655B
:1016000076656C696E67004732380A4732390047A1
:101610003239004C6576656C204265640041757412
:101620006F20486F6D65004D6F74696F6E00436D7C
:10163000643A2053746F7700436D643A2053572DFA
:101640004D6F646500436D643A204465706C6F793A
:1016500000436D643A2053656C662D5465737400C5
:10166000436D643A20526573657400426564004EB0
:101670006F7A7A6C650046616E2053706565640010
:10168000436F6E66696775726174696F6E004C6F47
:1016900061642053657474696E6773005265737476
:1016A0006F72652044656661756C74730053746F66
:1016B00072652053657474696E6773005072656853
:1016C0006561742041425320436F6E66005072651D
:1016D0006865617420504C4120436F6E66004F7501
:1016E00074616765205265636F76657279004F6635
:1016F00066004F6E0052756E6F75742053656E7381
:101700006F7200424C546F7563680050726F62656F
:10171000205A204F666673657400416476616E637B
:1017200065642053657474696E6773004D61696EFA
:10173000004D37303220542564004D363030204281
:101740003020542564004D373032203B2564004D55
:1017500037303120542564004D373032004D37305A
:1017600031004D363030204230004D61696E00430B
:101770006F6E74696E7565004F6666004F6E00523D
:10178000756E6F75742053656E736F72005075724D
:101790006765206D6F726500524553554D45204F6A
:1017A0005054494F4E533A005052494E54205041E4
:1017B000555345440020204E6F7A7A6C653A2000DC
:1017C0005061726B696E672E2E2E000000576169A2
:1017D0007420666F720066696C616D656E7420635B
:1017E00068616E676500746F20737461727400576E
:1017F00061697420666F720066696C616D656E74F4
:1018000020756E6C6F616400004E6F7A7A6C652093
:1018100068656174696E6700506C656173652077F7
:101820006169742E2E2E00005072657373206275EC
:1018300074746F6E00746F2068656174206E6F7AC7
:101840007A6C650000496E736572742066696C611C
:101850006D656E7400616E642070726573732062D2
:101860007574746F6E00746F20636F6E74696E753B
:1018700065005761697420666F720066696C616DFE
:10188000656E74206C6F6164000050726573732024
:10189000427574746F6E00746F20726573756D6538
:1018A000207072696E7400005761697420666F72EF
:1018B000207072696E7400746F20726573756D6547
:1018C0002E2E2E00005761697420666F72006669C3
:1018D0006C616D656E7420707572676500004D31C6
:1018E0003030300053746F70205072696E74005243
:1018F0006573756D65205072696E74004F75746103
:101900006765205265636F76657279003F004261BA
:10191000636B0053746F70005072696E742066724E
:101920006F6D204D65646961004D3231004368611F
:101930006E6765204D65646961004368616E676527
:101940002046696C616D656E7400436F6E666967F1
:1019500075726174696F6E0054656D706572617443
:10196000757265004D6F74696F6E00526573756DA9
:1019700065205072696E74004E6F204D6564696118
:101980000054756E650053746F70205072696E74E8
:10199000005061757365205072696E7400496E66FF
:1019A0006F2053637265656E003F005374617274FB
:1019B000205072696E740043616E63656C005072F2
:1019C000696E740043616E6E6F7420656E7465722B
:1019D000207375626469723A2000022E2E004D61F8
:1019E000696E00000C0D00FE07022603BC017FFE9D
:1019F00008FE08FE05080806000040F0C888889820
:101A00007810050808060000C0F88888888888F8DB
:101A10000505050600012030F830200508080600FD
:101A2000002070F820202020E00509090600FF2092
:101A300070A8A8B888887020050606060001E08C0A
:101A4000EA8C8A0A0509090600FFF8A888888888B0
:101A500088A8F8050A0A0600FE205050505088A8B1
:101A6000A8887003030306000340A040FFFFFFFFA8
:101A7000FFFFFFFFFFFFFFFFFFFFFFFFFFFFFFFF76
:101A8000FFFF0000000605FF010707060200808037
:101A90008080800080030303060105A0A0A0050646
:101AA0000606000050F85050F8500509090600FFDE
:101AB0002070A8A07028A87020050707060000C89D
:101AC000C8102040989805070706000040A0A040D5
:101AD000A8906801030306020580808003090906B7
:101AE00001FF20404080808040402003090906011A
:101AF000FF8040402020204040800507070600006E
:101B000020A8702070A8200505050600012020F8F7
:101B100020200203030601FFC040800501010600EA
:101B200003F8020202060100C0C005070706000014
:101B300008101020404080050707060000708898B4
:101B4000A8C8887003070706010040C04040404015
:101B5000E0050707060000708808102040F8050718
:101B600007060000F808103008887005070706000F
:101B70000010305090F81010050707060000F8809C
:101B8000F008088870050707060000304080F088DC
:101B90008870050707060000F808101020202005AF
:101BA0000707060000708888708888700507070698
:101BB000000070888878081060020505060100C0E2
:101BC000C000C0C00206060601FFC0C000C04080C1
:101BD000030505060101204080402005030306009F
:101BE00002F800F803050506010180402040800549
:101BF0000707060000708810202000200507070650
:101C000000007088B8A8B88070050707060000704B
:101C10008888F8888888050707060000F04848701B
:101C20004848F005070706000070888080808870AB
:101C3000050707060000F04848484848F005070730
:101C4000060000F88080F08080F805070706000095
:101C5000F88080F08080800507070600007088808B
:101C600080988870050707060000888888F88888AB
:101C700088030707060100E04040404040E00507B8
:101C800007060000381010101090600507070600C6
:101C9000008890A0C0A090880507070600008080FB
:101CA00080808080F805070706000088D8A888880B
:101CB00088880507070600008888C8A898888805CE
:101CC000070706000070888888888870050707065F
:101CD0000000F08888F0808080050707060000700B
:101CE000888888A89068050707060000F08888F0B3
:101CF000A09088050707060000708880700888702B
:101D0000050707060000F8202020202020050707EF
:101D10000600008888888888887005070706000004
:101D20008888888850502005070706000088888822
:101D300088A8A8500507070600008888502050880A
:101D40008805070706000088885020202020050706
:101D500007060000F80810204080F8030909060172
:101D6000FFE080808080808080E00507070600001B
:101D7000804040201010080309090601FFE02020E0
:101D80002020202020E005030306000520508805C0
:101D900001010600FEF8030303060105804020054B
:101DA000050506000070087888780507070600001A
:101DB0008080F0888888F005050506000070808026
:101DC0008870050707060000080878888888780565
:101DD00005050600007088F0807005070706000002
:101DE000304840E04040400507070600FE70888804
:101DF000887808700507070600008080F0888888CA
:101E0000880307070601004000C0404040E0040985
:101E1000090601FE10003010101010906005070731
:101E200006000080808890E0908803070706010084
:101E3000C04040404040E0050505060000D0A8A88D
:101E4000A8A8050505060000B0C88888880505050E
:101E500006000070888888700507070600FEF08875
:101E60008888F080800507070600FE7888888878D3
:101E70000808050505060000B0C880808005050536
:101E800006000078807008F0050707060000202093
:101E9000F820202018050505060000888888986825
:101EA0000505050600008888885020050505060000
:101EB000008888A8A8500505050600008850205015
:101EC000880507070600FE888888502040800505A1
:101ED00005060000F8102040F80309090601FF205C
:101EE00040404080404040200109090602FF8080B8
:101EF000808080808080800309090601FF80404047
:101F000040204040408005030306000248A890FF9F
:101F10004D6F74696F6E004D3834004469736162AF
:101F20006C6520537465707065727300426564203F
:101F30004C6576656C696E67004732380041757490
:101F40006F20486F6D65004D61696E005072656865
:101F500065617420504C4120456E64005072656884
:101F600065617420504C4120426564005072656880
:101F70006561742041425320426564005072656877
:101F80006561742041425320456E640054656D7054
:101F90006572617475726500436F6F6C646F776E04
:101FA000005072656865617420414253005072654B
:101FB0006865617420504C410046616E2053706525
:101FC000656400426564004E6F7A7A6C65004D610D
:101FD000696E004261627973746570205A00466CC4
:101FE0006F770046616E20537065656400426564DA
:101FF000004E6F7A7A6C65005370656564004D61C0
:10200000696E002568753A253032687500253032D2
:1020100068753A253032687500256875642025306A
:102020003268753A25303268750020202020202043
:10203000200020202020001FE02010201020101061
:102040002010202010201030300840048003001F92
:10205000E03FF03FF03FF01FE01FE03FF03FF03F78
:10206000F00FC0078003003FFFF038007030FC30F5
:1020700020FC102078102030102C00D02E31D02FD2
:102080007BD02F7BD02E31D02C00D0203010207868
:102090001020FC1030FC303800703FFFF03FFFF0A4
:1020A0003800703186302387102787902F87D02FF4
:1020B00003D02030102078102078102030102F030B
:1020C000D02F87D027879023871031863038007033
:1020D0003FFFF01FFFF81FFFF80410400208200226
:1020E0000820041040082080104100104100082002
:1020F000800410400000001FFFF81FFFF84D6564CA
:1021000069612052656D6F766564004D6564696133
:1021100020496E736572746564005072696E742034
:1021200041626F72746564004D32350050617573A1
:1021300065205072696E74000000664300005243CF
:1021400000007A43000050C1000050C100000000B0
:10215000290A002062797465733B20637263200052
:1021600053657474696E67732053746F726564206D
:102170002800454550524F4D206461746173697A5F
:1021800065206572726F722E0A00290A002062793A
:102190007465733B2063726320002073746F7265F3
:1021A000642073657474696E6773207265747269F4
:1021B00065766564202800202863616C63756C6116
:1021C00074656429210A0020213D200045455052B4
:1021D0004F4D20435243206D69736D6174636820D5
:1021E0002D202873746F7265642920002053697A4A
:1021F000653A2000496E6465783A2000204D61728E
:102200006C696E3D563736290A00454550524F4D90
:102210002076657273696F6E206D69736D6174638A
:10222000682028454550524F4D3D00454550524F7E
:102230004D20496E697469616C697A65640A004869
:10224000617264636F6465642044656661756C7473
:102250002053657474696E6773204C6F61646564A4
:102260000A0000009643000096430000A0400000D2
:10227000C8410000A0420000A04200004844000005
:10228000B0422C0100002C0100006400000090010D
:1022900000003B20003A0A0020204D363033200059
:1022A00020204D34313220530046696C616D656EDB
:1022B000742072756E6F75742073656E736F723AE9
:1022C000002055004C0046696C616D656E74206C91
:1022D0006F61642F756E6C6F6164206C656E6774DE
:1022E00068733A0020204D3835312058005A2D505F
:1022F000726F6265204F66667365740020204D34EE
:102300003133205300506F7765722D4C6F737320FB
:102310005265636F766572793A0020440020490067
:1023200020204D33303120500050494420736574D3
:1023300074696E67733A002046002042002048000E
:1023400020204D3134352053004D61746572696130
:102350006C2068656174757020706172616D657460
:102360006572733A00204A002020473239205720F6
:10237000490020204D3432302053004175746F20C5
:10238000426564204C6576656C696E673A00202072
:102390004D323036205800486F6D65206F66667389
:1023A00065743A00204A0020530020204D32303519
:1023B000204200416476616E6365643A20423C6D60
:1023C000696E5F7365676D656E745F74696D655F77
:1023D00075733E20533C6D696E5F6665656472611E
:1023E00074653E20543C6D696E5F74726176656CF5
:1023F0005F66656564726174653E204A3C6A756E0D
:10240000635F6465763E0020540020520020204D1A
:10241000323034205000416363656C6572617469C9
:102420006F6E2028756E6974732F7332293A2050AD
:102430003C7072696E745F616363656C3E20523CF0
:10244000726574726163745F616363656C3E20548E
:102450003C74726176656C5F616363656C3E0020FD
:10246000204D3230312058004D6178696D756D20F6
:10247000416363656C65726174696F6E2028756E67
:102480006974732F7332293A0020204D3230332083
:1024900058004D6178696D756D206665656472617F
:1024A0007465732028756E6974732F73293A00530D
:1024B000746570732070657220756E69743A0020BF
:1024C000204D3230302044300A0020204D32303050
:1024D0002044002044697361626C65640A004669A7
:1024E0006C616D656E742073657474696E67733AA0
:1024F0000020204D3134392043203B20556E697433
:102500007320696E2043656C736975730A00202817
:102510006D6D29002020473231202020203B20559E
:102520006E69747320696E206D6D006F70656E004A
:10253000545249474745524544003A200066696C69
:10254000616D656E74007A5F6D696E00795F6D69AB
:102550006E00785F6D696E005265706F7274696E9F
:102560006720656E6473746F702073746174757323
:102570000A0020746F6F206C6F6E6720657874722C
:102580007573696F6E2070726576656E7465640A26
:102590000020636F6C6420657874727573696F6E68
:1025A0002070726576656E7465640A00486F6D69A7
:1025B0006E67204661696C656400000050C10000D0
:1025C00050C10000000000004842000048420000E6
:1025D00080405761726E696E673A20486F6D696E10
:1025E000672042756D702044697669736F72203C74
:1025F00020310A000202040000A0400000A04000B8
:102600000000400000734300005F4300007A43FF76
:10261000FFFF000000010000000100008000555590
:1026200055000000400033333300AAAA2A00499223
:10263000240000002000C7711C0099991900D145A1
:102640001700555515003BB1130024491200111114
:102650001100000010000F0F0F00E3380E00437947
:102660000D00CCCC0C00C3300C00E8A20B006421A0
:102670000B00AAAA0A00703D0A009DD80900427BFF
:10268000090092240900DCD3080088880800104261
:10269000080000000800F0C1070087870700755098
:1026A0000700711C07003EEB0600A1BC0600699004
:1026B000060066660600703E06006118060017F404
:1026C000050074D105005BB00500B2900500627290
:1026D00005005555050078390500B81E05000505AB
:1026E00005004EEC040087D40400A1BD040090A7AF
:1026F000040049920400C17D0400EE690400C7563D
:102700000400444404005C32040008210400411029
:102710000400000004003FF00300F8E0030026D2AC
:102720000300C3C30300CCB503003AA803000A9B0F
:102730000300388E0300C08103009F750300D06939
:102740000300505E03001D53030034480300913D15
:1027500003003333030016290300381F03009715C5
:102760000300300C0300030303000BFA020049F1DD
:102770000200BAE802005CE002002DD802002DD071
:10278000020059C80200B0C0020031B90200DAB13B
:102790000200AAAA0200A0A30200BC9C0200FA95B3
:1027A00002005C8F0200DF88020082820200457C0A
:1027B00002002776020027700200436A02007C6450
:1027C0000200D05E02003F590200C8530200FFFD24
:1027D000FCFAF8F6F4F2F0EEECEAE9E7E5E3E1E022
:1027E000DEDCDAD9D7D5D4D2D0CFCDCBCAC8C7C5D5
:1027F000C3C2C0BFBDBCBAB9B7B6B4B3B2B0AFAD57
:10280000ACAAA9A8A6A5A4A2A1A09E9D9C9A9998AD
:102810009795949392908F8E8D8B8A8988878684E2
:10282000838281807F7E7D7B7A79787776757473F9
:102830007271706F6E6D6C6B6A69686766656463F0
:102840006261605F5E5D5C5B5A59585857565554DB
:1028500053525150504F4E4D4C4B4A4A49484746AF
:1028600046454443424241403F3E3E3D3C3B3B3A6D
:1028700039383837363535343332323130302F2E1F
:102880002E2D2C2B2B2A29292827272625252423C2
:102890002322212120201F1E1E1D1C1C1B1B1A1958
:1028A00019181817161615151413131212111110E2
:1028B0000F0F0E0E0D0D0C0C0B0A0A090908080764
:1028C000070606050504040303020201000024F4C0
:1028D000D43050C38E20C2A24017828B7011127A5E
:1028E000910D816CD90AA861E108C758660761514A
:1028F00043061E4B5D05C145A7041A411104093D5D
:102900009803713931034036DB0265339102D430CC
:102910005402802E1D02632CEE01752AC501B028D9
:10292000A001102781018F2564012B244B01E02297
:102930003401AC211F018D200D01801FFC00841E7D
:10294000ED00971DDF00B81CD200E61BC600201B5F
:10295000BC00641AB200B219A8000A19A0006A18D3
:102960009900D117910040178B00B51684003116DD
:102970007E00B31579003A157300C7146F00581420
:102980006A00EE1366008813630025135E00C71209
:102990005B006C12570015125400C11151007011E8
:1029A0004F0021114B00D61049008D1047004610F2
:1029B000440002104200C00F4000800F3E00420F52
:1029C0003C00060F3B00CB0E3800930E37005C0E28
:1029D0003500270E3400F30D3200C10D3100900D8B
:1029E0003000600D2E00320D2D00050D2C00D90C8D
:1029F0002B00AE0C2900850C29005C0C2700350C3F
:102A000027000E0C2600E80B2400C40B2400A00BAA
:102A100023007D0B23005A0B2100390B2100180BDA
:102A20002000F80A1F00D90A1E00BB0A1E009D0ADA
:102A30001D00800A1D00630A1C00470A1B002C0AA7
:102A40001B00110A1A00F7091A00DD091900C40950
:102A50001900AB091900920917007B0918006309D6
:102A600017004C09160036091600200916000A093D
:102A70001500F5081500E0081400CC081400B8088B
:102A80001400A4081400900813007D0812006B08BD
:102A900013005808120046081200340811002308D9
:102AA00011001208110001081100F0071000E007E2
:102AB0001000D0071000C0071000B0070F00A107DA
:102AC000100091070E0083070F0074070F006507C1
:102AD0000E0057070E0049070E003B070D002E079A
:102AE0000E0020070D0013070D0006070D00F90664
:102AF0000C00ED060D00E0060C00D4060C00C80624
:102B00000C00BC060C00B0060C00A4060B009906D5
:102B10000C008D060B0082060B0077060B006C067E
:102B20000B0061060A0057060B004C060A0042061D
:102B30000A0038060A002E060A0024060A001A06B1
:102B40000A001006090007060A00FD050900F40541
:102B50000900EB050900E2050900D9050900D005C7
:102B60000900C7050900BE050900B5050800AD0547
:102B70000800A50509009C050800940508008C05BF
:102B80000800840508007C050800740508006C0531
:102B90000700650508005D050700560508004E059D
:102BA0000700470507004005080038050700310504
:102BB00007002A050700230507001C050600160567
:102BC00007000F0507000805060002050700FB04C3
:102BD0000600F5040700EE040600E8040600E2041F
:102BE0000700DB040600D5040600CF040600C90474
:102BF0000600C3040600BD040600B7040600B104C5
:102C00000500AC040600A6040600A00405009B0411
:102C1000060095040500900406008A04050085045A
:102C20000500800406007A040500750405007004A0
:102C300005006B04050066040500610405005C04E2
:102C4000050057040500520405004D040500480422
:102C50000500430405003E0404003A040500350461
:102C60000500300404002C0405002704040023049C
:102C700005001E0404001A040400160405001104D3
:102C800004000D0404000904050004040400000409
:102C90000400FC030400F8030400F4030400F00340
:102CA0000400EC030400E8030400E4030400E00370
:102CB0000400DC030400D8030400D4030400D003A0
:102CC0000400CC030400C8030300C503030024F47C
:102CD00004D9201BC40C5C0E9804C4095F0265076C
:102CE0007101F405F900FB04B30048048700C10337
:102CF00069005803550003034500BE023A008402F0
:102D0000310053022A002902250004022000E401B8
:102D10001C00C8011900AF011700980114008401BC
:102D20001300710110006101100051010E004301F8
:102D30000D0036010B002B010B0020010B001501CB
:102D400009000C01090003010800FB000800F30062
:102D50000800EB000700E4000600DE000600D800D3
:102D60000600D2000600CC000500C7000500C20026
:102D70000500BD000400B9000400B5000400B10066
:102D80000400AD000400A9000400A5000300A20097
:102D900003009F0004009B000300980003009500BF
:102DA000020093000300900003008D0002008B00DE
:102DB00003008800020086000200840003008100F6
:102DC00002007F0002007D0002007B00020079000B
:102DD0000200770001007600020074000200720019
:102DE0000100710002006F0002006D0001006C0024
:102DF00002006A000100690002006700010066002D
:102E00000100650001006400020062000100610031
:102E10000100600001005F0002005D0001005C0035
:102E200001005B0001005A00010059000100580038
:102E30000100570001005600010055000100540038
:102E40000100530000005300010052000100510036
:102E50000100500001004F0001004E0000004E0034
:102E600001004D0001004C0001004B0000004B0030
:102E700001004A000100490001004800000048002C
:102E80000100470001004600000046000100450027
:102E90000000450001004400010043000000430021
:102EA000010042000000420001004100000041001A
:102EB0000100400001003F0000003F0001003E0013
:102EC00000003E0001003D0000003D0001003C000C
:102ED00000003C0000003C0001003B0000003B0003
:102EE00001003A0000003A000100390000003900FA
:102EF00001003800000038000000380001003700F1
:102F000000003700010036000000360000003600E7
:102F100001003500000035000000350001003400DC
:102F200000003400000034000100330000003300D2
:102F300000003300010032000000320000003200C7
:102F400001003100000031000000310001003000BC
:102F5000000030000000300001002F0000002F00B2
:102F600000002F0000002F0001002E0000002E00A6
:102F700000002E0001002D0000002D0000002D009B
:102F800000002D0001002C0000002C0000002C008F
:102F900000002C0001002B0000002B0000002B0083
:102FA00000002B0001002A0000002A0000002A0077
:102FB00000002A000100290000002900000029006B
:102FC000000029000000290001002800000028005E
:102FD0000000280000002800000028000100270051
:102FE0000000270000002700000027000000270045
:102FF0000100260000002600000026000000260038
:10300000000026000100250000002500000025002A
:10301000000025000000250000002500010024001C
:103020000000240000002400000024000000240010
:103030000100230000002300000023000000230003
:1030400000002300000023000000230001002200F4
:1030500000002200000022000000220000002200E8
:1030600000002200010021000000210000002100DA
:1030700000002100000021000000210000002100CC
:1030800001002000000020000000200000002000BF
:1030900000002000000020000000200000002000B0
:1030A00001001F0000001F0000001F0000001F00A3
:1030B00000001F0000001F0000001F0001001E0094
:1030C00000001E0000001E0000001E00000039303D
:1030D00000003325000087190000B00F0000DB0856
:1030E0000000BD040000740200003F010000204306
:1030F0006F756E7420583A00426564004531006275
:103100006564002C2073797374656D2073746F701F
:1031100070656421204865617465725F49443A2096
:103120000048656174696E67204661696C6564007A
:1031300048656174696E67206661696C6564004505
:1031400072723A204D415854454D50004D415854EB
:10315000454D5020747269676765726564004572F9
:10316000723A204D494E54454D50004D494E5445FC
:103170004D5020747269676765726564004D38341C
:1031800020582059205A204500202800202F0020B8
:1031900042403A0020403A0020573A000009121BF2
:1031A000242D363F48415A536C657E7719100B0227
:1031B0003D342F265158434A757C676E323B202997
:1031C000161F040D7A7368615E574C452B22393007
:1031D0000F061D14636A7178474E555C646D767FE7
:1031E0004049525B2C253E3708011A137D746F66E7
:1031F00059504B42353C272E1118030A565F444D57
:10320000727B60691E170C053A3328214F465D54C6
:103210006B627970070E151C232A31384148535AC6
:10322000656C777E09001B122D243F3658514A43A6
:103230007C756E671019020B343D262F737A616816
:10324000575E454C3B3229201F160D046A63787186
:103250004E475C55222B3039060F141D252C373E66
:103260000108131A6D647F7649405B523C352E2766
:1032700018110A03747D666F5059424B171E050CD6
:10328000333A21285F564D447B7269600E071C1546
:103290002A233831464F545D626B70797C3C3E5E28
:1032A0002B3D3F2F5B5D3B2C2A225C005072696EE8
:1032B00074205061757365640070012C01900127C2
:1032C00001B0012201C0011D01F00118011002131B
:1032D0000130020E016002090190020401C002FFE8
:1032E000000003FA004003F5008003F000D003EB78
:1032F000002004E6007004E100E004DC004005D793
:1033000000C005D2004006CD00D006C8008007C32B
:10331000003008BE00F008B900C009B400B00AAF20
:1033200000B00BAA00D00CA500000EA000500F9B0F
:1033300000C01096005012910000148C00C0158738
:1033400000B0178200B0197D00D01B7800001E73FA
:103350000040206E0090226900F024640040275F46
:103360000090295A00E02B5500102E500020304BC1
:103370000010324600E033410090353C00103737F2
:103380000070383200A0392D00B03A2800A03B234D
:1033900000603C1E00103D1900903D1400103E0FCF
:1033A00000703E0A00C03E0500003F0000403FFBA9
:1033B000FF803FF6FFC03FF1FF43616E6E6F7420E8
:1033C0006F70656E207375626469722000534420CB
:1033D00063617264206F6B0A006F70656E526F6F6D
:1033E00074206661696C65640A00766F6C756D6542
:1033F0002E696E6974206661696C65640A005344C5
:1034000020696E6974206661696C0A004D3234006F
:103410004D32332025730046696C652073656C65F9
:10342000637465640A002053697A653A200046692E
:103430006C65206F70656E65643A2000454E4420CF
:10344000535542524F5554494E450A002220706F41
:1034500073002220706172656E743A2200535542E7
:10346000524F5554494E452043414C4C2074617293
:103470006765743A2200747279696E6720746F20F0
:1034800063616C6C207375622D67636F6465206681
:10349000696C6573207769746820746F6F206D6143
:1034A0006E79206C6576656C732E204D4158206CCA
:1034B0006576656C2069733A310A002E0A006F70D8
:1034C000656E206661696C65642C2046696C653A9E
:1034D00020002E0A0044656C6574696F6E20666179
:1034E000696C65642C2046696C653A200046696CFD
:1034F000652064656C657465643A002E0A006F701F
:10350000656E206661696C65642C2046696C653A5D
:10351000200057726974696E6720746F2066696C49
:10352000653A2000667265736800646F696E6700B3
:103530002066696C653A20004E6F772000000021FC
:1035400000240027002A002D003000330001010074
:1035500000040107010A0100002200250028002BB9
:10356000002E003100340002010000050108010BAB
:1035700001000020002300260029002C002F00322B
:10358000000001000003010601090105050505070A
:103590000508080808020202020A0A0808040404CE
:1035A00004010101010101010103030303030303FA
:1035B00003040707070C0C0C0C0C0C0C0C02020289
:1035C0000206060606060606060B0B0B0B0B0B0B7C
:1035D0000B0102102020080810204010204080021B
:1035E0000102010804020101020408102040808049
:1035F00040201008040201800402018040201008CD
:1036000004020108040201010204081020408001A4
:103610000204081020408000000A0B02090C0D0E65
:103620000807030401000000000000000000000083
:10363000000000000000000000000000000000008A
:103640000000001211100000000000000000000047
:103650000000000000000000000000000002000068
:10366000000000000000000000000000000000005A
:10367000000000000000000000000000000000004A
:10368000000000000000000000000000000000003A
:10369000000000000000000000000000000000002A
:1036A000000000000000000000000000000000001A
:1036B000000000000000000000000000000000000A
:1036C00001C00E000000000000000000000000002B
:1036D0003FC1FE00000000000000000000000007E5
:1036E000FFDFFE0000000000000000000000007F7F
:1036F000FFFFFE00000000000000000000000FFFC0
:10370000FFFFFE00000000000000000000000FFFAF
:10371000FFFFFE00000000000000000000000FFF9F
:10372000FFFFFE00000000000000000000000FFF8F
:10373000FFFFFE00000000000000000000000FFF7F
:10374000FFF88E00000000000000000000000FFFE6
:10375000FFC00E00000000000000000000000FC3CA
:10376000FF800E0200400C018086022000000FC383
:10377000FF030E0180700700C0C3FE3FE0000FE3AF
:10378000FF0F8E03C0700700C183063030000FE3C7
:10379000FF1FFE03C0700700C303043030000FE3B7
:1037A000FE1FFE03C0700D80C603003030000FE323
:1037B000FE1FFE03C0F00980CC03003030000FE391
:1037C000FE1F3E0360980880D803003030000FE3EE
:1037D000FE1F0E03619818C0FC03F838E0000FE3E9
:1037E000FE1F0E02219818C0FC03003FC0000FE32B
:1037F000FE1F8E0631183FE0C6030030C0000FE305
:10380000FE1F8E0633183060C6030030C0000FE381
:10381000FF0F0E0613186030C303003060000FE383
:10382000FF020E061E186030C383003070000FE3E5
:10383000FF800E060C18E030C183043030000FE327
:10384000FFC00E060C0CC018C1C3FE3038000FE3D9
:10385000FFFFFE040008C0188083FE1010000FE375
:10386000FFFFFE00000000000000000000000FC38A
:10387000FFFFFE00000000000000000000000FC776
:10388000FFFFFE00000000000000000000000FCF5E
:10389000FFFFFE00000000000000000000000FFF1E
:1038A000FFFFFE00000000000000000000000FFF0E
:1038B000FFFFFE00000000000000000000000FFFFE
:1038C000FFFFFC00000000000000000000000FFFF0
:1038D000FFFFC000000000000000000000000FFF1C
:1038E0003FF800003E0F80F001F01C03C0000FE025
:1038F0003F0000003E0F80F007FC1C0FF0000E00A0
:10390000300000003E0F81F80F1E1C1E3800000022
:10391000000000003B1B81981C081C1C1C000000C0
:10392000000000003B1B81981C001C3800000000B8
:10393000000000003B1B839C1C001C3800000000A2
:10394000000000003913831C1C3F1C3800000000DD
:103950000000000039B3830E1C3F1C38000000003B
:103960000000000039B3870E1C071C38000000005F
:103970000000000039F387FE1C071C3C1C000000FF
:103980000000000038E38FFF0E061C1C1C00000026
:103990000000000038E38E070FFE1C0FF800000047
:1039A0000000000038E38E0707F81C07F000000055
:1039B0000000000000000000000000000000000007
:1039C00000000000000000000000000000000000F7
:1039D00000000000000000000000000000000000E7
:1039E00000000000000000000000000000000000D7
:1039F00000000000000000000000000000000000C7
:103A000000000000000000000000000000000000B6
:103A100000000000000000000000000000000000A6
:103A20000000000000000000000000000000000096
:103A30000000000000000000000000000000000086
:103A40000000000000000000000000000000000076
:103A5000000000000000000000000000000068748A
:103A600074703A2F2F6D61726C696E66772E6F726B
:103A70006700322E302E352E3420284D6167696361
:103A80002076302E332E33290001FFFFFFFFFFFF8A
:103A9000FFFFFFFFFFFFFF0FFFFFFFFFFFFFFFFF26
:103AA000FFFFFFFFFF1E00000000000000000000FD
:103AB00007FFFF380000000000000000000003FFC7
:103AC000FF700000000000000000000001FFFF6028
:103AD0000000000000000000000000FFFF60000088
:103AE0000000000000000000007FFFC00000000098
:103AF000000000007800003FFFC00FC0FC00000085
:103B000000007818001FFFC03FE1FF000000000028
:103B1000783C000FFFC07FF3FF8000000000783C7E
:103B20000007FFC0FFFFFFC000000000783C00035B
:103B3000FFC1F87F87E00000000078000001FFC1AE
:103B4000F03F03E00000000078000000FFC1E01E2D
:103B500001E01F0003E0783C03F07FC1E01E01E0BC
:103B60007FC00FF8783C07FC3FC1E01E01E1FFE099
:103B70001FFC783C0FFE1FC1E01E01E3FFF03FFE7B
:103B8000783C1FFE0FC1E01E01E3F3F83F3E783C96
:103B90003F3F07C1E01E01E7E0FC7C1F783C3E1F71
:103BA00007C1E01E01E7C07C7C0F783C3C0F03C1DD
:103BB000E01E01E7807C780F783C3C0F03C1E01EDB
:103BC00001E7803C7800783C3C0F03C1E01E01E730
:103BD000803C7800783C3C0F03C1E01E01E7803C4C
:103BE0007800783C3C0F03C1E01E01E7C03C780040
:103BF000783C3C0F03C1E01E01E3E03C78007C3CD4
:103C00003C0F03C1E01E01E3FF3FF8007FBC3C0F07
:103C100003C1E01E01E1FF3FF8003FBFFC0F03C1FD
:103C2000E01E01E0FF3FF8001FBFFC0F03C1E01ED4
:103C300001E07F3FF8000FBFFC0F036000000000B1
:103C4000000000000000000007600000000000000D
:103C500000000000000006700000000000000000EE
:103C6000000000000E38000000000000000000000E
:103C700000001C1E0000000000000000000000000A
:103C8000780FFFFFFFFFFFFFFFFFFFFFFFFFF001C8
:103C9000FFFFFFFFFFFFFFFFFFFFFFFF804D313002
:103CA00030302053002020506C616E6E657242757A
:103CB0006666657242797465733A200020467265C3
:103CC00065204D656D6F72793A2000436F6D7069A4
:103CD0006C65643A204E6F762032312032303230BB
:103CE0000A00204C61737420557064617465643AF5
:103CF00020323032302D30372D3139207C20417543
:103D000074686F723A204368726973746F70686583
:103D100072204E6F72746F6E0A00322E302E352E66
:103D20003420284D616769632076302E332E332985
:103D30000A004D61726C696E0020536F6674776182
:103D400072652052657365740A0020576174636858
:103D5000646F672052657365740A002042726F7742
:103D60006E206F75742052657365740A0020457863
:103D70007465726E616C2052657365740A00506FD1
:103D800077657255700A0073746172740A00617508
:103D9000746F25632E67004732385859004D313013
:103DA0003031006572726F722077726974696E6764
:103DB00020746F2066696C650A00446F6E6520731D
:103DC0006176696E672066696C652E0A004D32392E
:103DD00000456E6473746F70730025532025632053
:103DE000256320256320256300205A3A0020593A94
:103DF0000020583A00656E6473746F7073206869B0
:103E0000743A20004D6F76652025736D6D00004D6E
:103E10006F766520302E316D6D004D6F76652031E7
:103E20006D6D004D6F76652031306D6D004D6F7694
:103E300065204178697300486F74656E6420746F03
:103E40006F20636F6C6400457874727564657200EE
:103E50004D6F7665205A004D6F76652059004D6F85
:103E600076652058004368616E67652046696C611D
:103E70006D656E7400556E6C6F61642046696C618F
:103E80006D656E74004C6F61642046696C616D6590
:103E90006E74005072656865617420414253005031
:103EA00072656865617420437573746F6D0050723C
:103EB000656865617420504C41004261636B00503D
:103EC00072696E742066726F6D204D656469610061
:103ED00050726F62696E67204661696C65640A00A2
:103EE00050726F62696E67204661696C656400207C
:103EF0005A3A200020593A200042656420583A205E
:103F000000486F6D652025732573257320466972FF
:103F1000737400496E736572742066696C616D65B7
:103F20006E7420616E6420707265737320627574A4
:103F3000746F6E0A004A474D616B6572204D616770
:103F400069632052656164792E005072696E7469EC
:103F50006E672E2E2E00220A00556E6B6E6F776EE6
:103F600020636F6D6D616E643A2022002045002051
:103F70005A00205900204D393220580020746F6FAC
:103F8000206C6F6E6720657874727573696F6E2030
:103F900070726576656E7465640A0020636F6C6488
:103FA00020657874727573696F6E207072657665BE
:103FB0006E7465640A002E0A006F70656E2066617B
:103FC000696C65642C2046696C653A20000000210C
:103FD00010422063308440A550C660E770088129F4
:103FE000914AA16BB18CC1ADD1CEE1EFF13112108C
:103FF0000273325222B5529442F772D66239931844
:10400000837BB35AA3BDD39CC3FFF3DEE362244397
:104010003420040114E664C774A44485546AA54B93
:10402000B528850995EEE5CFF5ACC58DD55336722B
:104030002611163006D776F6669556B4465BB77AE3
:10404000A719973887DFF7FEE79DD7BCC7C448E5B7
:10405000588668A7784008611802282338CCC9ED33
:10406000D98EE9AFF9488969990AA92BB9F55AD4CB
:104070004AB77A966A711A500A333A122AFDDBDC83
:10408000CBBFFB9EEB799B588B3BBB1AABA66C87D7
:104090007CE44CC55C222C033C600C411CAEED8FD3
:1040A000FDECCDCDDD2AAD0BBD688D499D977EB66B
:1040B0006ED55EF44E133E322E511E700E9FFFBE23
:1040C000EFDDDFFCCF1BBF3AAF599F788F8891A9F6
:1040D00081CAB1EBA10CD12DC14EF16FE18010A1CD
:1040E00000C230E3200450254046706760B98398D1
:1040F00093FBA3DAB33DC31CD37FE35EF3B102901D
:1041000012F322D2323542145277625672EAB5CB9C
:10411000A5A89589856EF54FE52CD50DC5E234C36C
:1041200024A01481046674476424540544DBA7FA70
:10413000B79987B8975FE77EF71DC73CD7D326F2BC
:10414000369106B01657667676154634564CD96DBC
:10415000C90EF92FE9C899E9898AB9ABA94458650C
:104160004806782768C018E1088238A3287DCB5C10
:10417000DB3FEB1EFBF98BD89BBBAB9ABB754A545C
:104180005A376A167AF10AD01AB32A923A2EFD0FDC
:10419000ED6CDD4DCDAABD8BADE89DC98D267C07AC
:1041A0006C645C454CA23C832CE01CC10C1FEF3EB0
:1041B000FF5DCF7CDF9BAFBABFD98FF89F176E36FC
:1041C0007E554E745E932EB23ED10EF01E20453ABF
:1041D00000205A3A0020593A00583A0054484552B3
:1041E0004D414C2052554E4157415900546865721B
:1041F0006D616C2052756E6177617900DA01A601FC
:1042000011241FBECFEFD1E2DEBFCDBF00E00CBF57
:1042100013E0A0E0B2E0E6EDF4E802E00BBF02C07C
:1042200007900D92A639B107D9F72BE1A6E9B3E0C3
:1042300001C01D92A83BB207E1F710E2CFEFD0E238
:1042400000E006C021970109802FFE010F94CB41A9
:10425000CE3FD10780E00807A9F70F949F2D0D945A
:1042600059420C9400000C94EC3380919B188823E5
:10427000C1F0815080939B18E2ECF8E1882351F063
:104280008150990B2BE1289FF001299FF00D1124FB
:10429000E850F74E8BE1ADEDB8E101900D928A95B3
:1042A000E1F720919B18211105C08091A51880622B
:1042B0008093A51881E090E0A0E0B0E0211103C058
:1042C00080E090E0DC0180936D0E90936E0EA093E1
:1042D0006F0EB093700E1092620E81E080937D0E8F
:1042E00083E080935D02089510925B0985E08093DE
:1042F00026040895CF93DF9300D01F92CDB7DEB789
:1043000084EF91E0A0E0B0E089839A83AB83BC8323
:10431000BE016F5F7F4F80EA0E9482630F900F9013
:104320000F900F90DF91CF910895CF93DF9300D03E
:104330001F92CDB7DEB784EF91E0A0E0B0E08983B3
:104340009A83AB83BC83BE016F5F7F4F88E70E9477
:1043500082630F900F900F900F90DF91CF9108958F
:10436000CF93DF9300D01F92CDB7DEB784EF91E0FB
:10437000A0E0B0E089839A83AB83BC83BE016F5F0A
:104380007F4F8CE30E9482630F900F900F900F90ED
:10439000DF91CF910895CF93DF9300D01F92CDB7D7
:1043A000DEB78EEE92E0A0E0B0E089839A83AB8323
:1043B000BC83BE016F5F7F4F8AE00E9482630F90D3
:1043C0000F900F900F90DF91CF910895CF93DF93CF
:1043D00000D01F92CDB7DEB78EEE92E0A0E0B0E045
:1043E00089839A83AB83BC83BE016F5F7F4F8AE56D
:1043F0000E9482630F900F900F900F90DF91CF91EA
:104400000895FC0184910895FC0180810895CF9363
:10441000DF93EC01CB01BA010F94E4372AE037EDCA
:1044200043E25DE30F947F3F20E030E0A9010F9469
:10443000853E0F94F83F688379838A839B83DF915D
:10444000CF910895CF93DF93EC01CB01BA010F9484
:10445000E43720E030E040E251E40F947F3F20E079
:1044600030E0A9010F94853E688379838A839B831A
:10447000DF91CF910895CF93DF93EC01CB01BA0187
:104480000F94E43720E030E040E251E40F947F3FA6
:1044900020E030E0A9010F94853E688379838A8308
:1044A0009B83DF91CF910895CF93DF93EC01CB01F4
:1044B000BA010F94E4372AE037ED43E25DE30F944D
:1044C0007F3F20E030E0A9010F94853E6883798327
:1044D0008A839B83DF91CF910895CF93DF93EC0183
:1044E000CB01BA010F94E43720E030E0A9010F942A
:1044F000853E688379838A839B83DF91CF9108957A
:10450000CF93DF93EC01CB01BA010F94E43720E0A5
:1045100030E0A9010F94853E688379838A839B8369
:10452000DF91CF910895CF93DF93EC01CB01BA01D6
:104530000F94E43720E030E04AE754E40F947F3FE3
:1045400020E030E0A9010F94853E688379838A8357
:104550009B83DF91CF910895CF93DF93EC01CB0143
:10456000BA010F94E43720E030E048EC52E40F94B5
:104570007F3F20E030E0A9010F94853E6883798376
:104580008A839B83DF91CF910895CF93DF93EC01D2
:10459000CB01BA010F94E43720E030E0A9010F9479
:1045A000853E0F94F13F79836883DF91CF91089521
:1045B000CF93DF93EC01CB01BA010F94E43729ECE0
:1045C00038EC48EC5EE30F947F3F20E030E040E0C1
:1045D0005FE30F94853E0F94F83F6883DF91CF919E
:1045E00008958F929F92AF92BF92CF92DF92EF92F7
:1045F000FF92CF936B017C0120E030E0A9010F9482
:10460000DD3787FD99C067E177EB81E598E3A70186
:1046100096010F94853E6B017C0120E030E048EC70
:1046200052E40F9443384B015C0120E030E0A901D3
:10463000C701B6010F94DD3720E030E040EA50E4D6
:1046400087FF04C020E030E040EA50ECC501B4012F
:104650000F94853E20E030E040E251E40F947F3F2C
:104660000F94F13F6B017C018BE2F7FE09C0F094DF
:10467000E094D094C094C11CD11CE11CF11C8DE2CB
:1046800080937E0EC701B60120E137E240E050E0A2
:104690000F94433E8AE0882E912CA12CB12CCA01A4
:1046A000B901A50194010F94433E605D60937F0EB4
:1046B000C701B60128EE33E040E050E00F94433EDE
:1046C000CA01B901A50194010F94433E605D609356
:1046D000800EC701B60124E630E040E050E00F94C0
:1046E000433ECA01B901A50194010F94433E605DA8
:1046F0006093810EC701B601A50194010F94433E5A
:10470000C62FCA01B901A50194010F94433E605D13
:104710006093820E8EE28093830EC05DC093840E00
:104720008EE79EE0CF91FF90EF90DF90CF90BF900B
:10473000AF909F908F90089567E177EB81E598EBBC
:1047400066CF0F94E43720E030E040E251E40F946C
:104750007F3F20E030E0A9010F94853E0C94F122C8
:104760008F929F92AF92BF92CF92DF92EF92FF9281
:10477000CF936B017C0120E030E0A9010F94DD377D
:1047800087FDA4C067E177EB81E598E3A701960177
:104790000F94853E6B017C0120E030E0A9010F946D
:1047A000DD3787FF98C0C701B601905820E030E0A0
:1047B00048EC52E40F94433820E030E040EA50E403
:1047C0000F94853E20E030E040E251E40F947F3FBB
:1047D0000F94F13F6B017C0180E280937E0E60E2DA
:1047E00080E1C81687E2D806E104F1048CF0C70125
:1047F000B60120E137E240E050E00F94433ECA01A9
:10480000B9012AE030E040E050E00F94433E605DA3
:1048100060937F0E60E288EEC81683E0D806E1045C
:10482000F1048CF0C701B60128EE33E040E050E01F
:104830000F94433ECA01B9012AE030E040E050E065
:104840000F94433E605D6093800E60E284E6C8167C
:10485000D104E104F1048CF0C701B60124E630E094
:1048600040E050E00F94433ECA01B9012AE030E035
:1048700040E050E00F94433E605D6093810E8AE01B
:10488000882E912CA12CB12CC701B601A501940151
:104890000F94433EC62FCA01B901A50194010F949C
:1048A000433E605D6093820E8EE28093830EC05D16
:1048B000C093840E8EE79EE0CF91FF90EF90DF9043
:1048C000CF90BF90AF909F908F90089567E177EB66
:1048D00081E598EB5BCF20E030E048EC52E4C70183
:1048E000B60168CF0F94E43720E030E040E251E4B5
:1048F0000F947F3F20E030E0A9010F94853E0C9497
:10490000B0238F929F92AF92BF92CF92DF92EF929D
:10491000FF92CF936B017C0120E030E0A9010F945E
:10492000DD3787FF9DC067E177EB81E598EBA70155
:1049300096010F94853E6B017C0120E030E04AE750
:1049400054E40F9443384B015C0120E030E040E236
:1049500051ECC701B6010F94DD37181654F420E06E
:1049600030E048EC52E4C701B6010F94E54087FD02
:104970008BC020E030E0A901C701B6010F94DD37FC
:1049800087FF73C060E070E080EA90ECA5019401BD
:104990000F94853E20E030E040E251E40F947F3FE9
:1049A0000F94F13F6B017C01F7FC64C020E137E21A
:1049B00040E050E00F94433ECA01B9012AE030E0E4
:1049C00040E050E00F94433E605D60937F0EC7016E
:1049D000B60128EE33E040E050E00F94433E9AE009
:1049E000892E912CA12CB12CCA01B901A5019401E9
:1049F0000F94433E605D6093800EC701B60124E6CC
:104A000030E040E050E00F94433ECA01B901A501F7
:104A100094010F94433E605D6093810E8EE280931B
:104A2000820EC701B601A50194010F94433EC62F23
:104A3000CA01B901A50194010F94433E605D6093E2
:104A4000830EC05DC093840E8FE79EE0CF91FF90F0
:104A5000EF90DF90CF90BF90AF909F908F90089590
:104A600067E177EB81E598E362CF60E070E080EA90
:104A700090E48CCFF094E094D094C094C11CD11CED
:104A8000E11CF11C6DE2A1CF20E030E0A901C701DB
:104A9000B6010F94DD3787FF6AC060E070E080EAFE
:104AA00090ECA50194010F94853E20E030E040E2B7
:104AB00051E40F947F3F0F94F13F4B015C0120E0E4
:104AC00030E0A901C701B6010F94E54087FD0BC096
:104AD00020E030E040E251E4C701B6010F94DD3739
:104AE00060E287FD13C0B7FC47C0C501B40128EEE2
:104AF00033E040E050E00F94433ECA01B9012AE0A0
:104B000030E040E050E00F94433E605D6093800EE3
:104B1000C501B40124E630E040E050E00F94433E8C
:104B20008AE0C82ED12CE12CF12CCA01B901A701D1
:104B300096010F94433E605D6093810E8EE28093F8
:104B4000820EC501B401A70196010F94433EC62F02
:104B5000CA01B901A70196010F94433E605D6093BD
:104B6000830EC05DC093840E80E89EE06FCF60E04E
:104B700070E080EA90E495CFB094A09490948094F3
:104B8000811C911CA11CB11C6DE2C0CF0F94E437B5
:104B900020E030E048EC52E40F947F3F20E030E02A
:104BA000A9010F94853E0C948124119890910201E3
:104BB00087FD9095917090930001119A00001198D3
:104BC0009091020186FD9095917090930001119A49
:104BD000000011989091020185FD9095917090933D
:104BE0000001119A000011989091020184FD9095A6
:104BF000917090930001119A000011989091020118
:104C000083FD9095917090930001119A0000119886
:104C10009091020182FD9095917090930001119AFC
:104C2000000011989091020181FD909591709093F0
:104C30000001119A00001198809102018170809307
:104C40000001119A00000895089590E080E0089511
:104C5000CF93DF93FB01D90190819130E9F094303B
:104C6000A8F0945090832D913C911197B9016F5FFA
:104C70007F4F11967C936E93420F531FEA018883F6
:104C80008D919C918F35910564F406C08C3539F473
:104C90009C5F9083943039F7DF91CF9108958B33E7
:104CA00011F781E08083F8CF9091C30C292F30E079
:104CB000F901EA56F74E8083220F331F220F331F6C
:104CC000F901E953F14F4091A0085091A10860917A
:104CD000A2087091A30840835183628373839F5F0E
:104CE000943040F49093C30C8091470E8F5F809373
:104CF000470E08951092C30CF7CF282F90917B0890
:104D0000833021F495FD0FC094FD0FC0892F90E0F2
:104D1000B0E0A0E004C0B695A795979587952A9531
:104D2000D2F78170089581E0089580E008958F9210
:104D30009F92AF92BF92CF92DF92EF92FF920F932A
:104D40001F93CF93DF93D82FC62F882329F114E028
:104D500085E0D73019F1662309F46DC014E0E5E071
:104D6000673009F46AC02D2F2150330BC90146E08A
:104D7000489F9001499F300D1124C150DD0BC20F97
:104D8000D31FCC0FDD1FCC0FDD1FCC56D64F688153
:104D900079818A819B812CC011E080E09FEF9C0F7C
:104DA000963098F5C150DD0B06E0FE01089FE00D3E
:104DB000F11D1124EE0FFF1FEE0FFF1FEC56F64FF3
:104DC00060817181828193819B01AC010F94853E4A
:104DD000019FC00DD11D1124CC0FDD1FCC0FDD1F95
:104DE000CC56D64F288139814A815B810F94843E0D
:104DF000DF91CF911F910F91FF90EF90DF90CF90B7
:104E0000BF90AF909F908F9008956C2F8F5F0E94FE
:104E100097266B017C016C2F81E0810F0E94972601
:104E20004B015C01A7019601C701B6010F94853EB5
:104E3000A5019401DBCF11E0E0E08FEF8D0F86300C
:104E4000F0F42D2F2150330BC90126E0289FE001FB
:104E5000299FD00D1124EC0FFD2FF11DEE0FFF1F28
:104E6000EE0FFF1FEC56F64F6081718182819381B6
:104E70009B01AC010F94853EC10FD11DADCF61E008
:104E80006E0F8D2F0E9497266B017C0161E0610FF0
:104E90008D2FC4CF90E1899FF0011124E60FF11D01
:104EA000EE0FFF1FEE0FFF1FE15CFB4F6081718172
:104EB00082819381089596E0899FF0011124E60F85
:104EC000F11DEE0FFF1FEE0FFF1FEC56F64F608136
:104ED00071818281938108952F923F924F925F92C8
:104EE0006F927F928F929F92AF92BF92CF92DF92FA
:104EF000EF92FF920F931F93CF93DF93CDB7DEB75F
:104F00002E970FB6F894DEBF0FBECDBFE82ED62E7B
:104F1000042F122F282F30E03C872B87462F50E09C
:104F20005A87498766E0F62EF29EC001F39E900DE7
:104F300011249E878D87FA01E80FF91FEE0FFF1FDE
:104F4000EE0FFF1FEC56F64F6081718182819381D5
:104F50009B01AC010F947741882309F434C1E00E22
:104F6000612F6D0DFE9CF0011124A985BA85AE0F4D
:104F7000BF1FAA0FBB1FAA0FBB1FAC56B64FAC90EA
:104F80001196BC9011971296CC9012971396DC90C4
:104F9000E00EFE9CA0011124A985BA85A40FB51FBF
:104FA000AA0FBB1FAA0FBB1FAC56B64FEC901196B1
:104FB000FC90119712960C91129713969C90862F45
:104FC00090E0AD85BE85A80FB91FAA0FBB1FAA0F21
:104FD000BB1FAC56B64F8C9011967C9011971296D1
:104FE0006C90129713965C90610F70E0AD85BE8552
:104FF000A60FB71FAA0FBB1FAA0FBB1FAC56B64FF9
:105000004C9011963C90119712961C911297139602
:105010002C90E80FF91FEE0FFF1FEE0FFF1FEC564D
:10502000F64FB081B98321812A8332813B8383810A
:105030008C83FA01E60FF71FEE0FFF1FEE0FFF1F25
:10504000EC56F64F90819D83A181AE83B281BF83E0
:10505000238128879701402F592DB701802F992D43
:105060000F947741882321F0E12CF12C00E0912C62
:105070009501A601B501C6010F947741882319F067
:105080005701C02ED92C242D332D412F522D642DA4
:10509000732D812F922D0F947741882321F0412C7D
:1050A000312C10E0212C282D372D462D552D682D23
:1050B000772D862D952D0F947741882321F0842C10
:1050C000732C612E522C2D813E814F8158856D812C
:1050D0007E818F8198850F947741882321F01D82EE
:1050E0001E821F82188629813A814B815C816981E9
:1050F0007A818B819C810F947741882341F03D8197
:1051000039834E814A835F815B8388858C8386E007
:10511000EB85FC858E9FD0018F9FB00D11242985D2
:105120003A85A20FB31FAA0FBB1FAA0FBB1FAC5615
:10513000B64FBA87A9879501A601B501C6010F949C
:10514000853E9701402F592D0F94843E6B017C01C1
:10515000282D372D462D552D682D772D862D952DF3
:105160000F94853E242D332D412F522D0F94843ED4
:105170009B01AC01C701B6010F94853E6B017C0118
:1051800029813A814B815C8169817A818B819C8103
:105190000F94853E2D813E814F8158850F94843E2A
:1051A0009B01AC01C701B6010F94853E20E030E0C1
:1051B00040E450E40F947F3FA985BA856D937D93B9
:1051C0008D939C9313972E960FB6F894DEBF0FBE67
:1051D000CDBFDF91CF911F910F91FF90EF90DF90A6
:1051E000CF90BF90AF909F908F907F906F905F9087
:1051F0004F903F902F90089580917D0B81110AC0B0
:105200008091C30E813041F08091A51882FB8827E0
:1052100080F9089580E0089581E00895809128182C
:1052200090912918891B8F7011F40C94FC2881E04F
:105230000895129A0895CF92DF92EF92FF92CF9342
:10524000DF9300D01F92CDB7DEB76B017C0120E069
:1052500030E0A9010F94DD3787FD1BC067E177EBD4
:1052600081E598E3A70196010F94853E69837A83CF
:105270008B839C83CE0101960F94D7150F900F90CE
:105280000F900F90DF91CF91FF90EF90DF90CF9034
:10529000089567E177EB81E598EBE4CF0F94E4376D
:1052A00020E030E04AE754E40F947F3F20E030E014
:1052B000A9010F94853E0C941B290F94E43720E03C
:1052C00030E0A9010F94853E0F94F13FCB010C947F
:1052D0000CDACF92DF92EF92FF926B017C0120E01B
:1052E00030E0A9010F94DD3787FD26C067E177EB39
:1052F00081E598E3A70196010F94853E6B017C013F
:1053000020E030E0A9010F94DD3720E030E040E0FC
:105310005FE387FF04C020E030E040E05FEBC701BF
:10532000B6010F94853E0F94F13FCB01FF90EF90B3
:10533000DF90CF900C940CDA67E177EB81E598EB86
:10534000D9CF0F94E43720E030E0A9010F94853ED7
:105350000C94692984E00D94441983E00D94441958
:1053600082E00D9444192F923F924F925F926F9278
:105370007F928F929F92AF92BF92CF92DF92EF92E5
:10538000FF920F931F93CF93DF93D62FC72FFC016C
:1053900080809180A280B380C501B40120E831E50E
:1053A00041E050E00F94213EC9016DE671E00F9499
:1053B000A3416B017C01C501B40120E13EE040E066
:1053C00050E00F94213ECA01B90128E130E040E0ED
:1053D00050E00F94213E362E272E062F172F8CE3F8
:1053E000482E512C612C712CC501B401A3019201EE
:1053F0000F94213EB62EA72ECA01B901A301920136
:105400000F94213ECB01C114D10479F1AF92BF9228
:105410007F936F932F923F92FF92EF92DF92CF9202
:1054200084ED91E19F938F93CF93DF930F94743723
:105430008DB79EB70E960FB6F8949EBF0FBE8DBF68
:105440008D2F9C2FDF91CF911F910F91FF90EF90A7
:10545000DF90CF90BF90AF909F908F907F906F9094
:105460005F904F903F902F900895E114F104C9F0A0
:10547000AF92BF927F936F932F923F92FF92EF92E2
:1054800084EC91E19F938F93CF93DF930F947437C4
:10549000EDB7FEB73C960FB6F894FEBF0FBEEDBF5A
:1054A000CFCF012BB9F0AF92BF927F936F932F9222
:1054B0003F9288EB91E19F938F93CF93DF930F946B
:1054C00074378DB79EB70A960FB6F8949EBF0FBE7D
:1054D0008DBFB6CF892BA9F0AF92BF927F936F9308
:1054E00080EB91E19F938F93CF93DF930F94743769
:1054F000EDB7FEB738960FB6F894FEBF0FBEEDBFFE
:105500009FCFAF92BF928CEA91E19F938F93CF93FD
:10551000DF930F9474370F900F900F900F900F90B0
:105520000F908ECF63E972E084E690E00E94A2DEE5
:105530006AEB72E084E690E00C94A2DE81110C9498
:10554000922A68EB71E084E190E00C94A2DE0E9464
:10555000A4D30C949E2A0E948CF90C949E2A0F943A
:10556000E43729EC38EC48EC5EE30F947F3F20E011
:1055700030E040E05FE30F94853E0F94F83F862FC4
:105580000C9441DA80E090E0A0E8B0E480937502EA
:1055900090937602A0937702B093780286E593E029
:1055A0000E940FCD809159098130C9F1D4F488232C
:1055B00009F183EB92E00E940FCD109275021092D8
:1055C0007602109277021092780286E593E00E94AC
:1055D0000FCD809159098F5F84309CF580935909D4
:1055E0000895823049F1833021F780E090E0A0EF08
:1055F000B1E419C080E090E0A0EFB1E480936D02C7
:1056000090936E02A0936F02B09370028093710228
:1056100090937202A0937302B0937402CACF80E099
:1056200090E0A8E4B3E480936D0290936E02A0939F
:105630006F02B0937002BDCF80E090E0A4E3B3E4CA
:10564000E5CF109259090895CF930E9451D20E943C
:10565000A4D3C82F882319F080E00E94C3F08C2FB8
:10566000CF910C949E2A0C9423B70C9423B70C94DE
:1056700023B70C9423B70C94D5B60C94D5B60C94E0
:10568000D5B60C94D5B6CF93DF9300D01F92CDB78B
:10569000DEB70F94F83F0F94E23769837A838B83E8
:1056A0009C83CE0101960E949BD80F900F900F9083
:1056B0000F90DF91CF9108950F94E4372AE037EDF2
:1056C00043E25DE30F947F3F20E030E0A9010F94B7
:1056D000853E0C94432BCF92DF92EF92FF92CF93B3
:1056E000DF9300D01F92CDB7DEB76B017C0120E0C5
:1056F00030E0A9010F94DD3787FD1BC067E177EB30
:1057000081E598E3A70196010F94853E69837A832A
:105710008B839C83CE0101960E949BD80F900F90A3
:105720000F900F90DF91CF91FF90EF90DF90CF908F
:10573000089567E177EB81E598EBE4CF0F94E437C8
:105740002AE037ED43E25DE30F947F3F20E030E055
:10575000A9010F94853E0C946B2B0F94E43720E045
:1057600030E0A9010F94853E0C946B2BAF92BF9251
:10577000CF92DF92EF92FF920F931F93CF93DF931D
:105780006B01E9014A3009F4C1C0453109F073C029
:10579000DB011296ED91FC91F280C681D781809158
:1057A0000201809582708093000188E28A95000052
:1057B000E9F7BF2CB29420EFB22230E1A32EAF0C58
:1057C00048E2E42E88EF0E94D5258E2D8A950000B0
:1057D000E9F7BFE1BF1508F485C08F2D8077806899
:1057E0000E94D5258B2D0E94D5258E2D8A950000EF
:1057F000E9F780E80E94D52580E00E94D5258E2D0E
:105800008A950000E9F78AEF0E94D5258E2D8A95AA
:105810000000E9F78E01005F1F4F8881807F0E94A2
:10582000D52589918295807F0E94D525C017D10703
:10583000A1F78E2D8A950000E9F7F394E0E1BE0E02
:10584000FA10C0CF80910201827080930001D601CE
:105850001296CD91DC91CE010F94541E8111F7C1A7
:10586000DF91CF911F910F91FF90EF90DF90CF903C
:10587000BF90AF900895FB0102811381423309F478
:10588000A1C108F4A5C1463409F492C1473409F412
:1058900095C14B3329F589812B81D80112966C91E2
:1058A000129713964C91213009F4E8C1233009F086
:1058B000B2C138EF380F582F91E0431708F490E049
:1058C00041E0531708F040E031E0561708F430E0AB
:1058D000592F542B352309F0C6C1942309F0C3C1B5
:1058E00081E0BECF80EE8F0D8068807F0E94D5253D
:1058F0008F2D8295807F0E94D5258E2D8A95000060
:10590000E9F780E80E94D52580E877CF80910101F2
:105910008260809301018091020182708093000176
:105920008091010181608093010180910201817069
:1059300080930001099A119A8091020180958270EA
:105940008093000188E28A950000E9F788E790E0FB
:10595000CEE9DFE0FE013197F1F70197D9F788EF43
:105960000E94D52518E2812F8A950000E9F780E290
:105970000E94D52580E00E94D525812F8A950000C0
:10598000E9F780E00E94D52580E80E94D525812F87
:105990008A950000E9F780E00E94D52580E10E9409
:1059A000D525812F8A950000E9F7CE010197F1F7FF
:1059B000CE010197F1F7CE010197F1F7CE010197E2
:1059C000F1F7CE010197F1F7CE010197F1F7CE0182
:1059D0000197F1F7CE010197F1F7CE010197F1F7A9
:1059E000CE010197F1F7CE010197F1F7CE010197B2
:1059F000F1F7CE010197F1F7CE010197F1F7219769
:105A0000F1F780E20E94D52580E40E94D525812F00
:105A10008A950000E9F780E20E94D52580E60E9481
:105A2000D5251A950000E9F710E0D0E0C8E28D2FE7
:105A3000807780680E94D525812F0E94D5258C2FE4
:105A40008A950000E9F780E80E94D52580E00E9451
:105A5000D5258C2F8A950000E9F78AEF0E94D5257D
:105A60008C2F8A950000E9F790E21198809102014D
:105A7000817080930001119A0000119880910201B9
:105A8000817080930001119A0000119880910201A9
:105A9000817080930001119A000011988091020199
:105AA000817080930001119A000011988091020189
:105AB000817080930001119A000011988091020179
:105AC000817080930001119A000011988091020169
:105AD000817080930001119A000011988091020159
