:100000000C944A1B0C947B1B0C947B1B0C947B1B49
:100010000C947B1B0C947B1B0C947B1B0C947B1B08
:100020000C947B1B0C947B1B0C947B1B0C947B1BF8
:100030000C947B1B0C94028E0C947B1B0C947B1BEE
:100040000C947B1B0C94C2980C947B1B0C947B1B14
:100050000C947B1B0C947B1B0C9429930C94239085
:100060000C947B1B0C94B9890C94AF890C947B1B6A
:100070000C947B1B0C947B1B0C947B1B0C947B1BA8
:100080000C947E6D0C947B1B0C947B1B0C947B1B43
:100090000C947B1B0C947B1B0C947B1B0C947B1B88
:1000A0000C947B1B0C947B1B0C94506D0C947B1B51
:1000B0000C947B1B0C947B1B0C947B1B0C94226D6F
:1000C0000C947B1B0C947B1B0C947B1B0C947B1B58
:1000D0000C947B1B0C947B1B0C947B1B0C947B1B48
:1000E0000C947B1B084AD73B3BCE016E84BCBFFD02
:1000F000C12F3D6C74319ABD56833DDA3D00C77FF8
:1001000011BED9E4BB4C3E916BAAAABE0000008090
:100110003F05A84CCDB2D44EB93836A9020C50B91F
:10012000918688083CA6AAAA2ABE000000803F004B
:100130004E414E494E495459494E46CDCCCC3D0ACC
:10014000D7233C17B7D13877CC2B329595E6241FAF
:10015000B14F0A000020410000C84200401C462068
:10016000BCBE4CCA1B0E5AAEC59D7400407A10F33B
:100170005A00A0724E18090010A5D4E80000E876D5
:1001800048170000E40B54020000CA9A3B0000002C
:10019000E1F505000080969800000040420F000045
:1001A00000A08601000000102700000000E8030006
:1001B0000000006400000000000A000000000001D0
:1001C00000000000002C76D888DC674F0823DFC1D0
:1001D000DFAE59E1B1B796E5E3E453C63AE651998B
:1001E0007696E8E6C28426EB898C9B62ED407C6FB4
:1001F000FCEFBC9C9F40F2BAA56FA5F490055A2A6B
:10020000F75C936B6CF9676DC11BFCE0E40D47FE76
:10021000F520E6B500D0ED902E030094357705006B
:1002200080841E080000204E0A000000C80C3333F2
:1002300033330F986E12831141EF8D2114893BE601
:100240005516CFFEE6DB18D1844B381BF77C1D908A
:100250001DA4BBE424203284725E228100C9F124F3
:10026000ECA1E53D27554E4C4F41442046494C41B9
:100270004D454E54004C4F41442046494C414D455C
:100280004E540046494C414D454E54204348414E42
:100290004745004572726F722077726974696E67A4
:1002A00020746F20454550524F4D210A00363726A5
:1002B000033C3D380E2E303E121A1C1808440AFF2B
:1002C0004308090001627573793A2070617573659E
:1002D0006420666F7220696E7075740A00627573AF
:1002E000793A2070617573656420666F722075734A
:1002F00065720A00627573793A2070726F63657374
:1003000073696E670A0053544F505045442E2000C5
:100310005072696E7465722073746F7070656420BA
:1003200064756520746F206572726F72732E20463B
:10033000697820746865206572726F7220616E64DE
:1003400020757365204D39393920746F20726573BB
:10035000746172742E202854656D706572617475B5
:1003600072652069732072657365742E20536574FD
:10037000206974206166746572207265737461729D
:1003800074696E67290A004E6F20436865636B735A
:10039000756D2077697468206C696E65206E756D67
:1003A0006265722C204C617374204C696E653A2032
:1003B00000636865636B73756D206D69736D61743F
:1003C00063682C204C617374204C696E653A200080
:1003D0004C696E65204E756D626572206973206E82
:1003E0006F74204C617374204C696E65204E756D7E
:1003F0006265722B312C204C617374204C696E65E0
:100400003A20004D313130002121204B494C4C2005
:10041000636175736564206279204B494C4C20629E
:100420007574746F6E2F70696E0A002121204B491C
:100430004C4C2063617573656420627920746F6F22
:10044000206D75636820696E6163746976652074D8
:10045000696D65202D2063757272656E7420636FFF
:100460006D6D616E643A2000506C65617365205259
:1004700065736574005052494E5445522048414CB2
:100480005445440025533A202553004B494C4C45D4
:10049000442E20005072696E7465722068616C741D
:1004A00065642E206B696C6C28292063616C6C6517
:1004B00064210A0053544F505045442E200050727E
:1004C000696E7465722073746F70706564206475F2
:1004D0006520746F206572726F72732E2046697882
:1004E00020746865206572726F7220616E64207579
:1004F0007365204D39393920746F207265737461CA
:1005000072742E202854656D706572617475726501
:100510002069732072657365742E20536574206999
:100520007420616674657220726573746172746997
:100530006E67290A006563686F3A004572726F72D0
:100540003A0042696C696E656172204C6576656C33
:10055000696E6720477269643A0A0021212053546A
:100560004F502063616C6C656420626563617573D4
:1005700065206F6620424C546F7563682065727207
:100580006F72202D207265737461727420776974A4
:1005900068204D3939390A0021212053544F502009
:1005A00063616C6C65642062656361757365206F5F
:1005B0006620424C546F756368206572726F7220BA
:1005C0002D20726573746172742077697468204D90
:1005D0003939390A00486F74656E6420746F6F2072
:1005E000636F6C640A0050726F62696E6720506FAF
:1005F000696E740025532025692F2569002E0A0095
:100600002F0050726F62696E67206D65736820708D
:100610006F696E742000202844525952554E2900AB
:10062000473239204175746F20426564204C6576ED
:10063000656C696E67003F20284C2C522C462C427A
:1006400029206F7574206F6620626F756E64732E3B
:100650000A003F2856296572626F7365206C6576C3
:10066000656C20696D706C61757369626C652028BA
:10067000302D34292E0A00426164205A2076616CA4
:1006800075650A004E6F2062696C696E6561722043
:10069000677269640A004D3630303A20546F6F201B
:1006A000436F6C6400486F74656E6420746F6F20D4
:1006B000636F6C640A00496E736572742066696CBE
:1006C000616D656E7420616E642070726573732055
:1006D000627574746F6E0A00507265737320627570
:1006E00074746F6E20746F2068656174206E6F7A09
:1006F0007A6C650A00496E736572742066696C6174
:100700006D656E7420616E64207072657373206213
:100710007574746F6E0A0020496E76616C6964208E
:10072000657874727564657220004361703A0047A1
:10073000322F47332062616420706172616D65748D
:100740006572730A00526573656E643A200025690C
:10075000730025696D202569730025696820256966
:100760006D20256973002569642025696820256945
:100770006D20256973002569792025696420256924
:10078000682025696D202569730023646566696E9C
:10079000652044454641554C545F004B6420004B56
:1007A0006920004B702000504944204175746F74DB
:1007B000756E652066696E69736865642120507581
:1007C0007420746865206C617374204B702C204B0E
:1007D0006920616E64204B6420636F6E7374616E78
:1007E00074732066726F6D2062656C6F7720696E1E
:1007F000746F20436F6E66696775726174696F6E9E
:100800002E680A00504944204175746F74756E65F6
:10081000206661696C6564212074696D656F75740B
:100820000A00504944204175746F74756E652066E6
:1008300061696C6564212054656D706572617475C1
:10084000726520746F6F20686967680A00204B64C6
:100850003A2000204B693A2000204B703A20000AD1
:1008600020436C617373696320504944200A00205F
:1008700054753A2000204B753A2000206D61783A7B
:100880002000206D696E3A200020643A200020622A
:100890006961733A2000504944204175746F747542
:1008A0006E652073746172740A005049442041756A
:1008B000746F74756E65206661696C65642120547F
:1008C000656D706572617475726520746F6F2068F4
:1008D0006967680A00504944204175746F74756EE9
:1008E00065206661696C65642120426164206578D9
:1008F000747275646572206E756D6265720A00456A
:1009000072723A207574663820666F6E74206E6F4E
:100910007420696E697469616C697A65642E00453A
:1009200072723A207574663820666F6E74206E6F2E
:100930007420696E697469616C697A65642E00451A
:1009400072723A207574663820666F6E74206E6F0E
:100950007420696E697469616C697A65642E004CF3
:100960006F6164206D6D00556E6C6F6164206D6DFC
:100970000046696C2E204469612E004520696E2076
:100980006D6DC2B30020082046616374002008200A
:100990004D6178002008204D696E004F6666004F5B
:1009A0006E004175746F74656D7000565472617697
:1009B000204D696E00566D696E00566D6178204558
:1009C00000566D6178205A00566D617820590056A6
:1009D0006D6178205800416D6178204500416D615E
:1009E00078205A00416D6178205900416D6178206E
:1009F0005800412D54726176656C00412D5265742A
:100A00007261637400416363656C004A756E637460
:100A1000696F6E204465760050726F6265205A20BF
:100A20004F66667365740050726F62652059204F7F
:100A300066667365740050726F62652058204F6659
:100A400066736574004573746570732F6D6D005A1D
:100A500073746570732F6D6D005973746570732FA7
:100A60006D6D005873746570732F6D6D0041647601
:100A7000616E6365642053657474696E6773003FCB
:100A80000043616E63656C00496E6974004D3432D9
:100A90003800496E697469616C697A652045455012
:100AA000524F4D0046696C616D656E740054656D02
:100AB00070657261747572650053746570732F6D23
:100AC0006D0050726F6265204F66667365747300C7
:100AD0004A65726B00416363656C65726174696F2E
:100AE0006E0056656C6F63697479005365742048B5
:100AF0006F6D65204F66667365747300436F6E6635
:100B0000696775726174696F6E003F004E65787435
:100B100020436F726E657200446F6E65004E65789B
:100B20007400486F6D696E672058595A0053746F8E
:100B300072652053657474696E6773004C6F6164ED
:100B40002053657474696E6773004C6576656C201C
:100B5000436F726E6572730050726F6265205A2027
:100B60004F66667365740046616465204865696711
:100B70006874004F6666004F6E00426564204C65E5
:100B800076656C696E67004732380A47323900472C
:100B90003239004C6576656C20426564004175749D
:100BA0006F20486F6D65004D6F74696F6E00436D07
:100BB000643A2053746F7700436D643A2053572D85
:100BC0004D6F646500436D643A204465706C6F79C5
:100BD00000436D643A2053656C662D546573740050
:100BE000436D643A20526573657400426564004E3B
:100BF0006F7A7A6C650046616E205370656564009B
:100C0000436F6E66696775726174696F6E005265D5
:100C100073746F72652044656661756C7473004C03
:100C20006F61642053657474696E67730053746FE9
:100C300072652053657474696E67730050726568DD
:100C40006561742041425320436F6E6600507265A7
:100C50006865617420504C4120436F6E6600424CC1
:100C6000546F7563680050726F6265205A204F663A
:100C70006673657400416476616E636564205365D4
:100C80007474696E6773004D61696E004D37303260
:100C900020542564004D36303020423020542564E5
:100CA000004D373032203B2564004D373031205421
:100CB000256400220A00656E7175657565696E6749
:100CC000202200436F6E74696E75650050757267FF
:100CD00065206D6F726500524553554D45204F504C
:100CE00054494F4E533A005052494E5420504155AA
:100CF0005345440020204E6F7A7A6C653A200050AC
:100D000061726B696E672E2E2E0000005761697448
:100D100020666F720066696C616D656E7420636831
:100D2000616E676500746F2073746172740057613F
:100D3000697420666F720066696C616D656E7420FF
:100D4000756E6C6F616400004E6F7A7A6C65206816
:100D5000656174696E6700506C65617365207761C9
:100D600069742E2E2E0000507265737320627574A4
:100D7000746F6E00746F2068656174206E6F7A7A8C
:100D80006C650000496E736572742066696C616DF4
:100D9000656E7400616E6420707265737320627595
:100DA00074746F6E00746F20636F6E74696E756516
:100DB000005761697420666F720066696C616D65C9
:100DC0006E74206C6F616400005072657373204212
:100DD0007574746F6E00746F20726573756D652025
:100DE0007072696E7400005761697420666F7220BA
:100DF0007072696E7400746F20726573756D652E04
:100E00002E2E00005761697420666F720066696C4F
:100E1000616D656E7420707572676500004368616E
:100E20006E67652046696C616D656E740050726511
:100E30006865617420414253005072656865617451
:100E400020504C4100507265686561742043757391
:100E5000746F6D004261636B004D3630302042305C
:100E6000004368616E67652046696C616D656E74EC
:100E700000436F6E66696775726174696F6E0054C6
:100E8000656D7065726174757265004D6F74696F20
:100E90006E0054756E6500496E666F20536372650F
:100EA000656E004D6F74696F6E004D383400446993
:100EB0007361626C65205374657070657273004273
:100EC0006564204C6576656C696E67004732380052
:100ED0004175746F20486F6D65004D61696E0050FB
:100EE00072656865617420504C4120456E64005005
:100EF00072656865617420504C4120426564005001
:100F000072656865617420414253204265640050F7
:100F10007265686561742041425320456E640054D7
:100F2000656D706572617475726500436F6F6C6496
:100F30006F776E005072656865617420414253009E
:100F40005072656865617420504C410046616E20A6
:100F5000537065656400426564004E6F7A7A6C6513
:100F6000004D61696E004261627973746570205A48
:100F700000466C6F770046616E20537065656400B3
:100F8000426564004E6F7A7A6C65005370656564E3
:100F9000004D61696E0020202020202020002020AC
:100FA0002020001FE02010201020101020102020F2
:100FB00010201030300840048003001FE03FF03F55
:100FC000F03FF01FE01FE03FF03FF03FF00FC007A1
:100FD0008003003FFFF038007030FC3020FC102010
:100FE00078102030102C00D02E31D02F7BD02F7BCA
:100FF000D02E31D02C00D020301020781020FC10C2
:1010000030FC303800703FFFF03FFFF038007031A7
:1010100086302387102787902F87D02F03D020304A
:10102000102078102078102030102F03D02F87D078
:101030002787902387103186303800703FFFF01FDC
:10104000FFF81FFFF80410400208200208200410D7
:10105000400820801041001041000820800410400A
:101060000000001FFFF81FFFF80000664300005259
:101070004300007A43000050C1000050C10000004E
:1010800000000C0D00FE07022603BC017FFE08FED7
:1010900008FE05080806000040F0C8888898781007
:1010A000050808060000C0F88888888888F80505C3
:1010B000050600012030F830200508080600002051
:1010C00070F820202020E00509090600FF2070A804
:1010D000A8B888887020050606060001E08CEA8C16
:1010E0008A0A0509090600FFF8A88888888888A860
:1010F000F8050A0A0600FE205050505088A8A8881B
:101100007003030306000340A040FFFFFFFFFFFF43
:10111000FFFFFFFFFFFFFFFFFFFFFFFFFFFFFFFFDF
:101120000000000605FF010707060200808080809E
:10113000800080030303060105A0A0A005060606A3
:10114000000050F85050F8500509090600FF2070C3
:10115000A8A07028A87020050707060000C8C810BE
:101160002040989805070706000040A0A040A890DE
:10117000680103030602058080800309090601FF58
:101180002040408080804040200309090601FF8004
:10119000404020202040408005070706000020A88E
:1011A000702070A8200505050600012020F82020E9
:1011B0000203030601FFC04080050101060003F899
:1011C000020202060100C0C0050707060000081061
:1011D0001020404080050707060000708898A8C8C6
:1011E000887003070706010040C040404040E0050A
:1011F0000707060000708808102040F8050707065A
:101200000000F80810300888700507070600001075
:10121000305090F81010050707060000F880F0081D
:10122000088870050707060000304080F088887045
:10123000050707060000F808101020202005070702
:10124000060000708888708888700507070600000F
:1012500070888878081060020505060100C0C0008B
:10126000C0C00206060601FFC0C000C040800305E2
:10127000050601012040804020050303060002F816
:1012800000F803050506010180402040800507079E
:1012900006000070881020200020050707060000C7
:1012A0007088B8A8B88070050707060000708888A5
:1012B000F8888888050707060000F0484870484805
:1012C000F005070706000070888080808870050799
:1012D00007060000F04848484848F00507070600A0
:1012E00000F88080F08080F8050707060000F8808D
:1012F00080F0808080050707060000708880809855
:101300008870050707060000888888F888888803A1
:101310000707060100E04040404040E0050707069F
:1013200000003810101010906005070706000088B4
:1013300090A0C0A0908805070706000080808080EC
:101340008080F805070706000088D8A88888888864
:101350000507070600008888C8A898888805070739
:1013600006000070888888888870050707060000D6
:10137000F08888F080808005070706000070888864
:1013800088A89068050707060000F08888F0A090FC
:1013900088050707060000708880700888700507B8
:1013A00007060000F820202020202005070706005F
:1013B0000088888888888870050707060000888864
:1013C000888850502005070706000088888888A86C
:1013D000A850050707060000888850205088880517
:1013E00007070600008888502020202005070706F0
:1013F0000000F80810204080F80309090601FFE00A
:1014000080808080808080E00507070600008040A3
:1014100040201010080309090601FFE020202020C9
:10142000202020E005030306000520508805010167
:101430000600FEF8030303060105804020050505AC
:10144000060000700878887805070706000080808D
:10145000F0888888F0050505060000708080887097
:1014600005070706000008087888888878050505BC
:101470000600007088F080700507070600003048FD
:1014800040E04040400507070600FE7088888878E5
:1014900008700507070600008080F08888888803A8
:1014A00007070601004000C0404040E0040909066B
:1014B00001FE1000301010101090600507070600A4
:1014C0000080808890E09088030707060100C040F4
:1014D00040404040E0050505060000D0A8A8A8A8A7
:1014E000050505060000B0C88888880505050600C2
:1014F0000070888888700507070600FEF0888888D5
:10150000F080800507070600FE788888887808083C
:10151000050505060000B0C88080800505050600A9
:101520000078807008F00507070600002020F820EA
:10153000202018050505060000888888986805059C
:1015400005060000888888502005050506000088EB
:1015500088A8A85005050506000088502050880579
:1015600007070600FE88888850204080050505068C
:101570000000F8102040F80309090601FF20404050
:101580004080404040200109090602FF80808080A1
:1015900080808080800309090601FF804040402050
:1015A0004040408005030306000248A890FF290A36
:1015B000002062797465733B206372632000536579
:1015C0007474696E67732053746F726564202800A9
:1015D000454550524F4D206461746173697A6520AE
:1015E0006572726F722E0A00290A00206279746592
:1015F000733B2063726320002073746F72656420F4
:1016000073657474696E6773207265747269657648
:101610006564202800202863616C63756C617465C3
:101620006429210A0020213D2000454550524F4D9C
:1016300020435243206D69736D61746368202D20CF
:101640002873746F7265642920002053697A653AA3
:101650002000496E6465783A2000204D61726C6903
:101660006E3D563736290A00454550524F4D20767B
:10167000657273696F6E206D69736D617463682044
:1016800028454550524F4D3D00454550524F4D2045
:10169000496E697469616C697A65640A00486172AF
:1016A00064636F6465642044656661756C7420537F
:1016B000657474696E6773204C6F616465640A00B9
:1016C00000009643000096430000A0400000C8417F
:1016D0000000A0420000A042000048440000B042C8
:1016E0002C0100002C0100006400000090010000AB
:1016F0003B20003A0A0020204D3630332000205590
:10170000004C0046696C616D656E74206C6F61649D
:101710002F756E6C6F6164206C656E677468733AC8
:101720000020204D3835312058005A2D50726F62FC
:1017300065204F66667365740020440020490020D0
:10174000204D33303120500050494420736574746B
:10175000696E67733A00204600204200204800204E
:10176000204D3134352053004D6174657269616CD0
:101770002068656174757020706172616D65746553
:1017800072733A00204A00202047323920572049FE
:101790000020204D3432302053004175746F2042B8
:1017A0006564204C6576656C696E673A0020204D53
:1017B000323036205800486F6D65206F666673655D
:1017C000743A00204A0020530020204D323035204A
:1017D0004200416476616E6365643A20423C6D6903
:1017E0006E5F7365676D656E745F74696D655F7557
:1017F000733E20533C6D696E5F666565647261740B
:10180000653E20543C6D696E5F74726176656C5FF5
:1018100066656564726174653E204A3C6A756E63F4
:101820005F6465763E0020520020204D3230342027
:101830005000416363656C65726174696F6E202846
:10184000756E6974732F7332293A20503C70726937
:101850006E745F616363656C3E20523C72657472A6
:101860006163745F616363656C3E20543C747261B4
:1018700076656C5F616363656C3E0020204D32309D
:10188000312058004D6178696D756D204163636545
:101890006C65726174696F6E2028756E6974732F40
:1018A0007332293A0020204D3230332058004D61E8
:1018B00078696D756D206665656472617465732005
:1018C00028756E6974732F73293A005374657073A9
:1018D0002070657220756E69743A0020204D323098
:1018E000302044300A0020204D3230302044002087
:1018F00044697361626C65640A0046696C616D6578
:101900006E742073657474696E67733A0020204D9D
:101910003134392043203B20556E69747320696E41
:101920002043656C736975730A0020286D6D29006A
:101930002020473231202020203B20556E697473CF
:1019400020696E206D6D006F70656E0054524947BE
:101950004745524544003A20007A5F6D696E007930
:101960005F6D696E00785F6D696E005265706F72B1
:1019700074696E6720656E6473746F702073746130
:101980007475730A0020746F6F206C6F6E6720652A
:101990007874727573696F6E2070726576656E7497
:1019A00065640A0020636F6C6420657874727573D7
:1019B000696F6E2070726576656E7465640A0048A2
:1019C0006F6D696E67204661696C65640000004850
:1019D0004200004842000080405761726E696E67A5
:1019E0003A20486F6D696E672042756D70204469BA
:1019F0007669736F72203C20310A000202040000F5
:101A0000A0400000A0400000004000007343000020
:101A10005F4300007A430000000100000001000065
:101A20008000555555000000400033333300AAAA0A
:101A30002A004992240000002000C7711C009999D7
:101A40001900D1451700555515003BB11300244925
:101A5000120011111100000010000F0F0F00E338E9
:101A60000E0043790D00CCCC0C00C3300C00E8A272
:101A70000B0064210B00AAAA0A00703D0A009DD841
:101A80000900427B090092240900DCD30800888801
:101A900008001042080000000800F0C10700878716
:101AA000070075500700711C07003EEB0600A1BC43
:101AB00006006990060066660600703E0600611822
:101AC000060017F4050074D105005BB00500B29064
:101AD0000500627205005555050078390500B81EED
:101AE0000500050505004EEC040087D40400A1BDE7
:101AF000040090A7040049920400C17D0400EE692F
:101B00000400C7560400444404005C320400082169
:101B1000040041100400000004003FF00300F8E05E
:101B2000030026D20300C3C30300CCB503003AA8C8
:101B300003000A9B0300388E0300C08103009F75D9
:101B40000300D0690300505E03001D5303003448B6
:101B50000300913D03003333030016290300381FAF
:101B6000030097150300300C0300030303000BFA76
:101B7000020049F10200BAE802005CE002002DD840
:101B800002002DD0020059C80200B0C0020031B9D5
:101B90000200DAB10200AAAA0200A0A30200BC9CC3
:101BA0000200FA9502005C8F0200DF880200828248
:101BB0000200457C02002776020027700200436A7B
:101BC00002007C640200D05E02003F590200C8534C
:101BD0000200FFFDFCFAF8F6F4F2F0EEECEAE9E7B9
:101BE000E5E3E1E0DEDCDAD9D7D5D4D2D0CFCDCB76
:101BF000CAC8C7C5C3C2C0BFBDBCBAB9B7B6B4B303
:101C0000B2B0AFADACAAA9A8A6A5A4A2A1A09E9D62
:101C10009C9A99989795949392908F8E8D8B8A89A0
:101C200088878684838281807F7E7D7B7A797877BE
:101C3000767574737271706F6E6D6C6B6A696867BC
:101C4000666564636261605F5E5D5C5B5A595858AB
:101C50005756555453525150504F4E4D4C4B4A4A83
:101C60004948474646454443424241403F3E3E3D47
:101C70003C3B3B3A393838373635353433323231FC
:101C800030302F2E2E2D2C2B2B2A292928272726A2
:101C9000252524232322212120201F1E1E1D1C1C3C
:101CA0001B1B1A19191818171616151514131312C9
:101CB000121111100F0F0E0E0D0D0C0C0B0A0A094C
:101CC00009080807070606050504040303020201C4
:101CD000000024F4D43050C38E20C2A24017828B5F
:101CE0007011127A910D816CD90AA861E108C75868
:101CF0006607615143061E4B5D05C145A7041A41A5
:101D00001104093D9803713931034036DB02653314
:101D10009102D4305402802E1D02632CEE01752AEC
:101D2000C501B028A001102781018F2564012B2453
:101D30004B01E0223401AC211F018D200D01801FD9
:101D4000FC00841EED00971DDF00B81CD200E61BCE
:101D5000C600201BBC00641AB200B219A8000A1900
:101D6000A0006A189900D117910040178B00B51692
:101D7000840031167E00B31579003A157300C7143C
:101D80006F0058146A00EE13660088136300251371
:101D90005E00C7125B006C12570015125400C1118F
:101DA000510070114F0021114B00D61049008D10C9
:101DB00047004610440002104200C00F4000800F50
:101DC0003E00420F3C00060F3B00CB0E3800930E46
:101DD00037005C0E3500270E3400F30D3200C10DC4
:101DE0003100900D3000600D2E00320D2D00050DDC
:101DF0002C00D90C2B00AE0C2900850C29005C0CA2
:101E00002700350C27000E0C2600E80B2400C40B1D
:101E10002400A00B23007D0B23005A0B2100390B5B
:101E20002100180B2000F80A1F00D90A1E00BB0A67
:101E30001E009D0A1D00800A1D00630A1C00470A3F
:101E40001B002C0A1B00110A1A00F7091A00DD09F1
:101E50001900C4091900AB091900920917007B0980
:101E60001800630917004C091600360916002009EE
:101E700016000A091500F5081500E0081400CC0842
:101E80001400B8081400A4081400900813007D087A
:101E900012006B081300580812004608120034089C
:101EA0001100230811001208110001081100F007A9
:101EB0001000E0071000D0071000C0071000B007A6
:101EC0000F00A107100091070E0083070F00740791
:101ED0000F0065070E0057070E0049070E003B076D
:101EE0000D002E070E0020070D0013070D0006073A
:101EF0000D00F9060C00ED060D00E0060C00D406FE
:101F00000C00C8060C00BC060C00B0060C00A406B1
:101F10000B0099060C008D060B0082060B0077065D
:101F20000B006C060B0061060A0057060B004C06FE
:101F30000A0042060A0038060A002E060A00240695
:101F40000A001A060A001006090007060A00FD0525
:101F50000900F4050900EB050900E2050900D905AF
:101F60000900D0050900C7050900BE050900B5052F
:101F70000800AD050800A50509009C0508009405AA
:101F800008008C050800840508007C05080074051D
:101F900008006C050700650508005D05070056058B
:101FA00008004E05070047050700400508003805F2
:101FB0000700310507002A050700230507001C0557
:101FC0000600160507000F050700080506000205B4
:101FD0000700FB040600F5040700EE040600E80411
:101FE0000600E2040700DB040600D5040600CF0467
:101FF0000600C9040600C3040600BD040600B704B9
:102000000600B1040500AC040600A6040600A00406
:1020100005009B04060095040500900406008A0450
:10202000050085040500800406007A040500750497
:102030000500700405006B040500660405006104DA
:1020400005005C04050057040500520405004D041A
:10205000050048040500430405003E0404003A045A
:10206000050035040500300404002C040500270495
:102070000400230405001E0404001A0404001604CE
:102080000500110404000D04040009040500040403
:10209000040000040400FC030400F8030400F4033B
:1020A0000400F0030400EC030400E8030400E4036C
:1020B0000400E0030400DC030400D8030400D4039C
:1020C0000400D0030400CC030400C8030300C503CC
:1020D000030024F404D9201BC40C5C0E9804C4092A
:1020E0005F0265077101F405F900FB04B3004804C1
:1020F0008700C10369005803550003034500BE0271
:102100003A008402310053022A0029022500040209
:102110002000E4011C00C8011900AF01170098015C
:1021200014008401130071011000610110005101BD
:102130000E0043010D0036010B002B010B002001A6
:102140000B00150109000C01090003010800FB0048
:102150000800F3000800EB000700E4000600DE00C2
:102160000600D8000600D2000600CC000500C7001B
:102170000500C2000500BD000400B9000400B50060
:102180000400B1000400AD000400A9000400A50093
:102190000300A20003009F0004009B0003009800BE
:1021A00003009500020093000300900003008D00DF
:1021B00002008B00030088000200860002008400F9
:1021C0000300810002007F0002007D0002007B000E
:1021D000020079000200770001007600020074001E
:1021E000020072000100710002006F0002006D0029
:1021F00001006C0002006A00010069000200670033
:102200000100660001006500010064000200620038
:10221000010061000100600001005F0002005D003C
:1022200001005C0001005B0001005A000100590040
:102230000100580001005700010056000100550040
:10224000010054000100530000005300010052003F
:10225000010051000100500001004F0001004E003C
:1022600000004E0001004D0001004C0001004B0039
:1022700000004B0001004A00010049000100480035
:102280000000480001004700010046000000460031
:10229000010045000000450001004400010043002A
:1022A0000000430001004200000042000100410024
:1022B000000041000100400001003F0000003F001D
:1022C00001003E0000003E0001003D0000003D0016
:1022D00001003C0000003C0000003C0001003B000D
:1022E00000003B0001003A0000003A000100390004
:1022F00000003900010038000000380000003800FC
:1023000001003700000037000100360000003600F1
:1023100000003600010035000000350000003500E7
:1023200001003400000034000000340001003300DC
:1023300000003300000033000100320000003200D2
:1023400000003200010031000000310000003100C7
:1023500001003000000030000000300001002F00BC
:1023600000002F0000002F0000002F0001002E00B1
:1023700000002E0000002E0001002D0000002D00A6
:1023800000002D0000002D0001002C0000002C009A
:1023900000002C0000002C0001002B0000002B008E
:1023A00000002B0000002B0001002A0000002A0082
:1023B00000002A0000002A00010029000000290076
:1023C0000000290000002900000029000100280069
:1023D000000028000000280000002800000028005D
:1023E0000100270000002700000027000000270050
:1023F0000000270001002600000026000000260043
:102400000000260000002600010025000000250035
:102410000000250000002500000025000000250028
:10242000010024000000240000002400000024001B
:10243000000024000100230000002300000023000E
:102440000000230000002300000023000000230000
:1024500001002200000022000000220000002200F3
:1024600000002200000022000100210000002100E5
:1024700000002100000021000000210000002100D8
:1024800000002100010020000000200000002000CA
:1024900000002000000020000000200000002000BC
:1024A0000000200001001F0000001F0000001F00AE
:1024B00000001F0000001F0000001F0000001F00A0
:1024C00001001E0000001E0000001E0000001E0093
:1024D0000000393000003325000087190000B00FDC
:1024E0000000DB080000BD040000740200003F0192
:1024F000000020436F756E7420583A0042656400F6
:10250000453100626564002C2073797374656D2019
:1025100073746F7070656421204865617465725FC3
:1025200049443A200048656174696E6720466169D4
:102530006C65640048656174696E67206661696CEA
:10254000656400544845524D414C2052554E415708
:10255000415900546865726D616C2052756E6177E7
:102560006179004572723A204D415854454D5000F2
:102570004D415854454D50207472696767657265C6
:1025800064004572723A204D494E54454D50004DFD
:10259000494E54454D502074726967676572656491
:1025A00000202F002042403A0020403A0020573AB5
:1025B0000000002100240027002A002D00300033F5
:1025C0000001010000040107010A010000220025AA
:1025D0000028002B002E003100340002010000050D
:1025E0000108010B01000020002300260029002C17
:1025F000002F00320000010000030106010901055F
:10260000050505070508080808020202020A0A086B
:102610000804040404010101010101010103030391
:102620000303030303040707070C0C0C0C0C0C0C2E
:102630000C0202020206060606060606060B0B0B35
:102640000B0B0B0B0B010210202008081020401070
:102650002040800201020108040201010204081066
:102660002040808040201008040201800402018084
:1026700040201008040201080402010102040810AD
:10268000204080010204081020408000000A0B0254
:10269000090C0D0E080703040100000000000000F3
:1026A000000000000000000000000000000000002A
:1026B00000000000000000121110000000000000E7
:1026C000000000000000000000000000000000000A
:1026D00000020000000000000000000000000000F8
:1026E00000000000000000000000000000000000EA
:1026F00000000000000000000000000000000000DA
:1027000000000000000000000000000000000000C9
:1027100000000000000000000000000000000000B9
:1027200000000000000000000000000000000000A9
:102730000000000001C00E000000000000000000CA
:10274000000000003FC1FE0000000000000000008B
:1027500000000007FFDFFE00000000000000000096
:102760000000007FFFFFFE000000000000000000EE
:1027700000000FFFFFFFFE0000000000000000004F
:1027800000000FFFFFFFFE0000000000000000003F
:1027900000000FFFFFFFFE0000000000000000002F
:1027A00000000FFFFFFFFE0000000000000000001F
:1027B00000000FFFFFF88E00000000000000000086
:1027C00000000FFFFFC00E0000000000000000002E
:1027D00000000FC3FF800E0200400C018086022023
:1027E00000000FC3FF030E0180700700C0C3FE3F4F
:1027F000E0000FE3FF0F8E03C0700700C1830630B7
:1028000030000FE3FF1FFE03C0700700C303043056
:1028100030000FE3FE1FFE03C0700D80C6030030C2
:1028200030000FE3FE1FFE03C0F00980CC03003030
:1028300030000FE3FE1F3E0360980880D80300308D
:1028400030000FE3FE1F0E03619818C0FC03F83838
:10285000E0000FE3FE1F0E02219818C0FC03003FAA
:10286000C0000FE3FE1F8E0631183FE0C6030030A4
:10287000C0000FE3FE1F8E0633183060C603003021
:10288000C0000FE3FF0F0E0613186030C3030030C3
:1028900060000FE3FF020E061E186030C383003095
:1028A00070000FE3FF800E060C18E030C183043087
:1028B00030000FE3FFC00E060C0CC018C1C3FE3081
:1028C00038000FE3FFFFFE040008C0188083FE10ED
:1028D00010000FE3FFFFFE000000000000000000FA
:1028E00000000FC3FFFFFE0000000000000000001A
:1028F00000000FC7FFFFFE00000000000000000006
:1029000000000FCFFFFFFE000000000000000000ED
:1029100000000FFFFFFFFE000000000000000000AD
:1029200000000FFFFFFFFE0000000000000000009D
:1029300000000FFFFFFFFC0000000000000000008F
:1029400000000FFFFFFFC0000000000000000000BB
:1029500000000FFF3FF800003E0F80F001F01C0365
:10296000C0000FE03F0000003E0F80F007FC1C0F8E
:10297000F0000E00300000003E0F81F80F1E1C1EFC
:1029800038000000000000003B1B81981C081C1C44
:102990001C000000000000003B1B81981C001C383C
:1029A00000000000000000003B1B839C1C001C3842
:1029B00000000000000000003913831C1C3F1C387D
:1029C000000000000000000039B3830E1C3F1C38DB
:1029D000000000000000000039B3870E1C071C38FF
:1029E000000000000000000039F387FE1C071C3CBB
:1029F0001C0000000000000038E38FFF0E061C1CC6
:102A00001C0000000000000038E38E070FFE1C0FC2
:102A1000F80000000000000038E38E0707F81C07EC
:102A2000F0000000000000000000000000000000B6
:102A30000000000000000000000000000000000096
:102A40000000000000000000000000000000000086
:102A50000000000000000000000000000000000076
:102A60000000000000000000000000000000000066
:102A70000000000000000000000000000000000056
:102A80000000000000000000000000000000000046
:102A90000000000000000000000000000000000036
:102AA0000000000000000000000000000000000026
:102AB0000000000000000000000000000000000016
:102AC0000000000000000000000000000000000006
:102AD0000000687474703A2F2F6D61726C696E66B5
:102AE000772E6F726700322E302E352E3420284D0F
:102AF000616769632076302E332E32290001FFFF93
:102B0000FFFFFFFFFFFFFFFFFFFFFF0FFFFFFFFFC5
:102B1000FFFFFFFFFFFFFFFFFF1E000000000000A0
:102B20000000000007FFFF38000000000000000068
:102B3000000003FFFF700000000000000000000024
:102B400001FFFF600000000000000000000000FF27
:102B5000FF6000000000000000000000007FFFC0D8
:102B600000000000000000007800003FFFC00FC020
:102B7000FC00000000007818001FFFC03FE1FF00CC
:102B800000000000783C000FFFC07FF3FF800000D2
:102B90000000783C0007FFC0FFFFFFC000000000FE
:102BA000783C0003FFC1F87F87E000000000780058
:102BB0000001FFC1F03F03E00000000078000000CA
:102BC000FFC1E01E01E01F0003E0783C03F07FC17D
:102BD000E01E01E07FC00FF8783C07FC3FC1E01E1B
:102BE00001E1FFE01FFC783C0FFE1FC1E01E01E386
:102BF000FFF03FFE783C1FFE0FC1E01E01E3F3F83B
:102C00003F3E783C3F3F07C1E01E01E7E0FC7C1FF0
:102C1000783C3E1F07C1E01E01E7C07C7C0F783C7A
:102C20003C0F03C1E01E01E7807C780F783C3C0F2D
:102C300003C1E01E01E7803C7800783C3C0F03C1F3
:102C4000E01E01E7803C7800783C3C0F03C1E01EA9
:102C500001E7803C7800783C3C0F03C1E01E01E7AF
:102C6000C03C7800783C3C0F03C1E01E01E3E03C2F
:102C700078007C3C3C0F03C1E01E01E3FF3FF800FD
:102C80007FBC3C0F03C1E01E01E1FF3FF8003FBFE6
:102C9000FC0F03C1E01E01E0FF3FF8001FBFFC0F67
:102CA00003C1E01E01E07F3FF8000FBFFC0F03608F
:102CB00000000000000000000000000007600000AD
:102CC000000000000000000000000670000000008E
:102CD00000000000000000000E38000000000000AE
:102CE0000000000000001C1E0000000000000000AA
:102CF00000000000780FFFFFFFFFFFFFFFFFFFFF57
:102D0000FFFFF001FFFFFFFFFFFFFFFFFFFFFFFFE0
:102D1000802020506C616E6E6572427566666572C9
:102D200042797465733A20002046726565204D65CE
:102D30006D6F72793A2000436F6D70696C65643A0B
:102D4000204A756C20313520323032300A00204C58
:102D500061737420557064617465643A2032303256
:102D6000302D30372D3135207C20417574686F72DD
:102D70003A204368726973746F70686572204E6F91
:102D800072746F6E0A00322E302E352E3420284D8C
:102D9000616769632076302E332E32290A004D6137
:102DA000726C696E0020536F667477617265205291
:102DB000657365740A00205761746368646F6720E7
:102DC00052657365740A002042726F776E206F75CA
:102DD000742052657365740A002045787465726EBC
:102DE000616C2052657365740A00506F7765725587
:102DF000700A0073746172740A00456E6473746FB4
:102E0000707300255320256320256320256320252A
:102E10006300205A3A0020593A0020583A00656E63
:102E20006473746F7073206869743A2000434F4D67
:102E30004D554E49434154494F4E00445259525505
:102E40004E004552524F525300494E464F004543A3
:102E5000484F005072696E7420506175736564004C
:102E600070012C0190012701B0012201C0011D0158
:102E7000F00118011002130130020E016002090175
:102E800090020401C002FF000003FA004003F500B5
:102E90008003F000D003EB002004E6007004E100A2
:102EA000E004DC004005D700C005D2004006CD009C
:102EB000D006C8008007C3003008BE00F008B90083
:102EC000C009B400B00AAF00B00BAA00D00CA50036
:102ED000000EA000500F9B00C010960050129100F1
:102EE00000148C00C0158700B0178200B0197D0057
:102EF000D01B7800001E730040206E0090226900F5
:102F0000F024640040275F0090295A00E02B550010
:102F1000102E500020304B0010324600E0334100AC
:102F200090353C001037370070383200A0392D0042
:102F3000B03A2800A03B2300603C1E00103D190061
:102F4000903D1400103E0F00703E0A00C03E050088
:102F5000003F0000403FFBFF803FF6FFC03FF1FF16
:102F60004D6F76652025736D6D00004D6F76652081
:102F7000302E316D6D004D6F766520316D6D004DD9
:102F80006F76652031306D6D004D6F76652041782C
:102F9000697300486F74656E6420746F6F20636F8F
:102FA0006C64004578747275646572004D6F766567
:102FB000205A004D6F76652059004D6F7665205878
:102FC000006F6B00496E76616C696420657874727D
:102FD000756465720A00290A0020746F20003F5A48
:102FE000206F7574206F662072616E6765202800FF
:102FF000290A0020746F20003F59206F7574206FDC
:10300000662072616E676520282D00290A002074F1
:103010006F20003F58206F7574206F662072616EBC
:10302000676520282D0050726F6265204F666673B9
:103030006574205800454550524F4D204F4B0A00B3
:103040004F666673657473204170706C69656400C7
:103050004572723A20546F6F206661722100546F7E
:103060006F206661722066726F6D20726566657290
:10307000656E636520706F696E740A00FFFFFF0064
:103080000050C1000050C1000000004D6573682071
:10309000706F696E742063616E6E6F74206265205C
:1030A0007265736F6C7665640A004D343231206945
:1030B0006E636F727265637420706172616D6574A6
:1030C00065722075736167650A004F46460A0046BF
:1030D0006164652048656967687420004265642002
:1030E0004C6576656C696E6720004661696C656445
:1030F00020746F20656E61626C6520426564204CAF
:103100006576656C696E670A00496E76616C696404
:10311000206D6573682E0A0064697300656E004354
:10312000290A0061626C656420286D696E207465EF
:103130006D702000436F6C642065787472756465EF
:103140007320617265200020643A0020693A0020F3
:10315000703A00496E76616C6964206578747275A6
:103160006465720A003A200020536572766F200071
:10317000206F7574206F662072616E67650A005358
:103180006572766F200020466C6F773A20004652B9
:103190003A004F4646004F4E0020580020204D6117
:1031A000783A2000200020204D696E3A2000536FAD
:1031B000667420656E6473746F70733A20003F4AC2
:1031C000206F7574206F662072616E6765202830ED
:1031D0002E303120746F20302E33290A0020540005
:1031E000205200416363656C65726174696F6E3A69
:1031F0002050004D31343520533C696E6465783E73
:10320000206F7574206F662072616E6765202830AC
:103210002D31290A002F2F20004348414D424552AD
:103220005F54454D5045524154555245004D4F5401
:10323000494F4E5F4D4F44455300544845524D4110
:103240004C5F50524F54454354494F4E00415554E2
:103250004F5245504F52545F53445F53544154555D
:10326000530050524F4D50545F535550504F52548D
:1032700000454D455247454E43595F5041525345D5
:103280005200434153455F4C494748545F425249BD
:103290004748544E45535300544F47474C455F4CA5
:1032A000494748545300534F4654574152455F5085
:1032B0004F574552004255494C445F504552434593
:1032C0004E54004C4556454C494E475F444154418D
:1032D000005A5F50524F4245004155544F4C45569D
:1032E000454C005052494E545F4A4F420050524F95
:1032F0004752455353004155544F5245504F525435
:103300005F54454D5000564F4C554D45545249431E
:1033100000454550524F4D0042494E4152595F467B
:10332000494C455F5452414E534645520053455215
:1033300049414C5F584F4E5F584F464600464952F0
:103340004D574152455F4E414D453A4D61726C6952
:103350006E20322E302E352E3420284D6167696361
:103360002076302E332E3229202847697448756222
:103370002920534F555243455F434F44455F5552B3
:103380004C3A68747470733A2F2F67697468756269
:103390002E636F6D2F4D61726C696E4669726D7729
:1033A0006172652F4D61726C696E2050524F544F9F
:1033B000434F4C5F56455253494F4E3A312E3020C1
:1033C0004D414348494E455F545950453A4A474D4F
:1033D000616B6572204D6167696320455854525591
:1033E0004445525F434F554E543A31205555494458
:1033F0003A63656465326132662D343161322D3451
:103400003734382D396231322D63353563363266C3
:1034100033363766660A004A474D616B6572204D48
:1034200061676963204F46462E0020573A00426587
:103430006420436F6F6C696E672E2E2E00426564A8
:103440002048656174696E672E2E2E004D31313330
:103450002053004D3131322053687574646F776E9C
:10346000006F6666004E2E492E422E3B2E2D2E44B6
:10347000454255473A006F6B00436F6F6C696E674A
:103480002E2E2E0048656174696E672E2E2E004523
:10349000202553000A53746174733A2046696C61A5
:1034A0006D656E7420757365643A20002C204C6F36
:1034B0006E67657374206A6F623A2000546F74619E
:1034C0006C2074696D653A200053746174733A20FE
:1034D000002C204661696C65643A20002C20466906
:1034E0006E69736865643A20005072696E74733A4D
:1034F000200053746174733A200050726F746563D6
:103500007465642050696E0A00496E76616C696466
:103510002050696E204D6F64650A005072696E74A8
:103520002074696D653A20004E6F204D6F76652ED0
:1035300000436C69636B20746F20526573756D6511
:103540002E2E2E004D65736820706F696E74206397
:10355000616E6E6F74206265207265736F6C766544
:10356000640A00205A3A200020593A20004265643B
:1035700020583A20005A2050726F626520506173C3
:1035800074204265640A005A2050726F62652050B0
:103590006173742042656400486F6D65205859203E
:1035A00066697273740A00486F6D65205859204629
:1035B0006972737400536C6565702E2E2E00507204
:1035C0006F62696E67204661696C65640A005072BB
:1035D0006F62696E67204661696C656400205A3AC3
:1035E000200020593A200042656420583A200048C3
:1035F0006F6D65202573257325732046697273747A
:1036000000220A00556E6B6E6F776E20636F6D6DD2
:10361000616E643A2022004A474D616B6572204D0D
:10362000616769632052656164792E005072696E2A
:1036300074696E672E2E2E00204500205A002059F6
:1036400000204D393220580020746F6F206C6F6E4F
:103650006720657874727573696F6E207072657615
:10366000656E7465640A0020636F6C64206578740D
:10367000727573696F6E2070726576656E746564BD
:103680000A0020453A00205A3A0020593A00583A98
:10369000000022FD11241FBECFEFD1E2DEBFCDBF5F
:1036A00000E00CBF13E0A0E0B2E0E4E6F8E102E0E5
:1036B0000BBF02C007900D92AA38B107D9F721E1DC
:1036C000AAE8B3E001C01D92A139B207E1F71BE1FE
:1036D000CAE4DBE100E006C021970109802FFE016A
:1036E0000F94DE0BC934D10780E00807A9F70E94C8
:1036F000D3F80D94300C0C940000CF92DF92EF922F
:10370000FF92FC01C080D180E280F38020E030E0B5
:10371000A901C701B6010F94560287FF69C0C7010E
:10372000B601905820E030E040E251E40F94BB0233
:1037300020E030E040EA50E40F94DE0820E030E082
:1037400040E251E40F94BA090F94220AFB01E031E0
:1037500087E2F80708F453C0CF0160E177E20F94E5
:10376000B70B80E3860F80933508E83E83E0F807C7
:1037700008F447C0CF0168EE73E00F94B70BCB019C
:103780006AE070E00F94B70B805D8093360880E2AA
:10379000E436F10558F0CF0164E670E00F94B70B02
:1037A000CB016AE070E00F94B70B805D809337081F
:1037B00080E2EA30F10558F02AE030E0CF01B901AB
:1037C0000F94B70BCB01B9010F94B70B805D8093B9
:1037D0003808CF016AE070E00F94B70B805D8093EA
:1037E000390885E398E0FF90EF90DF90CF9008953F
:1037F00020E030E040E251E4C701B60197CF80E21B
:10380000B2CF80E2C2CF8F929F92AF92BF92CF92FF
:10381000DF92EF92FF92FC01C080D180E280F380C2
:1038200020E030E048EC52E4C701B6010F94BB023F
:103830004B015C0120E030E0A901C701B6010F9403
:10384000560220E030E040EA50E487FF04C020E068
:1038500030E040EA50ECC501B4010F94DE0820E0EE
:1038600030E040E251E40F94BA090F94220A9B0120
:103870008BE237FF05C022273327261B370B8DE24B
:1038800080933408C90168EE73E00F94CB0BCB0131
:10389000EAE0F0E0BF010F94CB0B805D8093350828
:1038A000C90164E670E00F94CB0BCB01BF010F940C
:1038B000CB0B805D80933608C901BF010F94CB0B01
:1038C000282FCB01BF010F94CB0B805D809337086D
:1038D0008EE280933808205D2093390884E398E0D5
:1038E000FF90EF90DF90CF90BF90AF909F908F9020
:1038F00008959C0197FF26C0EE27FF27E81BF90BD0
:103900002D398FEF38070CF05DC08DE280933608BB
:10391000CF0164E670E00F94CB0BCB012AE030E0DE
:10392000B9010F94CB0B805D80933708CF01B901AB
:103930000F94CB0BCB01B9010F94CB0B805D80931F
:1039400038082AC0283E83E03807B4F1C90168EE80
:1039500073E00F94CB0BCB01EAE0F0E0BF010F94D2
:10396000CB0B805D80933608C90164E670E00F944C
:10397000CB0BCB01BF010F94CB0B805D809337083D
:10398000C901BF010F94CB0BCB01BF010F94CB0B2F
:10399000805D80933808F901CF016AE070E00F94F0
:1039A000CB0B805D8093390886E398E008958DE223
:1039B00037FDC5CF80E2C3CFF90180E2243631055F
:1039C0000CF0A4CF80E28093360880933708EA3069
:1039D000F1056CF38DE237FF80E280933708CF0169
:1039E0006AE070E00F94CB0B605D60933808D4CF31
:1039F0009C0197FD2DC080E2243631055CF0C901A1
:103A000064E670E00F94CB0BCB016AE070E00F949A
:103A1000CB0B805D8093370880E22A3031055CF063
:103A2000EAE0F0E0C901BF010F94CB0BCB01BF016D
:103A30000F94CB0B805D80933808C9016AE070E079
:103A40000F94CB0B805D8093390887E398E008954D
:103A50003195219531098DE2DDCF24E6829FC001A9
:103A6000112481589F4F6FEF70E00F94CB0B262FDE
:103A700081E3643609F080E28093360890E22A30D0
:103A800040F03AE0822F632F0F94AB0B0F94AB0BF7
:103A9000905D90933708822F6AE00F94AB0B905D96
:103AA0009093380885E28093390886E398E008957A
:103AB0006091370270913802072E000C880B990B29
:103AC0000F945C022AE037ED43E25CE30F94BB0203
:103AD00020917408309175084091760850917708CC
:103AE0000F94BB026093630270936402809365023B
:103AF00090936602089580913C08811104C08091E2
:103B00003E0580935109089580913C08811104C0BD
:103B100080913E05809351090895CF93DF9300D0A3
:103B20001F92CDB7DEB784EF91E0A0E0B0E08983CB
:103B30009A83AB83BC83BE016F5F7F4F80EA0E9494
:103B4000906C0F900F900F900F90DF91CF91089590
:103B5000CF93DF9300D01F92CDB7DEB784EF91E013
:103B6000A0E0B0E089839A83AB83BC83BE016F5F22
:103B70007F4F88E70E94906C0F900F900F900F90EE
:103B8000DF91CF910895CF93DF9300D01F92CDB7EF
:103B9000DEB784EF91E0A0E0B0E089839A83AB8345
:103BA000BC83BE016F5F7F4F8CE30E94906C0F90CF
:103BB0000F900F900F90DF91CF910895CF93DF93E7
:103BC00000D01F92CDB7DEB78EEE92E0A0E0B0E05D
:103BD00089839A83AB83BC83BE016F5F7F4F8AE08A
:103BE0000E94906C0F900F900F900F90DF91CF91EB
:103BF0000895CF93DF9300D01F92CDB7DEB78EEE3E
:103C000092E0A0E0B0E089839A83AB83BC83BE01DD
:103C10006F5F7F4F8AE50E94906C0F900F900F901E
:103C20000F90DF91CF9108950C94AA330F931F93B7
:103C3000522F20913210309133102817390721F17B
:103C400090933310809332108B0130E020E000938A
:103C500022081093230820932408309325084093CA
:103C6000150850930F088458964421F4109260056B
:103C70001092310582E080935A0281E080933208ED
:103C80001092680510921E081F910F91089520E070
:103C900040E070E060E089EF92E4C8DF81E080936B
:103CA00060051092730810927208089521E0209325
:103CB000600560933A0570933B0580933C059093B3
:103CC0003D0520E040E070E060E0809116089091B2
:103CD0001708ACCF6DEC7CEC8CEC9CE3E7CF6DEC83
:103CE0007CEC8CEC9DE3E2CF60E070E080E89FE349
:103CF000DDCF60E070E080E291E4D8CF80910410E5
:103D000090910510891B8F7059F4809133098111AE
:103D100005C081E090913409913009F080E0089568
:103D200081E00895CF93DF93EC01CB01BA010F94AA
:103D30005C022AE037ED43E25DE30F94BA0920E02C
:103D400030E0A9010F94DE080F94270A6883798375
:103D50008A839B83DF91CF910895CF93DF93EC010A
:103D6000CB01BA010F945C0220E030E040E251E464
:103D70000F94BA0920E030E0A9010F94DE086883AF
:103D800079838A839B83DF91CF910895CF93DF93CB
:103D9000EC01CB01BA010F945C0220E030E040E27C
:103DA00051E40F94BA0920E030E0A9010F94DE0835
:103DB000688379838A839B83DF91CF910895CF9322
:103DC000DF93EC01CB01BA010F945C022AE037EDDE
:103DD00043E25DE30F94BA0920E030E0A9010F94BB
:103DE000DE08688379838A839B83DF91CF9108956E
:103DF000CF93DF93EC01CB01BA010F945C0220E07A
:103E000030E0A9010F94DE08688379838A839B835D
:103E1000DF91CF910895CF93DF93EC01CB01BA01ED
:103E20000F945C0220E030E0A9010F94DE08688363
:103E300079838A839B83DF91CF910895CF93DF931A
:103E4000EC01CB01BA010F945C0220E030E04AE7BC
:103E500054E40F94BA0920E030E0A9010F94DE0881
:103E6000688379838A839B83DF91CF910895CF9371
:103E7000DF93EC01CB01BA010F945C0220E030E04B
:103E800048EC52E40F94BA0920E030E0A9010F9405
:103E9000DE08688379838A839B83DF91CF910895BD
:103EA0000F945C0220E030E0A9010F94DE080F942B
:103EB000220ACB019DCDCF93DF93EC01CB01BA0158
:103EC0000F945C0220E030E0A9010F94DE080F940B
:103ED000220A79836883DF91CF9108950F945C0261
:103EE00029EC38EC48EC5EE30F94BA0920E030E0AE
:103EF00040E05FE30F94DE080F94270A862FADCDD4
:103F0000CF93DF93EC01CB01BA010F945C0229EC53
:103F100038EC48EC5EE30F94BA0920E030E040E072
:103F20005FE30F94DE080F94270A6883DF91CF9137
:103F30000895CF93DF9300D01F92CDB7DEB70F94D3
:103F4000270A0F945A0269837A838B839C83CE015C
:103F50000196D3DB0F900F900F900F90DF91CF91D0
:103F600008950F945C022AE037ED43E25DE30F947D
:103F7000BA0920E030E0A9010F94DE08DACF8F9271
:103F80009F92AF92BF92CF92DF92EF92FF92CF9328
:103F90006B017C0120E030E0A9010F94560287FDFF
:103FA00099C067E177EB81E598E3A70196010F944B
:103FB000DE086B017C0120E030E048EC52E40F9415
:103FC000BB024B015C0120E030E0A901C701B60152
:103FD0000F94560220E030E040EA50E487FF04C02E
:103FE00020E030E040EA50ECC501B4010F94DE0857
:103FF00020E030E040E251E40F94BA090F94220A25
:104000006B017C018BE2F7FE09C0F094E094D09440
:10401000C094C11CD11CE11CF11C8DE280933308BB
:10402000C701B60120E137E240E050E00F94A2085A
:104030008AE0882E912CA12CB12CCA01B901A501CE
:1040400094010F94A208605D60933408C701B60123
:1040500028EE33E040E050E00F94A208CA01B90115
:10406000A50194010F94A208605D60933508C70113
:10407000B60124E630E040E050E00F94A208CA0107
:10408000B901A50194010F94A208605D6093360800
:10409000C701B601A50194010F94A208C62FCA0159
:1040A000B901A50194010F94A208605D60933708DF
:1040B0008EE280933808C05DC093390883E398E0AE
:1040C000CF91FF90EF90DF90CF90BF90AF909F90F7
:1040D0008F90089567E177EB81E598EB66CF0F94B9
:1040E0005C0220E030E040E251E40F94BA0920E0A5
:1040F00030E0A9010F94DE0842CF8F929F92AF92D9
:10410000BF92CF92DF92EF92FF92CF936B017C012F
:1041100020E030E0A9010F94560287FDA4C067E1BA
:1041200077EB81E598E3A70196010F94DE086B0118
:104130007C0120E030E0A9010F94560287FF98C06F
:10414000C701B601905820E030E048EC52E40F94EB
:10415000BB0220E030E040EA50E40F94DE0820E0AB
:1041600030E040E251E40F94BA090F94220A6B0147
:104170007C0180E28093330860E280E1C81687E228
:10418000D806E104F1048CF0C701B60120E137E262
:1041900040E050E00F94A208CA01B9012AE030E0E3
:1041A00040E050E00F94A208605D6093340860E244
:1041B00088EEC81683E0D806E104F1048CF0C7014C
:1041C000B60128EE33E040E050E00F94A208CA01A7
:1041D000B9012AE030E040E050E00F94A208605DB1
:1041E0006093350860E284E6C816D104E104F10466
:1041F0008CF0C701B60124E630E040E050E00F94B7
:10420000A208CA01B9012AE030E040E050E00F9472
:10421000A208605D609336088AE0882E912CA12C5C
:10422000B12CC701B601A50194010F94A208C62FB5
:10423000CA01B901A50194010F94A208605D6093C1
:1042400037088EE280933808C05DC093390883E355
:1042500098E0CF91FF90EF90DF90CF90BF90AF901C
:104260009F908F90089567E177EB81E598EB5BCFA6
:1042700020E030E048EC52E4C701B60168CF0F946B
:104280005C0220E030E040E251E40F94BA0920E003
:1042900030E0A9010F94DE0830CFCF92DF92EF9289
:1042A000FF92CF93DF9300D01F92CDB7DEB76B01A3
:1042B0007C0120E030E0A9010F94560287FD1AC06E
:1042C00067E177EB81E598E3A70196010F94DE089B
:1042D00069837A838B839C83CE0101960EDA0F90DB
:1042E0000F900F900F90DF91CF91FF90EF90DF90A4
:1042F000CF90089567E177EB81E598EBE5CF0F94D8
:104300005C0220E030E0A9010F94DE08C6CF0F94D4
:104310005C022AE037ED43E25DE30F94BA0920E046
:1043200030E0A9010F94DE08B8CF8F929F92AF9230
:10433000BF92CF92DF92EF92FF92CF936B017C01FD
:1043400020E030E0A9010F94560287FF9DC067E18D
:1043500077EB81E598EBA70196010F94DE086B01DE
:104360007C0120E030E04AE754E40F94BB024B01AB
:104370005C0120E030E040E251ECC701B6010F944F
:104380005602181654F420E030E048EC52E4C7011D
:10439000B6010F94040B87FD8BC020E030E0A9012B
:1043A000C701B6010F94560287FF73C060E070E04A
:1043B00080EA90ECA50194010F94DE0820E030E043
:1043C00040E251E40F94BA090F94220A6B017C0178
:1043D000F7FC64C020E137E240E050E00F94A2080F
:1043E000CA01B9012AE030E040E050E00F94A20891
:1043F000605D60933408C701B60128EE33E040E009
:1044000050E00F94A2089AE0892E912CA12CB12C97
:10441000CA01B901A50194010F94A208605D6093DF
:104420003508C701B60124E630E040E050E00F94C3
:10443000A208CA01B901A50194010F94A208605D08
:10444000609336088EE280933708C701B601A50154
:1044500094010F94A208C62FCA01B901A5019401C5
:104460000F94A208605D60933808C05DC09339085E
:1044700084E398E0CF91FF90EF90DF90CF90BF90D2
:10448000AF909F908F90089567E177EB81E598E377
:1044900062CF60E070E080EA90E48CCFF094E0942A
:1044A000D094C094C11CD11CE11CF11C6DE2A1CFC1
:1044B00020E030E0A901C701B6010F94560287FF42
:1044C0006AC060E070E080EA90ECA50194010F946E
:1044D000DE0820E030E040E251E40F94BA090F9486
:1044E000220A4B015C0120E030E0A901C701B601BE
:1044F0000F94040B87FD0BC020E030E040E251E454
:10450000C701B6010F94560260E287FD13C0B7FCE5
:1045100047C0C501B40128EE33E040E050E00F94FD
:10452000A208CA01B9012AE030E040E050E00F944F
:10453000A208605D60933508C501B40124E630E04F
:1045400040E050E00F94A2088AE0C82ED12CE12C64
:10455000F12CCA01B901A70196010F94A208605D70
:10456000609336088EE280933708C501B401A70135
:1045700096010F94A208C62FCA01B901A70196019E
:104580000F94A208605D60933808C05DC09339083D
:1045900085E398E06FCF60E070E080EA90E495CF2B
:1045A000B094A09490948094811C911CA11CB11C87
:1045B0006DE2C0CF0F945C0220E030E048EC52E4A2
:1045C0000F94BA0920E030E0A9010F94DE08ADCEC7
:1045D000CF92DF92EF92FF926B017C0120E030E0FE
:1045E000A9010F94560287FD25C067E177EB81E5AD
:1045F00098E3A70196010F94DE086B017C0120E08F
:1046000030E0A9010F94560220E030E040E05FE383
:1046100087FF04C020E030E040E05FEBC701B60157
:104620000F94DE080F94220ACB01FF90EF90DF90E9
:10463000CF90DEC967E177EB81E598EBDACF0F9495
:104640005C0220E030E0A9010F94DE08C1CFFC013C
:1046500084910895FC018081089511989091020140
:1046600087FD9095917090930001119A0000119828
:104670009091020186FD9095917090930001119A9E
:10468000000011989091020185FD90959170909392
:104690000001119A000011989091020184FD9095FB
:1046A000917090930001119A00001198909102016D
:1046B00083FD9095917090930001119A00001198DC
:1046C0009091020182FD9095917090930001119A52
:1046D000000011989091020181FD90959170909346
:1046E0000001119A0000119880910201817080935D
:1046F0000001119A00000895089590E080E0089567
:1047000090913405E92FF0E0EE58FF4E80839F5FD3
:10471000943040F490933405809143078F5F8093E9
:104720004307089510923405F7CF282F90911D0963
:10473000833021F495FD0FC094FD0FC0892F90E0C8
:10474000B0E0A0E004C0B695A795979587952A9507
:10475000D2F78170089581E0089580E008958F92E6
:104760009F92AF92BF92CF92DF92EF92FF92C09052
:10477000C208D090C308E090C408F090C50820E0BB
:1047800030E0A901C701B6010F9456028823E1F178
:10479000A701960160E070E080E89FE30F94BA09FA
:1047A0006B017C018090C6089090C708A090C80853
:1047B000B090C90820E030E0A901C501B4010F9410
:1047C0005602882329F1A501940160E070E080E899
:1047D0009FE30F94BA09C0923D04D0923E04E09248
:1047E0003F04F0924004609341047093420480932C
:1047F000430490934404FF90EF90DF90CF90BF90DC
:10480000AF909F908F900895C12CD12C7601CACF84
:1048100060E070E0CB01DFCF2F923F924F925F922A
:104820006F927F928F929F92AF92BF92CF92DF92C0
:10483000EF92FF920F931F93CF93DF93CDB7DEB725
:104840002E970FB6F894DEBF0FBECDBFF82EE62E22
:10485000042F122F282F30E03A872987862F90E0E7
:104860009C878B87220F331FA985BA852A0F3B1F90
:104870003E872D87FC01E20FF31FEE0FFF1FEE0FA7
:10488000FF1FE55BF74F60817181828193819B01FE
:10489000AC010F948C0B882309F440C1802F8F0D3D
:1048A000612F6E0D282F30E0F901EE0FFF1FE20F90
:1048B000F31FAB85BC85AE0FBF1FAA0FBB1FAA0F8E
:1048C000BB1FA55BB74FAC901196BC901197129689
:1048D000CC9012971396DC90080F802F90E0AC01DB
:1048E000440F551F480F591FAB85BC85A40FB51F3A
:1048F000AA0FBB1FAA0FBB1FA55BB74FEC90119669
:10490000FC90119712960C91129713969C90862FFB
:1049100090E0AD85BE85A80FB91FAA0FBB1FAA0FD7
:10492000BB1FA55BB74F8C9011967C901197129688
:104930006C90129713965C90610F70E02D853E8508
:10494000260F371F220F331F220F331F255B374FD0
:104950003E872D87D9014C9011963C901197129665
:104960001C91129713962C90E80FF91FEE0FFF1F62
:10497000EE0FFF1FE55BF74FB081B98321812A83DA
:1049800032813B8383818C83FA01E60FF71FEE0FA0
:10499000FF1FEE0FFF1FE55BF74F90819D83A18105
:1049A000AE83B281BF83238128879701402F592D81
:1049B000B701802F992D0F948C0B882321F0E12CC7
:1049C000F12C00E0912C9501A601B501C6010F94D0
:1049D0008C0B882319F05701C02ED92C242D332D90
:1049E000412F522D642D732D812F922D0F948C0BFE
:1049F000882321F0412C312C10E0212C282D372D3B
:104A0000462D552D682D772D862D952D0F948C0BC9
:104A1000882321F0842C732C612E522C2D813E8111
:104A20004F8158856D817E818F8198850F948C0B85
:104A3000882321F01D821E821F82188629813A81D7
:104A40004B815C8169817A818B819C810F948C0B75
:104A5000882341F03D8139838E818A839F819B83A6
:104A6000A885AC83E985FA85EE0FFF1F29853A8575
:104A7000E20FF31F8B859C85E80FF91FEE0FFF1FD8
:104A8000EE0FFF1FE55BF74FFA87E9879501A60157
:104A9000B501C6010F94DE089701402F592D0F94E0
:104AA000DD086B017C01282D372D462D552D682DF5
:104AB000772D862D952D0F94DE08242D332D412F33
:104AC000522D0F94DD089B01AC01C701B6010F9474
:104AD000DE086B017C0129813A814B815C8169810F
:104AE0007A818B819C810F94DE082D813E814F81DC
:104AF00058850F94DD089B01AC01C701B6010F94E6
:104B0000DE0820E030E040E450E40F94BA09A985C3
:104B1000BA856D937D938D939C9313972E960FB6C4
:104B2000F894DEBF0FBECDBFDF91CF911F910F91E3
:104B3000FF90EF90DF90CF90BF90AF909F908F90BD
:104B40007F906F905F904F903F902F9008950C94BE
:104B5000869A0C94869A0C94869A0C94869A0C9455
:104B6000389A0C94389A0C94389A0C94389ACF92BC
:104B7000DF92EF92FF920F931F930E94E28F0091BA
:104B800043051091440520914505309146056B0180
:104B90007C01C01AD10AE20AF30A9701860137FDA7
:104BA00011C0209142052095209342056A547C4F04
:104BB0008F4F9F4F60934305709344058093450545
:104BC0009093460581E090914205911101C080E0EB
:104BD0001F910F91FF90EF90DF90CF900895CF92AB
:104BE000DF92EF92FF92CF93C82F0E94E28F6B016A
:104BF0007C0124EA30E74DE75FE360913A0570916C
:104C00003B0580913C0590913D050F94560287FD30
:104C100018C08AEF90E0A0E0B0E08C0D9D1DAE1DA5
:104C2000BF1D80935B0590935C05A0935D05B093D9
:104C30005E05C0930F02CF91FF90EF90DF90CF9071
:104C4000089580E090E0DC01E8CF2F923F924F92F0
:104C50005F926F927F928F929F92AF92BF92CF920C
:104C6000DF92EF92FF920F931F93CF93DF9300D0C9
:104C700000D0CDB7DEB70E94E28F00911A101091DC
:104C80001B1020911C1030911D10011511052105DC
:104C9000310509F00CC320912010222309F44AC0E9
:104CA000E0911E1021502093201021E02E0F209320
:104CB0001E1030912110231302C010921E1024E008
:104CC000E29FF0011124EE5DFF4E008111812281EF
:104CD00033810093161010931710209318103093FF
:104CE0001910600F711F811D911D60931A10709330
:104CF0001B1080931C1090931D10809118109091A0
:104D00001910892BB9F08FB78E83F8942090161064
:104D1000309017102101712C612C00911810109106
:104D20001910809124028532F1F08F3F09F496C06A
:104D30009E819FBF26960FB6F894DEBF0FBECDBFF3
:104D4000DF91CF911F910F91FF90EF90DF90CF9067
:104D5000BF90AF909F908F907F906F905F904F909B
:104D60003F902F900895E1EDF6E294919D8397FD99
:104D7000DFCF61E085E20E94A08E8D81882321F043
:104D80009D81923009F0BDC14801B12CA12C60E099
:104D900072E18AE790E0A50198010F94A2082983A7
:104DA0003A834B835C8369017A0121E0C21AD108FE
:104DB000E108F1088FEFC816D104E104F10409F00D
:104DC0000CF46FC160E472E48FE090E0A5019801FB
:104DD0000F94A20869017A0191E0C91AD108E1088B
:104DE000F1082D81223009F010C18FEFC816D104CF
:104DF000E104F10409F00CF4C0C260E970ED83E055
:104E000090E0A50198010F94A20869017A0191E050
:104E1000C91AD108E108F10883E02FEFC216D104C6
:104E2000E104F10409F00CF4A1C268E478EE81E039
:104E300090E0A50198010F94A20869017A0181E030
:104E4000C81AD108E108F1089FEFC916D104E1049E
:104E5000F10411F00CF0FDC084E088C285E280937B
:104E60002402E1EDF6E224912D83822F2F3F09F4F5
:104E70005FCF223009F469C060F4222381F1213030
:104E800009F445C087FD54CF61E085E20E94A08E01
:104E900077CF9D81943009F49AC008F478C095309A
:104EA00089F71092200110922101809121018860E0
:104EB0008093210180912101816080932101E4E2AE
:104EC000F6E2E491F0E0EE0FFF1FE553FA4D859115
:104ED0009491EAE6F6E2E491E09375054ACF14BCBA
:104EE00015BC84B5826084BD85B5816085BDE4E272
:104EF000F6E2E491F0E0EE0FFF1FE553FA4D8591E5
:104F00009491EAE6F6E2E491E093790532CF1092CB
:104F100080001092810080918100886080938100E0
:104F200080918100816080938100E4E2F6E2E49167
:104F3000F0E0EE0FFF1FE553FA4D85919491EAE6FC
:104F4000F6E2E491E093780514CF1092B00010924D
:104F5000B1008091B00082608093B0008091B10078
:104F600081608093B100E4E2F6E2E491F0E0EE0FBC
:104F7000FF1FE553FA4D859194919093B905809365
:104F8000B805EAE6F6E2E491E093BA05F2CE1092B3
:104F90009000109291008091910088608093910020
:104FA00080919100816080939100E4E2F6E2E491C7
:104FB000F0E0EE0FFF1FE553FA4D85919491EAE67C
:104FC000F6E2E491E093770523E02D83D2CE1092B0
:104FD000A0001092A1008091A10088608093A100A0
:104FE0008091A10081608093A100E4E2F6E2E49167
:104FF000F0E0EE0FFF1FE553FA4D85919491EAE63C
:10500000F6E2E491E0937605B4CE8FEFC816D104B2
:10501000E104F10409F00CF472C068E478EE81E078
:1050200090E0A50198010F94A20869017A0191E02E
:10503000C91AD108E108F1082D81222309F462C1BF
:105040002FEFC216D104E104F10411F00CF063C19A
:1050500003CF64E274EF80E090E0A50194010F9427
:10506000A20869017A0181E0C81AD108E108F108B3
:1050700085E09FEFC916D104E104F10409F008F4BA
:1050800075C162E17AE780E090E0A50194010F9498
:10509000A20869017A0181E0C81AD108E108F10883
:1050A0004CC181E02D81211161C195B5987F892B7B
:1050B00085BD2FEF3FEFA90145284628472809F075
:1050C00048C09D81923009F4E2C00CF0C9C0992318
:1050D00009F4CEC0913009F02BCED0928900C09255
:1050E0008800209386053093870540938805509368
:1050F000890580916F00826080936F0019CE82E0F5
:10510000D1CFB12CA12C60E072E18AE790E0A5013B
:1051100098010F94A20869017A0181E0C81AD108A8
:10512000E108F108C114D10491E0E906F104F4F4B6
:1051300091E02D81213059F580918100887F892B64
:10514000809381002FEF3FEFA9014528462847288B
:1051500021F29801220F331FD1010F94CE0828EEBF
:1051600033E040E050E00F948008ABCF68E478EE85
:1051700081E090E0A50198010F94A20869017A01ED
:1051800081E0C81AD108E108F10893E0D2CF8D81FF
:105190008330F9F480919100887F892B809391006E
:1051A0002FEF3FEFA90145284628472891F6D092D6
:1051B0009900C09298002093820530938305409314
:1051C0008405509385058091710082608093710001
:1051D000AFCD2D81243001F58091A100887F892BEE
:1051E0008093A1002FEF3FEFA901452846284728CB
:1051F00009F0AFCFD092A900C092A80020937E05FD
:1052000030937F0540938005509381058091720013
:105210008260809372008CCD8D81853009F049CFFA
:1052200080912101887F892B809321012FEF3FEF0F
:10523000A90145284628472809F08BCFD09229019B
:10524000C092280120937A0530937B0540937C051A
:1052500050937D058091730082608093730068CDC8
:105260008D81843039F20CF4A2CF853039F360CDD2
:10527000C7BC20938A0530938B0540938C055093CF
:105280008D0580916E00826080936E0051CDC0923A
:10529000B3002093BB053093BC054093BD055093EC
:1052A000BE058091700082608093700041CD601BCC
:1052B000710B820B930B97FD3DCD409810921A1005
:1052C00010921B1010921C1010921D1033CDC9802B
:1052D000DA80EB80FC809AE0F594E794D794C79449
:1052E0009A95D1F721E0C21AD108E108F10885E0CA
:1052F000DCCE8FEFC816D104E104F10409F038F7D1
:1053000084E0D3CE83E09FEFC916D104E104F10419
:1053100009F00CF4CACE62E17AE780E090E0A501E2
:1053200094010F94A20869017A0181E0C81AD1089A
:10533000E108F1089D819923E1F286E02FEFC21682
:10534000D104E104F10491F088F0C980DA80EB80A7
:10535000FC808AE0F594E794D794C7948A95D1F7B6
:1053600091E0C91AD108E108F10887E09091B100F5
:10537000987F892B8093B1009CCE82E0F7CFCF93AA
:10538000DF93CDB7DEB720E2488559856F818E81E6
:105390000E9487D9DF91CF9108950C9450C50C9449
:1053A00050C56DEF73E483E00C9423F667EA75E46F
:1053B00082E00C9423F66BEA75E481E00C9423F60A
:1053C0006FEA75E480E00C9423F6CF92DF92EF92BF
:1053D000FF92CF93DF9300D01F92CDB7DEB76B0162
:1053E0007C0120E030E0A9010F94560287FD1BC02C
:1053F00067E177EB81E598E3A70196010F94DE085A
:1054000069837A838B839C83CE0101960E94C5D9E0
:105410000F900F900F900F90DF91CF91FF90EF9032
:10542000DF90CF90089567E177EB81E598EBE4CFCB
:105430000F945C0220E030E04AE754E40F94BA098C
:1054400020E030E0A9010F94DE08BFCFEF92FF9279
:105450000F931F938AE0E82E8BE0F82E0CE01BE000
:1054600028EE38E648E55AE268E17BE08DE19BE012
:105470000E9421DD1F910F91FF90EF900895EF9210
:10548000FF920F931F938FE7E82E8AE0F82E02E930
:105490001AE024E13EE148EB50E361E87AE088E875
:1054A0009AE00E9421DD1F910F91FF90EF900895E7
:1054B00080E090E0A0E8B0E48093710290937202E3
:1054C000A0937302B093740287EA92E00E943EB008
:1054D000809132058130C9F1D4F4882309F18FEA33
:1054E00092E00E943EB010927102109272021092ED
:1054F00073021092740287EA92E00E943EB080919B
:1055000032058F5F84309CF5809332050895823098
:1055100049F1833021F780E090E0A0EFB1E419C0B9
:1055200080E090E0A0EFB1E48093690290936A027A
:10553000A0936B02B0936C0280936D0290936E0205
:10554000A0936F02B0937002CACF80E090E0A8E40D
:10555000B3E48093690290936A02A0936B02B093C4
:105560006C02BDCF80E090E0A4E3B3E4E5CF1092FD
:105570003205089580915A02882331F041E062E2B9
:105580007BE082E00E9449D98091300987708730A2
:1055900071F41092320520E040E070E060E086E2B5
:1055A0009AE20E94161E81E080931E0881CF089522
:1055B000AF92BF92CF92DF92EF92FF920F931F9321
:1055C000CF93DF936B01E9014A3009F4BAC045314A
:1055D00009F06CC0DB011296ED91FC91F280C6815E
:1055E000D78180910201809582708093000188E2CA
:1055F0008A950000E9F7BF2CB29420EFB22230E187
:10560000A32EAF0C48E2E42E88EF27D88E2D8A9582
:105610000000E9F7BFE1BF1508F47FC08F2D807748
:1056200080681BD88B2D19D88E2D8A950000E9F73C
:1056300080E813D880E011D88E2D8A950000E9F714
:105640008AEF0BD88E2D8A950000E9F78E01005F56
:105650001F4F8881807F01D889918295807F0E9429
:105660002D23C017D107A9F78E2D8A950000E9F7E1
:10567000F394E0E1BE0EFA10C7CF80910201827070
:1056800080930001D6011296CD91DC91CE010E944B
:1056900082908111F7C1DF91CF911F910F91FF90FF
:1056A000EF90DF90CF90BF90AF900895FB01028103
:1056B0001381423309F4A1C108F4A5C1463409F4A9
:1056C00092C1473409F495C14B3329F589812B8167
:1056D000D80112966C91129713964C91213009F4CF
:1056E000E8C1233009F0B2C138EF380F582F91E0EC
:1056F000431708F490E041E0531708F040E031E030
:10570000561708F430E0592F542B352309F0C6C141
:10571000942309F0C3C181E0BECF80EE8F0D806875
:10572000807F0E942D238F2D8295807F0E942D23C4
:105730008E2D8A950000E9F780E80E942D2380E8ED
:105740007ACF8091010182608093010180910201F2
:10575000827080930001809101018160809301013A
:1057600080910201817080930001099A119A8091C1
:105770000201809582708093000188E28A95000082
:10578000E9F788E790E0CEE9DFE0FE013197F1F735
:105790000197D9F788EF0E942D2318E2812F8A956F
:1057A0000000E9F780E20E942D2380E00E942D2373
:1057B000812F8A950000E9F780E00E942D2380E880
:1057C0000E942D23812F8A950000E9F780E00E9436
:1057D0002D2380E10E942D23812F8A950000E9F777
:1057E000CE010197F1F7CE010197F1F7CE010197B4
:1057F000F1F7CE010197F1F7CE010197F1F7CE0154
:105800000197F1F7CE010197F1F7CE010197F1F77A
:10581000CE010197F1F7CE010197F1F7CE01019783
:10582000F1F7CE010197F1F7CE010197F1F7CE0123
:105830000197F1F72197F1F780E20E942D2380E490
:105840000E942D23812F8A950000E9F780E20E94B3
:105850002D2380E60E942D231A950000E9F710E021
:10586000D0E0C8E28D2F807780680E942D23812FA1
:105870000E942D238C2F8A950000E9F780E80E9472
:105880002D2380E00E942D238C2F8A950000E9F7BC
:105890008AEF0E942D238C2F8A950000E9F790E271
:1058A000119880910201817080930001119A00008B
:1058B000119880910201817080930001119A00007B
:1058C000119880910201817080930001119A00006B
:1058D000119880910201817080930001119A00005B
:1058E000119880910201817080930001119A00004B
:1058F000119880910201817080930001119A00003B
:10590000119880910201817080930001119A00002A
:10591000119880910201817080930001119A00001A
:10592000119880910201817080930001119A00000A
:10593000119880910201817080930001119A0000FA
:10594000119880910201817080930001119A0000EA
:10595000119880910201817080930001119A0000DA
:10596000119880910201817080930001119A0000CA
:10597000119880910201817080930001119A0000BA
:10598000119880910201817080930001119A0000AA
:10599000119880910201817080930001119A00009A
:1059A0008C2F8A950000E9F7915009F079CF88EFA4
:1059B0000E942D238C2F8A950000E9F7DF5F105F8E
:1059C000D03209F04FCF80E00E942D2380EC0E945E
:1059D0002D23CA950000E9F780910201827080931F
:1059E000000181E058CED80115968C91888381E022
:1059F00052CEF80181818883FACFB901C8010E9493
:105A00006D9081E048CE443171F0473109F083CE8A
:105A10001882F80182818983858181508A838381FC
:105A20008B8381E038CED80115964C91159750E0C4
:105A3000440F551F70E060E016968D919C910F9475
:105A4000E60BC8010E94989081E025CE481708F423
:105A500062CE861708F45FCEFA80E12CD12C243078
:105A600070F41DC0BE01C8010E946D9089819881AB
:105A70009D0D98838E0D8983FF0C09F44CCEF7FEA3
:105A8000F6CFF0CF4D8150E0440F551F70E060E03D
:105A90008E819F810F94E60B81E0FDCDFA8030E08E
:105AA000F901E556FD4FD08029563D4FF901E080C0
:105AB000E6CF58E0580F382F1ACEDF92EF92FF92C0
:105AC0000F931F93CF93DF93EC01D62E1CAD0BAD3C
:105AD0007C0184E0E80EF11CE98DFA8DC70119956F
