:100000000C94E7210C9418220C9418220C941822BA
:100010000C9418220C9418220C9418220C94182278
:100020000C9418220C9418220C9418220C94182268
:100030000C9418220D948F050C9418220C941822FD
:100040000C9418220C941BE00C9418220C94182287
:100050000C9418220C9418220C941CD70D94400B6D
:100060000C9418220C9407A60C9418220C941822B5
:100070000C9418220C9418220C9418220C94182218
:100080000C9456EB0C9418220C9418220C94182201
:100090000C9418220C9418220C9418220C941822F8
:1000A0000C9418220C9418220C9428EB0C9418220F
:1000B0000C9418220C9418220C9418220C94FAEA2E
:1000C0000C9418220C9418220C9418220C941822C8
:1000D0000C9418220C9418220C9418220C941822B8
:1000E0000C941822084AD73B3BCE016E84BCBFFD5E
:1000F000C12F3D6C74319ABD56833DDA3D00C77FF8
:1001000011BED9E4BB4C3E916BAAAABE0000008090
:100110003F05A84CCDB2D44EB93836A9020C50B91F
:10012000918688083CA6AAAA2ABE000000803F004B
:100130000D944D070D9433070D944A020D941A0740
:100140000D9457020D947A070D9454020D94600299
:100150000D94AC070D94D2120D946A020D941207FF
:100160000D94AB180D9407280D9457070D945A025F
:100170000D94A2070D9463020D9429070D94CC27CA
:100180000D941F070D946D020D94FD0F0D944507FE
:100190000D945C110D9462190D9484070D94610700
:1001A0000D9494130D943D070D946B070D94EA1470
:1001B0000D94691A0D94BE160D9498070D9468025B
:1001C0000D948E070D945D024E414E494E4954598F
:1001D000494E46CDCCCC3D0AD7233C17B7D1387712
:1001E000CC2B329595E6241FB14F0A000020410028
:1001F00000C84200401C4620BCBE4CCA1B0E5AAE72
:10020000C59D7400407A10F35A00A0724E18090080
:1002100010A5D4E80000E87648170000E40B54026B
:100220000000CA9A3B000000E1F5050000809698A6
:1002300000000040420F000000A0860100000010F6
:100240002700000000E80300000000640000000038
:10025000000A00000000000100000000002C76D819
:1002600088DC674F0823DFC1DFAE59E1B1B796E5FF
:10027000E3E453C63AE651997696E8E6C28426EB63
:10028000898C9B62ED407C6FFCEFBC9C9F40F2BA76
:10029000A56FA5F490055A2AF75C936B6CF9676D0E
:1002A000C11BFCE0E40D47FEF520E6B500D0ED9063
:1002B0002E0300943577050080841E080000204E30
:1002C0000A000000C80C333333330F986E128311C9
:1002D00041EF8D2114893BE65516CFFEE6DB18D1A0
:1002E000844B381BF77C1D901DA4BBE42420328472
:1002F000725E228100C9F124ECA1E53D27434F4DF8
:100300004D554E49434154494F4E00445259525560
:100310004E004552524F525300494E464F004543FE
:10032000484F002569730025696D202569730025F4
:1003300069682025696D2025697300256964202579
:1003400069682025696D2025697300256979202554
:100350006964202569682025696D20256973006519
:100360006E7175657565696E6720220020496E762D
:10037000616C696420657874727564657220000030
:100380000050C1000050C1000000000000664300A2
:1003900000524300007A43486F6D696E67206661C2
:1003A000696C656400206E6F7420656E746572659B
:1003B000642E0A00486F74656E6420746F6F20634A
:1003C0006F6C640A0050726F7465637465642050CA
:1003D000696E0A005374616E6461726420446576CC
:1003E000696174696F6E3A20002052616E67653AE8
:1003F0002000204D61783A2000204D696E3A20009F
:100400004D65616E3A200046696E697368656421C6
:100410000A002072616E67653A2000206D61783AAB
:100420002000206D696E3A2000207369676D613A83
:100430002000206D65616E3A20003A207A3A200053
:10044000206F662000205A00205900205800476F76
:10045000696E6720746F3A00436C6F636B776973E2
:10046000650A00436F756E7465722D0020446972D1
:10047000656374696F6E3A2000202020616E676C9E
:10048000653A20005374617274696E67207261640A
:100490006975733A2000506F736974696F6E696E85
:1004A00067207468652070726F62652E2E2E0A00B8
:1004B0003F4E756D626572206F66206C65677320B4
:1004C000696E206D6F76656D656E74206E6F742039
:1004D000706C61757369626C652028302D31352927
:1004E0002E0A003F2028582C5929206F7574206F40
:1004F0006620626F756E64732E0A003F53616D70E3
:100500006C652073697A65206E6F7420706C6175FC
:100510007369626C652028342D3530292E0A004D10
:100520003438205A2D50726F6265205265706561B3
:10053000746162696C69747920546573740A003F50
:100540002856296572626F7365206C6576656C202C
:10055000697320696D706C61757369626C652028C0
:10056000302D34292E0A0046696C616D656E742049
:10057000757365643A200053746174733A20002CDB
:10058000204C6F6E67657374206A6F623A20005466
:100590006F74616C2074696D653A200053746174E6
:1005A000733A20002C204661696C65643A20002C67
:1005B0002046696E69736865643A20005072696EFE
:1005C00074733A200053746174733A200020573AD0
:1005D000004520436F6F6C696E672E2E2E004520FC
:1005E00048656174696E672E2E2E0020573A0042CE
:1005F000656420636F6F6C696E672E2E2E004265F6
:10060000642068656174696E672E2E2E00205A3A48
:100610000020593A0020436F756E7420583A00202C
:10062000453A00205A3A0020593A00583A003A0018
:100630004361703A005741524E494E4721204C6F5A
:1006400077205A204A65726B206D6179206C656154
:100650006420746F20756E77616E746564207061BC
:10066000757365732E0A00205A0020590058002027
:10067000204D61783A2000205A002059005800206F
:10068000204D696E3A20004F6E20004F6666005381
:100690006F667420656E6473746F70733A200049DE
:1006A0006E76616C69642065787472756465720A2F
:1006B0000020643A0020693A0020703A0023646503
:1006C00066696E652044454641554C545F4B642035
:1006D0000023646566696E652044454641554C5467
:1006E0005F4B69200023646566696E65204445465A
:1006F00041554C545F4B7020005049442041757463
:100700006F74756E652066696E6973686564212013
:1007100050757420746865206C617374204B702C64
:10072000204B6920616E64204B6420636F6E73748C
:10073000616E74732066726F6D2062656C6F7720D6
:10074000696E746F20436F6E666967757261746954
:100750006F6E2E680A00504944204175746F74759D
:100760006E65206661696C6564212074696D656FD2
:1007700075740A00453120544845524D414C205271
:10078000554E4157415900546865726D616C205255
:10079000756E617761790045312048656174696ED5
:1007A00067206661696C65640048656174696E679D
:1007B000206661696C656400504944204175746F1E
:1007C00074756E65206661696C6564212054656D81
:1007D000706572617475726520746F6F20686967E7
:1007E000680A00204B643A2000204B693A20002020
:1007F0004B703A20000A20436C6173736963205088
:100800004944200A002054753A2000204B753A20B4
:1008100000206D61783A2000206D696E3A2000203A
:10082000643A200020626961733A200050494420F4
:100830004175746F74756E652073746172740A000B
:10084000504944204175746F74756E652066616906
:100850006C656421204261642065787472756465FA
:1008600072206E756D6265720A004F66660A0046F8
:10087000616465204865696768742000426564208A
:100880004C6576656C696E6720004661696C6564CD
:1008900020746F20656E61626C6520426564204C37
:1008A0006576656C696E670A004D65736820426500
:1008B00064204C6576656C20646174613A0A004D71
:1008C00065736820706F696E742063616E6E6F74FB
:1008D000206265207265736F6C7665640A004D3422
:1008E000323120696E636F72726563742070617259
:1008F000616D657465722075736167650A004F6686
:100900006673657473206170706C6965640045720C
:10091000723A20546F6F206661722100546F6F200D
:100920006661722066726F6D207265666572656EB3
:10093000636520706F696E740A00496E7365727426
:100940002066696C616D656E7420616E64207072E2
:1009500065737320627574746F6E0A0050726573EC
:100960007320627574746F6E20746F206865617493
:10097000206E6F7A7A6C650A00496E736572742016
:1009800066696C616D656E7420616E64207072655D
:10099000737320627574746F6E20286F72204D31EE
:1009A0003038290A0047322F4733206261642070B3
:1009B0006172616D65746572730A00536C65657070
:1009C0002E2E2E00206F6620004D424C20473239DB
:1009D00020706F696E74200059206F7574206F66E7
:1009E0002072616E67652028312D34292E0A005847
:1009F000206F7574206F662072616E6765202831E4
:100A00002D34292E0A004D6573682070726F62695B
:100A10006E6720646F6E652E0A00537461727420D5
:100A20006D6573682070726F62696E672077697494
:100A3000682022473239205331222066697273744C
:100A40002E0A004732380A473239205332004D65AA
:100A5000736820626564206C6576656C696E6720DA
:100A6000686173206E6F20646174612E0A00537494
:100A70006174653A200053206F7574206F66207290
:100A8000616E67652028302D35292E0A00205A3ADC
:100A9000200020593A200042656420583A20004D39
:100AA00065736820706F696E742063616E6E6F7419
:100AB000206265207265736F6C7665640A00436C12
:100AC00069636B20746F20726573756D652E2E2EB1
:100AD000004E6F206D6F76652E00456E642066694E
:100AE0006C65206C6973740A00426567696E2066E4
:100AF000696C65206C6973740A004D3132350028C9
:100B00006E6F2066696C65290043757272656E743C
:100B10002066696C653A20005344207072696E74D7
:100B2000696E67206279746520004E6F74205344AB
:100B3000207072696E74696E670A005072696E7413
:100B40002074696D653A20006F6666001E03190304
:100B500012030B03FD0244454255473A004B494CF2
:100B60004C45442E20004D3131332053006F6B0033
:100B70004A474D616B6572204D61676963204F661E
:100B8000662E002C20002C2000544845524D414C2C
:100B90005F50524F54454354494F4E004155544FB6
:100BA0005245504F52545F53445F53544154555330
:100BB00000454D455247454E43595F5041525345BC
:100BC0005200434153455F4C494748545F425249A4
:100BD0004748544E45535300544F47474C455F4C8C
:100BE000494748545300534F4654574152455F506C
:100BF0004F574552004255494C445F50455243457A
:100C00004E54004C4556454C494E475F4441544173
:100C1000005A5F50524F4245004155544F4C455683
:100C2000454C005052494E545F4A4F420050524F7B
:100C30004752455353004155544F5245504F52541B
:100C40005F54454D5000564F4C554D455452494305
:100C500000454550524F4D0053455249414C5F5855
:100C60004F4E5F584F4646004649524D57415245F8
:100C70005F4E414D453A4D61726C696E2076302E63
:100C80003220284769746875622920534F555243B2
:100C9000455F434F44455F55524C3A6874747073D6
:100CA0003A2F2F6769746875622E636F6D2F4D61DF
:100CB000726C696E4669726D776172652F4D6172F3
:100CC0006C696E2050524F544F434F4C5F56455203
:100CD00053494F4E3A312E30204D414348494E45FD
:100CE0005F545950453A4A474D616B6572204D61DA
:100CF0006769632045585452554445525F434F55E8
:100D00004E543A3120555549443A63656465326121
:100D100032662D343161322D343734382D39623119
:100D2000322D6335356336326633363766660A00F0
:100D30002F2F20004D31343520533C696E64657887
:100D40003E206F7574206F662072616E6765202883
:100D5000302D31290A002054002052004163636580
:100D60006C65726174696F6E3A20500020466C6F3A
:100D7000773A20000001363726FFFFFFFF353C3D64
:100D8000380EFFFFFF312E303E12FFFFFFFF28FF1E
:100D90000C0809FFFFFF1A1C18FFFF2A08440AFF6E
:100DA000433A200020536572766F2000206F7574DF
:100DB000206F662072616E67650A00536572766FF8
:100DC000200043290A0061626C656420286D696E09
:100DD0002074656D702000436F6C642065787472B8
:100DE000756465732061726520004E6F20636173C6
:100DF00065206C696768740A00454550524F4D2064
:100E00004F4B0A003F5A206F7574206F6620726145
:100E10006E676520282D323020746F203230290A09
:100E2000003A200050726F6265205A204F66667348
:100E300065740041637469766520457874727564E1
:100E400065723A2000496E76616C69642065787439
:100E500072756465720A00526573656E643A2000AB
:100E60006F6B0020746F6F206C6F6E6720657874F5
:100E7000727573696F6E2070726576656E746564E5
:100E80000A0020636F6C6420657874727573696FF3
:100E90006E2070726576656E7465640A00627573A3
:100EA000793A2070617573656420666F7220696E8F
:100EB0007075740A00627573793A20706175736594
:100EC0006420666F7220757365720A0062757379AB
:100ED0003A2070726F63657373696E670A004B49DD
:100EE0004C4C45442E20004B494C4C20636175739B
:100EF0006564206279204B494C4C20627574746F94
:100F00006E2F70696E0A004B494C4C45442E2000F0
:100F10004B494C4C20636175736564206279207481
:100F20006F6F206D75636820696E616374697665A3
:100F30002074696D65202D2063757272656E742052
:100F4000636F6D6D616E643A20004D363030005035
:100F50006C65617365207265736574005052494E0B
:100F60005445522048414C544544005072696E74B7
:100F700065722068616C7465642E206B696C6C28E6
:100F8000292063616C6C6564210A00000050C10077
:100F90000050C1000000000000484200004842002C
:100FA000008040000000005761726E696E673A2051
:100FB000486F6D696E672042756D7020446976696F
:100FC000736F72203C20310A000202040000A0402E
:100FD0000000A040000000400000734300005F4399
:100FE00000007A43FFFFFF4D333100534420726508
:100FF0006164206572726F720A00446F6E652070C2
:1010000072696E74696E672066696C650A004B4987
:101010004C4C45442E200053544F505045442E20F4
:10102000005072696E7465722073746F70706564BD
:101030002064756520746F206572726F72732E2044
:1010400046697820746865206572726F7220616EDF
:101050006420757365204D39393920746F207265AD
:1010600073746172742E202854656D70657261749A
:101070007572652069732072657365742E205365DF
:10108000742069742061667465722072657374617E
:101090007274696E67290A004E6F20436865636B3E
:1010A00073756D2077697468206C696E65206E7544
:1010B0006D6265722C204C617374204C696E653AC8
:1010C00020004E6F20436865636B73756D207769F0
:1010D0007468206C696E65206E756D6265722C2077
:1010E0004C617374204C696E653A200063686563D7
:1010F0006B73756D206D69736D617463682C204C22
:10110000617374204C696E653A20004C696E6520ED
:101110004E756D626572206973206E6F74204C612C
:101120007374204C696E65204E756D6265722B314B
:101130002C204C617374204C696E653A20004D314F
:101140003130004D3630303A20546F6F20636F6C71
:101150006400486F74656E6420746F6F20636F6CF9
:10116000640A007C3C3E5E2B3D3F2F5B5D3B2C2A9E
:10117000225C004572726F722077726974696E67C3
:1011800020746F20454550524F4D210A004545506F
:10119000524F4D206461746173697A652065727283
:1011A0006F722E0A00290A002062797465733B2051
:1011B000637263200053657474696E67732053749F
:1011C0006F726564202800290A00206279746573B3
:1011D0003B2063726320002073746F726564207318
:1011E000657474696E67732072657472696576657B
:1011F00064202800202863616C63756C61746564E9
:1012000029210A0020213D2000454550524F4D2004
:10121000435243206D69736D61746368202D2028EB
:1012200073746F7265642920002053697A653A20CF
:1012300000496E6465783A2000204D61726C696ED9
:101240003D563535290A0028454550524F4D3D0041
:10125000454550524F4D2076657273696F6E206D13
:1012600069736D61746368200048617264636F64C0
:1012700065642044656661756C7420536574746997
:101280006E6773204C6F616465640A002C01000076
:101290002C01000064000000900100000000964353
:1012A000000096430000A0400000C8410000A0429A
:1012B0000000A042000048440000B0423A0A00206A
:1012C000286D6D290020204D363033200020550038
:1012D0004C0046696C616D656E74206C6F61642FA3
:1012E000756E6C6F6164206C656E677468733A0A22
:1012F0000020204D383531205A005A2D50726F622F
:1013000065204F6666736574002044002049002004
:10131000204D33303120500050494420736574749F
:10132000696E67733A0A0020460020420020480098
:1013300020204D3134352053004D61746572696150
:101340006C2068656174757020706172616D657480
:101350006572733A0A00205A002059002020473253
:1013600039205333205800205A0020204D34323089
:101370002053004D65736820426564204C65766596
:101380006C696E673A0A00205A0020590020204DEF
:10139000323036205800486F6D65206F6666736581
:1013A000743A0A00204500205A00205900205800B5
:1013B00020540020530020204D3230352051002091
:1013C000453C6D61785F655F6A65726B3E002058D1
:1013D0003C6D61785F785F6A65726B3E20593C6D49
:1013E00061785F795F6A65726B3E205A3C6D617807
:1013F0005F7A5F6A65726B3E00416476616E636519
:10140000643A20513C6D696E5F7365676D656E74FB
:101410005F74696D655F75733E20533C6D696E5FE7
:1014200066656564726174653E20543C6D696E5FEB
:1014300074726176656C5F66656564726174653E41
:101440000020540020520020204D32303420500023
:10145000416363656C65726174696F6E2028756E97
:101460006974732F7332293A20503C7072696E741C
:101470005F616363656C3E20523C726574726163A8
:10148000745F616363656C3E20543C747261766581
:101490006C5F616363656C3E0A00204500205A0062
:1014A00020590020204D3230312058004D6178699C
:1014B0006D756D20416363656C65726174696F6EF3
:1014C0002028756E6974732F7332293A0A002045FB
:1014D00000205A0020590020204D3230332058007F
:1014E0004D6178696D756D206665656472617465BE
:1014F000732028756E6974732F73293A0A0020458A
:1015000000205A0020590020204D39322058005325
:10151000746570732070657220756E69743A0A0084
:1015200020204D3230302044300A0020204D32300F
:10153000302044002044697361626C65640A00468F
:10154000696C616D656E742073657474696E677320
:101550003A0020204D3134392043203B20556E691C
:10156000747320696E2043656C736975730A00207B
:1015700020473231202020203B0054524947474524
:10158000524544006F70656E003A200066696C61D8
:101590006D656E74007A5F6D696E00795F6D696E5E
:1015A000005265706F7274696E6720656E64737443
:1015B0006F70207374617475730A000A4D656173EE
:1015C0007572656420706F696E74733A0A005A20F0
:1015D0006F66667365743A20004E756D20582C59FD
:1015E0003A20342C340A0000000001000000010001
:1015F000008000555555000000400033333300AAE9
:10160000AA2A004992240000002000C7711C0099FA
:10161000991900D1451700555515003BB113002409
:1016200049120011111100000010000F0F0F00E30C
:10163000380E0043790D00CCCC0C00C3300C00E810
:10164000A20B0064210B00AAAA0A00703D0A009DAB
:10165000D80900427B090092240900DCD3080088E5
:101660008808001042080000000800F0C107008749
:1016700087070075500700711C07003EEB0600A1AC
:10168000BC06006990060066660600703E060061B2
:1016900018060017F4050074D105005BB00500B210
:1016A000900500627205005555050078390500B8AF
:1016B0001E0500050505004EEC040087D40400A1BA
:1016C000BD040090A7040049920400C17D0400EE0F
:1016D000690400C7560400444404005C3204000856
:1016E00021040041100400000004003FF00300F852
:1016F000E0030026D20300C3C30300CCB503003AC5
:10170000A803000A9B0300388E0300C08103009FDA
:10171000750300D0690300505E03001D53030034BD
:10172000480300913D0300333303001629030038BA
:101730001F030097150300300C0300030303000B85
:10174000FA020049F10200BAE802005CE002002D52
:10175000D802002DD0020059C80200B0C0020031EA
:10176000B90200DAB10200AAAA0200A0A30200BCDA
:101770009C0200FA9502005C8F0200DF8802008262
:10178000820200457C020027760200277002004397
:101790006A02007C640200D05E02003F590200C869
:1017A00053020020746F6F206C6F6E672065787431
:1017B000727573696F6E2070726576656E7465649C
:1017C0000A0020636F6C6420657874727573696FAA
:1017D0006E2070726576656E7465640A00FFFDFCAC
:1017E000FAF8F6F4F2F0EEECEAE9E7E5E3E1E0DE40
:1017F000DCDAD9D7D5D4D2D0CFCDCBCAC8C7C5C3F0
:10180000C2C0BFBDBCBAB9B7B6B4B3B2B0AFADAC6D
:10181000AAA9A8A6A5A4A2A1A09E9D9C9A999897C2
:1018200095949392908F8E8D8B8A898887868483F6
:101830008281807F7E7D7B7A79787776757473720A
:1018400071706F6E6D6C6B6A696867666564636200
:1018500061605F5E5D5C5B5A5958585756555453EA
:10186000525150504F4E4D4C4B4A4A4948474646BC
:10187000454443424241403F3E3E3D3C3B3B3A397A
:10188000383837363535343332323130302F2E2E2A
:101890002D2C2B2B2A2929282727262525242323CD
:1018A00022212120201F1E1E1D1C1C1B1B1A191962
:1018B0001818171616151514131312121111100FEC
:1018C0000F0E0E0D0D0C0C0B0A0A0909080807076C
:1018D0000606050504040303020201000024F4D4F3
:1018E0003050C38E20C2A24017828B7011127A91A1
:1018F0000D816CD90AA861E108C758660761514398
:10190000061E4B5D05C145A7041A411104093D9807
:1019100003713931034036DB0265339102D4305410
:1019200002802E1D02632CEE01752AC501B028A08D
:1019300001102781018F2564012B244B01E0223403
:1019400001AC211F018D200D01801FFC00841EEDC4
:1019500000971DDF00B81CD200E61BC600201BBC90
:1019600000641AB200B219A8000A19A0006A1899F6
:1019700000D117910040178B00B516840031167EF8
:1019800000B31579003A157300C7146F0058146A34
:1019900000EE1366008813630025135E00C7125B18
:1019A000006C12570015125400C111510070114FF4
:1019B0000021114B00D61049008D104700461044FD
:1019C0000002104200C00F4000800F3E00420F3C5A
:1019D00000060F3B00CB0E3800930E37005C0E352F
:1019E00000270E3400F30D3200C10D3100900D3090
:1019F00000600D2E00320D2D00050D2C00D90C2B92
:101A000000AE0C2900850C29005C0C2700350C2742
:101A1000000E0C2600E80B2400C40B2400A00B23AE
:101A2000007D0B23005A0B2100390B2100180B20DD
:101A300000F80A1F00D90A1E00BB0A1E009D0A1DDD
:101A400000800A1D00630A1C00470A1B002C0A1BA9
:101A500000110A1A00F7091A00DD091900C4091952
:101A600000AB091900920917007B091800630917D8
:101A7000004C09160036091600200916000A09153F
:101A800000F5081500E0081400CC081400B808148C
:101A900000A4081400900813007D0812006B0813BE
:101AA00000580812004608120034081100230811DB
:101AB000001208110001081100F0071000E00710E3
:101AC00000D0071000C0071000B0070F00A10710DA
:101AD0000091070E0083070F0074070F0065070EC3
:101AE0000057070E0049070E003B070D002E070E9A
:101AF0000020070D0013070D0006070D00F9060C66
:101B000000ED060D00E0060C00D4060C00C8060C23
:101B100000BC060C00B0060C00A4060B0099060CD5
:101B2000008D060B0082060B0077060B006C060B7F
:101B30000061060A0057060B004C060A0042060A1E
:101B40000038060A002E060A0024060A001A060AB1
:101B5000001006090007060A00FD050900F4050942
:101B600000EB050900E2050900D9050900D00509C7
:101B700000C7050900BE050900B5050800AD050848
:101B800000A50509009C050800940508008C0508BF
:101B900000840508007C050800740508006C050732
:101BA00000650508005D050700560508004E05079D
:101BB0000047050700400508003805070031050704
:101BC000002A050700230507001C05060016050767
:101BD000000F0507000805060002050700FB0406C4
:101BE00000F5040700EE040600E8040600E204071E
:101BF00000DB040600D5040600CF040600C9040675
:101C000000C3040600BD040600B7040600B10405C5
:101C100000AC040600A6040600A00405009B040610
:101C20000095040500900406008A0405008504055B
:101C300000800406007A04050075040500700405A0
:101C4000006B04050066040500610405005C0405E2
:101C50000057040500520405004D04050048040522
:101C600000430405003E0404003A04050035040561
:101C700000300404002C040500270404002304059C
:101C8000001E0404001A04040016040500110404D4
:101C9000000D040400090405000404040000040409
:101CA00000FC030400F8030400F4030400F0030440
:101CB00000EC030400E8030400E4030400E0030470
:101CC00000DC030400D8030400D4030400D00304A0
:101CD00000CC030400C8030300C503030024F4047C
:101CE000D9201BC40C5C0E9804C4095F02650771FF
:101CF00001F405F900FB04B30048048700C103693F
:101D0000005803550003034500BE023A0084023127
:101D10000053022A002902250004022000E4011CCD
:101D200000C8011900AF01170098011400840113C5
:101D300000710110006101100051010E0043010DFE
:101D40000036010B002B010B0020010B00150109CF
:101D5000000C01090003010800FB000800F3000863
:101D600000EB000700E4000600DE000600D80006D5
:101D700000D2000600CC000500C7000500C2000527
:101D800000BD000400B9000400B5000400B1000467
:101D900000AD000400A9000400A5000300A2000398
:101DA000009F0004009B00030098000300950002C0
:101DB0000093000300900003008D0002008B0003DD
:101DC00000880002008600020084000300810002F7
:101DD000007F0002007D0002007B0002007900020B
:101DE000007700010076000200740002007200011A
:101DF00000710002006F0002006D0001006C000223
:101E0000006A00010069000200670001006600012D
:101E10000065000100640002006200010061000131
:101E200000600001005F0002005D0001005C000135
:101E3000005B0001005A0001005900010058000138
:101E40000057000100560001005500010054000138
:101E50000053000000530001005200010051000136
:101E600000500001004F0001004E0000004E000134
:101E7000004D0001004C0001004B0000004B000130
:101E8000004A00010049000100480000004800012C
:101E90000047000100460000004600010045000028
:101EA0000045000100440001004300000043000120
:101EB000004200000042000100410000004100011A
:101EC00000400001003F0000003F0001003E000014
:101ED000003E0001003D0000003D0001003C00000C
:101EE000003C0000003C0001003B0000003B000102
:101EF000003A0000003A00010039000000390001FA
:101F000000380000003800000038000100370000F1
:101F100000370001003600000036000000360001E6
:101F200000350000003500000035000100340000DD
:101F300000340000003400010033000000330000D2
:101F400000330001003200000032000000320001C6
:101F500000310000003100000031000100300000BD
:101F60000030000000300001002F0000002F0000B2
:101F7000002F0000002F0001002E0000002E0000A6
:101F8000002E0001002D0000002D0000002D00009B
:101F9000002D0001002C0000002C0000002C00008F
:101FA000002C0001002B0000002B0000002B000083
:101FB000002B0001002A0000002A0000002A000077
:101FC000002A00010029000000290000002900006B
:101FD000002900000029000100280000002800005E
:101FE0000028000000280000002800010027000051
:101FF0000027000000270000002700000027000144
:102000000026000000260000002600000026000038
:10201000002600010025000000250000002500002A
:10202000002500000025000000250001002400001C
:10203000002400000024000000240000002400010F
:102040000023000000230000002300000023000004
:1020500000230000002300000023000100220000F4
:1020600000220000002200000022000000220000E8
:1020700000220001002100000021000000210000DA
:1020800000210000002100000021000000210001CB
:1020900000200000002000000020000000200000C0
:1020A00000200000002000000020000000200001AF
:1020B000001F0000001F0000001F0000001F0000A4
:1020C000001F0000001F0000001F0001001E000094
:1020D000001E0000001E0000001E0000003930003D
:1020E000003325000087190000B00F0000DB080056
:1020F00000BD040000740200003F0100006265643E
:102100000A002C2073797374656D2073746F70707E
:10211000656421204865617465725F49443A200016
:102120004265642068656174696E67206661696CE8
:1021300065640048656174696E67206661696C65F5
:10214000640045312048656174696E672066616985
:102150006C65640048656174696E67206661696CCE
:1021600065640070012C0190012701B0012201C0BB
:10217000011D01F00118011002130130020E01606F
:1021800002090190020401C002FF000003FA0040AE
:1021900003F5008003F000D003EB002004E600709C
:1021A00004E100E004DC004005D700C005D2004097
:1021B00006CD00D006C8008007C3003008BE00F07E
:1021C00008B900C009B400B00AAF00B00BAA00D033
:1021D0000CA500000EA000500F9B00C010960050F0
:1021E00012910000148C00C0158700B0178200B057
:1021F000197D00D01B7800001E730040206E0090F7
:10220000226900F024640040275F0090295A00E012
:102210002B5500102E500020304B0010324600E0AD
:1022200033410090353C001037370070383200A041
:10223000392D00B03A2800A03B2300603C1E00105E
:102240003D1900903D1400103E0F00703E0A00C082
:102250003E0500003F0000403FFBFF803FF6FFC00F
:102260003FF1FF4531204572723A204D41585445A7
:102270004D50004572723A204D415854454D502002
:10228000424544004D415854454D50207472696791
:102290006765726564004531204572723A204D4988
:1022A0004E54454D50004572723A204D494E5445AA
:1022B0004D5020424544004D494E54454D502074E8
:1022C0007269676765726564004D3834205820591B
:1022D000205A204500202800202F002042403A00AC
:1022E00020403A0025753A25303275002530327588
:1022F0003A253032750025756420253032753A252F
:1023000030327500202020202020005A0059002063
:1023100020202000580009200000000000000000DC
:1023200000000000003FFFF000000000000000007F
:1023300000000000380070000000000000000000F5
:1023400000000030FC300000000000000000000031
:10235000000020FC10000000000000000000000051
:1023600000207810000000000000000000000000C5
:102370002030100000000000000000000000002CD1
:1023800000D03FC0000000000000002082002E317D
:10239000D07FE0000000000000001041002F7BD043
:1023A0007FE0000000000000001041002F7BD07F84
:1023B000E0000000000000002082002E31D03FC06D
:1023C000000000000000004104002C00D03FC000CD
:1023D0000000000000008208002030107FE00000B4
:1023E00000000000008208002078107FE00000005C
:1023F0000000000041040020FC107FE0000000000D
:1024000000000020820030FC301F8000000000002F
:1024100000000000003800700F0000000000000005
:1024200000FFFFC03FFFF0060000000000000000BA
:10243000FFFFC000000000000000000000000000DE
:1024400000003FFFF000000000000000000000005E
:1024500000380070000000000000000000000000D4
:102460003186300000000000000000000000002362
:102470008710000000000000000000000000278717
:10248000900000000000000000000000002F87D036
:102490000000000000000000000000002F03D03FFB
:1024A000C0000000000000002082002030107FE00B
:1024B000000000000000001041002078107FE000C4
:1024C0000000000000001041002078107FE00000B4
:1024D00000000000002082002030103FC0000000FB
:1024E000000000004104002F03D03FC000000000A6
:1024F0000000008208002F87D07FE000000000006D
:1025000000008208002787907FE0000000000000A4
:10251000004104002387107FE0000000000000005D
:102520002082003186301F80000000000000000083
:1025300000003800700F0000000000000000FFFFE6
:10254000C03FFFF0060000000000000000FFFFC0D9
:102550000000004A474D616B6572204D61676963F9
:102560002052656164792E005072696E74696E67DD
:102570002E2E2E005072696E742070617573656422
:10258000004D3130362050256920532569004D31EA
:10259000303920532569004D3139302053256900E9
:1025A0004D3432302053300A4732382052302058D0
:1025B00020590053746F70207072696E74005265F8
:1025C00073756D65207072696E7400506F776572F7
:1025D0002D4C6F7373205265636F76657279004D71
:1025E000313235004D3234005072696E74206162B0
:1025F0006F72746564004E6F20534420636172648F
:10260000005072696E742066726F6D2053440053DF
:10261000746F70207072696E7400526573756D65A9
:10262000207072696E740041626F75742050726917
:102630006E746572005061757365207072696E7496
:1026400000436F6E74726F6C0050726570617265DA
:102650000054756E6500496E666F20736372656520
:102660006E004261627973746570205A004368613C
:102670006E67652066696C616D656E7400426162AB
:102680007973746570205A00466C6F7700466C6FE2
:10269000770046616E2073706565640046616E2048
:1026A00073706565640042656400426564004E6F46
:1026B0007A7A6C65004E6F7A7A6C65004661646563
:1026C00020486569676874004661646520486569EB
:1026D00067687400426564205A00426564205A00AD
:1026E0005370656564005370656564004D61696E83
:1026F000005072656865617420504C4120456E64DD
:10270000005072656865617420504C4120426564D8
:10271000005072656865617420504C4100507265CC
:102720007061726500507265686561742041425342
:1027300020456E64005072656865617420414253A3
:10274000204265640050726568656174204142539F
:102750000050726570617265004261636B004E6586
:10276000787420506F696E74004C6576656C696E84
:102770006720446F6E6521004D6F7665205A0047D3
:102780003239205332004E65787420506F696E7470
:10279000002569202F20257500473239205331004C
:1027A00047323920533200436C69636B20746F20C9
:1027B000426567696E00486F6D696E672058595AA7
:1027C000004732380053746F726520736574746902
:1027D0006E6773004C6F61642073657474696E6713
:1027E00073004C6576656C20636F726E6572730062
:1027F00050726F6265205A204F6666736574005090
:10280000726F6265205A204F666673657400426578
:1028100064205A00426564205A004661646520487D
:102820006569676874004661646520486569676822
:1028300074004F6666004F6E2000426564204C6550
:1028400076656C696E67004C6576656C20626564C0
:102850000050726570617265004D343238005072FC
:10286000656865617420504C4100436F6F6C646F04
:10287000776E005072656865617420414253004371
:1028800068616E67652066696C616D656E74004491
:10289000697361626C652073746570706572730032
:1028A0004D38340053657420686F6D65206F66661F
:1028B0007365747300426564204C6576656C696E5F
:1028C00067004175746F20686F6D6500473238008E
:1028D0004D6F76652061786973004D61696E004DBA
:1028E0006F76652058004D6F76652059004D6F76E4
:1028F00065205A004578747275646572004D6F7674
:102900006520302E316D6D004D6F766520316D6D17
:10291000004D6F76652031306D6D004D6F7665200E
:1029200061786973004578747275646572004D6FE3
:102930007665205A004D6F76652059004D6F76659B
:102940002058004578747275646572004D6F766525
:10295000205A004D6F76652059004D6F76652058DE
:10296000005072657061726500496E697469616CCE
:10297000697A6520454550524F4D00436F6E747221
:102980006F6C00526573746F7265206661696C7359
:10299000616665004C6F61642073657474696E676D
:1029A0007300496E697469616C697A6520454550A8
:1029B000524F4D0053746F72652073657474696E65
:1029C00067730046696C616D656E74004D6F746964
:1029D0006F6E0054656D7065726174757265004D3F
:1029E00061696E00507265686561742041425320D0
:1029F000636F6E66005072656865617420504C416B
:102A000020636F6E66005049442D44005049442DA8
:102A100044005049442D49005049442D4900504933
:102A2000442D50005049442D500020082046616339
:102A3000740020082046616374002008204D6178EE
:102A4000002008204D6178002008204D696E00208C
:102A500008204D696E004F6666004F6E200041757C
:102A6000746F74656D700046616E20737065656487
:102A70000046616E207370656564004265640042C3
:102A80006564004E6F7A7A6C65004E6F7A7A6C6579
:102A900000436F6E74726F6C0053746F72652073B5
:102AA000657474696E677300426564004265640012
:102AB0004E6F7A7A6C65004E6F7A7A6C650046616B
:102AC0006E2073706565640046616E207370656585
:102AD000640054656D70657261747572650056545A
:102AE000726176206D696E005654726176206D6950
:102AF0006E00566D696E00566D696E00566D617898
:102B0000204500566D6178204500566D6178205A49
:102B100000566D6178205A00566D61782059005634
:102B20006D6178205900566D6178205800566D61AE
:102B3000782058004D6F74696F6E00416D61782088
:102B40004500416D6178204500416D6178205A0053
:102B5000416D6178205A00416D6178205900416DC6
:102B60006178205900416D6178205800416D61788D
:102B7000205800412D74726176656C00412D74728D
:102B80006176656C00412D726574726163740041F9
:102B90002D7265747261637400416363656C0041FA
:102BA0006363656C004D6F74696F6E0056652D6AC6
:102BB00065726B0056652D6A65726B00567A2D6AD8
:102BC00065726B00567A2D6A65726B0056792D6AB4
:102BD00065726B0056792D6A65726B0056782D6AA6
:102BE00065726B0056782D6A65726B004D6F746963
:102BF0006F6E004573746570732F6D6D004573744F
:102C00006570732F6D6D005A73746570732F6D6DE1
:102C1000005A73746570732F6D6D0059737465700D
:102C2000732F6D6D005973746570732F6D6D00583F
:102C300073746570732F6D6D005873746570732FA6
:102C40006D6D004D6F74696F6E0053746570732FF6
:102C50006D6D004A65726B00416363656C657261FE
:102C600074696F6E0056656C6F6369747900507299
:102C70006F6265205A204F66667365740050726FEC
:102C80006265205A204F666673657400436F6E74E8
:102C9000726F6C004C6F6164206D6D004C6F6164ED
:102CA000206D6D00556E6C6F6164206D6D00556E0A
:102CB0006C6F6164206D6D0046696C2E2044696103
:102CC0002E0046696C2E204469612E004F66660016
:102CD0004F6E20004520696E206D6D3300436F6E8E
:102CE00074726F6C0043616E6E6F7420656E7465F4
:102CF00072207375626469723A2000022E2E004DB4
:102D000061696E0000457874727564656420746F43
:102D100074616C3A2000256C642E25696D00004CAE
:102D20006F6E67657374206A6F622074696D653AAF
:102D3000200000546F74616C207072696E7420748E
:102D4000696D653A2000436F6D706C657465643A17
:102D500020005072696E7420436F756E743A2000C3
:102D60004D61782054656D703A20313235004D69DF
:102D70006E2054656D703A203500544265643A45C2
:102D800050434F53203130304B004D617820546513
:102D90006D703A20323630004D696E2054656D708A
:102DA0003A20350054303A204550434F53203130BB
:102DB000304B005053553A2047656E657269630089
:102DC00050726F746F636F6C3A20312E3000426125
:102DD00075643A203131353230300052414D505314
:102DE00020312E34004D657368204C6576656C6922
:102DF0006E67004578747275646572733A203100AD
:102E000068747470733A2F2F7777772E66616365D5
:102E1000626F6F6B2E636F6D2F67726F7570732F9C
:102E20003638313339323233323237353430372F66
:102E3000004A474D616B6572204D616769630032DE
:102E40003031392D30352D31340076302E32004D71
:102E500061726C696E005072696E74657220537491
:102E600061747300546865726D6973746F72730076
:102E7000426F61726420496E666F005072696E74B1
:102E8000657220496E666F004D61696E004D373086
:102E90003220542564004D363030204230205425F5
:102EA00064004D373032203B2564004D37303120EF
:102EB00054256400556E6C6F61642066696C616DA9
:102EC000656E7400556E6C6F61642066696C616D2F
:102ED000656E74004D373032004D373031004C6F25
:102EE00061642066696C616D656E74004D363030CA
:102EF000204230004368616E67652066696C616DD1
:102F0000656E740050726570617265005052494E72
:102F1000542050415553454400554E4C4F41442098
:102F200046494C414D454E54004C4F414420464982
:102F30004C414D454E54005075726765206D6F725F
:102F40006500436F6E74696E756500524553554D4B
:102F500045204F5054494F4E533A0020204E6F7A2F
:102F60007A6C653A20006368616E6765006F662061
:102F70007468652066696C616D656E74005761697F
:102F80007420666F722073746172740020204E6F1B
:102F90007A7A6C653A2000200066696C616D656E16
:102FA0007420756E6C6F6164005761697420666F80
:102FB000720020204E6F7A7A6C653A200020005013
:102FC0006C6561736520776169742E2E2E004865EB
:102FD0006174696E67206E6F7A7A6C650020204E8E
:102FE0006F7A7A6C653A2000200068656174206E03
:102FF0006F7A7A6C652E00507265737320627574F7
:10300000746F6E20746F0020204E6F7A7A6C653A70
:103010002000746F20636F6E74696E75652E2E2E9E
:1030200000616E6420707265737320627574746FD2
:103030006E00496E736572742066696C616D656EB1
:10304000740020204E6F7A7A6C653A20002000666A
:10305000696C616D656E74206C6F616400576169A5
:103060007420666F720020204E6F7A7A6C653A2069
:1030700000200066696C616D656E74207075726702
:1030800065005761697420666F7200746F20726505
:1030900073756D65005761697420666F7220707278
:1030A000696E7400436172642072656D6F76656449
:1030B000004361726420696E736572746564000018
:1030C000002100240027002A002D003000330001D9
:1030D000010000040107010A010000220025002868
:1030E000002B002E00310034000201000005010811
:1030F000010B01000020002300260029002C002FD6
:103100000032000001000003010601090105050568
:1031100005070508080808020202020A0A0808044E
:10312000040404010101010101010103030303037C
:10313000030303040707070C0C0C0C0C0C0C0C020B
:1031400002020206060606060606060B0B0B0B0B12
:103150000B0B0B010210202008081020401020400B
:10316000800201020108040201010204081020404B
:103170008080402010080402018004020180402069
:103180001008040201080402010102040810204092
:1031900080010204081020408000000A0B02090C84
:1031A0000D0E0807030401000000000000000000ED
:1031B000000000000000000000000000000000000F
:1031C00000000000001211100000000000000000CC
:1031D00000000000000000000000000000000002ED
:1031E00000000000000000000000000000000000DF
:1031F00000000000000000000000000000000000CF
:1032000000000000000000000000000000000000BE
:1032100000000000000000000000000000000000AE
:10322000000000000000000000000000000000009E
:10323000000000000000000000000000000000008E
:10324000000001C00E0000000000000000000000AF
:1032500000003FC1FE000000000000000000000070
:103260000007FFDFFE00000000000000000000007B
:10327000007FFFFFFE0000000000000000000000D3
:103280000FFFFFFFFE000000000000000000000034
:103290000FFFFFFFFE000000000000000000000024
:1032A0000FFFFFFFFE000000000000000000000014
:1032B0000FFFFFFFFE000000000000000000000004
:1032C0000FFFFFF88E00000000000000000000006B
:1032D0000FFFFFC00E000000000000000000000013
:1032E0000FC3FF800E0200400C0180860220000008
:1032F0000FC3FF030E0180700700C0C3FE3FE00054
:103300000FE3FF0F8E03C0700700C183063030004B
:103310000FE3FF1FFE03C0700700C303043030003B
:103320000FE3FE1FFE03C0700D80C60300303000A7
:103330000FE3FE1FFE03C0F00980CC030030300015
:103340000FE3FE1F3E0360980880D8030030300072
:103350000FE3FE1F0E03619818C0FC03F838E0006D
:103360000FE3FE1F0E02219818C0FC03003FC000AF
:103370000FE3FE1F8E0631183FE0C6030030C00089
:103380000FE3FE1F8E0633183060C6030030C00006
:103390000FE3FF0F0E0613186030C3030030600008
:1033A0000FE3FF020E061E186030C383003070006A
:1033B0000FE3FF800E060C18E030C18304303000AC
:1033C0000FE3FFC00E060C0CC018C1C3FE3038005E
:1033D0000FE3FFFFFE040008C0188083FE101000FA
:1033E0000FE3FFFFFE0000000000000000000000EF
:1033F0000FC3FFFFFE0000000000000000000000FF
:103400000FC7FFFFFE0000000000000000000000EA
:103410000FCFFFFFFE0000000000000000000000D2
:103420000FFFFFFFFE000000000000000000000092
:103430000FFFFFFFFE000000000000000000000082
:103440000FFFFFFFFC000000000000000000000074
:103450000FFFFFFFC00000000000000000000000A0
:103460000FFF3FF800003E0F80F001F01C03C0008A
:103470000FE03F0000003E0F80F007FC1C0FF00043
:103480000E00300000003E0F81F80F1E1C1E380099
:103490000000000000003B1B81981C081C1C1C0045
:1034A0000000000000003B1B81981C001C3800003D
:1034B0000000000000003B1B839C1C001C38000027
:1034C0000000000000003913831C1C3F1C38000062
:1034D00000000000000039B3830E1C3F1C380000C0
:1034E00000000000000039B3870E1C071C380000E4
:1034F00000000000000039F387FE1C071C3C1C0084
:1035000000000000000038E38FFF0E061C1C1C00AA
:1035100000000000000038E38E070FFE1C0FF800CB
:1035200000000000000038E38E0707F81C07F000D9
:10353000000000000000000000000000000000008B
:10354000000000000000000000000000000000007B
:10355000000000000000000000000000000000006B
:10356000000000000000000000000000000000005B
:10377000000000000000000000C000000000000089
:1037800007F07FF8000FFF0001E0000000000000DC
:103790000F783C3E00078F8001E0000060000000D1
:1037A0001C3C1C0F000383C000C00000E0000000B0
:1037B0001C3C1C0F000381C000000000E000000062
:1037C000003C1C07800381CEF9E1FF81E01F0EF071
:1037D00000FC1C07800383DFFFE3FFC3FE7FDFF8ED
:1037E00003F01C03800383C7B8E0F1C0E071C7B8E1
:1037F00000781C0380038F8700E0E1C0E0F1E70060
:10380000003C1C038003FF0700E0E1C0E0FFE7008D
:10381000001E1C078003800700E0E1C0E0E0070015
:10382000381E1C078003800700E0E1C0E0E00700CD
:103830003C1E1C078003800700E0E1C0E0F00700A9
:103840003C3C1C0F0003800700E0E1C0E0F0E70013
:103850001F7C3C7E0007C00F81F1F3E0F67FCF8034
:103860000FF07FFC000FE01FC3FBFFF0FE3F9FC087
:103870000000000000000000000000007C000000CC
:103880000000000000000000000000000000000038
:103890000000000000000000000000000000000028
:1038A0000000000000000000000000000000000018
:1038B0000000000000000000000000000000000008
:1038C00000000000000000000000000000000000F8
:1038D00000000000000000000000000000000000E8
:1038E00000000000000000000000000000000000D8
:1038F00000000000000000000000000000000000C8
:1039000000000000000000000000000000000000B7
:1039100000000000000000000000000000000000A7
:103920000000000000000000000000000000000097
:103930000000000000000000000000000000000087
:103940000000000000000000000000000000000077
:103950000000000000000000000000000000000067
:103960000000000000000000000000000000000057
:103970000000000000000000000000000000000047
:103980000000000000000000000000000000000037
:103990000000000000000000000000000000000027
:1039A0000000000000000000000000000000000017
:1039B0000000000000000000000000000000000007
:1039C00000000000000000000000000000000000F7
:1039D00000000000000000000000000000000000E7
:1039E000494E56414C49442044415441004D3234E3
:1039F0002053256C642054256C64004D32332025FF
:103A000073004730205A2573004732382058302041
:103A10005930004730205A257300473932205A2543
:103A200073204525730070776F666620686F6D653B
:103A30000A000D0A72656164206A6F6252637646FD
:103A4000696C654E616D65204F4B0D0A0A002020A0
:103A5000506C616E6E65724275666665724279740D
:103A600065733A20002046726565204D656D6F7262
:103A7000793A2000436F6D70696C65643A204A752D
:103A80006C20313120323032300A00207C204175E8
:103A900074686F723A20284368726973746F706833
:103AA0006572204E6F72746F6E2C2076302E332923
:103AB0000A00323031392D30352D313400204C613F
:103AC000737420557064617465643A200076302EFA
:103AD000320A004D61726C696E0020536F66747714
:103AE0006172652052657365740A002057617463C2
:103AF00068646F672052657365740A002042726FB4
:103B0000776E206F75742052657365740A002045C6
:103B1000787465726E616C2052657365740A00502A
:103B20006F77657255700A0073746172740A006170
:103B300075746F25692E67006572726F72207772D7
:103B40006974696E6720746F2066696C650A000D80
:103B50000A0A000D0A204463757272656E745F7004
:103B60006F736974696F6E20000D0A20536375725C
:103B700072656E745F706F736974696F6E20004553
:103B80006E6473746F707320256320256320256332
:103B900020256300205A3A0020593A0020583A0064
:103BA000656E6473746F7073206869743A200044A2
:103BB0006F6E6520736176696E672066696C652E2D
:103BC0000A004D3239004368616E67652066696C92
:103BD000616D656E7400556E6C6F61642066696C12
:103BE000616D656E74004C6F61642066696C616D17
:103BF000656E7400507265686561742041425300BF
:103C00005072656865617420504C41004368616E74
:103C100067652066696C616D656E74004D323400B5
:103C20004D323320257300556E6B6E6F776E2063B7
:103C30006F6D6D616E643A202200496E7365727417
:103C40002066696C616D656E7420616E64207072AF
:103C500065737320627574746F6E20286F72204DC7
:103C6000313038290A0050726F62696E67206661D0
:103C7000696C65640A0050726F62696E67206661E4
:103C8000696C656400205A3A200020593A200042AD
:103C9000656420583A2000486F6D652025732573B0
:103CA0002573206669727374002066697273740AE2
:103CB000005A0059005800486F6D65200053442099
:103CC00063617264206F6B0A006F70656E526F6F74
:103CD00074206661696C65640A00766F6C756D6549
:103CE0002E696E6974206661696C65640A005344CC
:103CF00020696E6974206661696C0A005772697484
:103D0000696E6720746F2066696C653A20006F7079
:103D1000656E206661696C65642C2046696C653A45
:103D200020006F70656E206661696C65642C2046AA
:103D3000696C653A200046696C652073656C656343
:103D40007465640A002053697A653A200046696CFC
:103D500065206F70656E65643A20002066696C6549
:103D60003A2000646F696E67006672657368004E82
:103D70006F772000454E4420535542524F555449C9
:103D80004E450A002220706F730022207061726518
:103D90006E743A2200535542524F5554494E4520B5
:103DA00043414C4C207461726765743A22004B4960
:103DB0004C4C45442E2000747279696E6720746FF4
:103DC0002063616C6C207375622D67636F6465207E
:103DD00066696C6573207769746820746F6F206DF5
:103DE000616E79206C6576656C732E204D4158208C
:103DF0006C6576656C2069733A0043616E6E6F7412
:103E0000206F70656E20737562646972200065634F
:103E1000686F3A0057726974696E6720746F206624
:103E2000696C653A20006F70656E206661696C652B
:103E3000642C2046696C653A200044656C657469A1
:103E40006F6E206661696C65642C2046696C653A0A
:103E5000200046696C652064656C657465643A0091
:103E60006F70656E206661696C65642C2046696CB4
:103E7000653A20004572726F723A0045312054480D
:103E800045524D414C2052554E41574159004245F3
:103E90004420544845524D414C2052554E415741C3
:103EA0005900546865726D616C2052756E6177615E
:103EB000790000060900FE0701920321207FFF0719
:103EC000FF07FF0000000600000107070602008050
:103ED000808080800080030202060105A0A0050703
:103EE000070600005050F850F8505005070706002C
:103EF000002078A07028F020050707060000C0C841
:103F000010204098180507070600006090A040A800
:103F10009068020303060104C040800307070601FE
:103F20000020408080804020030707060100804079
:103F3000202020408005050506000120A870A8204B
:103F40000505050600012020F820200203030602D3
:103F5000FFC04080050101060003F80202020602CC
:103F600000C0C005050506000108102040800507B7
:103F70000706000070888888888870030707060194
:103F80000040C040404040E0050707060000708840
:103F900008708080F8050707060000F81020100858
:103FA00008F005070706000010305090F8101005C3
:103FB0000707060000F880F0080888700507070664
:103FC0000000708080F0888870050707060000F800
:103FD0000810202020200507070600007088887040
:103FE00088887005070706000070888878080870C0
:103FF000020505060200C0C000C0C0020606060297
:10400000FFC0C000C0408004070706000010204029
:1040100080402010050303060002F800F80407079B
:1040200006010080402010204080050707060000A0
:104030007088081020002005070706000070880817
:1040400068A8A870050707060000708888F88888A7
:1040500088050707060000F08888F08888F00507C3
:1040600007060000708880808088700507070600BA
:1040700000F08888888888F0050707060000F88027
:1040800080F08080F8050707060000F88080F08047
:104090008080050707060000708880B88888700552
:1040A0000707060000888888F888888801070706BF
:1040B000020080808080808080050707060000382D
:1040C0001010101090600507070600008890A0C02F
:1040D000A09088050707060000808080808080F817
:1040E00005070706000088D8A8888888880507077C
:1040F0000600008888C8A898888805070706000079
:1041000070888888888870050707060000F088880E
:10411000F080808005070706000070888888A890D6
:1041200068050707060000F08888F0A0908805075A
:1041300007060000788080700808F0050707060071
:1041400000F820202020202005070706000088888E
:10415000888888887005070706000088888888880E
:1041600050200507070600008888888888A8500521
:104170000707060000888850205088880507070632
:10418000000088888850202020050707060000F8D6
:104190000810204080F8030707060100E0808080B7
:1041A0008080E00505050600018040201008030717
:1041B00007060100E02020202020E0050303060080
:1041C00004205088050101060000F80202020602E0
:1041D0000580400505050600007008788878050709
:1041E000070600008080B0C88888F0050505060035
:1041F000007080808870050707060000080868982E
:104200008888780505050600007088F88070050725
:10421000070600003048E040404040050606060022
:10422000FF7088887808700507070600008080B056
:10423000C888888801070706020080008080808087
:10424000800308080601FF200020202020A0400451
:104250000707060000808090A0C0A0900307070613
:104260000100C04040404040E0050505060000D088
:10427000A8A8A8A8050505060000B0C88888880574
:10428000050506000070888888700506060600FF90
:10429000F08888F080800506060600FF7888887818
:1042A0000808050505060000B0C8808080050505E2
:1042B00006000070807008F0040707060000404008
:1042C000E040404030050505060000888888986871
:1042D00005050506000088888850200505050600AC
:1042E000008888A8A85005050506000088502050C1
:1042F000880506060600FF88888878087005050589
:10430000060000F8102040F80307070601002040CF
:1043100040804040200107070602008080808080A6
:104320008080030707060100804040204040800550
:104330000202060002689000000006000000060964
:1043400000FE000000000001090008FE0000050852
:104350000806000040F0C88888987810050808060C
:104360000000C0F88888888888F8050505060001DF
:104370002030F830200508080600002070F82020C2
:104380002020E00509090600FF2070A8A8B8888849
:1043900070200509090600FFE080C0B0A828302879
:1043A000280509090600FFF8A88888888888A8F8E1
:1043B000050A0A0600FE205050505088A8A88870B0
:1043C00003030306000340A04000B200BE00112416
:1043D0001FBECFEFD1E2DEBFCDBF00E00CBF13E0C8
:1043E000A0E0B2E0E0E9F0E802E00BBF02C0079015
:1043F0000D92A835B107D9F72DE1A8E5B3E001C0CA
:104400001D92AE36B207E1F711E2C6EED1E200E04E
:1044100006C021970109802FFE010F94A93FC53ED8
:10442000D10780E00807A9F70F9470290D94374051
:104430000C940000CF93DF9390916F00292F22708E
:1044400091FF05C090916F009D7F90936F0094E065
:10445000899FA0011124FA01EF50FC4E6081718107
:1044600082819381222329F020916F002260209382
:104470006F00EA01C05BD44F0F94F5352881398174
:104480004A815B810F945436DF91CF910895CF928A
:10449000DF92EF92FF928091E00B882309F457C0DE
:1044A000C090DC0BD090DD0BE090DE0BF090DF0BCA
:1044B00020E030E0A901C701B6010F94EF35882351
:1044C00009F445C020E030E040E05FE3C701B601F9
:1044D0000F9454369B01AC010F9454362BED3FE002
:1044E00049E450E40F9454369B01AC0160E070E065
:1044F00080E89FE30F94843D6B017C01C092660BC2
:10450000D092670BE092680BF092690B60911C02ED
:1045100070911D02072E000C880B990B0F94F53536
:104520002AE037ED43E25CE30F945436A70196018D
:104530000F945436609318027093190280931A02F4
:1045400090931B02FF90EF90DF90CF900895C12CC5
:10455000D12C80E8E82E8FE3F82ED0CF2F923F9217
:104560004F925F926F927F928F929F92AF92BF9283
:10457000CF92DF92EF92FF920F931F93CF93DF932F
:10458000CDB7DEB762970FB6F894DEBF0FBECDBFD2
:10459000588B4F87DC018D909D90AD90BC90DB01D6
:1045A0008D919D910D90BC91A02D8B839C83AD83AB
:1045B000BE8320E030E040E251E4C501B4010F9435
:1045C000A73C21EC3FE04CE75CE30F9454360F949A
:1045D000EC3D63300CF41AC162E0E62E660FFF0872
:1045E000F7013196F887EF8320E030E040E251E4B4
:1045F0006B817C818D819E810F94A73C21E238E004
:1046000042E85CE30F9454360F94EC3D63300CF4B5
:1046100001C162E0062F660F110BC701880F991FB9
:10462000880F991F9A838983FC01E550F74E4080DB
:10463000518062807380FC01E00FF11FEE0FFF1FBD
:10464000EE0FFF1FEB50FB4FC080D180E280F38064
:10465000AF81B885AA0FBB1FAA0FBB1FBA8BA98B4E
:10466000FD01E550F74EA3019201608171818281C5
:1046700093810F94A73C6F83788789879A87A301DA
:104680009201C501B4010F94A73C6B877C878D878D
:104690009E87E989FA89E00FF11FEE0FFF1FEE0FE9
:1046A000FF1FEB50FB4FA701960160817181828152
:1046B00093810F94A73C2F81388549855A850F94A3
:1046C000843D2B853C854D855E850F945436A7012E
:1046D00096010F94A83C6B017C011801BFEF2B1AC7
:1046E0003B0AE981FA81E20DF31DEE0FFF1FEE0F89
:1046F000FF1FEB50FB4F4080518062807380000FA2
:10470000111F000F111FF801E551F74E80809180B5
:10471000A280B380E989FA89E20DF31DEE0FFF1F35
:10472000EE0FFF1FEB50FB4FA301920160817181DF
:10473000828193810F94A73C2F81388549855A85C2
:104740000F94843D2B853C854D855E850F945436B2
:10475000A30192010F94A83CA70196010F94A73CD6
:104760002B013C01F101EE0FFF1FEE0FFF1FE55182
:10477000F74EA501940160817181828193810F942C
:10478000A73C9B01AC01C301B2010F94843D2B01F6
:104790003C01A50194016B817C818D819E810F94E8
:1047A000A73C9B01AC01C301B2010F945436A70191
:1047B00096010F94A83CAF85B8892D913D914D91FC
:1047C0005C910F94543620916B0B30916C0B40919F
:1047D0006D0B50916E0B0F94A83C62960FB6F89437
:1047E000DEBF0FBECDBFDF91CF911F910F91FF9024
:1047F000EF90DF90CF90BF90AF909F908F907F9081
:104800006F905F904F903F902F90089567FFE5CE97
:1048100060E0E3CE67FFFECE60E0FCCE8F929F9219
:10482000AF92BF92CF92DF92EF92FF92CF93DF933E
:10483000EC018090470B9090480BA090490BB090F2
:104840004A0B20E030E0A901C501B4010F94EF3517
:10485000882309F452C0C880D980EA80FB80A70170
:104860009601C501B4010F94EF3518160CF04AC03B
:104870002091F1043091F2044091F3045091F4043A
:10488000C701B6010F94EF35882321F1C092F104DE
:10489000D092F204E092F304F092F4042091ED043B
:1048A0003091EE044091EF045091F004C701B6013D
:1048B0000F9454369B01AC0160E070E080E89FE308
:1048C0000F94A73C6093070270930802809309023B
:1048D00090930A0260910702709108028091090288
:1048E00090910A02DF91CF91FF90EF90DF90CF90EF
:1048F000BF90AF909F908F90089560E070E080E847
:104900009FE3F0CF60E070E0CB01ECCFCF92DF927D
:10491000EF92FF92CF93DF93EC01C0906F0BD0909A
:10492000700BE090710BF090720BA70196016881FB
:1049300079818A819B810F94EF3587FF04C0C882FB
:10494000D982EA82FB82C090730BD090740BE09006
:10495000750BF090760BA70196016C817D818E819D
:104960009F810F94EF3587FF04C0CC82DD82EE82F9
:10497000FF82C0902002D0902102E0902202F090AD
:104980002302A7019601688179818A819B810F9416
:10499000CF3E181624F4C882D982EA82FB82C090E6
:1049A0002402D0902502E0902602F0902702A70171
:1049B00096016C817D818E819F810F94CF3E181668
:1049C00024F4CC82DD82EE82FF82C090770BD090FF
:1049D000780BE090790BF0907A0BA701960168852F
:1049E00079858A859B850F94EF3587FF04C0C8863B
:1049F000D986EA86FB86C0902802D0902902E090F2
:104A00002A02F0902B02A7019601688579858A8594
:104A10009B850F94CF3E181624F4C886D986EA8663
:104A2000FB86DF91CF91FF90EF90DF90CF900895BC
:104A30005F9A8091CF138E7F8093CF138A9A809153
:104A4000CF138D7F8093CF13809108018095817063
:104A5000809306018091CF138B7F8093CF13129A9E
:104A600008958091820390918303A0918403B09173
:104A700085038093550290935602A0935702B093FA
:104A80005802809180039091810390931F0280933C
:104A90001E0208958091550290915602A0915702EE
:104AA000B09158028093820390938303A093840370
:104AB000B093850380911E0290911F029093810311
:104AC0008093800384E690E090931F0280931E02FF
:104AD00008950F931F93CF93DF9394E0899FE00194
:104AE00011248E0100531C4EFE01EB52FE4EDE01DE
:104AF000AE58BB4F2D913D914D915C91608171817C
:104B0000828193810F94A83CF80160837183828332
:104B10009383FE01E158FC4F85919591A591B49145
:104B2000FE01E159F44F80839183A283B383FE0198
:104B3000E557FC4F85919591A591B491C05EDD4FED
:104B400088839983AA83BB83DF91CF911F910F91B3
:104B500008959091E511E92FF0E0EF51FE4E80832A
:104B60009F5F943040F49093E511809169138F5FBB
:104B70008093691308951092E511F7CF089590E09E
:104B800080E0089580E1E0EEF3E1A9E9B3E101906E
:104B90000D928A95E1F7089580E1E9E9F3E1A0EE4D
:104BA000B3E101900D928A95E1F708958091350463
:104BB000909136042FEF3FEF981751F0E92FF0E076
:104BC000EB54FC4F208130E09F5F9F779093360439
:104BD000C90108952F923F924F925F926F927F92F8
:104BE0008F929F92AF92BF92CF92DF92EF92FF92FD
:104BF0000F931F93CF93DF93CDB7DEB76C970FB6AC
:104C0000F894DEBF0FBECDBF8C015B015A83498390
:104C1000FC01E95BFF4F2081318142815381298B67
:104C20003A8B4B8B5C8BCA01B9010F94F3356B0146
:104C30007C01D5012D913D914D915C910F9454369D
:104C40000F946E3D0F94F13D4B015C01E981FA81B7
:104C50002081318142815381C701B6010F945436BE
:104C60000F946E3D0F94F13D89869A86AB86BC8683
:104C700029853A854B855C852837310541055105E5
:104C800040F428E730E040E050E029873A874B873E
:104C90005C876D837E838F8398874D815E816F8172
:104CA0007885483751056105710540F468E770E083
:104CB00080E090E06D837E838F839887F801ED5AC2
:104CC000FF4F4080518062807380C301B2010F9416
:104CD000F53569837A838B839C8369857A858B8597
:104CE0009C850F94F3356D8B7E8B8F8B988F20E096
:104CF00030E0A90169817A818B819C810F94EF3525
:104D0000882309F4E1C1A7019601C701B6010F94F8
:104D100054364B015C012D893E894F89588DCA015B
:104D2000B9010F9454369B01AC01C501B4010F9435
:104D3000A73C4B015C0129813A814B815C81CA010E
:104D4000B9010F94A83C9B01AC01C501B4010F94BB
:104D5000843D0F946E3D0F94F13D6D877E878F8764
:104D6000988B66277727CB016419750986099709FF
:104D70000F94F5354B015C016D817E818F819885A3
:104D80000F94F3352B013C0120E030E0A901C5016F
:104D9000B4010F94EF35882309F49AC1A30192015D
:104DA000C301B2010F945436698F7A8F8B8F9C8F19
:104DB000A7019601C701B6010F9454369B01AC01BF
:104DC000698D7A8D8B8D9C8D0F94A73C6B017C0136
:104DD000A5019401C501B4010F94A83C9B01AC014D
:104DE000C701B6010F94843D0F941D3ED8019596DE
:104DF0008D909D90AD90BC909897750164012D8524
:104E00003E854F855889C21AD30AE40AF50A0F94E1
:104E1000F13DC61AD70AE80AF90AF7FE8EC02D89B5
:104E20003E894F89588DCA01B9010F9454366B01E0
:104E30007C0129813A814B815C81CA01B9010F94BF
:104E4000A83C698B7A8B8B8B9C8B20E030E0A9018E
:104E500069817A818B819C810F94EF35882309F4D5
:104E60003BC1C501B4010F94F33529893A894B89B7
:104E70005C890F945436A70196010F94A73C6D8767
:104E80007E878F87988BA3019201C301B2010F9493
:104E900054369B01AC016D857E858F8598890F9472
:104EA000A83C2B013C0120E030E040E850E469815F
:104EB0007A818B819C810F9454369B01AC01C30194
:104EC000B2010F94843D0F946E3D2B013C0120E014
:104ED00030E0A9010F94CF3E18161CF0412C512C44
:104EE0003201C301B2010F94F13D6D877E878F8738
:104EF000988B86169706A806B90620F48D869E869E
:104F0000AF86B88A6D857E858F8598890F94F33535
:104F100029893A894B895C890F945436A7019601F7
:104F20000F94A83C0F94153F0F94F13D698B7A8B39
:104F30008B8B9C8BC12CD12C760169897A898B89CA
:104F40009C8929853A854B855C85621B730B840B94
:104F5000950B0F94F33529813A814B815C810F9435
:104F6000843D20E034E244EF59E40F9454360F942A
:104F7000F13D4B015C0169897A898B899C892D817E
:104F80003E814F815885621B730B840B950B0F94E8
:104F9000F33529813A814B815C810F94843D20E077
:104FA00034E244EF59E40F9454360F94F13D2B0151
:104FB0003C013FE683169104A104B10408F090C0BF
:104FC000F401EE0FFF1FEE0FFF1FE951FA4E85911E
:104FD0009591A591B4918983292E3A2EBD8B4FE6E8
:104FE000441651046104710408F083C0F201EE0F0D
:104FF000FF1FEE0FFF1FE951FA4E45915591659144
:1050000074919A01CB014D855E856F857889D801B1
:105010009A964D935D936D937C939D974C0D5D1D7A
:105020006E1D7F1DF80146A757A760AB71ABE55B0E
:10503000FF4F49855A856B857C8540835183628308
:105040007383D6968D929D92AD92BC92D997F801BA
:1050500042AE53AE64AE75AEFE9649814083218266
:1050600032825D8953833496208331838283938394
:1050700069897A898B899C89D2966D937D938D936A
:105080009C93D5973D962D813E814F8158852083F5
:105090003183428353836C960FB6F894DEBF0FBE04
:1050A000CDBFDF91CF911F910F91FF90EF90DF90D7
:1050B000CF90BF90AF909F908F907F906F905F90B8
:1050C0004F903F902F90089560E070E0CB0141CE6B
:1050D00060E070E0CB0188CE60E070E0CB01F3CE01
:1050E000C501B4010E949DED6983272E382E9D8B4A
:1050F00076CFC301B2010E949DED9B0184CF8F92B8
:105100009F92AF92BF92CF92DF92EF92FF920F9356
:10511000CF93DF931F92CDB7DEB76C017B014901BE
:105120008091E6045B01A40EB51E8823A1F0F60170
:1051300080819181480F591F518340830F90DF91E7
:10514000CF910F91FF90EF90DF90CF90BF90AF90F5
:105150009F908F900895F601808191810F94043C77
:1051600089839091E704992311F0002311F0F7014E
:105170008083BE016F5F7F4FC4010F941B02F60155
:1051800080819181019691838083FFEFEF1AFF0A5E
:10519000EA14FB0401F7D2CF809165039091660376
:1051A000009731F04AE050E070E060E00D94023387
:1051B00060E070E0CB010895EFDF97FD0AC0ECDFFF
:1051C0006F3F71058105910509F02CF4E5DF862F0D
:1051D000089580E008958FEF089580916503909180
:1051E0006603892B39F0E8DF91E0811101C090E07E
:1051F000892F089591E0FCCFCF932091691324303B
:1052000088F4C62FBC019091E51120E6929FC00161
:10521000112488519E4E0F9408408C2F9ADC81E017
:10522000CF91089580E0FCCF2F923F924F925F92F2
:105230006F927F928F929F92AF92BF92CF92DF92A6
:10524000EF92FF920F931F93CF93DF9300D000D084
:10525000CDB7DEB79A8389830F94E407A981BA8119
:105260001696CD90DD90ED90FC901997C114D10465
:10527000E104F10409F010C31C962C911C97222321
:1052800009F44DC01A96EC911A9721501C962C9354
:105290001C9721E02E0F1A962C931A971D963C917D
:1052A0001D97231302C01A961C92F0E03196EE0F60
:1052B000FF1FEE0FFF1F29813A81E20FF31FC28407
:1052C000D384E484F584D9011296CD92DD92ED92D7
:1052D000FC9215976C0D7D1D811D911DF901668352
:1052E00077838087918784819581892BC1F0FFB76F
:1052F000FD83F894A981BA8112962D903C90139762
:105300002101712C612C14960D911C918091430206
:105310008532F1F08F3F09F497C0FD81FFBF2696DB
:105320000FB6F894DEBF0FBECDBFDF91CF911F91B6
:105330000F91FF90EF90DF90CF90BF90AF909F9034
:105340008F907F906F905F904F903F902F90089537
:10535000EFEDF1E3B491BE83B7FDDFCF61E085E20D
:105360000F942D069E81992321F0AE81A23009F081
:10537000BEC14801B12CA12C60E072E18AE790E047
:10538000A50198010F946C3C29833A834B835C837D
:1053900069017A01B1E0CB1AD108E108F108EFEF19
:1053A000CE16D104E104F10409F00CF470C160E4FC
:1053B00072E48FE090E0A50198010F946C3C6901C4
:1053C0007A01F1E0CF1AD108E108F1082E812230EC
:1053D00009F011C182E03FEFC316D104E104F104EA
:1053E00009F00CF4B8C260E970ED83E090E0A5012B
:1053F00098010F946C3C69017A0181E0C81AD108C8
:10540000E108F10883E09FEFC916D104E104F1043B
:1054100009F00CF4A0C268E478EE81E090E0A50108
:1054200098010F946C3C69017A0181E0C81AD10897
:10543000E108F1089FEFC916D104E104F10411F06D
:105440000CF0FDC084E087C285E280934302EFED5B
:10545000F1E324912E83822F2F3F09F45ECF223077
:1054600009F469C060F4222381F1213009F445C0B8
:1054700087FD53CF61E085E20F942D0676CF3E8104
:10548000343009F49AC008F478C0353089F71092A6
:1054900020011092210180912101886080932101D7
:1054A00080912101816080932101E2E3F1E3E491A5
:1054B000F0E0EE0FFF1FE752FF4C85919491E8E773
:1054C000F1E3E491E093670349CF14BC15BC84B5C4
:1054D000826084BD85B5816085BDE2E3F1E3E4913E
:1054E000F0E0EE0FFF1FE752FF4C85919491E8E743
:1054F000F1E3E491E0936B0331CF109280001092BE
:10550000810080918100886080938100809181007A
:10551000816080938100E2E3F1E3E491F0E0EE0F3B
:10552000FF1FE752FF4C85919491E8E7F1E3E49186
:10553000E0936A0313CF1092B0001092B1008091F3
:10554000B00082608093B0008091B1008160809350
:10555000B100E2E3F1E3E491F0E0EE0FFF1FE75268
:10556000FF4C859194919093D40C8093D30CE8E7F1
:10557000F1E3E491E093D50CF1CE109290001092FB
:1055800091008091910088608093910080919100BA
:10559000816080939100E2E3F1E3E491F0E0EE0FAB
:1055A000FF1FE752FF4C85919491E8E7F1E3E49106
:1055B000E093690383E08E83D1CE1092A000109215
:1055C000A1008091A10088608093A1008091A1003A
:1055D00081608093A100E2E3F1E3E491F0E0EE0F5B
:1055E000FF1FE752FF4C85919491E8E7F1E3E491C6
:1055F000E0936803B3CEAFEFCA16D104E104F1041F
:1056000009F00CF472C068E478EE81E090E0A50146
:1056100098010F946C3C69017A01B1E0CB1AD10872
:10562000E108F108EE81EE2309F461C1EFEFCE1637
:10563000D104E104F10411F00CF062C103CF64E283
:1056400074EF80E090E0A50194010F946C3C690137
:105650007A01F1E0CF1AD108E108F10885E02FEFD7
:10566000C216D104E104F10409F008F474C162E146
:105670007AE780E090E0A50194010F946C3C690109
:105680007A01A1E0CA1AD108E108F1084BC181E012
:10569000AE81A11160C195B5987F892B85BD2FEF93
:1056A0003FEFA90145284628472809F059C0BE8187
:1056B000B23009F4E1C00CF0C8C0BB2309F4CDC07E
:1056C000B13009F02ACED0928900C0928800209390
:1056D00078033093790340937A0350937B0380914E
:1056E0006F00826080936F0018CE82E0D1CFB12C22
:1056F000A12C60E072E18AE790E0A50198010F9487
:105700006C3C69017A01B1E0CB1AD108E108F108DB
:1057100091E0C114D104E1E0EE06F10484F068E404
:1057200078EE81E090E0A50198010F946C3C69014E
:105730007A01F1E0CF1AD108E108F10893E02E8157
:105740002130D9F480918100887F892B809381005A
:105750002FEF3FEFA90145284628472809F4B3CF8A
:105760009801220F331FD1010F94983C28EE33E0AB
:1057700040E050E00F944A3C9ACF3E813330F9F438
:1057800080919100887F892B809391002FEF3FEFCC
:10579000A90145284628472819F7D0929900C092B8
:1057A00098002093740330937503409376035093CD
:1057B000770380917100826080937100AECD8E81FD
:1057C0008430F9F48091A100887F892B8093A10017
:1057D0002FEF3FEFA90145284628472809F6D09228
:1057E000A900C092A80020937003309371034093E6
:1057F00072035093730380917200826080937200F1
:105800008CCDAE81A53009F04ACF80912101887FEF
:10581000892B809321012FEF3FEFA90145284628CE
:10582000472809F09DCFD0922901C09228012093EA
:105830006C0330936D0340936E0350936F0380911C
:10584000730082608093730068CDEE81E43039F29A
:105850000CF4A3CFE53039F360CDC7BC20937C03B3
:1058600030937D0340937E0350937F0380916E00BD
:10587000826080936E0051CDC092B3002093D60C0D
:105880003093D70C4093D80C5093D90C8091700072
:1058900082608093700041CD6C197D098E099F094B
:1058A00097FD3DCD4098A981BA8116961D921D9213
:1058B0001D921C92199733CD84E0EFEFCE16D104E0
:1058C000E104F10409F008F4E6CEC980DA80EB8047
:1058D000FC809AE0F594E794D794C7949A95D1F711
:1058E000B1E0CB1AD108E108F10885E0D4CE83E01D
:1058F000BFEFCB16D104E104F10409F00CF4CBCED8
:1059000062E17AE780E090E0A50194010F946C3C9D
:1059100069017A0181E0C81AD108E108F1089E8185
:10592000992351F286E02FEFC216D104E104F1046D
:1059300091F088F0C980DA80EB80FC808AE0F594F1
:10594000E794D794C7948A95D1F7F1E0CF1AD1089C
:10595000E108F10887E09091B100987F892B80934E
:10596000B1009DCE8091650390916603009731F060
:105970004AE050E070E060E00D942F3460E070E0A9
:10598000CB010895CF93DF9390916F00292F227060
:1059900091FF05C090916F009D7F90936F0094E000
:1059A000899FA0011124FA01EE5CF44F608171819E
:1059B00082819381222329F020916F00226020931D
:1059C0006F00EA01C05BD44F0F94F535288139810F
:1059D0004A815B810F945436DF91CF9108950F93E4
:1059E0001F93CF93DF9300D01F92CDB7DEB72091E6
:1059F000E6112223F9F08C0108960E940E24698397
:105A00007A838B839C83B8016C5F7F4FAE014F5FBD
:105A10005F4FC8010E94AE229B01AC01F801608576
:105A20007185828593850F94A73CF8016087718703
:105A3000828793870F900F900F900F90DF91CF91F7
:105A40001F910F910895CF92DF92EF92FF920F93E3
:105A50001F93CF93DF9300D01F92CDB7DEB7209175
:105A6000E6112223F9F08A016B017C01CA010E9430
:105A70000E2469837A838B839C83AE014F5F5F4FD3
:105A8000B601C7010E94AE229B01AC01F801608102
:105A90007181828193810F94A83CF80160837183A6
:105AA000828393830F900F900F900F90DF91CF918F
:105AB0001F910F91FF90EF90DF90CF90089580910C
:105AC0006F00982F927081FF05C080916F008D7FCD
:105AD00080936F001092BE0C1092BF0C1092C00CFD
:105AE0001092C10C992329F080916F0082608093FD
:105AF0006F00089510926B0B10926C0B10926D0B4F
:105B000010926E0BE5EFF4E080E4DF011D928A95C0
:105B1000E9F708958091F30C811105C08091F40C90
:105B2000882309F440C0909103018091EC0491FD19
:105B300036C082608093EC048091EC044B9931C0B4
:105B400084608093EC048091300B81FF10C08091C1
:105B50002B0B81FF0CC08091EC0481FF08C0809169
:105B6000CE1382608093CE1381E00E94DFDF8091AC
:105B7000300B82FF18C080912B0B82FF14C08091E4
:105B8000F40C882381F08091EC0482FF0CC080919A
:105B9000CE1384608093CE1382E00C94DFDF8D7F80
:105BA000C9CF8B7FCECF0895FC0120E03EE2DB0120
:105BB0004D91BD01403249F0283011F430833196C7
:105BC000DB0111974C91408331962F5F2B3079F791
:105BD0001082089561E0FC0180810D9461058EBD05
:105BE0000DB407FEFDCF08958FEF8EBD0DB407FEF7
:105BF000FDCF8EB508958F929F92AF92BF92EF9294
:105C0000FF920F931F93CF937C01C62F49015A0136
:105C1000FC019281892F806A86958CBD90FD03C01E
:105C200081E0963009F480E08DBD60E0F70180816D
:105C30000F9461058CE291E00F9410098C2F806421
:105C4000CEDF08E110E0D501C401002E04C0B695F6
:105C5000A795979587950A94D2F7C1DF0850110947
:105C6000083FFFEF1F0779F785E9CC2321F087E88C
:105C7000C83009F08FEFB3DFCC3009F4B5DFC0E0F6
:105C8000B3DFF701838387FF04C0CF3F11F0CF5FFD
:105C9000F7CFCF911F910F91FF90EF90BF90AF90F2
:105CA0009F908F9008950F931F93CF93DF93EC01F4
:105CB00089018C81833039F089E0440F551F661FBC
:105CC000771F8A95D1F79A01AB0168E1CE0193DF86
:105CD000882319F086E0898335C08EEF8EBDF801E8
