:100000000C94B4220C94E5220C94E5220C94E52285
:100010000C94E5220C94E5220C94E5220C94E52244
:100020000C94E5220C94E5220C94E5220C94E52234
:100030000C94E5220D9470080C94E5220C94E522B2
:100040000C94E5220C9499E20C94E5220C94E522A0
:100050000C94E5220C94E5220C949AD90D94210E6F
:100060000C94E5220C9454A70C94E5220C94E52200
:100070000C94E5220C94E5220C94E5220C94E522E4
:100080000C94D4ED0C94E5220C94E5220C94E5221A
:100090000C94E5220C94E5220C94E5220C94E522C4
:1000A0000C94E5220C94E5220C94A6ED0C94E52228
:1000B0000C94E5220C94E5220C94E5220C9478ED46
:1000C0000C94E5220C94E5220C94E5220C94E52294
:1000D0000C94E5220C94E5220C94E5220C94E52284
:1000E0000C94E522084AD73B3BCE016E84BCBFFD91
:1000F000C12F3D6C74319ABD56833DDA3D00C77FF8
:1001000011BED9E4BB4C3E916BAAAABE0000008090
:100110003F05A84CCDB2D44EB93836A9020C50B91F
:10012000918688083CA6AAAA2ABE000000803F004B
:100130000D9444050D9449050D949F190D944E0599
:100140000D94FB090D943B050D9441050D941E0A79
:100150000D94F3090D94CB170D948C1B0D94DE12A6
:100160000D9472000D946F0A0D9483010D94DA00C2
:100170000D9438050D9442010D94002B0D942E0A18
:100180000D948D0A0D94650A0D944C0A0D944B053F
:100190000D944B1D0D9475160D942B050D94B315F0
:1001A0000D94431C0D94830A0D940A0A0D943E0588
:1001B0000D945B0A0D94420A0D9435050D94790A4D
:1001C0000D94260A0D94EB010D94380A0D940A0043
:1001D0000D94000A0D943D140D94C52A0D94140A33
:1001E0004E414E494E495459494E46CDCCCC3D0A1C
:1001F000D7233C17B7D13877CC2B329595E6241FFF
:10020000B14F0A000020410000C84200401C4620B7
:10021000BCBE4CCA1B0E5AAEC59D7400407A10F38A
:100220005A00A0724E18090010A5D4E80000E87624
:1002300048170000E40B54020000CA9A3B0000007B
:10024000E1F505000080969800000040420F000094
:1002500000A08601000000102700000000E8030055
:100260000000006400000000000A0000000000011F
:1002700000000000002C76D888DC674F0823DFC11F
:10028000DFAE59E1B1B796E5E3E453C63AE65199DA
:100290007696E8E6C28426EB898C9B62ED407C6F03
:1002A000FCEFBC9C9F40F2BAA56FA5F490055A2ABA
:1002B000F75C936B6CF9676DC11BFCE0E40D47FEC6
:1002C000F520E6B500D0ED902E03009435770500BB
:1002D00080841E080000204E0A000000C80C333342
:1002E00033330F986E12831141EF8D2114893BE651
:1002F0005516CFFEE6DB18D1844B381BF77C1D90DA
:100300001DA4BBE424203284725E228100C9F12442
:10031000ECA1E53D27434F4D4D554E4943415449CE
:100320004F4E0044525952554E004552524F52536F
:1003300000494E464F004543484F0025697300254C
:10034000696D20256973002569682025696D202560
:10035000697300256964202569682025696D202559
:10036000697300256979202569642025696820253D
:10037000696D2025697300656E7175657565696EB7
:100380006720220020496E76616C6964206578746C
:1003900072756465722000000050C1000050C100F9
:1003A000000000000066430000524300007A43480A
:1003B0006F6D696E67206661696C656400206E6FA1
:1003C0007420656E74657265642E0A00486F7465EA
:1003D0006E6420746F6F20636F6C640A0050726FDC
:1003E0007465637465642050696E0A005374616EAD
:1003F0006461726420446576696174696F6E3A2045
:10040000002052616E67653A2000204D61783A20E5
:1004100000204D696E3A20004D65616E3A2000461D
:10042000696E6973686564210A002072616E676590
:100430003A2000206D61783A2000206D696E3A20E4
:1004400000207369676D613A2000206D65616E3A26
:1004500020003A207A3A2000206F662000205A00BF
:10046000205900205800476F696E6720746F3A006A
:10047000436C6F636B776973650A00436F756E74C5
:1004800065722D0020446972656374696F6E3A204D
:1004900000202020616E676C653A20005374617201
:1004A00074696E67207261646975733A2000506FD9
:1004B000736974696F6E696E672074686520707205
:1004C0006F62652E2E2E0A003F4E756D626572209A
:1004D0006F66206C65677320696E206D6F76656D41
:1004E000656E74206E6F7420706C61757369626CD8
:1004F000652028302D3135292E0A003F2028582C20
:100500005929206F7574206F6620626F756E647351
:100510002E0A003F53616D706C652073697A652007
:100520006E6F7420706C61757369626C652028341D
:100530002D3530292E0A004D3438205A2D50726F37
:100540006265205265706561746162696C69747975
:1005500020546573740A003F2856296572626F73D0
:1005600065206C6576656C20697320696D706C61BF
:10057000757369626C652028302D34292E0A004677
:10058000696C616D656E7420757365643A20005303
:10059000746174733A20002C204C6F6E676573741D
:1005A000206A6F623A2000546F74616C2074696D28
:1005B000653A200053746174733A20002C20466120
:1005C000696C65643A20002C2046696E6973686521
:1005D000643A20005072696E74733A20005374615B
:1005E00074733A200020573A004520436F6F6C69BE
:1005F0006E672E2E2E00452048656174696E672E49
:100600002E2E0020573A0042656420636F6F6C699C
:100610006E672E2E2E004265642068656174696ED7
:10062000672E2E2E00205A3A0020593A0020436FA0
:10063000756E7420583A0020453A00205A3A00203E
:10064000593A00583A003A004361703A0057415213
:100650004E494E4721204C6F77205A204A65726BD5
:10066000206D6179206C65616420746F20756E77F0
:10067000616E746564207061757365732E0A002065
:100680005A00205900580020204D61783A2000205F
:100690005A00205900580020204D696E3A20004F22
:1006A0006E20004F666600536F667420656E64733B
:1006B000746F70733A2000496E76616C69642065CE
:1006C000787472756465720A0020643A0020693A91
:1006D0000020703A0023646566696E6520444546D3
:1006E00041554C545F4B64200023646566696E6518
:1006F0002044454641554C545F4B692000236465B6
:1007000066696E652044454641554C545F4B7020E8
:1007100000504944204175746F74756E6520666998
:100720006E69736865642120507574207468652053
:100730006C617374204B702C204B6920616E6420B7
:100740004B6420636F6E7374616E74732066726F96
:100750006D2062656C6F7720696E746F20436F6ED9
:1007600066696775726174696F6E2E680A00504918
:1007700044204175746F74756E65206661696C659F
:1007800064212074696D656F75740A0045312054C9
:100790004845524D414C2052554E41574159005405
:1007A0006865726D616C2052756E61776179004584
:1007B000312048656174696E67206661696C6564A3
:1007C0000048656174696E67206661696C656400E4
:1007D000504944204175746F74756E652066616977
:1007E0006C6564212054656D706572617475726505
:1007F00020746F6F20686967680A00204B643A2094
:1008000000204B693A2000204B703A20000A204318
:100810006C617373696320504944200A0020547549
:100820003A2000204B753A2000206D61783A200074
:10083000206D696E3A200020643A200020626961D0
:10084000733A2000504944204175746F74756E6589
:100850002073746172740A00504944204175746FAA
:1008600074756E65206661696C65642120426164FF
:10087000206578747275646572206E756D6265723C
:100880000A004F66660A004661646520486569672C
:1008900068742000426564204C6576656C696E67FB
:1008A00020004661696C656420746F20656E61622A
:1008B0006C6520426564204C6576656C696E670ADC
:1008C000004D65736820426564204C6576656C2038
:1008D000646174613A0A004D65736820706F696ED7
:1008E000742063616E6E6F74206265207265736F31
:1008F0006C7665640A004D34323120696E636F7224
:100900007265637420706172616D657465722075C3
:10091000736167650A004F66667365747320617062
:10092000706C696564004572723A20546F6F20667E
:1009300061722100546F6F206661722066726F6D64
:10094000207265666572656E636520706F696E748E
:100950000A00496E736572742066696C616D656E1C
:100960007420616E64207072657373206275747494
:100970006F6E0A00507265737320627574746F6EC7
:1009800020746F2068656174206E6F7A7A6C650AD6
:1009900000496E736572742066696C616D656E7472
:1009A00020616E6420707265737320627574746F59
:1009B0006E20286F72204D313038290A0047322FBF
:1009C00047332062616420706172616D6574657285
:1009D000730A00536C6565702E2E2E00206F662002
:1009E000004D424C2047323920706F696E742000F0
:1009F00059206F7574206F662072616E67652028BC
:100A0000312D34292E0A0058206F7574206F66200E
:100A100072616E67652028312D34292E0A004D65DC
:100A200073682070726F62696E6720646F6E652EE6
:100A30000A005374617274206D6573682070726F60
:100A400062696E67207769746820224732392053C3
:100A500031222066697273742E0A004732380A47C1
:100A60003239205332004D65736820626564206C12
:100A70006576656C696E6720686173206E6F2064AF
:100A80006174612E0A0053746174653A200053202A
:100A90006F7574206F662072616E67652028302D37
:100AA00035292E0A00205A3A200020593A200042C7
:100AB000656420583A20004D65736820706F696E38
:100AC000742063616E6E6F74206265207265736F4F
:100AD0006C7665640A00436C69636B20746F2072E6
:100AE0006573756D652E2E2E004E6F206D6F7665C9
:100AF0002E00456E642066696C65206C6973740A0B
:100B000000426567696E2066696C65206C69737464
:100B10000A004D31323500286E6F2066696C6529F8
:100B20000043757272656E742066696C653A2000C8
:100B30005344207072696E74696E672062797465BF
:100B400020004E6F74205344207072696E74696E79
:100B5000670A005072696E742074696D653A2000EE
:100B60006F666600360331032A03230315034445E9
:100B70004255473A004B494C4C45442E20004D31DC
:100B800031332053006F6B004A474D616B65722013
:100B90004D61676963204F66662E002C20002C2073
:100BA00000544845524D414C5F50524F54454354B8
:100BB000494F4E004155544F5245504F52545F5388
:100BC000445F53544154555300454D455247454E9B
:100BD00043595F50415253455200434153455F4C86
:100BE000494748545F4252494748544E4553530081
:100BF000544F47474C455F4C494748545300534F67
:100C00004654574152455F504F574552004255494F
:100C10004C445F50455243454E54004C4556454C5C
:100C2000494E475F44415441005A5F50524F42453C
:100C3000004155544F4C4556454C005052494E5476
:100C40005F4A4F420050524F47524553530041555F
:100C5000544F5245504F52545F54454D5000564FDB
:100C60004C554D455452494300454550524F4D0057
:100C700053455249414C5F584F4E5F584F464600CE
:100C80004649524D574152455F4E414D453A4D619F
:100C9000726C696E2076302E33202847697468752F
:100CA000622920534F555243455F434F44455F559A
:100CB000524C3A68747470733A2F2F676974687570
:100CC000622E636F6D2F4D61726C696E4669726D35
:100CD000776172652F4D61726C696E2050524F546E
:100CE0004F434F4C5F56455253494F4E3A312E3089
:100CF000204D414348494E455F545950453A4A4773
:100D00004D616B6572204D6167696320455854528F
:100D1000554445525F434F554E543A31205555493D
:100D2000443A63656465326132662D343161322D37
:100D3000343734382D396231322D633535633632EC
:100D40006633363766660A002F2F20004D31343562
:100D500020533C696E6465783E206F7574206F6621
:100D60002072616E67652028302D31290A002054D9
:100D700000205200416363656C65726174696F6E37
:100D80003A20500020466C6F773A20000001363739
:100D90002603FFFFFF353C3D380EFFFFFF312E30AD
:100DA0003E12FFFFFFFF28FF0C0809FFFFFF1A1C80
:100DB00018FFFF2A08440AFF433A200020536572B7
:100DC000766F2000206F7574206F662072616E67E9
:100DD000650A00536572766F200043290A0061623C
:100DE0006C656420286D696E2074656D7020004309
:100DF0006F6C6420657874727564657320617265C8
:100E000020004E6F2063617365206C696768740A07
:100E100000454550524F4D204F4B0A003F5A206F1E
:100E20007574206F662072616E676520282D3230E0
:100E300020746F203230290A003A200050726F620D
:100E400065205A204F666673657400416374697645
:100E5000652045787472756465723A2000496E7633
:100E6000616C69642065787472756465720A0052F9
:100E70006573656E643A20006F6B0020746F6F209D
:100E80006C6F6E6720657874727573696F6E207011
:100E9000726576656E7465640A0020636F6C642009
:100EA000657874727573696F6E2070726576656EA1
:100EB0007465640A00627573793A207061757365B0
:100EC0006420666F7220696E7075740A00627573B3
:100ED000793A2070617573656420666F722075734E
:100EE00065720A00627573793A2070726F63657378
:100EF00073696E670A004B494C4C45442E20004BE9
:100F0000494C4C20636175736564206279204B49BC
:100F10004C4C20627574746F6E2F70696E0A004BB2
:100F2000494C4C45442E20004B494C4C2063617584
:100F300073656420627920746F6F206D756368201B
:100F4000696E6163746976652074696D65202D2012
:100F500063757272656E7420636F6D6D616E643A55
:100F600020004D36303000506C656173652072652D
:100F7000736574005052494E5445522048414C54B8
:100F80004544005072696E7465722068616C7465C6
:100F9000642E206B696C6C28292063616C6C65641D
:100FA000210A004D3331005344207265616420658D
:100FB00072726F720A00446F6E65207072696E748F
:100FC000696E672066696C650A004B494C4C454464
:100FD0002E200053544F505045442E20005072692B
:100FE0006E7465722073746F7070656420647565CB
:100FF00020746F206572726F72732E20466978209C
:10100000746865206572726F7220616E64207573FA
:1010100065204D39393920746F207265737461729F
:10102000742E202854656D70657261747572652028
:1010300069732072657365742E205365742069741A
:101040002061667465722072657374617274696E72
:1010500067290A004E6F20436865636B73756D20C6
:1010600077697468206C696E65206E756D62657253
:101070002C204C617374204C696E653A20004E6FD1
:1010800020436865636B73756D2077697468206CA5
:10109000696E65206E756D6265722C204C6173748B
:1010A000204C696E653A2000636865636B73756DEB
:1010B000206D69736D617463682C204C61737420BA
:1010C0004C696E653A20004C696E65204E756D6204
:1010D0006572206973206E6F74204C617374204CAC
:1010E000696E65204E756D6265722B312C204C61E6
:1010F0007374204C696E653A20004D313130000028
:101100000050C1000050C100000000000048420033
:1011100000484200008040000000005761726E6984
:101120006E673A20486F6D696E672042756D70205A
:1011300044697669736F72203C20310A0002020410
:101140000000A0400000A0400000004000007343E9
:1011500000005F4300007A43FFFFFF4D3630303A16
:1011600020546F6F20636F6C6400486F74656E6409
:1011700020746F6F20636F6C640A007C3C3E5E2BB2
:101180003D3F2F5B5D3B2C2A225C004572726F72E3
:101190002077726974696E6720746F2045455052DC
:1011A0004F4D210A00454550524F4D2064617461F6
:1011B00073697A65206572726F722E0A00290A00BF
:1011C0002062797465733B206372632000536574F9
:1011D00074696E67732053746F72656420280029E8
:1011E0000A002062797465733B20637263200020DB
:1011F00073746F7265642073657474696E677320AD
:1012000072657472696576656420280020286361C0
:101210006C63756C6174656429210A0020213D208E
:1012200000454550524F4D20435243206D69736D28
:1012300061746368202D202873746F72656429209F
:10124000002053697A653A2000496E6465783A2037
:1012500000204D61726C696E3D563535290A0028B3
:10126000454550524F4D3D00454550524F4D20761B
:10127000657273696F6E206D69736D617463682048
:101280000048617264636F646564204465666175DB
:101290006C742053657474696E6773204C6F61645D
:1012A00065640A002C0100002C01000064000000AD
:1012B0009001000000009643000096430000A0400B
:1012C0000000C8410000A0420000A04200004844C5
:1012D0000000B0423A0A0020286D6D290020204D00
:1012E00036303320002055004C0046696C616D6536
:1012F0006E74206C6F61642F756E6C6F6164206C0E
:10130000656E677468733A0A0020204D38353120C5
:101310005A005A2D50726F6265204F66667365746D
:101320000020440020490020204D3330312050005F
:101330005049442073657474696E67733A0A0020DB
:10134000460020420020480020204D3134352053F3
:10135000004D6174657269616C20686561747570B7
:1013600020706172616D65746572733A0A00205A6B
:1013700000205900202047323920533320580020C4
:101380005A0020204D3432302053004D65736820C0
:10139000426564204C6576656C696E673A0A002088
:1013A0005A0020590020204D323036205800486F16
:1013B0006D65206F66667365743A0A0020450020EB
:1013C0005A002059002058002054002053002020AB
:1013D0004D32303520510020453C6D61785F655FAE
:1013E0006A65726B3E0020583C6D61785F785F6A79
:1013F00065726B3E20593C6D61785F795F6A6572FA
:101400006B3E205A3C6D61785F7A5F6A65726B3E15
:1014100000416476616E6365643A20513C6D696E8B
:101420005F7365676D656E745F74696D655F757315
:101430003E20533C6D696E5F6665656472617465DC
:101440003E20543C6D696E5F74726176656C5F66B8
:10145000656564726174653E00205400205200206E
:10146000204D323034205000416363656C657261F9
:1014700074696F6E2028756E6974732F7332293A00
:1014800020503C7072696E745F616363656C3E20CE
:10149000523C726574726163745F616363656C3E34
:1014A00020543C74726176656C5F616363656C3E69
:1014B0000A00204500205A0020590020204D3230DB
:1014C000312058004D6178696D756D204163636509
:1014D0006C65726174696F6E2028756E6974732F04
:1014E0007332293A0A00204500205A002059002072
:1014F000204D3230332058004D6178696D756D2074
:101500006665656472617465732028756E697473AD
:101510002F73293A0A00204500205A002059002044
:10152000204D3932205800537465707320706572F5
:1015300020756E69743A0A0020204D323030204404
:10154000300A0020204D323030204400204469739E
:1015500061626C65640A0046696C616D656E742039
:1015600073657474696E67733A0020204D313439A5
:101570002043203B20556E69747320696E204365BB
:101580006C736975730A00202047323120202020B7
:101590003B00545249474745524544006F70656EC1
:1015A000003A200066696C616D656E74007A5F6D4B
:1015B000696E00795F6D696E00785F6D696E0052CB
:1015C00065706F7274696E6720656E6473746F7096
:1015D000207374617475730A000A4D6561737572C6
:1015E000656420706F696E74733A0A005A206F66E2
:1015F000667365743A20004E756D20582C593A2058
:10160000342C340A000000000100000001000080BA
:1016100000555555000000400033333300AAAA2A74
:10162000004992240000002000C7711C00999919FC
:1016300000D1451700555515003BB1130024491240
:101640000011111100000010000F0F0F00E3380E01
:101650000043790D00CCCC0C00C3300C00E8A20B89
:101660000064210B00AAAA0A00703D0A009DD80957
:1016700000427B090092240900DCD3080088880816
:10168000001042080000000800F0C107008787072B
:101690000075500700711C07003EEB0600A1BC0658
:1016A000006990060066660600703E060061180636
:1016B0000017F4050074D105005BB00500B2900579
:1016C00000627205005555050078390500B81E0501
:1016D00000050505004EEC040087D40400A1BD04FC
:1016E0000090A7040049920400C17D0400EE690443
:1016F00000C7560400444404005C3204000821047E
:101700000041100400000004003FF00300F8E00373
:101710000026D20300C3C30300CCB503003AA803DC
:10172000000A9B0300388E0300C08103009F7503ED
:1017300000D0690300505E03001D530300344803CA
:1017400000913D03003333030016290300381F03C3
:101750000097150300300C0300030303000BFA028B
:101760000049F10200BAE802005CE002002DD80254
:10177000002DD0020059C80200B0C0020031B902E9
:1017800000DAB10200AAAA0200A0A30200BC9C02D7
:1017900000FA9502005C8F0200DF8802008282025C
:1017A00000457C02002776020027700200436A028F
:1017B000007C640200D05E02003F590200C8530260
:1017C0000020746F6F206C6F6E672065787472757F
:1017D00073696F6E2070726576656E7465640A0059
:1017E00020636F6C6420657874727573696F6E2006
:1017F00070726576656E7465640A00FFFDFCFAF828
:10180000F6F4F2F0EEECEAE9E7E5E3E1E0DEDCDA5B
:10181000D9D7D5D4D2D0CFCDCBCAC8C7C5C3C2C003
:10182000BFBDBCBAB9B7B6B4B3B2B0AFADACAAA97C
:10183000A8A6A5A4A2A1A09E9D9C9A9998979594CC
:101840009392908F8E8D8B8A8988878684838281FC
:10185000807F7E7D7B7A797877767574737271700C
:101860006F6E6D6C6B6A6968676665646362616000
:101870005F5E5D5C5B5A59585857565554535251E8
:1018800050504F4E4D4C4B4A4A49484746464544B6
:1018900043424241403F3E3E3D3C3B3B3A39383873
:1018A00037363535343332323130302F2E2E2D2C21
:1018B0002B2B2A29292827272625252423232221C3
:1018C0002120201F1E1E1D1C1C1B1B1A1919181855
:1018D000171616151514131312121111100F0F0EDF
:1018E0000E0D0D0C0C0B0A0A09090808070706065D
:1018F000050504040303020201000024F4D430505F
:10190000C38E20C2A24017828B7011127A910D8172
:101910006CD90AA861E108C7586607615143061EE1
:101920004B5D05C145A7041A411104093D98037197
:101930003931034036DB0265339102D430540280E2
:101940002E1D02632CEE01752AC501B028A00110DE
:101950002781018F2564012B244B01E0223401AC47
:10196000211F018D200D01801FFC00841EED0097BA
:101970001DDF00B81CD200E61BC600201BBC0064A3
:101980001AB200B219A8000A19A0006A189900D169
:1019900017910040178B00B516840031167E00B3F6
:1019A0001579003A157300C7146F0058146A00EED9
:1019B0001366008813630025135E00C7125B006C7A
:1019C00012570015125400C111510070114F00211F
:1019D000114B00D61049008D1047004610440002FC
:1019E000104200C00F4000800F3E00420F3C000636
:1019F0000F3B00CB0E3800930E37005C0E350027EE
:101A00000E3400F30D3200C10D3100900D30006036
:101A10000D2E00320D2D00050D2C00D90C2B00AE23
:101A20000C2900850C29005C0C2700350C27000EC2
:101A30000C2600E80B2400C40B2400A00B23007D1F
:101A40000B23005A0B2100390B2100180B2000F842
:101A50000A1F00D90A1E00BB0A1E009D0A1D008035
:101A60000A1D00630A1C00470A1B002C0A1B0011F8
:101A70000A1A00F7091A00DD091900C4091900AB98
:101A8000091900920917007B091800630917004C17
:101A900009160036091600200916000A091500F576
:101AA000081500E0081400CC081400B8081400A4BD
:101AB000081400900813007D0812006B08130058EA
:101AC0000812004608120034081100230811001201
:101AD00008110001081100F0071000E0071000D005
:101AE000071000C0071000B0070F00A107100091F9
:101AF000070E0083070F0074070F0065070E0057DD
:101B0000070E0049070E003B070D002E070E0020B0
:101B1000070D0013070D0006070D00F9060C00ED78
:101B2000060D00E0060C00D4060C00C8060C00BC34
:101B3000060C00B0060C00A4060B0099060C008DE4
:101B4000060B0082060B0077060B006C060B00618B
:101B5000060A0057060B004C060A0042060A003827
:101B6000060A002E060A0024060A001A060A0010B9
:101B700006090007060A00FD050900F4050900EB47
:101B8000050900E2050900D9050900D0050900C7CB
:101B9000050900BE050900B5050800AD050800A54A
:101BA0000509009C050800940508008C05080084C0
:101BB0000508007C050800740508006C0507006531
:101BC0000508005D050700560508004E050700479B
:101BD0000507004005080038050700310507002A01
:101BE000050700230507001C050600160507000F62
:101BF0000507000805060002050700FB040600F5BE
:101C0000040700EE040600E8040600E2040700DB17
:101C1000040600D5040600CF040600C9040600C36C
:101C2000040600BD040600B7040600B1040500ACBC
:101C3000040600A6040600A00405009B0406009507
:101C4000040500900406008A040500850405008050
:101C50000406007A04050075040500700405006B95
:101C600004050066040500610405005C04050057D6
:101C7000040500520405004D040500480405004316
:101C80000405003E0404003A040500350405003054
:101C90000404002C04050027040400230405001E8E
:101CA0000404001A04040016040500110404000DC5
:101CB000040400090405000404040000040400FCFA
:101CC000030400F8030400F4030400F0030400EC30
:101CD000030400E8030400E4030400E0030400DC60
:101CE000030400D8030400D4030400D0030400CC90
:101CF000030400C8030300C503030024F404D9202F
:101D00001BC40C5C0E9804C4095F0265077101F4E2
:101D100005F900FB04B30048048700C103690058BB
:101D200003550003034500BE023A0084023100530C
:101D3000022A002902250004022000E4011C00C838
:101D4000011900AF011700980114008401130071FC
:101D50000110006101100051010E0043010D003619
:101D6000010B002B010B0020010B00150109000CD9
:101D700001090003010800FB000800F3000800EB64
:101D8000000700E4000600DE000600D8000600D2CE
:101D9000000600CC000500C7000500C2000500BD1C
:101DA000000400B9000400B5000400B1000400AD57
:101DB000000400A9000400A5000300A20003009F86
:101DC0000004009B000300980003009500020093AC
:101DD000000300900003008D0002008B00030088C8
:101DE0000002008600020084000300810002007FE0
:101DF0000002007D0002007B0002007900020077F3
:101E000000010076000200740002007200010071FF
:101E10000002006F0002006D0001006C0002006A09
:101E20000001006900020067000100660001006512
:101E30000001006400020062000100610001006016
:101E40000001005F0002005D0001005C0001005B1A
:101E50000001005A0001005900010058000100571C
:101E6000000100560001005500010054000100531C
:101E70000000005300010052000100510001005019
:101E80000001004F0001004E0000004E0001004D17
:101E90000001004C0001004B0000004B0001004A13
:101EA000000100490001004800000048000100470F
:101EB000000100460000004600010045000000450A
:101EC0000001004400010043000000430001004203
:101ED00000000042000100410000004100010040FC
:101EE0000001003F0000003F0001003E0000003EF6
:101EF0000001003D0000003D0001003C0000003CEE
:101F00000000003C0001003B0000003B0001003AE3
:101F10000000003A000100390000003900010038DB
:101F200000000038000000380001003700000037D2
:101F300000010036000000360000003600010035C8
:101F400000000035000000350001003400000034BE
:101F500000000034000100330000003300000033B3
:101F600000010032000000320000003200010031A8
:101F7000000000310000003100010030000000309E
:101F8000000000300001002F0000002F0000002F93
:101F90000000002F0001002E0000002E0000002E87
:101FA0000001002D0000002D0000002D0000002D7C
:101FB0000001002C0000002C0000002C0000002C70
:101FC0000001002B0000002B0000002B0000002B64
:101FD0000001002A0000002A0000002A0000002A58
:101FE000000100290000002900000029000000294C
:101FF000000000290001002800000028000000283F
:102000000000002800000028000100270000002731
:102010000000002700000027000000270001002624
:102020000000002600000026000000260000002618
:10203000000100250000002500000025000000250B
:1020400000000025000000250001002400000024FD
:1020500000000024000000240000002400010023F0
:1020600000000023000000230000002300000023E4
:1020700000000023000000230001002200000022D5
:1020800000000022000000220000002200000022C8
:1020900000010021000000210000002100000021BB
:1020A00000000021000000210000002100010020AC
:1020B00000000020000000200000002000000020A0
:1020C0000000002000000020000000200001001F90
:1020D0000000001F0000001F0000001F0000001F84
:1020E0000000001F0000001F0001001E0000001E75
:1020F0000000001E0000001E000000393000003308
:1021000025000087190000B00F0000DB080000BDAB
:10211000040000740200003F0100006265640A00D0
:102120002C2073797374656D2073746F707065649F
:1021300021204865617465725F49443A2000426518
:10214000642068656174696E67206661696C6564A6
:102150000048656174696E67206661696C6564003A
:1021600045312048656174696E67206661696C65F8
:10217000640048656174696E67206661696C6564B6
:102180000070012C0190012701B0012201C0011D46
:1021900001F00118011002130130020E0160020962
:1021A0000190020401C002FF000003FA004003F5A1
:1021B000008003F000D003EB002004E6007004E18F
:1021C00000E004DC004005D700C005D2004006CD89
:1021D00000D006C8008007C3003008BE00F008B970
:1021E00000C009B400B00AAF00B00BAA00D00CA523
:1021F00000000EA000500F9B00C0109600501291DE
:102200000000148C00C0158700B0178200B0197D43
:1022100000D01B7800001E730040206E00902269E1
:1022200000F024640040275F0090295A00E02B55FD
:1022300000102E500020304B0010324600E0334199
:102240000090353C001037370070383200A0392D2F
:1022500000B03A2800A03B2300603C1E00103D194E
:1022600000903D1400103E0F00703E0A00C03E0575
:1022700000003F0000403FFBFF803FF6FFC03FF102
:10228000FF4531204572723A204D415854454D501A
:10229000004572723A204D415854454D50204245F8
:1022A00044004D415854454D50207472696767652C
:1022B000726564004531204572723A204D494E5492
:1022C000454D50004572723A204D494E54454D508F
:1022D00020424544004D494E54454D50207472698A
:1022E000676765726564004D383420582059205A5C
:1022F000204500202800202F002042403A002040A6
:102300003A0025753A2530327500253032753A2568
:102310003032750025756420253032753A2530320B
:102320007500202020202020005A00590020202065
:1023300020005800092000000000000000000000FC
:102340000000003FFFF0000000000000000000005F
:1023500000003800700000000000000000000000D5
:102360000030FC3000000000000000000000000011
:1023700020FC100000000000000000000000002011
:102380007810000000000000000000000000203075
:10239000100000000000000000000000002C00D031
:1023A0003FC0000000000000002082002E31D07FDE
:1023B000E0000000000000001041002F7BD07FE013
:1023C000000000000000001041002F7BD07FE000E3
:1023D0000000000000002082002E31D03FC000002D
:1023E00000000000004104002C00D03FC0000000AD
:1023F000000000008208002030107FE00000000094
:102400000000008208002078107FE000000000003B
:10241000000041040020FC107FE0000000000000EC
:102420000020820030FC301F80000000000000000F
:102430000000003800700F0000000000000000FFE6
:10244000FFC03FFFF0060000000000000000FFFF9B
:10245000C0000000000000000000000000000000BC
:102460003FFFF00000000000000000000000003806
:102470000070000000000000000000000000318635
:102480003000000000000000000000000023871062
:1024900000000000000000000000000027879000FE
:1024A00000000000000000000000002F87D00000A6
:1024B000000000000000000000002F03D03FC0001B
:1024C0000000000000002082002030107FE00000AB
:1024D00000000000001041002078107FE0000000A4
:1024E000000000001041002078107FE00000000094
:1024F0000000002082002030103FC00000000000DB
:1025000000004104002F03D03FC000000000000085
:10251000008208002F87D07FE0000000000000004C
:102520008208002787907FE0000000000000004143
:1025300004002387107FE0000000000000002082DC
:10254000003186301F800000000000000000000005
:102550003800700F0000000000000000FFFFC03FC7
:10256000FFF0060000000000000000FFFFC00000B8
:10257000004A474D616B6572204D61676963205267
:10258000656164792E005072696E74696E672E2ED3
:102590002E005072696E7420706175736564004D11
:1025A0003130362050256920532569004D313039AE
:1025B00020532569004D31393020532569004D34B1
:1025C00032302053300A47323820523020582059B8
:1025D0000053746F70207072696E74005265737569
:1025E0006D65207072696E7400506F7765722D4C46
:1025F0006F7373205265636F766572790053746FE1
:102600007720424C546F756368004D32383020504B
:102610003020533930004465706C6F7920424C543F
:102620006F756368004D32383020503020533130A0
:1026300000424C546F7563682053656C662D546579
:102640007374004D32383020503020533132300016
:10265000526573657420424C546F756368004D3247
:1026600038302050302053313630004D61696E00D3
:102670004D313235004D3234005072696E74206134
:10268000626F72746564004E6F2053442063617200
:1026900064005072696E742066726F6D205344003E
:1026A00053746F70207072696E7400526573756D2B
:1026B00065207072696E740041626F75742050728B
:1026C000696E746572005061757365207072696E11
:1026D0007400436F6E74726F6C005072657061723B
:1026E000650054756E6500496E666F207363726590
:1026F000656E004261627973746570205A004368A8
:10270000616E67652066696C616D656E740042611B
:10271000627973746570205A00466C6F7700466C5E
:102720006F770046616E2073706565640046616E68
:102730002073706565640042656400426564004E04
:102740006F7A7A6C65004E6F7A7A6C6500466164C8
:10275000652048656967687400466164652048655E
:102760006967687400426564205A00426564205AB3
:10277000005370656564005370656564004D616960
:102780006E005072656865617420504C4120456E42
:1027900064005072656865617420504C4120426548
:1027A00064005072656865617420504C410050723D
:1027B00065706172650050726568656174204142A0
:1027C0005320456E64005072656865617420414213
:1027D000532042656400507265686561742041420F
:1027E000530050726570617265004261636B004E08
:1027F00065787420506F696E74004C6576656C69FD
:102800006E6720446F6E6521004D6F7665205A001B
:10281000473239205332004E65787420506F696E0C
:1028200074002569202F2025750047323920533147
:102830000047323920533200436C69636B20746F58
:1028400020426567696E00486F6D696E6720585950
:102850005A004732380053746F7265207365747480
:10286000696E6773004C6F61642073657474696E80
:102870006773004C6576656C20636F726E6572736A
:102880000050726F6265205A204F6666736574004F
:1028900050726F6265205A204F66667365740042FD
:1028A0006564205A00426564205A004661646520D0
:1028B00048656967687400466164652048656967B2
:1028C0006874004F6666004F6E2000426564204CBD
:1028D0006576656C696E67004C6576656C2062652F
:1028E000640050726570617265004D343238004D7D
:1028F000323830205030205331363000424C546F43
:102900007563682053656C662D54657374004D3291
:1029100038302050302053313230005072656865B5
:1029200061742041425300507265686561742050A3
:102930004C4100436F6F6C646F776E005265736536
:102940007420424C546F756368004368616E67651C
:102950002066696C616D656E740044697361626CB8
:1029600065207374657070657273004D3834005360
:10297000657420686F6D65206F666673657473009B
:10298000426564204C6576656C696E6700417574BC
:102990006F20686F6D6500473238004D6F76652097
:1029A00061786973004D61696E004D6F76652058DE
:1029B000004D6F76652059004D6F7665205A0045B1
:1029C00078747275646572004D6F766520302E31B3
:1029D0006D6D004D6F766520316D6D004D6F7665C4
:1029E0002031306D6D004D6F766520617869730020
:1029F0004578747275646572004D6F7665205A0073
:102A00004D6F76652059004D6F76652058004578EA
:102A1000747275646572004D6F7665205A004D6F53
:102A200076652059004D6F766520580050726570AC
:102A300061726500496E697469616C697A652045E7
:102A40004550524F4D00436F6E74726F6C0052656B
:102A500073746F7265206661696C73616665004CA2
:102A60006F61642073657474696E677300496E6981
:102A70007469616C697A6520454550524F4D005329
:102A8000746F72652073657474696E677300424C6D
:102A9000546F7563680046696C616D656E74004DB6
:102AA0006F74696F6E0054656D70657261747572D4
:102AB00065004D61696E0050726568656174204102
:102AC000425320636F6E66005072656865617420C2
:102AD000504C4120636F6E66005049442D440050B5
:102AE00049442D44005049442D49005049442D4942
:102AF000005049442D50005049442D5000200820DA
:102B00004661637400200820466163740020082039
:102B10004D6178002008204D6178002008204D6923
:102B20006E002008204D696E004F6666004F6E20D3
:102B3000004175746F74656D700046616E2073702E
:102B40006565640046616E2073706565640042656A
:102B50006400426564004E6F7A7A6C65004E6F7A4D
:102B60007A6C6500436F6E74726F6C0053746F7291
:102B7000652073657474696E677300426564004212
:102B80006564004E6F7A7A6C65004E6F7A7A6C6578
:102B90000046616E2073706565640046616E207347
:102BA000706565640054656D7065726174757265F9
:102BB000005654726176206D696E005654726176CB
:102BC000206D696E00566D696E00566D696E005617
:102BD0006D6178204500566D6178204500566D6125
:102BE00078205A00566D6178205A00566D61782021
:102BF0005900566D6178205900566D617820580053
:102C0000566D61782058004D6F74696F6E00416D8C
:102C10006178204500416D6178204500416D617803
:102C2000205A00416D6178205A00416D6178205929
:102C300000416D6178205900416D61782058004154
:102C40006D6178205800412D74726176656C004189
:102C50002D74726176656C00412D726574726163CA
:102C60007400412D72657472616374004163636521
:102C70006C00416363656C004D6F74696F6E005644
:102C8000652D6A65726B0056652D6A65726B00561C
:102C90007A2D6A65726B00567A2D6A65726B0056E2
:102CA000792D6A65726B0056792D6A65726B0056D4
:102CB000782D6A65726B0056782D6A65726B004DCF
:102CC0006F74696F6E004573746570732F6D6D005E
:102CD0004573746570732F6D6D005A7374657073EE
:102CE0002F6D6D005A73746570732F6D6D0059737D
:102CF000746570732F6D6D005973746570732F6DEB
:102D00006D005873746570732F6D6D005873746522
:102D100070732F6D6D004D6F74696F6E0053746525
:102D200070732F6D6D004A65726B00416363656C53
:102D300065726174696F6E0056656C6F6369747952
:102D40000050726F6265205A204F6666736574008A
:102D500050726F6265205A204F6666736574004337
:102D60006F6E74726F6C004C6F6164206D6D004CFF
:102D70006F6164206D6D00556E6C6F6164206D6DC8
:102D800000556E6C6F6164206D6D0046696C2E207D
:102D90004469612E0046696C2E204469612E004F03
:102DA0006666004F6E20004520696E206D6D330011
:102DB000436F6E74726F6C0043616E6E6F7420654A
:102DC0006E746572207375626469723A2000022E17
:102DD0002E004D61696E00004578747275646564FB
:102DE00020746F74616C3A2000256C642E25696D27
:102DF00000004C6F6E67657374206A6F622074699F
:102E00006D653A200000546F74616C207072696EB9
:102E1000742074696D653A2000436F6D706C657441
:102E200065643A20005072696E7420436F756E7449
:102E30003A20004D61782054656D703A203132356A
:102E4000004D696E2054656D703A2035005442651E
:102E5000643A4550434F53203130304B004D617838
:102E60002054656D703A20323630004D696E205422
:102E7000656D703A20350054303A204550434F5329
:102E8000203130304B005053553A2047656E657203
:102E900069630050726F746F636F6C3A20312E302B
:102EA00000426175643A2031313532303000524190
:102EB0004D505320312E34004D657368204C65769B
:102EC000656C696E67004578747275646572733AF3
:102ED00020310068747470733A2F2F6769746875B5
:102EE000622E636F6D2F636E6F72746F6E2D7765D8
:102EF000626465762F6A675F6D616B65725F6D6195
:102F00006769635F7630335F626C746F7563680006
:102F10004A474D616B6572204D61676963003230CD
:102F200032302D30372D31330076302E33004D6165
:102F3000726C696E005072696E74657220537461B0
:102F4000747300546865726D6973746F72730042B4
:102F50006F61726420496E666F005072696E7465AD
:102F60007220496E666F004D61696E004D373032D8
:102F700020542564004D36303020423020542564E2
:102F8000004D373032203B2564004D37303120541E
:102F9000256400556E6C6F61642066696C616D65B7
:102FA0006E7400556E6C6F61642066696C616D654E
:102FB0006E74004D373032004D373031004C6F6148
:102FC000642066696C616D656E74004D363030202A
:102FD0004230004368616E67652066696C616D65AB
:102FE0006E740050726570617265005052494E54A3
:102FF0002050415553454400554E4C4F41442046C6
:10300000494C414D454E54004C4F41442046494C9B
:10301000414D454E54005075726765206D6F726565
:1030200000436F6E74696E756500524553554D458A
:10303000204F5054494F4E533A0020204E6F7A7A19
:103040006C653A20006368616E6765006F66207486
:1030500068652066696C616D656E7400576169749E
:1030600020666F722073746172740020204E6F7A34
:103070007A6C653A2000200066696C616D656E743B
:1030800020756E6C6F6164005761697420666F72A1
:103090000020204E6F7A7A6C653A20002000506C38
:1030A0006561736520776169742E2E2E0048656115
:1030B00074696E67206E6F7A7A6C650020204E6F9F
:1030C0007A7A6C653A2000200068656174206E6F22
:1030D0007A7A6C652E005072657373206275747411
:1030E0006F6E20746F0020204E6F7A7A6C653A20E4
:1030F00000746F20636F6E74696E75652E2E2E00DE
:10310000616E6420707265737320627574746F6E83
:1031100000496E736572742066696C616D656E74CA
:103120000020204E6F7A7A6C653A20002000666994
:103130006C616D656E74206C6F61640057616974B9
:1031400020666F720020204E6F7A7A6C653A2000FC
:10315000200066696C616D656E74207075726765BC
:10316000005761697420666F7200746F2072657316
:10317000756D65005761697420666F7220707269A1
:103180006E7400436172642072656D6F76656400D1
:103190004361726420696E73657274656400000037
:1031A0002100240027002A002D00300033000101F7
:1031B0000000040107010A01000022002500280088
:1031C0002B002E003100340002010000050108012F
:1031D0000B01000020002300260029002C002F00F6
:1031E0003200000100000301060109010505050583
:1031F000070508080808020202020A0A080804046F
:10320000040401010101010101010303030303039C
:103210000303040707070C0C0C0C0C0C0C0C02022B
:10322000020206060606060606060B0B0B0B0B0B28
:103230000B0B0102102020080810204010204080B5
:10324000020102010804020101020408102040806A
:1032500080402010080402018004020180402010F8
:103260000804020108040201010204081020408041
:10327000010204081020408000000A0B02090C0D16
:103280000E08070304010000000000000000000019
:10329000000000000000000000000000000000002E
:1032A00000000000121110000000000000000000EB
:1032B000000000000000000000000000000002000C
:1032C00000000000000000000000000000000000FE
:1032D00000000000000000000000000000000000EE
:1032E00000000000000000000000000000000000DE
:1032F00000000000000000000000000000000000CE
:1033000000000000000000000000000000000000BD
:1033100000000000000000000000000000000000AD
:103320000001C00E000000000000000000000000CE
:10333000003FC1FE0000000000000000000000008F
:1033400007FFDFFE0000000000000000000000009A
:103350007FFFFFFE00000000000000000000000FE3
:10336000FFFFFFFE00000000000000000000000F53
:10337000FFFFFFFE00000000000000000000000F43
:10338000FFFFFFFE00000000000000000000000F33
:10339000FFFFFFFE00000000000000000000000F23
:1033A000FFFFF88E00000000000000000000000F8A
:1033B000FFFFC00E00000000000000000000000F32
:1033C000C3FF800E0200400C018086022000000F27
:1033D000C3FF030E0180700700C0C3FE3FE0000F73
:1033E000E3FF0F8E03C0700700C183063030000F6B
:1033F000E3FF1FFE03C0700700C303043030000F5B
:10340000E3FE1FFE03C0700D80C603003030000FC6
:10341000E3FE1FFE03C0F00980CC03003030000F34
:10342000E3FE1F3E0360980880D803003030000F91
:10343000E3FE1F0E03619818C0FC03F838E0000F8C
:10344000E3FE1F0E02219818C0FC03003FC0000FCE
:10345000E3FE1F8E0631183FE0C6030030C0000FA8
:10346000E3FE1F8E0633183060C6030030C0000F25
:10347000E3FF0F0E0613186030C303003060000F27
:10348000E3FF020E061E186030C383003070000F89
:10349000E3FF800E060C18E030C183043030000FCB
:1034A000E3FFC00E060C0CC018C1C3FE3038000F7D
:1034B000E3FFFFFE040008C0188083FE1010000F19
:1034C000E3FFFFFE00000000000000000000000F0E
:1034D000C3FFFFFE00000000000000000000000F1E
:1034E000C7FFFFFE00000000000000000000000F0A
:1034F000CFFFFFFE00000000000000000000000FF2
:10350000FFFFFFFE00000000000000000000000FB1
:10351000FFFFFFFE00000000000000000000000FA1
:10352000FFFFFFFC00000000000000000000000F93
:10353000FFFFFFC000000000000000000000000FBF
:10354000FF3FF800003E0F80F001F01C03C0000FA9
:10355000E03F0000003E0F80F007FC1C0FF0000E63
:1035600000300000003E0F81F80F1E1C1E380000C6
:1035700000000000003B1B81981C081C1C1C000064
:1035800000000000003B1B81981C001C380000005C
:1035900000000000003B1B839C1C001C3800000046
:1035A00000000000003913831C1C3F1C3800000081
:1035B000000000000039B3830E1C3F1C38000000DF
:1035C000000000000039B3870E1C071C3800000003
:1035D000000000000039F387FE1C071C3C1C0000A3
:1035E000000000000038E38FFF0E061C1C1C0000CA
:1035F000000000000038E38E070FFE1C0FF80000EB
:10360000000000000038E38E0707F81C07F00000F8
:1036100000000000000000000000000000000000AA
:10362000000000000000000000000000000000009A
:10363000000000000000000000000000000000008A
:10364000000000000000000000000000000000007A
:103850000000000000000000C000000000000007A1
:10386000F07FF8000FFF0001E00000000000000FF3
:10387000783C3E00078F8001E00000600000001CE3
:103880003C1C0F000383C000C00000E00000001CCF
:103890003C1C0F000381C000000000E0000000009D
:1038A0003C1C07800381CEF9E1FF81E01F0EF00090
:1038B000FC1C07800383DFFFE3FFC3FE7FDFF80309
:1038C000F01C03800383C7B8E0F1C0E071C7B80003
:1038D000781C0380038F8700E0E1C0E0F1E700007F
:1038E0003C1C038003FF0700E0E1C0E0FFE70000AD
:1038F0001E1C078003800700E0E1C0E0E0070038FD
:103900001E1C078003800700E0E1C0E0E007003CE8
:103910001E1C078003800700E0E1C0E0F007003CC8
:103920003C1C0F0003800700E0E1C0E0F0E7001F4F
:103930007C3C7E0007C00F81F1F3E0F67FCF800F63
:10394000F07FFC000FE01FC3FBFFF0FE3F9FC000B5
:1039500000000000000000000000007C00000000EB
:103960000000000000000000000000000000000057
:103970000000000000000000000000000000000047
:103980000000000000000000000000000000000037
:103990000000000000000000000000000000000027
:1039A0000000000000000000000000000000000017
:1039B0000000000000000000000000000000000007
:1039C00000000000000000000000000000000000F7
:1039D00000000000000000000000000000000000E7
:1039E00000000000000000000000000000000000D7
:1039F00000000000000000000000000000000000C7
:103A000000000000000000000000000000000000B6
:103A100000000000000000000000000000000000A6
:103A20000000000000000000000000000000000096
:103A30000000000000000000000000000000000086
:103A40000000000000000000000000000000000076
:103A50000000000000000000000000000000000066
:103A60000000000000000000000000000000000056
:103A70000000000000000000000000000000000046
:103A80000000000000000000000000000000000036
:103A90000000000000000000000000000000000026
:103AA0000000000000000000000000000000000016
:103AB00000000000000000000000000000000049BD
:103AC0004E56414C49442044415441004D3234202B
:103AD00053256C642054256C64004D3233202573CB
:103AE000004730205A25730047323820583020597B
:103AF00030004730205A257300473932205A257349
:103B0000204525730070776F666620686F6D650AC3
:103B1000000D0A72656164206A6F625263764669BD
:103B20006C654E616D65204F4B0D0A0A00202050D8
:103B30006C616E6E65724275666665724279746517
:103B4000733A20002046726565204D656D6F72796D
:103B50003A2000436F6D70696C65643A204A756C59
:103B600020313420323032300A00207C20417574FC
:103B7000686F723A20284368726973746F70686561
:103B800072204E6F72746F6E2C2076302E33290A9D
:103B900000323032302D30372D313300204C6173FC
:103BA0007420557064617465643A200076302E3359
:103BB0000A004D61726C696E0020536F6674776104
:103BC00072652052657365740A00205761746368DA
:103BD000646F672052657365740A002042726F77C4
:103BE0006E206F75742052657365740A00204578E5
:103BF0007465726E616C2052657365740A00506F53
:103C000077657255700A0073746172740A00617589
:103C1000746F25692E67006572726F722077726902
:103C200074696E6720746F2066696C650A000D0AFE
:103C30000A000D0A204463757272656E745F706FBE
:103C4000736974696F6E20000D0A20536375727278
:103C5000656E745F706F736974696F6E2000456E76
:103C60006473746F7073202563202563202563209F
:103C7000256300205A3A0020593A0020583A00653E
:103C80006E6473746F7073206869743A2000446FB7
:103C90006E6520736176696E672066696C652E0AB1
:103CA000004D3239004368616E67652066696C615A
:103CB0006D656E7400556E6C6F61642066696C6131
:103CC0006D656E74004C6F61642066696C616D6532
:103CD0006E740050726568656174204142530050F3
:103CE00072656865617420504C41004368616E677D
:103CF000652066696C616D656E74004D3234004DEF
:103D0000323320257300556E6B6E6F776E20636FB4
:103D10006D6D616E643A202200496E736572742085
:103D200066696C616D656E7420616E642070726589
:103D3000737320627574746F6E20286F72204D311A
:103D40003038290A0050726F62696E6720666169B7
:103D50006C65640A0050726F62696E672066616903
:103D60006C656400205A3A200020593A20004265D0
:103D70006420583A200053544F505045442E2000A0
:103D80005072696E7465722073746F707065642010
:103D900064756520746F206572726F72732E204691
:103DA000697820746865206572726F7220616E6434
:103DB00020757365204D39393920746F2072657311
:103DC000746172742E202854656D7065726174750B
:103DD00072652069732072657365742E2053657453
:103DE00020697420616674657220726573746172F3
:103DF00074696E67290A0053544F502063616C6CDC
:103E000065642062656361757365206F6620424C4E
:103E1000546F756368206572726F72202D20726511
:103E200073746172742077697468204D3939390A66
:103E300000486F6D652025732573257320666972B0
:103E40007374002066697273740A005A005900582E
:103E500000486F6D65200053442063617264206FD9
:103E60006B0A006F70656E526F6F74206661696CCB
:103E700065640A00766F6C756D652E696E697420D5
:103E80006661696C65640A00534420696E69742038
:103E90006661696C0A0057726974696E6720746F95
:103EA0002066696C653A20006F70656E20666169F6
:103EB0006C65642C2046696C653A20006F70656EF5
:103EC000206661696C65642C2046696C653A200047
:103ED00046696C652073656C65637465640A0020CF
:103EE00053697A653A200046696C65206F70656E8B
:103EF00065643A20002066696C653A2000646F6949
:103F00006E67006672657368004E6F772000454EDD
:103F10004420535542524F5554494E450A002220E1
:103F2000706F73002220706172656E743A220053C4
:103F30005542524F5554494E452043414C4C2074F4
:103F400061726765743A22004B494C4C45442E20FF
:103F500000747279696E6720746F2063616C6C20E5
:103F60007375622D67636F64652066696C65732085
:103F70007769746820746F6F206D616E79206C654D
:103F800076656C732E204D4158206C6576656C20EB
:103F900069733A0043616E6E6F74206F70656E20B6
:103FA00073756264697220006563686F3A005772C6
:103FB0006974696E6720746F2066696C653A2000C9
:103FC0006F70656E206661696C65642C2046696C53
:103FD000653A200044656C6574696F6E206661699E
:103FE0006C65642C2046696C653A200046696C65F6
:103FF0002064656C657465643A006F70656E206658
:1040000061696C65642C2046696C653A20004572D4
:10401000726F723A00453120544845524D414C2050
:1040200052554E415741590042454420544845524B
:104030004D414C2052554E415741590054686572CC
:104040006D616C2052756E61776179000006090020
:10405000FE0701920321207FFF07FF07FF000000FA
:104060000600000107070602008080808080008033
:10407000030202060105A0A0050707060000505034
:10408000F850F850500507070600002078A0702867
:10409000F020050707060000C0C81020409818054A
:1040A00007070600006090A040A89068020303067E
:1040B0000104C04080030707060100204080808083
:1040C0004020030707060100804020202040800593
:1040D000050506000120A870A820050505060001B9
:1040E0002020F820200203030602FFC040800501C3
:1040F00001060003F8020202060200C0C005050521
:10410000060001081020408005070706000070889F
:10411000888888887003070706010040C040404037
:1041200040E0050707060000708808708080F805E9
:104130000707060000F81020100808F0050707061A
:10414000000010305090F81010050707060000F826
:1041500080F008088870050707060000708080F06E
:10416000888870050707060000F808102020202026
:1041700005070706000070888870888870050707A3
:10418000060000708888780808700205050602009D
:10419000C0C000C0C00206060602FFC0C000C0408A
:1041A000800407070600001020408040201005030F
:1041B00003060002F800F80407070601008040200B
:1041C00010204080050707060000708808102000B6
:1041D0002005070706000070880868A8A870050772
:1041E00007060000708888F8888888050707060099
:1041F00000F08888F08888F00507070600007088BE
:104200008080808870050707060000F0888888880D
:1042100088F0050707060000F88080F08080F80528
:104220000707060000F88080F080808005070706F9
:104230000000708880B8888870050707060000882D
:104240008888F888888801070706020080808080B7
:10425000808080050707060000381010101090605D
:104260000507070600008890A0C0A09088050707F2
:10427000060000808080808080F805070706000027
:1042800088D8A8888888880507070600008888C815
:10429000A89888880507070600007088888888889D
:1042A00070050707060000F08888F0808080050709
:1042B0000706000070888888A89068050707060030
:1042C00000F08888F0A09088050707060000788035
:1042D00080700808F0050707060000F8202020205D
:1042E00020200507070600008888888888887005D0
:1042F0000707060000888888888850200507070679
:1043000000008888888888A850050707060000886C
:104310008850205088880507070600008888885044
:10432000202020050707060000F80810204080F82C
:10433000030707060100E08080808080E005050516
:104340000600018040201008030707060100E02056
:1043500020202020E00503030600042050880501EA
:1043600001060000F802020206020580400505056C
:10437000060000700878887805070706000080802E
:10438000B0C88888F0050505060000708080887038
:10439000050707060000080868988888780505055D
:1043A0000600007088F88070050707060000304896
:1043B000E0404040400506060600FF708888780807
:1043C000700507070600008080B0C888888801074C
:1043D00007060200800080808080800308080601B4
:1043E000FF200020202020A04004070706000080B6
:1043F0008090A0C0A090030707060100C040404085
:104400004040E0050505060000D0A8A8A8A80505BD
:1044100005060000B0C888888805050506000070FC
:10442000888888700506060600FFF08888F080807E
:104430000506060600FF7888887808080505050641
:104440000000B0C8808080050505060000708070FF
:1044500008F00407070600004040E04040403005F7
:10446000050506000088888898680505050600008F
:1044700088888850200505050600008888A8A8506F
:104480000505050600008850205088050606060030
:10449000FF888888780870050505060000F8102058
:1044A00040F80307070601002040408040402001FB
:1044B000070706020080808080808080030707064F
:1044C0000100804040204040800502020600026852
:1044D0009000000006000000060900FE0000000039
:1044E0000001090008FE000005080806000040F071
:1044F000C88888987810050808060000C0F88888E1
:10450000888888F80505050600012030F830200568
:1045100008080600002070F820202020E005090986
:104520000600FF2070A8A8B8888870200509090631
:1045300000FFE080C0B0A82830282805090906003F
:10454000FFF8A88888888888A8F8050A0A0600FE67
:10455000205050505088A8A8887003030306000319
:1045600040A04000BC00EC0011241FBECFEFD1E200
:10457000DEBFCDBF00E00CBF13E0A0E0B2E0EEE98B
:10458000F6E802E00BBF02C007900D92A435B10718
:10459000D9F72DE1A4E5B3E001C01D92AA36B20718
:1045A000E1F712E2C3EBD2E200E006C02197010975
:1045B000802FFE010F94B042C23BD10780E0080774
:1045C000A9F70F946D2C0D943E430C940000CF93EB
:1045D000DF9390916F00292F227091FF05C0909179
:1045E0006F009D7F90936F0094E0899FA00111243C
:1045F000FA01E351FC4E6081718182819381222313
:1046000029F020916F00226020936F00EA01C85AC0
:10461000D44F0F94FC38288139814A815B810F94F3
:104620005B39DF91CF910895CF92DF92EF92FF92A5
:104630008091E80B882309F457C0C090E40BD09018
:10464000E50BE090E60BF090E70B20E030E0A901ED
:10465000C701B6010F94F638882309F445C020E05D
:1046600030E040E05FE3C701B6010F945B399B0186
:10467000AC010F945B392BED3FE049E450E40F941B
:104680005B399B01AC0160E070E080E89FE30F9430
:104690008B406B017C01C0926E0BD0926F0BE0924D
:1046A000700BF092710B60911B0270911C02072E2F
:1046B000000C880B990B0F94FC382AE037ED43E28D
:1046C0005CE30F945B39A70196010F945B3960930B
:1046D0001702709318028093190290931A02FF90A8
:1046E000EF90DF90CF900895C12CD12C80E8E82E78
:1046F0008FE3F82ED0CF2F923F924F925F926F921E
:104700007F928F929F92AF92BF92CF92DF92EF9261
:10471000FF920F931F93CF93DF93CDB7DEB76297CE
:104720000FB6F894DEBF0FBECDBF588B4F87DC01AC
:104730008D909D90AD90BC90DB018D919D910D90E1
:10474000BC91A02D8B839C83AD83BE8320E030E0A1
:1047500044E052E4C501B4010F94AE3F28E031E2D9
:1047600044E85CE30F945B390F94F34063300CF43E
:104770001AC162E0E62E660FFF08F7013196F8874E
:10478000EF8320E030E040E251E46B817C818D8159
:104790009E810F94AE3F21E238E042E85CE30F9443
:1047A0005B390F94F34063300CF401C162E0062FD3
:1047B000660F110BC701880F991F880F991F9A83E5
:1047C0008983FC01E950F74E4080518062807380FC
:1047D000FC01E00FF11FEE0FFF1FEE0FFF1FE35074
:1047E000FB4FC080D180E280F380AF81B885AA0FF3
:1047F000BB1FAA0FBB1FBA8BA98BFD01E950F74E57
:10480000A301920160817181828193810F94AE3FF7
:104810006F83788789879A87A3019201C501B401C4
:104820000F94AE3F6B877C878D879E87E989FA89D5
:10483000E00FF11FEE0FFF1FEE0FFF1FE350FB4FC6
:10484000A701960160817181828193810F94AE3FAF
:104850002F81388549855A850F948B402B853C855F
:104860004D855E850F945B39A70196010F94AF3F8C
:104870006B017C011801BFEF2B1A3B0AE981FA8119
:10488000E20DF31DEE0FFF1FEE0FFF1FE350FB4F76
:104890004080518062807380000F111F000F111F34
:1048A000F801E951F74E80809180A280B380E989B8
:1048B000FA89E20DF31DEE0FFF1FEE0FFF1FE3500D
:1048C000FB4FA301920160817181828193810F94DA
:1048D000AE3F2F81388549855A850F948B402B85B3
:1048E0003C854D855E850F945B39A30192010F9441
:1048F000AF3FA70196010F94AE3F2B013C01F101A0
:10490000EE0FFF1FEE0FFF1FE951F74EA5019401B7
:1049100060817181828193810F94AE3F9B01AC01D4
:10492000C301B2010F948B402B013C01A5019401FE
:104930006B817C818D819E810F94AE3F9B01AC0188
:10494000C301B2010F945B39A70196010F94AF3FE9
:10495000AF85B8892D913D914D915C910F945B3954
:104960002091730B3091740B4091750B5091760B25
:104970000F94AF3F62960FB6F894DEBF0FBECDBF67
:10498000DF91CF911F910F91FF90EF90DF90CF902B
:10499000BF90AF909F908F907F906F905F904F905F
:1049A0003F902F90089567FFE5CE60E0E3CE67FF6C
:1049B000FECE60E0FCCE8F929F92AF92BF92CF92DC
:1049C000DF92EF92FF92CF93DF93EC0180904F0B39
:1049D0009090500BA090510BB090520B20E030E023
:1049E000A901C501B4010F94F638882309F452C017
:1049F000C880D980EA80FB80A7019601C501B40177
:104A00000F94F63818160CF04AC02091F904309132
:104A1000FA044091FB045091FC04C701B6010F94C5
:104A2000F638882321F1C092F904D092FA04E0927A
:104A3000FB04F092FC042091F5043091F6044091BF
:104A4000F7045091F804C701B6010F945B399B013C
:104A5000AC0160E070E080E89FE30F94AE3F6093AC
:104A60000702709308028093090290930A026091F2
:104A70000702709108028091090290910A02DF9169
:104A8000CF91FF90EF90DF90CF90BF90AF909F902D
:104A90008F90089560E070E080E89FE3F0CF60E0E1
:104AA00070E0CB01ECCF0F931F93CF93DF9300D037
:104AB0001F92CDB7DEB72091EE112223E9F08C01D1
:104AC000089679DF69837A838B839C83B8016C5F56
:104AD0007F4FAE014F5F5F4FC8010DDE9B01AC0100
:104AE000F80160857185828593850F94AE3FF8014A
:104AF00060877187828793870F900F900F900F9038
:104B0000DF91CF911F910F910895CF92DF92EF9295
:104B1000FF92CF93DF93EC01C090770BD090780B8E
:104B2000E090790BF0907A0BA7019601688179816A
:104B30008A819B810F94F63887FF04C0C882D9828E
:104B4000EA82FB82C0907B0BD0907C0BE0907D0BC7
:104B5000F0907E0BA70196016C817D818E819F81F3
:104B60000F94F63887FF04C0CC82DD82EE82FF828C
:104B7000C0901F02D0902002E0902102F09022020B
:104B8000A7019601688179818A819B810F94D64122
:104B9000181624F4C882D982EA82FB82C0902302CC
:104BA000D0902402E0902502F0902602A701960101
:104BB0006C817D818E819F810F94D641181624F4DB
:104BC000CC82DD82EE82FF82C0907F0BD090800B82
:104BD000E090810BF090820BA701960168857985A2
:104BE0008A859B850F94F63887FF04C0C886D986CE
:104BF000EA86FB86C0902702D0902802E090290226
:104C0000F0902A02A7019601688579858A859B859F
:104C10000F94D641181624F4C886D986EA86FB86F6
:104C2000DF91CF91FF90EF90DF90CF9008955F9A42
:104C30008091CB138E7F8093CB138A9A8091CB1374
:104C40008D7F8093CB138091080180958170809334
:104C500006018091CB138B7F8093CB13129A08951A
:104C6000CF93DF9380E0B3DCC3E3D4E06883798340
:104C70008A839B8381E0ABDC6C837D838E839F83FF
:104C800082E0A5DC688779878A879B87DF91CF914F
:104C9000089580917E0390917F03A0918003B0914D
:104CA00081038093540290935502A0935602B093CF
:104CB000570280917C0390917D0390931E02809314
:104CC0001D0208958091540290915502A0915602C0
:104CD000B091570280937E0390937F03A09380034B
:104CE000B093810380911D0290911E0290937D03E9
:104CF00080937C0384E690E090931E0280931D02D3
:104D000008950F931F93CF93DF9394E0899FE00161
:104D100011248E0104531C4EFE01E352FE4EDE01AF
:104D2000AE51BB4F2D913D914D915C916081718150
:104D3000828193810F94AF3FF801608371838283F6
:104D40009383FE01E956FC4F85919591A591B4910D
:104D5000FE01E958F44F80839183A283B383FE015F
:104D6000ED55FC4F85919591A591B491C15EDD4FB4
:104D700088839983AA83BB83DF91CF911F910F9181
:104D800008959091ED11E92FF0E0E751FE4E8083F8
:104D90009F5F943040F49093ED11809172138F5F78
:104DA0008093721308951092ED11F7CF089590E05B
:104DB00080E0089580E1ECEDF3E1A2EAB3E1019037
:104DC0000D928A95E1F7089580E1E2EAF3E1ACED16
:104DD000B3E101900D928A95E1F708958091310435
:104DE000909132042FEF3FEF981751F0E92FF0E048
:104DF000EF54FC4F208130E09F5F9F779093320407
:104E0000C90108952F923F924F925F926F927F92C5
:104E10008F929F92AF92BF92CF92DF92EF92FF92CA
:104E20000F931F93CF93DF93CDB7DEB76C970FB679
:104E3000F894DEBF0FBECDBF8C015B015A8349835E
:104E4000FC01E95BFF4F2081318142815381298B35
:104E50003A8B4B8B5C8BCA01B9010F94FA386B010A
:104E60007C01D5012D913D914D915C910F945B3961
:104E70000F9475400F94F8404B015C01E981FA8171
:104E80002081318142815381C701B6010F945B3982
:104E90000F9475400F94F84089869A86AB86BC863D
:104EA00029853A854B855C852837310541055105B3
:104EB00040F428E730E040E050E029873A874B870C
:104EC0005C876D837E838F8398874D815E816F8140
:104ED0007885483751056105710540F468E770E051
:104EE00080E090E06D837E838F839887F801ED5A90
:104EF000FF4F4080518062807380C301B2010F94E4
:104F0000FC3869837A838B839C8369857A858B855A
:104F10009C850F94FA386D8B7E8B8F8B988F20E059
:104F200030E0A90169817A818B819C810F94F638E8
:104F3000882309F4E1C1A7019601C701B6010F94C6
:104F40005B394B015C012D893E894F89588DCA011F
:104F5000B9010F945B399B01AC01C501B4010F94F9
:104F6000AE3F4B015C0129813A814B815C81CA01D2
:104F7000B9010F94AF3F9B01AC01C501B4010F947F
:104F80008B400F9475400F94F8406D877E878F8714
:104F9000988B66277727CB016419750986099709CD
:104FA0000F94FC384B015C016D817E818F81988567
:104FB0000F94FA382B013C0120E030E0A901C50133
:104FC000B4010F94F638882309F49AC1A301920121
:104FD000C301B2010F945B39698F7A8F8B8F9C8FDD
:104FE000A7019601C701B6010F945B399B01AC0183
:104FF000698D7A8D8B8D9C8D0F94AE3F6B017C01FA
:10500000A5019401C501B4010F94AF3F9B01AC0110
:10501000C701B6010F948B400F942441D801959697
:105020008D909D90AD90BC909897750164012D85F1
:105030003E854F855889C21AD30AE40AF50A0F94AF
:10504000F840C61AD70AE80AF90AF7FE8EC02D8979
:105050003E894F89588DCA01B9010F945B396B01A4
:105060007C0129813A814B815C81CA01B9010F948D
:10507000AF3F698B7A8B8B8B9C8B20E030E0A90152
:1050800069817A818B819C810F94F638882309F499
:105090003BC1C501B4010F94FA3829893A894B897B
:1050A0005C890F945B39A70196010F94AE3F6D8721
:1050B0007E878F87988BA3019201C301B2010F9461
:1050C0005B399B01AC016D857E858F8598890F9436
:1050D000AF3F2B013C0120E030E040E850E4698123
:1050E0007A818B819C810F945B399B01AC01C30158
:1050F000B2010F948B400F9475402B013C0120E0CE
:1051000030E0A9010F94D64118161CF0412C512C07
:105110003201C301B2010F94F8406D877E878F87FB
:10512000988B86169706A806B90620F48D869E866B
:10513000AF86B88A6D857E858F8598890F94FA38F9
:1051400029893A894B895C890F945B39A7019601BB
:105150000F94AF3F0F941C420F94F840698B7A8BE9
:105160008B8B9C8BC12CD12C760169897A898B8998
:105170009C8929853A854B855C85621B730B840B62
:10518000950B0F94FA3829813A814B815C810F94F9
:105190008B4020E034E244EF59E40F945B390F94E4
:1051A000F8404B015C0169897A898B899C892D8142
:1051B0003E814F815885621B730B840B950B0F94B6
:1051C000FA3829813A814B815C810F948B4020E031
:1051D00034E244EF59E40F945B390F94F8402B010B
:1051E0003C013FE683169104A104B10408F090C08D
:1051F000F401EE0FFF1FEE0FFF1FEB5FF94E8591DD
:105200009591A591B4918983292E3A2EBD8B4FE6B5
:10521000441651046104710408F083C0F201EE0FDA
:10522000FF1FEE0FFF1FEB5FF94E45915591659102
:1052300074919A01CB014D855E856F857889D8017F
:105240009A964D935D936D937C939D974C0D5D1D48
:105250006E1D7F1DF80146A757A760AB71ABE55BDC
:10526000FF4F49855A856B857C85408351836283D6
:105270007383D6968D929D92AD92BC92D997F80188
:1052800042AE53AE64AE75AEFE9649814083218234
:1052900032825D8953833496208331838283938362
:1052A00069897A898B899C89D2966D937D938D9338
:1052B0009C93D5973D962D813E814F8158852083C3
:1052C0003183428353836C960FB6F894DEBF0FBED2
:1052D000CDBFDF91CF911F910F91FF90EF90DF90A5
:1052E000CF90BF90AF909F908F907F906F905F9086
:1052F0004F903F902F90089560E070E0CB0141CE39
:1053000060E070E0CB0188CE60E070E0CB01F3CECE
:10531000C501B4010E941BF06983272E382E9D8B96
:1053200076CFC301B2010E941BF09B0184CF8F9204
:105330009F92AF92BF92CF92DF92EF92FF920F9324
:10534000CF93DF931F92CDB7DEB76C017B0149018C
:105350008091EE045B01A40EB51E8823A1F0F60136
:1053600080819181480F591F518340830F90DF91B5
:10537000CF910F91FF90EF90DF90CF90BF90AF90C3
:105380009F908F900895F601808191810F940B3F3B
:1053900089839091EF04992311F0002311F0F70114
:1053A0008083BE016F5F7F4FC4010F94FC04F60140
:1053B00080819181019691838083FFEFEF1AFF0A2C
:1053C000EA14FB0401F7D2CF80916103909162034C
:1053D000009731F04AE050E070E060E00D9409364B
:1053E00060E070E0CB010895EFDF97FD0AC0ECDFCD
:1053F0006F3F71058105910509F02CF4E5DF862FDB
:10540000089580E008958FEF089580916103909151
:105410006203892B39F0E8DF91E0811101C090E04F
:10542000892F089591E0FCCFCF93209172132430FF
:1054300088F4C62FBC019091ED1120E6929FC00127
:1054400011248F509E4E0F940F438C2F9ADC81E0D5
:10545000CF91089580E0FCCF2F923F924F925F92C0
:105460006F927F928F929F92AF92BF92CF92DF9274
:10547000EF92FF920F931F93CF93DF9300D000D052
:10548000CDB7DEB79A8389830F94C50AA981BA8103
:105490001696CD90DD90ED90FC901997C114D10433
:1054A000E104F10409F010C31C962C911C972223EF
:1054B00009F44DC01A96EC911A9721501C962C9322
:1054C0001C9721E02E0F1A962C931A971D963C914B
:1054D0001D97231302C01A961C92F0E03196EE0F2E
:1054E000FF1FEE0FFF1F29813A81E20FF31FC284D5
:1054F000D384E484F584D9011296CD92DD92ED92A5
:10550000FC9215976C0D7D1D811D911DF90166831F
:1055100077838087918784819581892BC1F0FFB73C
:10552000FD83F894A981BA8112962D903C9013972F
:105530002101712C612C14960D911C9180914202D5
:105540008532F1F08F3F09F497C0FD81FFBF2696A9
:105550000FB6F894DEBF0FBECDBFDF91CF911F9184
:105560000F91FF90EF90DF90CF90BF90AF909F9002
:105570008F907F906F905F904F903F902F90089505
:10558000EEEBF2E3B491BE83B7FDDFCF61E085E2DD
:105590000F940E099E81992321F0AE81A23009F06B
:1055A000BEC14801B12CA12C60E072E18AE790E015
:1055B000A50198010F94733F29833A834B835C8341
:1055C00069017A01B1E0CB1AD108E108F108EFEFE7
:1055D000CE16D104E104F10409F00CF470C160E4CA
:1055E00072E48FE090E0A50198010F94733F690188
:1055F0007A01F1E0CF1AD108E108F1082E812230BA
:1056000009F011C182E03FEFC316D104E104F104B7
:1056100009F00CF4B8C260E970ED83E090E0A501F8
:1056200098010F94733F69017A0181E0C81AD1088B
:10563000E108F10883E09FEFC916D104E104F10409
:1056400009F00CF4A0C268E478EE81E090E0A501D6
:1056500098010F94733F69017A0181E0C81AD1085B
:10566000E108F1089FEFC916D104E104F10411F03B
:105670000CF0FDC084E087C285E280934202EEEB2D
:10568000F2E324912E83822F2F3F09F45ECF223044
:1056900009F469C060F4222381F1213009F445C086
:1056A00087FD53CF61E085E20F940E0976CF3E81EE
:1056B000343009F49AC008F478C0353089F7109274
:1056C00020011092210180912101886080932101A5
:1056D00080912101816080932101E1E1F2E3E49175
:1056E000F0E0EE0FFF1FE854FE4C85919491E7E542
:1056F000F2E3E491E093630349CF14BC15BC84B595
:10570000826084BD85B5816085BDE1E1F2E3E4910D
:10571000F0E0EE0FFF1FE854FE4C85919491E7E511
:10572000F2E3E491E093670331CF1092800010928E
:105730008100809181008860809381008091810048
:10574000816080938100E1E1F2E3E491F0E0EE0F0B
:10575000FF1FE854FE4C85919491E7E5F2E3E49154
:10576000E093660313CF1092B0001092B1008091C5
:10577000B00082608093B0008091B100816080931E
:10578000B100E1E1F2E3E491F0E0EE0FFF1FE85435
:10579000FE4C859194919093DC0C8093DB0CE7E5B3
:1057A000F2E3E491E093DD0CF1CE109290001092C0
:1057B0009100809191008860809391008091910088
:1057C000816080939100E1E1F2E3E491F0E0EE0F7B
:1057D000FF1FE854FE4C85919491E7E5F2E3E491D4
:1057E000E093650383E08E83D1CE1092A0001092E7
:1057F000A1008091A10088608093A1008091A10008
:1058000081608093A100E1E1F2E3E491F0E0EE0F2A
:10581000FF1FE854FE4C85919491E7E5F2E3E49193
:10582000E0936403B3CEAFEFCA16D104E104F104F0
:1058300009F00CF472C068E478EE81E090E0A50114
:1058400098010F94733F69017A01B1E0CB1AD10836
:10585000E108F108EE81EE2309F461C1EFEFCE1605
:10586000D104E104F10411F00CF062C103CF64E251
:1058700074EF80E090E0A50194010F94733F6901FB
:105880007A01F1E0CF1AD108E108F10885E02FEFA5
:10589000C216D104E104F10409F008F474C162E114
:1058A0007AE780E090E0A50194010F94733F6901CD
:1058B0007A01A1E0CA1AD108E108F1084BC181E0E0
:1058C000AE81A11160C195B5987F892B85BD2FEF61
:1058D0003FEFA90145284628472809F059C0BE8155
:1058E000B23009F4E1C00CF0C8C0BB2309F4CDC04C
:1058F000B13009F02ACED0928900C092880020935E
:10590000740330937503409376035093770380912B
:105910006F00826080936F0018CE82E0D1CFB12CEF
:10592000A12C60E072E18AE790E0A50198010F9454
:10593000733F69017A01B1E0CB1AD108E108F1089F
:1059400091E0C114D104E1E0EE06F10484F068E4D2
:1059500078EE81E090E0A50198010F94733F690112
:105960007A01F1E0CF1AD108E108F10893E02E8125
:105970002130D9F480918100887F892B8093810028
:105980002FEF3FEFA90145284628472809F4B3CF58
:105990009801220F331FD1010F949F3F28EE33E06F
:1059A00040E050E00F94513F9ACF3E813330F9F4FC
:1059B00080919100887F892B809391002FEF3FEF9A
:1059C000A90145284628472819F7D0929900C09286
:1059D00098002093700330937103409372035093A7
:1059E000730380917100826080937100AECD8E81CF
:1059F0008430F9F48091A100887F892B8093A100E5
:105A00002FEF3FEFA90145284628472809F6D092F5
:105A1000A900C092A80020936C0330936D034093BB
:105A20006E0350936F0380917200826080937200C6
:105A30008CCDAE81A53009F04ACF80912101887FBD
:105A4000892B809321012FEF3FEFA901452846289C
:105A5000472809F09DCFD0922901C09228012093B8
:105A600068033093690340936A0350936B038091FA
:105A7000730082608093730068CDEE81E43039F268
:105A80000CF4A3CFE53039F360CDC7BC2093780385
:105A90003093790340937A0350937B0380916E0097
:105AA000826080936E0051CDC092B3002093DE0CD3
:105AB0003093DF0C4093E00C5093E10C8091700028
:105AC00082608093700041CD6C197D098E099F0919
:105AD00097FD3DCD4098A981BA8116961D921D92E1
:105AE0001D921C92199733CD84E0EFEFCE16D104AE
:105AF000E104F10409F008F4E6CEC980DA80EB8015
:105B0000FC809AE0F594E794D794C7949A95D1F7DE
:105B1000B1E0CB1AD108E108F10885E0D4CE83E0EA
:105B2000BFEFCB16D104E104F10409F00CF4CBCEA5
:105B300062E17AE780E090E0A50194010F94733F61
:105B400069017A0181E0C81AD108E108F1089E8153
:105B5000992351F286E02FEFC216D104E104F1043B
:105B600091F088F0C980DA80EB80FC808AE0F594BF
:105B7000E794D794C7948A95D1F7F1E0CF1AD1086A
:105B8000E108F10887E09091B100987F892B80931C
:105B9000B1009DCE8091610390916203009731F036
:105BA0004AE050E070E060E00D94363760E070E06D
:105BB000CB010895CF93DF9390916F00292F22702E
:105BC00091FF05C090916F009D7F90936F0094E0CE
:105BD000899FA0011124FA01E65CF44F6081718174
:105BE00082819381222329F020916F0022602093EB
:105BF0006F00EA01C85AD44F0F94FC3828813981CC
:105C00004A815B810F945B39DF91CF910895CF92E8
:105C1000DF92EF92FF920F931F93CF93DF9300D009
:105C20001F92CDB7DEB72091EE112223F9F08A0141
:105C30006B017C01CA010E94DB2469837A838B8318
:105C40009C83AE014F5F5F4FB601C7010E947B236B
:105C50009B01AC01F80160817181828193810F9475
:105C6000AF3FF80160837183828393830F900F901D
:105C70000F900F90DF91CF911F910F91FF90EF90B8
:105C8000DF90CF90089580916F00982F927081FFE0
:105C900005C080916F008D7F80936F001092C60CBD
:105CA0001092C70C1092C80C1092C90C992329F0BD
:105CB00080916F00826080936F0008951092730B43
:105CC0001092740B1092750B1092760BEDEFF4E0BE
:105CD00080E4DF011D928A95E9F708958091FB0C1D
